:10000000000000060000000000029290DC050020C5
:1000100051670200CD670200E967020057490200FC
:10002000BB49020021490200FFFFFFFFFFFFFFFF66
:10003000FFFFFFFFFFFFFFFFF97A020001680200E8
:10004000FFFFFFFFFFFFFFFFFFFFFFFF094A020067
:1000500081790200BD490200BD490200BD4902008C
:10006000BD490200BD490200BD490200BD49020070
:10007000BD49020000000000000000000000000078
:100080000000000000000000000000002DE9F04F1B
:10009000ADF11C0D25F098FF7D497E4E0C787E4A0F
:1000A000FF2301943768029313700B7025F0B0FFA3
:1000B0007A49FF2C086800F10100086078494FF484
:1000C0008000086003D00120394605F079FC754DA9
:1000D0004FF00004B046287800B3D8F800104878F4
:1000E00091F83E1008F0E8FCC0B1D8F80010C868DC
:1000F0004268107900F00C0004280FD00094487872
:1001000091F83E10528B1311012204F005FED8F82D
:100110000010487891F83E1002F03CFA2046039017
:10012000214628700D201AF017F9012006F071FB06
:10013000061C02D0F0684068001D5B495B4ADFF88E
:100140007CA1049109680592DFF86C91002944D0E4
:1001500026B1007820F00300E42803D00598007849
:1001600001283AD152480068B0F5B07F35D970788F
:10017000FF2808D0C10101EB40014E48405C042833
:10018000069002DC02E00298069001BE032005F012
:100190008AFD0546C9F80050069815F009FD4FF094
:1001A000010B0BFA00F1C1F31011090185F82400CD
:1001B00002D100B15C4600E004245046047003986C
:1001C000E882E868416806980E3127F056FC4846F8
:1001D0000168584605F064FE5C46019894280FD1EA
:1001E00097F83E10F8684268107920F003008428E0
:1001F00004BF908A011378784FF0FF3204F042FC7C
:1002000025F0E2FE834648462D4D02685046002CFC
:10021000017804BF2968039C0AD00120286092F865
:1002200024200298039C234602F0DAF921462C6030
:100230000598D8F80070027862B9D1B197F83E00FD
:10024000214951F820001F49085C214605F010FDA6
:100250002C600EE0039901702C60052005F023FD51
:10026000B84204D1D8F80000214620F0A0F8286850
:1002700038B926B1B078072804BF0620B0700498BA
:100280000460584625F0C4FE07B0BDE8F08FC046B4
:10029000DF940020B8940020DD940020987D0200B7
:1002A0006C043080C09A0020CC940020DC940020A4
:1002B000C0940020C33B0020B0940020E2940020B2
:1002C000D0940020601C00207C9E00202DE9F04F7F
:1002D000ADF1280D24F079FB7E4D834695F81890FA
:1002E00025F04BFE002109900F46AA464FF0010869
:1002F0000C46D5F89020D5F88CC03E46384608FA12
:1003000000F31CEA030F0AEB800307D0DD6A2943E0
:100310005D6C2F43DD6D2C435B6F1E43401C062834
:10032000EDDB114002EA070702EA040402EA0606CE
:100330005FD127F0EBF8002858D13C434FD1664CF1
:10034000002727606946404608F0D8FA0098182828
:100350000CD040462060694603A807F031FC0498A1
:1003600008900398079007A824F02CFC206870B12F
:1003700024F088FB58B907F0D0FAFF2844D00BF0DE
:1003800089FE011C40D0C91E01293FD82BE022F074
:1003900039FD4E48D0F8981009B146F080760168D2
:1003A00009B9406808B146F40006BBF1050F18BF53
:1003B00046F080566EB9206828B1206848B13846AA
:1003C00024F099FB28B1B8F1000F02D00CF078FEB0
:1003D0001DE040460CF0CEFC0CF0ECFF16E0002FC8
:1003E00014BF032004200CF0ADFD0FE04FF0000718
:1003F0000DE04046B9F1030F1CBFB9F1040F002016
:100400003C4318BF002801D10CF0B9FD47469AF8CB
:10041000180020B9BBF1050F01D10CF0E7FF2C4803
:10042000007810F0240F05D127B1BBF1050F01D1E1
:1004300025F002FE099825F0B0FD0AB0BDE8F08F66
:1004400070B566201CF03CFE24494308254C0A6820
:1004500023490CD2800820D300220846027025F0E0
:100460008CFD0546052119200CF0DBFF12E001266A
:10047000084606701C48C438006890622021204657
:100480008430016025F079FD0546052231461920AA
:100490000CF0E2FF284625F080FD4FF08040206000
:1004A00070BD30B525F069FD05460CF023FD0F4CFD
:1004B000207E012806D1607E0CF080FC0CF022FD2D
:1004C000607E2076284625F068FD30BD54043080DB
:1004D000889200205C7400205CA2002010A0002004
:1004E0007874002070043080245630805C740020C2
:1004F00079487A4A70B5016810687A4C00F10100B9
:100500001060A06828B14FF00070626C106000208D
:10051000A0600029724D6BD194F8220038B9218F68
:10052000E06940684018001D04F1400110E0E069F6
:100530004168208F4018001D04F14001042226F07C
:10054000CAFCE069218F40684018083004F13C0182
:10055000042226F0C0FCE1690868E0B1E08C401C90
:10056000E08404F12C00228F0989891AA28C891A4F
:10057000091F89B214F0F0FEE0690068E0610068CC
:1005800018B94FF0000084F8280000200146024608
:100590001BF06AFD70BDD5F81001401CC5F81001B4
:1005A000A069C1684FF0007610E04A685B68106887
:1005B000C3F35215854207D0E16112F0F1F902460A
:1005C0001068E1698542F8D1166009680B68002B54
:1005D000EBD1E161A2690020906092F84330918DE7
:1005E000C91A918582F84300022025F0F1F970BD07
:1005F0000120A169C870D5F80401401CC5F80401A8
:1006000070BD3948364B70B50168D3F80C01354CD4
:1006100000F10100C3F80C01204600F11000006851
:1006200041B1D3F8001101F10101C3F800114FF0FD
:1006300004014170E1680A68C2B9D3F8082102F1E7
:100640000102C3F8082194F858203AB900224A6000
:1006500041880069818027F05EF870BD237D0A899A
:10066000D21A121F0A8115F0C6F970BD94F858000D
:100670004FF0000520BB4D6004F14800B4F8502055
:100680000989891A89B214F067FEE0680668A06CCF
:10069000E66003E0084612F083F9E6680168226923
:1006A000B4F85030B1F1007FF4D17168C1F3521148
:1006B0000160518830894018C01A5080284606E0F1
:1006C000237D0889C01A001F0881E26000200146CE
:1006D0001BF07EFD70BDC04604183080C87D02004E
:1006E000B47C0200408F0020041930802DE9FE4FB9
:1006F000674E664C3068256813F077FF00285DD19F
:10070000B04655B963480068C0B2634A1168411ADF
:10071000C9B221601060002947D06248DFF880A18B
:100720005E4F019025F029FC0290D8F800502D1D55
:10073000284613F045FE06462068401EB18D206015
:1007400096F84300884200DB01BE95F802B0584697
:1007500012F0E7F910F100092CD0C6F8089026F045
:10076000A2FC386896F83F106B465A46401C386029
:10077000484612F00DFCA87896F83F10814200DD43
:1007800001BE009AA0EB0100C0B2C8F80020019998
:1007900028B10A6896F83E105AF82110904702983E
:1007A00025F0FBFB20680028BCD10A2025F072FD53
:1007B000BDE8FE8F01BE029825F0EFFBBDE8FE8F7D
:1007C000394802683948016829B1510803D200212B
:1007D000016013F01BBF70473649354B2DE9F04FD0
:1007E0000A6853F8B40C7AB1801A1C68324A844201
:1007F0002EBF146010601860304A13688342B8BF7F
:1008000010604FF0000008602D4C206858B92D484A
:100810000168C9B22C4B1868081AC2B2101C1960C2
:1008200008BF22602DD04FF000092A4E284F4FF00C
:10083000007ADFF898803968401E491C20603960D2
:1008400013F007FF051C06D1D8F80000401CC8F8BB
:10085000000001BE12E025F090FB83463068401C8A
:10086000306068694068C0F800A06869C0F804900A
:10087000284627F0A8F8584625F08FFB2068002866
:10088000D9D1072025F006FDBDE8F08F1490002097
:1008900010900020A80830800C9000203C7D0200C1
:1008A0007C9E002000A00020744430802090002016
:1008B000145630803C90002038900020F48F0020A7
:1008C00018900020A4083080F88F002008900020A5
:1008D000C87C020004900020F0B50025ADF1300D79
:1008E000029525F04AFB06465A4C5B494FF480704E
:1008F00084F80151086002A807F078F902980028EE
:1009000000F0A28094F80001401C84F800010298D5
:10091000007E07F0E2F8091C03AA82E803000298AF
:1009200001AA294607F0E7F80028019801D13228EA
:100930003CD8029805A9C769B0E80C50A1E80C5052
:1009400090E80D0081E80D00304625F026FB0A9B5B
:1009500005980699019A984725F00FFB064646E050
:10096000029801AA322107F0C6F80028029821D483
:1009700002A807F03BF9029905A8B1E88C10A0E89D
:100980008C1091E80E0080E80E0001AA294605A807
:1009900007F0B1F800289DF82C0007D007F09DF86B
:1009A000091C03AA82E8030032200190019807F095
:1009B00042F944E0007E07F090F8091C03AA82E89F
:1009C00003000298C76905A9B0E80C50A1E80C50D3
:1009D00090E80D0081E80D00304625F0DEFA0A9B14
:1009E0000699019A0598984725F0C7FA06463846B1
:1009F00008F045F8012807981BD120B93846294648
:100A000007F0ACFA15E03846294607F0A7FA05A822
:100A100007F064FB94F800013A466946401E84F8EA
:100A2000000105A807F06CF994F80001401C84F857
:100A3000000102A807F0DAF80298002890D194F893
:100A40000001401E84F80001304625F0A6FA0CB0E3
:100A5000F0BDC04658710020700430803F482DE939
:100A6000FC41001D006810F0060F00D001BE3C4C98
:100A7000394FA18AB1B1A06900903888ADF804005F
:100A8000E268908D814200DB01BE92F84320801A1B
:100A9000401A81B2684614F05FFC684614F0B8FC56
:100AA000BDE8FC81E16891F84320888D801A888533
:100AB000002581F84350C9684FF0007811E04A687A
:100AC0005B681068C3F35216864207D0216111F0AB
:100AD00067FF0246106821698642F8D1C2F800809B
:100AE00009680B68002BEAD1E06885602561E56044
:100AF0003D60A08A00B101BE022024F069FFBDE87C
:100B0000FC8117480CB5016801B901BE154A13688C
:100B10005B0800D301BE126812F0060F00D001BEC0
:100B200042688AB1086900900420ADF80400488842
:100B3000103081B2684614F00FFC009800B901BE75
:100B4000684614F086FC0CBD4A8809698A80002139
:100B5000016026F0E0FD0CBDC0A000200444308000
:100B6000A4A000202C4430803348F0B500684068D1
:100B7000143026F0A5FD31490746324C086800F1D3
:100B80000100086021684FF0180019B107F02BFA36
:100B9000002020602C4C2D480025A26894300321B1
:100BA0005560036801606168254E4878202810D0A0
:100BB00013F0030F04D138461EF0F8FDA26808E0D8
:100BC000D6F8540100F10100C6F854014FF00400BA
:100BD0004870106858B9D6F85C01401CC6F85C0132
:100BE000606841880069818026F095FDF0BD04F1C0
:100BF0001000238B1189C91A89B214F0ADFBA068CB
:100C000006682069A66003E0084611F0C9FEA668E0
:100C100001686268238BB1F1007FF5D17168C1F37F
:100C200052110160518830894018C01A50802846FE
:100C300001461EF03FFEF0BD609C0020187E0200C1
:100C4000B47C0200749C0020589C0020101430805A
:100C50003CB5294D2868400A1ED2284C206881687E
:100C600021B1091D90F84300401802E0C0684068B7
:100C7000001DA28E04F1140126F02DF9286A0090BF
:100C8000218A686AE2686B46019008201FF03CFAEE
:100C90002168888D08308885012024F099FE3CBDAC
:100CA00030B5174D154CD5F86801A28F401CC5F81A
:100CB0006801A06B04F13E0126F00DF911491248BC
:100CC00020310A6803689A420BD149684068814222
:100CD00007D1A06B26F0F4FC6168A2681DF066F9EC
:100CE00007E0D5F86C016168401CC5F86C01102064
:100CF000487026F0A0FE30BD001C3080248E0020FD
:100D0000B47C0200281C3080DCA200201B4910208B
:100D100008607047234800B54FF0806100F104007F
:100D2000016021494FF0010008601548007818B3B0
:100D30001449086800F1010008601348007808B100
:100D400010F086FC20F08FF91148104900680880E7
:100D5000114988680F4A00F00700107008680022E7
:100D60000E49400F00F0030008700220152122F008
:100D700055FC0B490020086000BDC046700430805F
:100D8000189A0020947D0200EC970020FC87002038
:100D900028953C80E0870020BC0E3180E187002050
:100DA000D49A00206C043080D89A002022494FF059
:100DB000807000B5086021490868401C08600BF08D
:100DC00037FF062025F066FA00BD38B51C4D4FF6FA
:100DD000FF74A86C00900098844209D0009801F03C
:100DE0006AFBA86C009000988442F7D1012000E0D3
:100DF00000202968009100998C4201D1B0B938BD1A
:100E0000009840F00100009000988008C0B21FF0E8
:100E10004FFF18B1816A41F400218162009801F00E
:100E20004AFB2868009000988442E9D102484FF0BC
:100E300080710830016038BD70043080187D020078
:100E40005C4E308030B540F66E401CF039F90446F7
:100E500040F66C401CF034F9104A40EA0441146832
:100E600001250D4A0C404FF48061116010E0B4FA86
:100E700084F1C1F11F0105FA01F18AB2803924EA37
:100E8000020418BFB1F1800102D1002023F0CAFE94
:100E9000002CECD130BDC0466C04308038A000205E
:100EA00030B525F06AF80021084A094B094D117048
:100EB0001A782D689401C2F1010229511A7025F0A7
:100EC0006CF80D2025F0E6F930BDC046A0A3002047
:100ED000A2A3002098A300200549022000B50860C5
:100EE000042025F0D7F9002025F0D4F900BDC04634
:100EF00070043080024901200860182025F0CAB92A
:100F00007004308002494FF40010086018F040BEB1
:100F1000700430800C2025F0BDB900002DE9F04FA1
:100F2000ADF1240D8346DBF8040091F863806C4931
:100F3000143008600178D0290BD1017E032908D133
:100F4000417E684A022900F09880012900F11A00C8
:100F500001D00120C1E010F8011B30F802AB30F8DD
:100F6000027B0088BC108DF80010ADF802007810EC
:100F700004F00F0400F00100082C814680F2A980E3
:100F800040460C2800DB01BEC10101EB400101EB32
:100F900084011046405A00F007001646012806F169
:100FA0002C06A6F12C0540F094802146404603F023
:100FB000A3FDBAF1000F3BD1B9F1010F38D12146A1
:100FC000404608F0D2FB1F2800F08380214601AA8A
:100FD000404604F03BF8BDF81E00B911CFB287427D
:100FE00007DA3A464046214603F00CFD3846ADF894
:100FF0001E0041460C2900DB01BECA01C3B202EB50
:101000004102084602EB44022146B25A03F08BFF2C
:1010100041460C2900DB01BEC80100EB410000EB9A
:101020008400295A21F0070141F00301295250E0C0
:10103000404607F010FE252100F15C02ADF82210B9
:101040000123210308A841F40061ADF820104146B6
:1010500003F0F9FB41460C2900DB01BEC80100EB9F
:10106000410000EB84004FF6F8712A5A11402952D2
:101070002146404603F057FC2BE0408B0113000B48
:1010800013D2082925DA40460C2800DB01BEC30133
:1010900003EB400303EB8103D05A10F0070018D094
:1010A0000122404603F053FC13E0082911DA4046C0
:1010B0000C2800DB01BEC30103EB400303EB8103FB
:1010C000D05A001200F00700022802D1404604F076
:1010D000A3F8584611F03DFE002009B0BDE8F08F9E
:1010E00008A300206D3B00202DE9FC4F05466C68ED
:1010F0002069261D94F806B01434070E20780B2FB3
:1011000020F00300814607D9204607F0B3FE0746CA
:10111000F06867F31F60F060384606F08DFA0090C3
:10112000384606F083FB82463AF00400019004D171
:10113000306840F40000306000E030684FF0000894
:10114000C00C07D209F00C00082803D1B6F9000042
:1011500011F068FEBAF1040F009801D10DF0C0FD46
:101160003088C5F80CB02881284617F05EFAB9F12E
:10117000400F11D185B1BAF1020F07D0BAF1050FB6
:1011800004D0BAF1010F18BF002F05D128461EF078
:1011900022FD002840F0B480F068BAF1020F67F336
:1011A0001F60F06018BFBAF1050F02D1F8B21BF052
:1011B000C1FE5FFA87FB584607F04DFD009061784D
:1011C000480828BF201D05D288082CBF04F10A005A
:1011D00004F11000974924F03AFF002840F0908075
:1011E000B9F1500F0CD0B9F1800F09D00099284601
:1011F00017F013FFF168000200F480700843F060FC
:10120000BAF1020F4046286018BFBAF1050F03D1AA
:10121000384621460AF018F8207800F00C0008281B
:1012200035D16078E18A00F0040001F00F0101433C
:101230002DD02146284618F011F805466078C008E0
:101240000ED2207820F07300882806D1208B400928
:1012500003D3E08A4FEA2010C7B2C5B9BDE8FC8FBE
:10126000019800284FD1F06801233146020A02F0AC
:101270000102204613F0D4FEF06801233146020A31
:1012800002F00102204616F023FCBDE8FC8F009915
:101290002846FFF743FE002835D02846314625F082
:1012A00083F900282FD0607800F00300032809D0CC
:1012B000F068400A06D211F092FF10F100081FD02A
:1012C00088F800B0B8F1000F1AD0C8F81450696857
:1012D000488DB7EB201F08D1087D20F073008828C7
:1012E00003D1888D40F010008885404618F05AF8E8
:1012F000404617F047FF404626F069FBBDE8FC8FEB
:10130000284611F026FDBDE8FC8F2DE9F04F4A4D2F
:10131000D5F8DC00401CC5F8DC0048480078ADF189
:101320001C0D24F0E8FD684624F096F8009C002C83
:101330007DD005957E200690DFF80481414DDFF8D1
:1013400008912069800B00F00100824604A81FF07C
:101350001BFA261D0DF10F001FF0FEF9304617F0A5
:10136000F5FF01A922F071F9E17AC01040B200291D
:1013700008BFA07202D0801D40B2B07110F1220FE0
:10138000DABF1F3840000698F071204611F0D2FEF7
:101390008346204611F0BCFD30680027400C12D374
:1013A000BAF1000F0CD114342046314624F00EF867
:1013B000BBF1000F04D018B95846FFF795FE01277E
:1013C0003068400C0DD2D8F80000401CC8F800006E
:1013D00028686FF30F0028602968D8F800000843D8
:1013E0002860BAF1010F0FD1D9F8000000F1010017
:1013F000C9F8000028686FF31F402860D9F8001072
:10140000286840EA014028605FB9BBF1000F02D0B4
:10141000584611F09EFC0599D1F8A800401CC1F86F
:10142000A800684624F018F8009C002C89D107B069
:10143000BDE8F08FD4200020B47C0200D7910020BA
:1014400000A30020884E308004A300202DE9F04F37
:10145000DFF8A0A1ADF1480DDAF80000002840F057
:10146000C480DFF894B16FF00040CBF80000634D0A
:1014700001200E90286024F080FD4FF000090F90AD
:101480005F4CC846CDF840904746264611955D46CC
:10149000D346DDF838A0B168304688473068022866
:1014A00000F0A080012807D1308A28B90AFA07F095
:1014B00040EA08001FFA80F87F1C18360C2FEADB80
:1014C0000F9824F06AFDCDF83CA04E4F4E461FE029
:1014D0000499059A0CA824F09EFB9DF81C0006F0C8
:1014E000FCFA089008AA081C09900CA90AA824F084
:1014F000CAFB2968080100EBC100201841690AA84D
:1015000024F0F7FB002842DD286800F1010910965D
:10151000386820B11098014620F02CFE3E606846E5
:1015200022F0B3FE48460C2848DA0F99814018EAA9
:10153000010F09D0010101EBC0010B1961180A79F3
:101540009DF80010914203DB401C0C28EDDB35E0D8
:101550002860187901A907F0D1F90198182816D048
:1015600029684FEA011000EBC10004EB00012044A0
:10157000408A10B147F23050109003980028A7D04D
:101580004969109A51188842A2D811980660684695
:1015900022F07BFE28689DF80020010101EBC001CC
:1015A00061180B799A4220DA498A59B902DF296811
:1015B000080100EBC1002418E06880470E200CF001
:1015C0003CF812E00E98CBF800000E200CF040F82A
:1015D0002968080100EBC10024180548618A20F041
:1015E000C9FD02E00F9824F0D8FC12B0BDE8F08FDE
:1015F0009F420200ACA10020B4A10020B8A10020AD
:10160000206F0020B0A100202DE9FF4F012018F02D
:101610005DF9002018F05AF924F0AFFC04460CF0F4
:1016200070F838B9504800210CF018F8204624F022
:10163000B4FC96E0204624F0B0FC4D48DFF838A119
:1016400000904C4F0820D3460190072002904B4851
:10165000DFF818810426039018F8010D04F049FF03
:10166000002879D130461EF0E3FE8146B9F1FF0F24
:1016700056D130461EF06EFF8146B9F1FF0F6BD098
:101680001EF0BEFF484616F0E8FA0546288E841084
:1016900095F83D0021F0F6F804F00704A0423AD195
:1016A0006878009938B9097829B948461FF00CFBC9
:1016B00000282BD168780C28014600DB01BECA0146
:1016C00002EB4102B95C012908D00C2800DB01BE05
:1016D000C10101EB4001785C03280CD1E87838B9EE
:1016E00048461FF005FBD8B9284605F05AF817E020
:1016F000DAF8000013E0E8684068001D0178C029AE
:101700000ED0A0290CD003F009FA48B90199DAF8F3
:101710000000E97003E00298E870DBF80000E8617F
:10172000484616F09AFA8178062902D0072900D097
:1017300001BEC06800B901BE042E09D100200BF023
:10174000C7FF0128039803D10078012800D101BE0A
:101750003146484617F049FE761EB6F1FF3F7FF44A
:101760007BAF0090BDE8FF8FC9930100651C00208E
:1017700088920020603B002060553080946A0020F1
:101780002DE9F047504D2868002125F053F816F058
:1017900064FA0A2604460EE0286825F08EF82860D0
:1017A000204624F0A1F9A6702868002125F042F80F
:1017B00016F053FA044614B1A0780928ECD06868F2
:1017C000002125F037F8824616F047FA3F4F0646CB
:1017D00068E050461FF078FA8046B06820B1001DDE
:1017E00096F84310091802E0F0684168091D707806
:1017F000022207F095FAB8F1000F014609D03046F1
:1018000024F05DFF18B924F0C7F9BDE8F08724F093
:10181000DFF96868002125F041F8686825F04DF887
:10182000686050461FF064FA002408B14FF00104CC
:1018300014BB96F83D90747850461FF04DFA40B9AD
:10184000D7F88000401CC7F88000304621F0FAF934
:1018500004E0D7F88400401CC7F88400304607F045
:10186000CFFD30461FF050FA21F0E2FC22464946F7
:1018700001200BF014FF08E0F86F401CF8673046B9
:1018800007F0BEFD30461FF03FFAB8F1000F01D05F
:1018900024F004FF6868002124F0CCFF824616F093
:1018A000DCF9064616B1B0780A2892D008480178CB
:1018B00041B14FF0000101700648006810B10820E6
:1018C00024F0E8FCBDE8F087BC860020B47C020070
:1018D000A4A20020A8A200202DE9FE4FDFF81C8161
:1018E000474DD8F8BC00401CC8F8BC002868002848
:1018F00040F082804348046800904FF0000BDFF80E
:10190000089142480190584602901AE0296807E081
:10191000486942680A61C0F804B048690089488093
:10192000084626F060F899F8000040B1484680F873
:1019300000B00198006810B1082024F0ABFC0298B8
:101940002860002C58D094F82200042854D16069F3
:10195000466814362078029A314607F0E1F90746C6
:101960007078C0090DD3307810F00C0F09D047B94A
:10197000607840F008006070D8F8FC00401CC8F89F
:10198000FC002146296000988C6804604878002893
:10199000BED1002F2BD0D1F814A0304625F049FE3F
:1019A000BAF808101039884220D23A782968521EB5
:1019B000012A13D9921E09D0521EB1D108463946C8
:1019C00014F0B8FD0128A1D0BDE8FE8F08463946C5
:1019D0001DF070FF012899D0BDE8FE8F08463946FA
:1019E0001AF0F6FB012891D0BDE8FE8F2968084661
:1019F00014F001F8012889D0BDE8FE8FB47C020004
:101A0000BCA30020C0A30020D3910020A8A20020E6
:101A10002DE9FC4F3D4D286800286BD136480468FD
:101A20003649D1F8008000918346DFF8D490354FD5
:101A30000CE03C60A468CBF80040304625F030FF55
:101A4000304625F0C0FF072024F024FC3048002C4D
:101A5000DFF8B4A0019034D094F82200264607287D
:101A60002FD12E6001983269D038D0F8CC101432C2
:101A7000491CC0F8CC101178402902D1816A491C58
:101A800081623868864208BF99F8000006D0204677
:101A900025F0E1F82E6889F800003E600028C8D0E3
:101AA000304624F065F950460168286888470028C8
:101AB0004FF0000004D13C60A068CBF8000000E0CB
:101AC0002860B8F1000F15D098F82200072811D12E
:101AD000C5F800800198001F0168491C016050464C
:101AE000016840468847002806BFD8F80800009DD6
:101AF00000202860BDE8FC8FBCA20020C0A200200E
:101B0000C8A20020C4A200200CA00020B8A200207F
:101B1000847D02002DE9FE4F344C4FF00008A06890
:101B2000002861D13348009001200190DFF8C8906F
:101B3000DFF8BCA0CDF8088018F1000105D0491EDF
:101B400004BF04F1100502270EE004F10C05032781
:101B50000AE02868394624F0A1FE286824F0ADFE8A
:101B600028602168304688472868394624F062FE9C
:101B7000FF2825D01FF09CF8064696F83E005AF83C
:101B800020B0F0780028E4D1A06800B101BEA660C2
:101B900096F83F00594623F05AFF009801683046F6
:101BA0008847A0B90198032F01D001BE01E089F850
:101BB000000096F83F10584623F034FF0298A060CA
:101BC00008F10108B8F1020FB6DBBDE8FE8F032F64
:101BD000029801D1494608702868394624F05EFE13
:101BE000286824F06AFE2860BDE8FE8F6086002029
:101BF0007C9E0020F09F0020A1A000207EB52F4CED
:101C0000103C94F83D0005F068FF94F83D0004F0A6
:101C100060FF264A06462368516830789B7D12682B
:101C200005DF0B2025F0CDFF2420207520683178BA
:101C30000025807D0529657720771D48256200886D
:101C40004FEA8020A084204604D0717C002908BF80
:101C5000112100D01221A16194F83D102A461430C0
:101C60008DF800101349134604F05AFA012805D0E4
:101C700025611CF0F9FC0F2024F00CFB24F07DF909
:101C800006460D48007860B12068007894F83D1051
:101C900003DF94F83D0029468DF8040001A805F003
:101CA00037F8304624F079F97EBDC0461C4C3080B0
:101CB00034A40020EBE60100F0A3002004950020EE
:101CC000F0B52B4C002504F11C073868002846D1DC
:101CD000206A012124F0AEFD15F0BFFF064637E073
:101CE0003E60206A24F0E9FD2062F078002824D1CB
:101CF000B06820B1001D96F843502D1802E0F0683E
:101D000045682D1D6878C00917D3284625F091FC39
:101D100096F84320B18D891A88420EDA7078022233
:101D2000294606F0FDFF011C07D00878022804D1DF
:101D300030461EF002FA012818D1616938688847D8
:101D4000206A012124F076FD15F087FF0125064663
:101D500016B1B0780328C3D04FF0000038602DB121
:101D60000448006810B1082024F094FAF0BDC04681
:101D700060860020A8A200202DE9F84F24F0FDF88D
:101D800000902748254900680860012021F01DF8CF
:101D90004FF0E80B4FF0070A4FF00078214E4FF05C
:101DA000000927E011F035FA071C00D101BE11F03F
:101DB00047FA051C00D101BEF4682068B0F1007F2D
:101DC00008BF404601D010F0EBFDF060C4F8008081
:101DD0002C616F617C6085F822A085F82490A5F8BD
:101DE00002B0206920F07F4040F0794020610B2054
:101DF0000BF02EFCF068B0F1007F02D071698142D7
:101E0000D0D1009824F0C9F8032024F043FA86F8D2
:101E10002190012020F0D2FFBDE8F88FA49200208D
:101E200060553080A89F00202DE9F043244C04F138
:101E300030073868002841D1224D287800283DD14C
:101E4000606B012124F0F6FC15F007FFA9464FF066
:101E5000000806461C4D2BE03E60606B24F02DFD13
:101E60006063F07880B9304613F046FB022803D057
:101E700001280CD0BDE8F083012089F80000606BD8
:101E800024F0E3FC606317E0304613F01FFBA16A07
:101E900038688847606B012124F0CCFC15F0DDFE2A
:101EA0000646287820B185F80080012024F0F2F958
:101EB00016B1B0780428CFD040463860BDE8F08332
:101EC00060860020A4A20020D491002030B50BF041
:101ED00018FC002831D01C4C207850B11B4D2878BC
:101EE00002DF1B4928780978002208F059FB0020FE
:101EF000207022F056FA0446124801681748022959
:101F00000BD00078164909780DF0A8F8114A002383
:101F10001178137008430DD009E000F10C0000782F
:101F20004FF0010118B920461AF0E2FA02E020460B
:101F30001AF0CEFA1AF012FB30BD074800210BF060
:101F40008DFB30BD709900204699002047990020F4
:101F500048990020499900207BC40100A89B0020DB
:101F6000BB92002018B5032025F02BFE24F005F8C5
:101F7000044668460BF042FC9DF80000002828D07B
:101F80001C480078800824D29DF80000012812D057
:101F90001948018951B9417C02290AD101210174F2
:101FA000204623F0FAFF19F030FA18BD417C0129D0
:101FB00007D019F08EF919F05DF9204623F0EDFFF6
:101FC00013E002210174204623F0E7FF19F047FADD
:101FD00018BD204623F0E1FF002019F09DF90020F4
:101FE000014619F012F919F045F90F2024F052F9C1
:101FF00018BDC04688920020E48E00201E492DE9BD
:10200000F0431A4E091F0868401C08603068002819
:102010002AD117481749046888460D687CB1814663
:10202000002794F82200682809D13460204624F063
:10203000B3F9A4683760002CC9F80040F1D14FF023
:1020400000040E4F0BE03878012800D101BE356046
:10205000284624F0BCF9AD683460C8F800501DB1C2
:1020600095F822006828EED0BDE8F0835CA300203C
:1020700060A3002064A300206C7D0200A89F0020C4
:102080001749F0B5174C0868401C08602068002804
:1020900024D1154E35684FF0000703E0206825F085
:1020A0009CFC2760D5B195F822002946062815D159
:1020B00021608D683560087809690122143106F0C5
:1020C0002FFE011CEAD020684278002AE7D10A7866
:1020D000022AE4D11EF0C9F80128DFD0F0BDC046C5
:1020E000787D0200C4A30020C8A3002030B5114CA5
:1020F00000250B3C657321F042FDE072217BE07A04
:1021000003DF607B70B901DF0848016808480229D5
:1021100006D0057020F059FA0F2024F0BBF801E03A
:1021200001210170E07A207330BDC046E4A3002095
:10213000E9A3002027A3002000B523F01EFF0C49CF
:102140000A78012A10D00B4A0B4B12781B684FEA11
:1021500082129A5842B101220A7023F01EFF21F028
:1021600085FE23F0A7FA00BD23F017FF00BDC0468F
:10217000A0A30020A1A3002098A300200E4800B532
:10218000017989B98168022915D101218171022063
:1021900025F017FD1FF0DCFE1FF03AFE00214FF482
:1021A000807021F0A9FD00BD417921B90121417163
:1021B00002481FF092FE00BD44A10020911E0200C3
:1021C0000D4908B591F8CA0460B991F8CB0488B9F3
:1021D00068460BF041FF009802280BD100200BF05D
:1021E00044FE08BD91F8CB0420B9012081F8CB044E
:1021F0000BF07AFF08BDC046704C002008B501DF27
:102200000C48016879B90089C00803D2684621F0FA
:10221000B8FF02E0684621F0C9FF0098022808D103
:102220001CF0D0FE08BD416819B9012141601CF0C5
:1022300064FF08BD545F002010B50BF062FA20B9AE
:102240000A4800210BF00AFA10BD00221446E0B241
:102250000EF0AAFE18B1E0B20FF0A6F90122641C3C
:10226000082CF4DB002AF0D110BDC046CB140100CD
:10227000002018B5009025F0E7FA041C0CD00F20C0
:102280000BF0E6F96946204625F0AAF9009925F0F9
:10229000E5FA0F200BF0D1F918BD000000B500F0F1
:1022A0000DFF00F01FFF0448007823F024FE0420F7
:1022B00023F0F0FF00BDC046D7910020F0B5ADF18E
:1022C000180D8C46C168836A0C895B0A04F104040A
:1022D00032BF00214C690421BCF1060F4FF000070A
:1022E000984B22D0BCF1070F1FD03CF001001AD14F
:1022F000DFF86CE220011C603EF81260B0FBF6F1E2
:10230000B0FBF6F54E437608B6EBC40F38BF4D1C54
:10231000032A714605D1C9886943091A0F2988BF64
:102320008027DD600EE01C600CE0C08D142A186070
:1023300043F8104C14BF40F2031040F20B10084356
:1023400043F8140C92489F60006800F00F000D28BD
:1023500003D00C2818BF0E281AD19A486946F0C835
:10236000F0C150F8044B41F8044B10F8014B01F850
:10237000014B43F804CC944912F80D0058600868EA
:1023800020F001000860086840F00100086001BE0C
:1023900006B0F0BD2DE9F0478C4A0746136803B933
:1023A000BB8E8B4A146801228A40D20805D2894A22
:1023B000515C04EB4111FA681161F968864A4FF0EB
:1023C0000009496801F10408A2F5EC710B6083492A
:1023D0000F60F9680969C1F81C90B96A490A09D205
:1023E000116821F400511160C2F87090F968FF2360
:1023F000CB7215E0116841F400511160F9688969E8
:10240000491E1167B98DFB681B691961B8F8021084
:10241000FB681B6999618221FB681B69D961F968B6
:102420000969C1F3521141F0004142F8181CBA6A1F
:1024300022F44031520A39D3FA68B96241F480017A
:102440009569B96204F500746D1E28D0C26848F21F
:10245000823AD67A30461EF02BFCC1684968C1F337
:102460005211E160C16809892161C168C9691029F7
:1024700094BF090649460E436661B8F80210C4F8D5
:102480001CA0A161C2681461816A21F4403181629B
:10249000816A20346D1E41F480018162D9D1C46803
:1024A000384620F026F8E072BDE8F08721F480017C
:1024B000B962BDE8F08710B503469E489E4A017890
:1024C00052F82140240800D301BE43F000433F29C5
:1024D00042F8213014BF491C0021017010BD974BF8
:1024E00030B5954A19788C001059050808D320F0AA
:1024F000004010513F2914BF491C0021197030BD04
:102500004FF6FF7030BD8E4A410B03D311460C319C
:10251000096800E00021030B24BF111C0968894AE7
:10252000C30A02D311460C310968800A24BF101C6B
:1025300001684FF0010009B103F042BA7047FFF79C
:10254000E2BFC04624403C8038B120490968C08AB7
:102550000A30814228BF012000D200207047C046C7
:102560000C20002010B523F02FFDA5490A6801EBCF
:102570008203DC688B680F2AA3F101038B6014BF10
:10258000521C00220A6023F043FD204610BDC046C5
:1025900068C03C8010B522F073FD044623F014FDA2
:1025A000974A9168491C9160516802EB8101CC60A7
:1025B00051680F291ABF5168491C0021516023F04E
:1025C00027FD10BD0C1F0020C8553080C09400208E
:1025D0008CA0002080A0002058503080B4940020AF
:1025E0002DE9F0478A46A149A14F04280968994678
:1025F00015464FEA115101F007084FF003017960C9
:102600004FF00001396124F001040ED030F00102D6
:1026100006D0072818BF06280DD14FF4167206E021
:102620004FF4C87242F2783003E04FF420724FF456
:10263000EB603A60F8608F4E3078FF2805D0B9F132
:10264000000F08BF44F0020401D024F002048A4ABB
:10265000D42818BF117006D10121104601700D2039
:1026600017F07AFE3078152D0AD00C2D06DB152DCB
:1026700004DA142D1ABF0C3DEDB20725C7F8A85097
:102680007E490A68002A04BF24F4E00444EA08549E
:102690000CD024F4E0044FEA0A5101F4E00141EACD
:1026A0000404774B196801F10101196075494FEA7B
:1026B000801000F47C5009786FF3132440EA040082
:1026C0004FEA813404F47C2444EA000444F0EC042E
:1026D00024F01004BC601AB1B86840F00100B86082
:1026E000B9F1000F1CBF0120C7F86808BDE8F087EA
:1026F00030B51FF0FEFE05461EF0FAFA604C90B9A8
:1027000028461EF03EFB58B928461EF0E5FA28B9C7
:1027100028461EF0D9FA58B1183402E0143400E00B
:102720001034204601E020460C300168491C01604D
:1027300030BDC046E89400205C720020E99400207F
:10274000A86A0020906A00202DE9F041ADF11C0D2F
:102750000646F06801F003010F464468241D207806
:1027600020F0030520F07300882823D1208B00F08F
:102770006008707896F83E1006F09EF9B0B1707857
:1027800096F83E10224602F029FC044696F83E10C8
:1027900070786A4602F05AFC022F07D1B06A400AEC
:1027A00004D2BDF802000CB900B10027B8F1600FE7
:1027B00008BF032725F07300882805D1B06A400AB6
:1027C00002D3012F18BF0327942D0BD0D42D09D08D
:1027D000B42D07D0C42D02D1B06A800A02D3012FD4
:1027E00001D109E00427B0780B2805D0A04908687A
:1027F00020F00200086001BE384607B0BDE8F08155
:10280000249200202DE9F041427890F83E002C25DA
:10281000AC4900EBC20045434C5B6D182D1D287878
:102820001EF046FAC0684068408B4FEA2016BCB1E3
:102830002F4640F2FF7838781EF03AFAC1684A68AD
:10284000518BA6EB21116FF31F3188459CBF518B33
:102850000E11641E394601F10507A1F80360EAD1A3
:1028600028781EF025FABDE8F081C046241F00201C
:10287000904E3080DD940020C09A0020D09400203B
:10288000F87C0200DE9400202DE9F04FADF1480DF8
:1028900004460B90417894F83E5005EBC10523F0B7
:1028A0006CFB88490C902C2000FB0516607835885D
:1028B00006F090FF40796F496F4A31F81010B078F8
:1028C000341D32F8100048434FEAA01828220D9614
:1028D000214601A824F0FFFA0D99082D05D008889B
:1028E000401C08806D1CFF2001E094F823000E902E
:1028F00020781EF0DDF980780026B24607280D9872
:1029000009D10088012806D00B981FF0F2FD8DF840
:102910000400207809E00B9F38461FF0EAFD207084
:10292000F96809890831A4F801101EF0D5F90028CA
:102930000B9802D1806A800D01D34FF0800A022DDE
:10294000ADF1010056D30F90671D10948020012433
:10295000A5F1010911900F9911F8050F0F91387029
:102960001EF0A6F98346109800781EF0A1F90546DE
:10297000DBF80C000389E8680833008900F10802DD
:1029800042450ED2A8EB02018E08B1EB860F06D9A4
:10299000761CA8EB0001083921F00301091D8918F4
:1029A00000E01146109800F1050CCDF840C0B0F8D9
:1029B0000100C91C21F00301801A09185B18584650
:1029C000A7F801301FF095FDE968C872E868C66194
:1029D00017F8050B1EF080F918B9DBF82810890DDF
:1029E00003D31199214141EA0A0AB9F1010904F11D
:1029F0000104B0D10D9880F803A00B98FFF702FFF7
:102A00000C9823F0CAFA0E9812B0BDE8F08F70B59A
:102A100004461FF06EFD05461EF06AF938BB2846D5
:102A20001EF0AFF918BB2046FFF72EFF0546FF2D1D
:102A30001DD0E8B215F011F9044623F09EFA0646BF
:102A40000520A070E8B215F065F9E8B215F033F989
:102A5000304623F0A2FAA06AC00C02D3284608F040
:102A6000D9FC94F83D10627800200AF018FE70BD81
:102A700050543080FC1E00200C2000202DE9FE4F19
:102A80000090427890F83E100E4D2C2401EBC201CC
:102A90004C4335F804801FF02CFD064623F06DFAF8
:102AA000A3460BEB0504241D01902078864200D03C
:102AB00001BE0098C0688669029536B1B8F1000F72
:102AC00003D101E0B021002001BE4645A8EB060578
:102AD00006D106EB860704EB07094FF0000A05E074
:102AE00006EB860704EB0709B9F801A099F8000086
:102AF0001EF0DEF8C16899F800200989227001F102
:102B0000080189B2A4F801100DB1AAEB010A022D47
:102B100015D3E119491D621DA5F1010C0B78137045
:102B20000B46B3F80170591D1346A7EB0A07BCF119
:102B3000010CA3F8017003F10502EFD100E00125BB
:102B4000A84505EB85010CD964180021FF22A8EBEC
:102B500005035B1E2546A5F80110227005F105044A
:102B6000F7D1029C5C442088801B20800098FFF7EE
:102B700049FEE078B040E070019823F00EFABDE81D
:102B8000FE8F70B5ADF1280D0D46064606F0EDFD41
:102B900004462946304605F08FFF002847D03046CE
:102BA000294601F0C8FF002841D1294603AA304632
:102BB00002F04CFABDF80C10BDF80E00884210D19E
:102BC0000498000833D30498BDF8241040F2FF7332
:102BD000C0F30B42501A6FF31F30834201D9914268
:102BE00025D12046264C410101EBC0016418207814
:102BF0000A2814DC002000902248019002953146FA
:102C000015200722204B20F0CBFA00280FDD0122EF
:102C10002946304601F036FF2078401C06E0304659
:102C20002946002201F093FE184C012020700AB0C2
:102C300070BD962180F83C10704730B5ADF11C0D89
:102C400001281D4619D1084615F007F8816821B101
:102C5000091D90F84340641802E0C1684C68241DC7
:102C600040786A46E9B202F0F1F9BDF818000001B7
:102C70006082208A65F31F30208207B030BDC046D5
:102C80009C7800202F2C0000272C0000EB940020C3
:102C90002DE9F04FADF1240D17460190B86C02906C
:102CA000F868466897F83E000C46039079780491DE
:102CB00097F83D100591A949DFF89CB2361D51F8EF
:102CC000200058440690307820F0030081462046CA
:102CD0001EF00EF8F18AB9F1840F82464FEA2111F5
:102CE000079112BF0399318A091308910199DFF8FE
:102CF00094820025002900F0C480491E57D0491E47
:102D000028D0491E05D0491E4FF0050000F03C8137
:102D10003BE1F8684FF001094FF0080A86699EB15F
:102D2000E0B214F09CFFF86887F802A0C0F8189091
:102D3000F8680199C47A384624F07EFB204614F0E6
:102D40008CFF761E0746EBD14046001D0168491CEA
:102D500001601AE1B98AF88A4018B98E0918F86832
:102D6000B9820068002804BFFD7001257FD0F8609B
:102D700001890122134638461FF073FBF88238465A
:102D80001FF03AFBB88623F0F8F80646E0B215F0DB
:102D9000BAF93846FFF73BFEF968012088613046F2
:102DA00023F0FBF8294638461DF001FBEDE04046D4
:102DB00008300168491C0160B86A800A32BF069871
:102DC0005846001D90F8008023F0D7F8834609F09C
:102DD0000C0004284FF0010516D0039904983246E0
:102DE00001F0C4FE0498039905F066FE60B100206E
:102DF0000090079B03990498032201F08DFF04982B
:102E00000399079A01F0E6FEB87807280CD1E0B2E2
:102E100015F0C2F9E0B214F0C4FFBAF1000F03D10B
:102E200005213846FFF72AFE404602F0FFFE8742A2
:102E300006D1404602F008FF0021404602F018FF8C
:102E4000B9F1840F089805D14FF0FF32C1B2049850
:102E500001F018FE002138461DF0A9FA0420F87090
:102E6000584623F09AF8B86A20F44030B862019EC0
:102E70003846314624F0E0FA3146384608F0D0F8BA
:102E800083E023F07AF8834697F83E10787805F0CF
:102E900013FE0646B88EB98A4018F98A0918B86A2E
:102EA000B982400C0DD2B9F1840F04D00321384609
:102EB0001BF0CAFD08B90320F8700199384624F0C8
:102EC000BBFABAF1000F15D138461DF0A5FB88B149
:102ED00086B1F878032811D0E0B214F0C0FE04984F
:102EE0000399FFF757FB0820B870584623F055F8B0
:102EF000012067E0F878019903281CD1BAF1000F8E
:102F00004FF0010530D120461DF03BFF00282BD1AA
:102F100009F00C09B9F1040F039925D0049805F0C4
:102F2000CBFD08B3002000900399079B049803226F
:102F300001F0F2FE18E0384608F072F838461FF04B
:102F4000C7F9E0B215F0DFF8BAF1000F08D1384642
:102F5000FFF75DFD404604E0601C00207C9E0020E1
:102F600091480168491C0160584623F016F8BAF1EF
:102F7000000F039903D1049805F09EFD28B90021A4
:102F800011E7C046207D0200B8700898C1B20498CD
:102F9000FFF7F7FDADB138697B6CF860029840B17E
:102FA00001980022E1B2022808BF0122029C0320FE
:102FB000A047384622F07CFD049A059900200AF0CB
:102FC0006EFB002009B0BDE8F08FF0B50546A808FB
:102FD000C6B2304614F041FE04466078FF2800D1A6
:102FE00001BEFF2E1CD005F00307012F07D0E068BB
:102FF000C07AFF2803D0064614F02FFE0446012FA6
:1030000002D1A07807280BD130461DF0BAFE38B99E
:103010002046A9B2FFF798FB2246F1B2FFF738FE2F
:10302000F0BD2DE9F047824614F014FE00284FF061
:10303000000741D00646DFF85082504614F0E6FD06
:10304000814614F00AFE051C00D101BE6878FF28F5
:1030500000D101BEA978082903D0C8F8007001BECC
:103060006878E9684C6895F83E10C0B205F024FD18
:10307000241D30B9207800F00C00042818BF01206E
:1030800013D1207800F00C0004280DD0687895F852
:103090003E10224601F0A2FF022803D0012803D1EE
:1030A000022002E0032000E038462A464946FFF7A6
:1030B000EFFD08B9761EC0D1BDE8F08710B54FF618
:1030C000FF7401E0FFF781FFFFF709FA8442F9D1AD
:1030D0006E4804682CB1FFF745FAFFF7A2FF641EA3
:1030E000F9D110BD2DE9F04722F047FF824622F0CA
:1030F0006BFF67490C6851F8A46C0D6822F088FFDB
:1031000005F0040506F0010604F0080434432543E5
:1031100045D1604D95F85C9195F85D81002485F866
:103120005C4185F85D41504622F037FFB9F1000F50
:103130004FF0010711D0264607FA06F019EA000FF2
:1031400005EB860006D000F10400026812B10169A7
:1031500038469047761C042EEED3B8F1000F4FF09E
:1031600002061CD0012707FA04F018EA000F4FEA04
:10317000441011D000EBC400291891F89C100329C9
:103180000AD100EB0501284400F1B40081F89C60ED
:10319000016809B140688847641C042CE3D3504699
:1031A00022F0FBFEBDE8F0871C7D02002DE9F04116
:1031B000374F01246C3F3D6805F00F0504FA05F018
:1031C000C00827D3AF49B04A00200E681070884667
:1031D00010363068000E0C280DDA04F027FB0228A8
:1031E00005D03068000E04F021FB052803D1D8F883
:1031F000000007F063FC2046A840C0080AD3B14E87
:103200003088FF2806D0B04820F01DFA0EF0B3FA3F
:10321000FF203080AD480026066009F0FBF9D7F8A2
:103220004802AE4F10F4C05F1AD0A949AC400868FC
:10323000401C0860A748E108006805D2A64800685D
:103240001FF057F9800004E01FF053F9800040F0B0
:103250000200FFF730F938464FF080710C30016002
:1032600031460C2017F078F84FF400703860BDE854
:10327000F081417890F83E0000EBC1002C214143E1
:103280009748405A7047C046505430802C920020D6
:103290003C4F30802C6A00202DE9F04F804698F892
:1032A0003E9098F801600D464946304606F05DFABA
:1032B000410101EBC0008B4909188A8CC88C801829
:1032C000401E84B2304606F085FA854B074609EB6E
:1032D000C60218462C21801C01FB02F6002D805DE1
:1032E00008BF42F2107503D0B8F83660AD1B143D2C
:1032F000002D4FF0000658BF012675437A4E4FF05F
:10330000010A36F81000454328113D790D350AFAB7
:1033100005F56D1EA84288BF281C0F465743DA19D1
:103320001588D278D919C9781206B2FA82F2954274
:103330004FEA0161B1FA81F698BF2E1C002ECCBF76
:10334000721E0022FD18002A05F104054FF0050148
:1033500072D07F18D95B81426ED8002A40F2FF7E7E
:103360004FF0000350DDF146F446ACF1010CD118EA
:1033700001EBD171491001EB810705EB070BBBF89D
:103380000170874206D2BBF80370E71B6FF31F374B
:10339000BE451BD80029CCBF4A1E002202EB820189
:1033A0006918B1F8017087422CD8B1F80310611A7E
:1033B0006FF31F31894525D9561CD8F80C00476199
:1033C000D8F80C0086615046BDE8F08F0729B4BFDD
:1033D0004B1C072303EB8307EF19B7F801708742F3
:1033E00009D801EB8107EF19B7F80370E71B6FF3FA
:1033F0001F37BC4506D201EB81002D184E1CB5F8D5
:103400000170DAE79A42B2DC9A4215D1981BB0F10A
:10341000FF3F03EB83030FD1E818B0F80300241A31
:103420006FF31F3440F2FF70A04205D906EB86000F
:103430002D1835F8047CC0E74FF0FF30BDE8F08F61
:10344000C1684278896990F83E0001EB810100EB88
:10345000C200491F2C2202FB00102449085A704761
:10346000C1684278896990F83E0001EB810100EB68
:10347000C200491F2C2202FB00111C48C01E405CE8
:103480007047C046D09A002059A30020C2689269B4
:10349000511A427890F83E0001EB810100EBC20026
:1034A0002C2202FB00111148C01E405C704741787D
:1034B00090F83E0000EBC1002C2141430B48C01E98
:1034C000405C7047CC9A0020E29A0020C89400200B
:1034D000F0940020B0940020B89400206C04308058
:1034E000B02100209C7800200C200020B721002073
:1034F0007A482DE9F04FADF1D00D0990006D08909C
:10350000089800F00F000A900B9003F082F904462F
:1035100000200C90FF210D910E900F90A042109171
:103520006F4D12D00A9901208840C0080DD32E6833
:1035300006F0070694F824700B992046FEF72AFF40
:103540003A4631462046FEF7B9FE4FF00100119091
:103550000A99644A00FA01F01290654801681392D2
:1035600011B10C99139A11705F4FB96C491CB96471
:103570001099099A1491C2F82C120A9A5B490A60B0
:1035800015941690204640788B46FE280DD004F006
:1035900053F8064615980C96407804F047F9002E2B
:1035A000109018BFD6F8C80100D10F980C9911B12E
:1035B0000C99097C0D91002808BF0F98099902D039
:1035C00051F81C1C401A17900998002CD0F8801153
:1035D00021F00101C0F88011944818909448199086
:1035E0008F481A908F481B9038D11298C0083DD34D
:1035F0002E68022002F057FB044688480068072E18
:103600004FEA104000F00F0014BF062E0C3084F873
:1036100024000998D0F8801141F00101C0F8801110
:10362000386E401C38661198189994F82420086068
:10363000F1B22046FEF742FE0B992046FEF7AAFEA5
:103640001698006890B1199800680F9E31461CF0DA
:10365000AEFE1A9930460860169906E01298C00826
:1036600004D30F98169908601B99086020461EF035
:1036700040FF1C906F4A94F83E1052F821201D9292
:1036800062781E921F91E268536803F10406317854
:1036900021F003012091998B01F06001219194F8B0
:1036A0002410229104B901BE02B901BE5E490A7814
:1036B00061491AB923910F99249109E01D9B4FEAA2
:1036C000431202EBC3020A44B2F89A2024922391D7
:1036D000179979B92499B1B917E0C046804E308066
:1036E00020403C80DC940020B47C0200C494002084
:1036F000D0940020249941B12499179A914202D97B
:10370000179989B22491249917911299C9080CD25A
:1037100017F071FF022808D1317821F00301402908
:103720001CBF717841F0100102D1717801F0EF01F6
:103730007170A16A090B0DD30999D1F8802142F06B
:103740000102C1F88021A16A21F40061A162F96A35
:10375000491CF9629C491D9A0A60F18A0A9A09116A
:103760002591D10001EB82012691239A89180F9AA5
:103770002831279128920A60A04991F800A0299148
:103780001299C90815D29E49BAF1940F0A6810D14E
:1037900092F83E10D06840680379842B04BF808A79
:1037A000011350784FF0FF3201F06CF9299890F82E
:1037B00000A00B21A1702968DFF83C82DFF844C229
:1037C00001F007012A911299DFF83C9211F4FC7F75
:1037D00077D012991B9A11F4F07F15D02046FFF78D
:1037E00048FD012820990AD001F00C01042906D0D7
:1037F0003179490803D211990E91249902E0E38AA4
:10380000A18EC9184B4619602099802916D0A76A45
:10381000B90A14D21499119D19E0C046ECC00020D9
:10382000D8940020CC940020A0A00020C8940020B0
:10383000B89400207C9E00202C6A0020A76ADDF846
:1038400050A0299B51461970289D63461D70DDF8D4
:1038500040E02B46BEF1020F04D0DDF840E0BEF19F
:10386000050F06D1DDF880E0BEF1800F04BF119D89
:103870002B1C1560169A1360229B119A0C2B04DBEB
:10388000229B152B01DABB0B0BD23B09119B05D3F5
:10389000229DAB40C3F310131B0102D1FB0838BFBC
:1038A000289A43461A60DDF828E0984B4FEA8E02CA
:1038B0000C3A9B581A68C9B261F30F221A60CBF810
:1038C00000E04346924A2B93CDF8B0C019682D9280
:1038D000904A0029CB462E92A34ADFF888922F9275
:1038E000A24A3092A24A319245D0119B94F82410FA
:1038F00003FA01F212F00F0F1CBF4A460A440BD123
:10390000289D042908BF1D1C289A052908BF1A1CD8
:103910002A4314BF2D9A2E9AA76A1278FD0802F145
:10392000CA0219D303FA01F515F00F0F1CBF2F9B24
:103930000B440DD1DDF8A0C0042908BF9C46289D8A
:10394000052908BF1D1C55EA0C0514BF309B319B8F
:103950001978891801F1CA02B90B02D3390938BFA5
:1039600036220E9BDBF800102BB18A42ACBF28999F
:10397000891ACBF8001016997E4A096832920029FC
:1039800040F0FA802C99DDF85080289D91F8009045
:1039900020995FFA8AF7E42938D02099F42935D0A4
:1039A0002099802932D0A16A890A1CD21299C908AB
:1039B0000CD2E06801892046119B1A461EF051FD89
:1039C0000246E28203E0C046E4940020E28ADBF88B
:1039D0000010891A289858BF119809B200FB01F00D
:1039E00081B2718014E0099850F81C0C216AE28AB7
:1039F000B31C24F0F1F80AE0D4940020DD940020F8
:103A0000B4940020DE940020C09400207580289992
:103A1000CBF80010299880F800802C98A5860570B6
:103A20001898006858B912982A99229AC00806D2A4
:103A30002046FEF743FC0B992046FEF7ABFCA06A3C
:103A40000A99C00C02D3204607F074F91298C008F6
:103A500002D20898FEF773FD2046FEF749FEA16AE0
:103A60002A9815228B0A149903F00103FEF7B8FD7A
:103A7000A06A800A08D2D42F18BF942F299803D1A6
:103A800007702C9880F800901C981DF031F90028E0
:103A90001C9806D11DF075F918B903212046FEF7D0
:103AA000EDFF26982399401890F82D1049081ED351
:103AB00090F83050AD19C68D90480168406801916A
:103AC00002900D98FF2805D00D9803F0C7FE0190D5
:103AD000081C0290314601A822F013F901A92846DA
:103AE0001DF065FB2799487900F0FE004871A06A37
:103AF000800A11D2209880281AD11098012817D155
:103B00000B98289902F0B4F812E0C046481C002037
:103B1000D61B0020D71B002077480078289902F098
:103B2000A7F81C9D284614F037FB284614F039F9F5
:103B300011990C2016F010FC32984FF4807101603E
:103B400029980078FF2807D11C981DF01AF918B998
:103B5000289920461CF02BFC0998D0F8980200F018
:103B600087BCC046D41B0020D01B0020D21B0020E5
:103B7000D31B00206C04308028993391139918913D
:103B8000317801F00C01042909D01E981F993246A2
:103B900000F0ECFF18B1A16A41F48001A162E26873
:103BA0004FF0FF385169002936D11C981DF0A0F85C
:103BB000229998B90C2911DB229915290EDA20993E
:103BC00021F07301882909D11E981F9904F074FF10
:103BD00020B120461799FFF75FFB8046B8F1FF3F01
:103BE0000DD0E268916901290AD01E9806F0CFFE37
:103BF00028B9A16A41F48071A162E2680AE0E26832
:103C00001189516111999161A16A21F48071A162B8
:103C10001499D172918A11812B99DBF80030D1F877
:103C200000802099E4296BD02099F42968D020994C
:103C3000802902D11099012962D0A16ADFF89CC1C4
:103C40001589490A129994F824E00DD211F4F07FF5
:103C50000E9907D031B1249921B9E18AA28E571863
:103C6000DB1914E0E18A11E022995CF821305169F6
:103C7000C90016314B43D90BC91C21F003011A317D
:103C800089B2E182E38EA3865B18958AA28EBEF18B
:103C90000C0F16DBBEF1150F13DA5CF82E70ED0079
:103CA00036356F43FD0BED1C25F003051035ADB225
:103CB000AD1FAD100FFA85FC03250CFB05F5ED1EBD
:103CC00000E09925E585DDF880C0BCF1A40F03D1A3
:103CD0005B1A9A4217D00BE05B1A289858BF1198CC
:103CE00019B200FB01F080B2824270800BDA738857
:103CF0009B1ACBF8003009E0641C0020281F00202C
:103D000028987080A0863398CBF80000B8F1000F97
:103D100000F0C4801298A26A10F4FC7F27D042F20F
:103D200008001042119805D022998840C0F3101065
:103D3000000101D1D0081AD394F82400119901FA96
:103D400000F313F00F0F0BD1289D042808BF0D1CA2
:103D5000289B052808BF0B1C2B4314BF02200320FF
:103D60002290900B03D310093CBF042022901C9892
:103D7000A2460E902098A42808BFBAF8165003D087
:103D80007088BAF816502D18D00829D2289E3046CF
:103D900001F089FF0446E1680C984968001D08316C
:103DA00022F063F9119994F8240001FA00F212F05C
:103DB0000F0F1CBF4A4602440BD1289B042808BFA2
:103DC0000B1C289A052808BF0A1C1A4314BF2D9AF9
:103DD0002E9A1078C030E08244E0C046EC1B0020F0
:103DE000052001F060FF0446E0684168361D083197
:103DF000304622F03AF9E1680C984968001D0E310E
:103E000022F033F9119994F8240001FA00F212F02B
:103E10000F0F1CBF2F9A02440BD1289B042808BF08
:103E20000B1C289A052808BF0A1C1A4314BF309A95
:103E3000319A1278C032E28201FA00F212F00F0FCA
:103E40001CBF4A4602440BD1289B042808BF0B1C08
:103E5000289A052808BF0A1C1A4314BF2D9A2E9AC7
:103E60001678C036A6861E9860701F9884F83E00AB
:103E700020461EF03EFB1C90E06841680E1D307825
:103E800020F003002090A08E2D18CD80A08E718888
:103E90008842ACBF3399091ACBF8001012982A99BE
:103EA000229AC00806D22046FEF708FA0B9920464F
:103EB000FEF770FAA06A0A99C00C02D3204606F0F9
:103EC00039FF1298C00802D20898FEF738FB2B98E9
:103ED0000068002840F08680129810F4F97F0BD01B
:103EE0001C981CF04EFFDDF8708028B9404614F095
:103EF00053F9404613F055FF2B980068002871D104
:103F0000A06A400A3DD32746F8688069012825D970
:103F10002046FFF795FA25902046FFF7A1FA804644
:103F200013F0B7FE40461CF0C3FE0746404614F0AF
:103F300033F97078400911D3E1688D696D1E0DDD8C
:103F4000E9B22046FFF7A2FA1CF0B2FEC1684A6847
:103F500051796D1E41F010015171F1DC20461EF0C7
:103F6000C8FAF968C8721E981F9904F0A5FD0028C8
:103F7000259806D01F99401EC0F30B021E9800F032
:103F800051FE307800F00C00042809D01E981F99CB
:103F900004F092FD1F9918B1259A1E9800F01AFEA0
:103FA0002498E0B11D981CF0D5FA8046CDF83880F1
:103FB00013F053FE824640461CF08EFE00281C98EB
:103FC0000DD11CF089FE50B9E068006838B9504640
:103FD000FEF7BAFA1699086011980F9002E033992B
:103FE000169801602046FEF783FB26982399401817
:103FF00090F82D1049081ED390F83050C78D934883
:10400000AD1901684068019102900D98FF2805D014
:104010000D9803F023FC0190081C0290394601A87A
:1040200021F06FFE01A928461DF0C1F827994879B3
:1040300000F0FE0048711C981CF05AFE00281C98E5
:10404000DFF85882DFF8589218D11CF09AFEA8B910
:1040500004212046FEF712FD16980268204692B110
:10406000FFF725FA0E9981420AD01698339901601C
:10407000DDF8A0A0524614980E9004E0169802684D
:10408000002A40F0C580DBF80000B0F5B07F2ED9E3
:10409000A06A80082BD3032001F005FE82461EF0A3
:1040A00028FA0E90DAF80C00416801F10E058E48EE
:1040B000083121F0DAFF9AF80100FF2808BF1498B0
:1040C00004D0C10101EB40018848405C294623F03F
:1040D000D4FC1198514601F0E3FE07208AF8020053
:1040E0000D9811F065FD8AF8240016980268002AE0
:1040F00040F08E80307820F07300882805D1219818
:10410000202865D02198602862D0A06A289D410AA5
:104110004DD22099842925D0299980081AD3D420FA
:1041200008702C9805701F991E9804F0C5FC002893
:1041300051D01F991E9801AA00F088FFBDF8060013
:104140002599401C884246D11F991E98259A00F057
:1041500069FD40E014981B99339A0A60AB46DDF87C
:10416000B0801FE0308A001383461E98594604F041
:10417000A3FC88B11E98594601AA00F067FFBDF85C
:104180001C000001708228980090708A042203119C
:104190001E98594600F0C0FD2C990D701E9A94206F
:1041A00049460A7029990870584641460EE0942005
:1041B000299908702C9805701E981F99119A00F083
:1041C00061FC1F99404601701E9849462C9100E001
:1041D0003F202C9908701298C0080BD2129810F04A
:1041E000180F03D17B481D99405C0B900B982899C0
:1041F00001F03EFD032001F056FD0646119801F046
:1042000015FD8642119801D001F01EFD149F7FE03C
:10421000A06A289D410A6BD22099842942D0800847
:1042200016D2052001F03FFDA042299904D0149830
:1042300008702C9805706BE0C420299908702C98A0
:10424000057011981899087065E0C046301F00206D
:10425000D420299908702C9805701E981F9904F095
:104260002BFC50B99AF801001E99884250D19AF857
:104270003E001F9988424BD1E3E71E981F9901AA7F
:1042800000F0E4FEBDF806002599401C88423FD1AD
:104290001F991E98259A00F0C5FC39E0E094002093
:1042A000E1940020308A07131E98394604F004FC7C
:1042B00088B11E98394601AA00F0C8FEBDF81C005E
:1042C0000001708228980090708A042203111E98C1
:1042D000394600F021FD29994FF0940008702C9880
:1042E00005704046077010E0401C0020C33B0020D2
:1042F0009420299908702C9805701E981F99119A7E
:1043000000F0C0FB1F99404601701E984946087096
:104310001898007818B1DAF82800C00814D3299842
:1043200001781698006830B9FF291F9903D01E98AC
:1043300004F0C2FB40B12B98006818B91598289971
:104340001CF035F8339805E0119E159831461CF0A5
:104350002EF830461A990860032001F0A4FC50455D
:10436000169804D0006828B9229D119E3BE0119850
:1043700016990860BAF1000F4FF0070700D101BE8F
:10438000119E5146304601F08BFD9AF824508AF870
:1043900002702A4606FA02F0C0F31010000103D0A2
:1043A0000C2A19DB142A17DC0C2D0BDB152D09DA6E
:1043B000A06AC00903D3142D18BF289707D14FF066
:1043C00006070BE0A06A400901D305B12896289F93
:1043D00004E0C046601C00204FF004070F9820B195
:1043E0000E981CF00DF99AF82420A16A2A988B0ADD
:1043F00003F001033946FEF7F3F8AE40099A16F0D0
:104400000F0F11D0D16912682820B1FBF0F10A31E9
:104410008A4224BF0998006804D20999C969B1FB8E
:10442000F0F00A3009990860032001F03CFC0546D1
:10443000119801F0FBFB8542169801D13399016078
:1044400033992B9801601998046029985D49007888
:1044500008700998D0F898025B48007821F056FD62
:1044600011990C2015F078FF32984FF4807101609B
:1044700034B0BDE8F08F2DE9FF4F0E46044621F021
:104480007CFD0090607805F0A5F9617894F83E20F5
:104490002C2302EBC102B24901920293039103FB68
:1044A00002118A780D1D964278D00F884079B5495F
:1044B00031F81010B44830F8160048434FEAA018FD
:1044C00028781CF0F5FBC168098901220831A5F89C
:1044D000011080F82460E068134684F824600189A4
:1044E00020461DF0BEFFE08220461DF085FF012F13
:1044F000A086AA464BD905F1050B0025A7F10109B5
:104500009BF800001CF0D4FB074687F82460E068A5
:1045100001221346018920461DF0A3FFE0822046B8
:104520001DF06AFFA0869AF800001CF0C1FBF96834
:10453000098908318BB2C1680A898C46083297B262
:1045400047450DD2A8EB07018D08B1EB850F05D9C2
:104550006D1CA8EB070121F00301091DC91900E03A
:1045600039465246C91C02F1050A21F00301B2F88E
:104570000120B9F10109CCF81C50A2EB070211444B
:104580000B44594601F1050BA1F80130B8D103984D
:10459000019A029901FB020086700DE084F8246004
:1045A000E06801892046012213461DF05AFFE0828F
:1045B00020461DF021FFA086009821F0EEFC00901F
:1045C000BDE8FF8FDF940020D79100202DE9FE4F3A
:1045D00006461DF08EFF0090F0684068408B7478AE
:1045E00096F83E504FEA2019204605F0F3F85C4B50
:1045F00005EBC4052C21824601FB05300288002A08
:1046000004BF96F824100F1C04D001FB05308778F6
:1046100096F824108046012286F82510F06886F866
:1046200024701346018930461DF01BFFF08230468E
:104630001DF0E2FEB08621F0C7FC019051499AF8C6
:10464000050031F810105048B8F8004008F1040592
:1046500030F8170048434FEAA01A204600EB8000CC
:10466000401F285C13F0F9FA002C029088F80270C1
:1046700052D0082C08BF002404EB84006AD005EB5C
:10468000000B00988BF8000004EB8400401F2D18ED
:10469000B5F8031040F2FF72A9EB01006FF31F3071
:1046A000824298BF8946F068ABF8039000890830D1
:1046B0001FFA80F928781CF0FBFAC06800890830DE
:1046C00082B2524512D2D01C4FF6FC710140AAEBC7
:1046D0000100431000EB93739B101F46B0EB870F54
:1046E00002DD7F1C5B1C9800091801E011460027C1
:1046F000B5F80100C91C21F00301801A091809EB63
:104700000100ABF8010030461DF0F3FE029AD168BB
:10471000C872D068C7610BE004EB84002D180098C4
:104720002870F06800890830A5F80100A5F803900A
:1047300000981CF0D1FA10B9B06A800D06D398F831
:10474000031080202041084388F80300641CA8F867
:1047500000400124019821F05BFC2046BDE8FE8F5B
:10476000B021002001464A7891F83E1001EBC201C9
:104770002C224A4305490020895A082908BF0120F4
:104780007047C046FC1E00200C200020B0210020F5
:104790002DE9F04116460B4693E8300096E80600F6
:1047A00021432A4393E8800183E806004146C94338
:1047B000B1FA81F2202A6FEA070102D1B1FA81F140
:1047C0008A18018851186FF31F31018093E80300A4
:1047D00023F0B9F983E8030096E8030023F0B3F966
:1047E00086E8030093E8180096E80600194002EAFC
:1047F000040096E80C00984208BF914200D001BE28
:10480000BDE8F08170B5002A0E4690E8300005DC66
:1048100052422046294623F096F903E029462046D5
:1048200023F0A0F90D46044694A292E803001A462C
:1048300023F07AF996E80C001D43144329402040E8
:1048400086E8030070BD2DE9F04FADF1180D03931C
:1048500000278346884EFF23049205910221F278B7
:1048600032B1491E06F1050607F10107F7D100E054
:104870003B46FF2B18D0BBF800000013824621F006
:104880007CFBDFF89092A44C4FF00108D9F800505F
:10489000290101EBC5016418217D6D1C05F0070598
:1048A000012903D121F079FB002039E084F814803C
:1048B00021F073FB04225946204622F00CFB049899
:1048C000211D21F0D2FB00942761A548A54B52463B
:1048D00001900294059917201EF062FC002807D56C
:1048E00021F04BFB0025257521F057FBA84616E06B
:1048F0009BF80200307086F80380059C747086F87F
:1049000002A0039F377121F038FB49460D6021F06A
:1049100044FB3A465146BBF80230204605DF40468C
:1049200006B0BDE8F08F10B504F01FFF1F284FEA56
:1049300040110BD08C4C01EBC0000444A1684FF037
:10494000180019B103F04FFB0020A06010BDF8B5AE
:1049500015460E46044604F008FF07461F2F50D0A8
:104960008DB92520ADF80200300340F40060ADF8A9
:104970000000204604F06FF900F15C02012321469B
:104980006846FFF760FF0C2C00DB01BEE101A34885
:1049900001EB440101EB86014518801C405AA049F7
:1049A00009686FF30B0040EA1150688031462046D9
:1049B000FFF7B9FF31462046FDF7ECFD780100EB2B
:1049C000C7016948401828210DF0E6FF0021301D7D
:1049D000C0B215F0C1FC0C2C00DB01BE29884FF6DB
:1049E000F87008400123288098493A464FF08070BB
:1049F00008602046314604F0FBFE3A463146204628
:104A000004DFF8BD10B5144604F0AFFE1F2800D136
:104A100001BE410101EBC000534926310C5210BDCB
:104A200070B5ADF11C0D14460E46054604F09DFE12
:104A30001F284FEA40111CD001EBC0004A4965F322
:104A4000070366F30F23014448884FF0050280B145
:104A50008DF8182009220092C4EB8024039401935E
:104A6000002002909F48059008310322684603F019
:104A7000F2FA07B070BDC0469F9900200000000008
:104A800000000080F0B516460D46044604F06DFEA9
:104A900007461F2F2FD021F097FA0C2C00DB01BE08
:104AA0002146CA0102EB41025C4902EB85022E4C11
:104AB000895A01F0070102294FEA471109D101EB98
:104AC000C701641894F90110761871B2002905D550
:104AD00003E0790101EBC70164180021617021F046
:104AE00097FA94F9010000280CBF002101212D1D27
:104AF000E8B215F031FCF0BD00B504F036FE1F2819
:104B00004FEA401105D001EBC000824A44490968D0
:104B1000115000BDB0990020E87A00200178D0291A
:104B200007D1017E032904D1407E022808BF01205D
:104B300000D00020704700B504F017FE1F2808BF02
:104B400000204FEA40110AD04FF0000201EBC000F4
:104B50007049A1F10301085600B10122104600BDC1
:104B6000C1530000B95300009C78002070B5154671
:104B70000E46044604F0F9FD1F284FF0000227D02E
:104B80000C2C00DB01BEE301244903EB440303EBDF
:104B90008603CE18C95A01F00703032B4FEA4013CE
:104BA00016D103EBC0035B480C30C05AEB8AC0EB54
:104BB00023106FF31F3040F2FF73834208D90C2C8F
:104BC00000DB01BE21F00701012241F0020131802A
:104BD000104670BDF0B514460F46064604F0C5FDFC
:104BE00005461F2D00D101BE3946304603F064FF53
:104BF00090B121F0E9F929464A0102EBC102AE4920
:104C000089188A8940F2FF73A21A6FF31F32934208
:104C100088BF8C8121F0FCF9F0BDC0466D3B0020BF
:104C20006055308030B5144604F09FFD05461F2DB9
:104C300000D101BE21F0C8F929464A0102EBC102A8
:104C400034490A318C5221F0E3F930BD78043080C8
:104C500010B5002B08BF002A12D044F40044A4B2BF
:104C60001B1CB3FA83F3202B04BFB2FA82F2134465
:104C70003F2B00D901BE0B4463F30B04A4B201E047
:104C800004F4E04400B1048010BD10B5144604F0F3
:104C90006CFD1F284FEA40110DD001EBC000864A81
:104CA00012181482948402F112001432214692E800
:104CB0000C00FFF7CDFF10BD10B5521AC2F30B0266
:104CC000044640F2FF7090420AD9B5A393E803006E
:104CD00022F048FF94E80C001943104384E80300D5
:104CE00010BDC0462153000010B5521AC2F30B018B
:104CF000044640F2FF7088420AD9A9A393E8030052
:104D000022F030FF94E80C008B43824384E80C00CF
:104D100010BDC046A07800202DE9F043ADF11C0D78
:104D20001C46164604F021FD05461F2D00D101BE8C
:104D300021F04AF92946604F4A0102EBC102BF182F
:104D40006A4607F10C01B1E82850A2E8285091E822
:104D50002A0082E82A0021F05BF9BDF81810321C05
:104D6000BDF800800D4600F08280521E7AD00E9E63
:104D7000521E3ED0521E14D0521E40F08D802D1B6C
:104D80006FF31F3540F2FF70A8429CBFA1B2ADF88F
:104D9000181002AA92E80C000DF10600FFF758FF68
:104DA0007AE002A82246FFF787FFBDF818102246D6
:104DB00004A8FFF781FF019800080AD3019840F288
:104DC000FF71A4EB10406FF31F30814207D80198A8
:104DD00002E0019840F0004064F31B400190BDF8F0
:104DE0000200201A012808BFADF802400DF1100999
:104DF00032E006F1140090E8030021F0D7F806F144
:104E0000140282E80300BDF80000291B6FF31F3174
:104E1000ADF8020040F2FF70884207D9AC4205D0DD
:104E2000AC4284BF621BA2F580520AD8621BC2F357
:104E30000B01884205D9A54203D0A54288BF02F5DF
:104E40008052A8EB05000DF110091436C0F30B03D6
:104E500049463046FFF7D6FC02AA494606A8FFF7A6
:104E600097FC19E004A82246FFF73EFF09E004ADD5
:104E700028462246FFF720FF02AA294606A8FFF788
:104E800087FCBDF8020040F2FF71001B6FF31F307A
:104E9000814298BFADF8024021F096F869460C3780
:104EA0003CC93CC791E80E0087E80E0021F0B0F83D
:104EB00007B0BDE8F083C0469C780020F0B5ADF1A6
:104EC0001C0D144604F051FC05461F2D00D101BEF7
:104ED00021F07AF829464A0102EBC1026A49891891
:104EE0006A46E8C9E8C291E82A0082E82A0021F06F
:104EF0008FF8207800F00C0004280FD0BDF81810AF
:104F0000BDF81A004018E18AA0EB211000F6FF70EE
:104F10006FF31F3040F2FF71814201D9012000E0A0
:104F2000002007B0F0BD2DE9F041984617460E4627
:104F3000054604F01AFC1F2800D101BE41019E4C19
:104F40000C2D01EBC0000444278200DB01BE284683
:104F5000C101002501EB400104F11C0201EB4601F7
:104F6000A348A784A4F82680E581405AA0810021A7
:104F7000284682E8030004F1140282E8030004F1E9
:104F80001402394604F1120092E80C00FFF760FEAB
:104F9000361D65702946F0B215F0DEF9BDE8F081E6
:104FA000000000000000008030B5521AC2F30B026E
:104FB000034640F2FF7090420ED9002494A595E874
:104FC000030022F0CFFD93E80C0002400B400CBF21
:104FD000002A0124204630BD002030BD7CB5144697
:104FE00004F0C3FB0546E08A1F2D4FEA201408BFDA
:104FF00000202AD020F0E8FF29464A0102EBC10236
:105000006D498918CE898D8C1C3191E806008DE898
:10501000060020F0FDFFA11B6FF31F3140F2FF706F
:10502000884201D9A6420FD1291B6FF31F31884254
:1050300003D9AC4218BF012007D122462946684651
:10504000FFF7B2FFC0B27CBD02207CBD70B5144634
:1050500004F08BFB05461F2D00D101BE20F0B4FFEC
:1050600029464A0102EBC102074989186CC96CC480
:1050700091E80E0084E80E0020F0CAFF70BD4E4893
:10508000C8210DF089BCC046A8780020F0B51446B0
:105090000E46054604F08EFB1F281FD00C2D00DBAA
:1050A00001BE2946CA0102EB41029F4902EB86027A
:1050B000895A091201F0070102290FD13E4B4FEA2C
:1050C000401101EBC0000344186958B1186840F260
:1050D000FF71201A6FF31F30814201D80020F0BD0C
:1050E000002018619A89DD89A11AA818401E86B28D
:1050F00040F2FF706FF31F31884204D9311B6FF308
:105100001F31884240D8A11BC1F30B07B84221D9F7
:10511000A6421FD0A64228BF01F580510AB295428F
:1051200007DD03F1140090E8030022F01BFD0F4699
:1051300001E000200027064603F1140181E8C000C9
:10514000998952189A8199896D1E2AB26FF31F317D
:10515000998120E0111BC1F30B05A8422AD9944282
:1051600028D0944228BF01F5805103F114000AB2FF
:1051700090E8030022F0E7FC03F1140282E8030048
:105180009C81002101200AE0A24292BFA41AA41A25
:1051900004F5805422B20021012022F0D4FC044600
:1051A00003F114000D46143390E803000D4304434B
:1051B00083E830000120F0BD9C78002030B51D460A
:1051C000144604F0F7FA1F2800D101BE410101EB9B
:1051D000C001954801224018002104608481C581E6
:1051E000026141600022143080E8060030BDC046F4
:1051F000993B002000B504F0DDFA1F2808BF00200D
:105200004FEA401103D001EBC0018848401800BDAF
:10521000000000000000008070B50E46044604F057
:10522000C9FA05461F2D4FEA451021D000EBC501F4
:105230007D48401820210DF0AFFB00232A4631465F
:10524000204604F0D5FA0C2C00DB01BEE101A14898
:1052500001EB440101EB86014018B0F80D204FF638
:10526000FF011140A0F80D102A463146204604DF08
:1052700070BD3EB5984C05464FF0FF008DF800001C
:10528000207861B9B8B1A843207014D101208DF8FD
:10529000010069464FF080401EF02EFD3EBD40B932
:1052A00000208DF801004FF0804069461EF024FD7B
:1052B0002078284320703EBD30B5002405460422E6
:1052C000E1B22846FFF743FBE1B22846FFF7A4FF0F
:1052D000641C082CF3DB30BDFF284FEAC01106D058
:1052E00001EB40007B496331095CFF2901D10020BB
:1052F00070477A488A0002EB410281180A78520806
:105300002CBF081C1E30704700B50B46FFF7E4FFAA
:10531000002808BF00204FF0010104D099404078D8
:1053200008401841C0B200BD6D3B0020F8B50C0A22
:10533000A648CEB2E4B20768E1B2304604F015FAEE
:105340001F284FEA40113CD0374D01EBC000E1B2BD
:105350002D186A683046002A2CD1FFF7D5FF0028A7
:105360002FD02720ADF80200200340F40060ADF8F4
:105370000000304603F06FFC00F15C02012331466F
:105380006846FFF760FA0222E1B23046FFF7DFFA23
:105390000C2E00DB01BEF0014E4900EB460000EB95
:1053A00084000818B0F80D204FF6F8711140A0F8ED
:1053B0000D10F8BD3046E1B2BA1AFFF731FB0020FC
:1053C0006860F8BD117C80F83C10704770B50646E7
:1053D000012E1D462C6917D1084612F03EFC81684B
:1053E00021B1091D90F84300401802E0C0684068F0
:1053F000001D042229461A3021F06DFD20F0BDFD6C
:105400000021297520F0C9FD032E08D1012C4FF091
:10541000000000D901BEA64904EB8404085570BD04
:10542000117D80F83C1070479C780020A8780020FF
:10543000F0B50746012F16465C691D461ED1084689
:1054400012F00BFC816821B1091D90F8430040184F
:1054500002E0C0684068001D29781A3000F8011B7E
:10546000698820F8021BA98820F8021BE9880180BE
:1054700020F083FD0021297620F08FFD032F27D116
:10548000012C4FF0000200D901BE894904EB8404CD
:10549000A1F10D0121444878CA708978B6B10C2871
:1054A00000DB01BE0446E30103EB4403094C03EBBC
:1054B0008103E518B5F80D5025F00705E41845F00F
:1054C0000105A4F80D50FFF7ABFAF0BDFFF72BFA7A
:1054D000F0BDC046603B0020A9990020849F0020B9
:1054E0002DE9F04FADF1140DFF2300278346744ED4
:1054F00003920491022106F10506F2782AB1491EB1
:1055000007F10107F7D1761D00E03B46FF2B1AD0CB
:10551000BBF80200801000F00F00824620F02DFD45
:10552000DFF8B092AC4C4FF00108D9F80050690197
:10553000A1EB85016418217E6D1C05F0070501298A
:1055400003D120F02AFD00202DE084F8188020F0FF
:1055500024FD08225946204621F0BDFC039804F1A1
:10556000080120F082FD00946761A748A74B5246CE
:1055700001900294049916201DF012FE002805D512
:1055800020F0FBFC00218846217609E086F80380A4
:105590000498707086F802A020F0EFFC49460D6078
:1055A00020F0FBFC404605B0BDE8F08FFF2808BFA7
:1055B0000520810001EB400195484018704700B577
:1055C0000A46FFF7F3FF827000BDC0466055308089
:1055D00000B5FFF7EBFF017841F00101017000BD5C
:1055E00000B50A46FFF7E2FF02F07F02427000BDFD
:1055F00000B50A46FFF7DAFF828000BD10B50C4601
:1056000002F01AF800B901BE017831F004020BD0A3
:10561000022903D0052901D001BE10BD001D04F1EF
:10562000100120F022FD10BD007C04F1100122F0D9
:1056300024FA10BDF0B501780C2900DB01BE754AD3
:10564000C6788788545C4178FF2C0D4608BF0E2031
:1056500028D0807810B32046002204F019F91F28C2
:1056600008BF18201ED02946334620463A46FFF789
:10567000A5FD22460C2A00DB01BED001A64900EBA5
:10568000420000EB85000A18B2F80D20091822F438
:10569000E06242F40072A1F80D2002E02046FFF71C
:1056A000BBFD0120F0BD00B5FFF716FE807800BD00
:1056B000A299002000B5FFF70FFE808800BDC0460C
:1056C000909900202DE9FC4F0F46804603F0C3FA65
:1056D00006463946404604F048F8B8F10C0F8146BA
:1056E00000DB01BE4046C2018B4D02EB400200EBE5
:1056F0008010381805F10F0B05EB40053935B9F16D
:105700001F0F2C88924609D140463946012204F0E9
:10571000BFF88146394640464A4604DF22463946AC
:105720004046FFF7B2FAB9F11F0F494650D0480181
:1057300000EBC100984C241800202070B8F10C0F29
:1057400000DB01BE2D884046FFF7ADFF03462A4629
:1057500039464046FFF7E7FB4046FFF7ABFF608066
:1057600062888C49ADF804200878228AB8F10C0FC1
:105770008DF800004FEA021200F10100ADF806209A
:10578000087000DB01BE854BB8000AEB0B021B68FA
:10579000115A6FF30B0141EA13511152E18C40EAA7
:1057A000811040F00200ADF80200F06D20F008FC1E
:1057B0000446B6F8600020F005FC03464146224648
:1057C000484605DF06F15C0241466846FFF788FE61
:1057D000BDE8FC8FAC9900204075002030B50378FF
:1057E0004178848885781846FFF7FAFE29461846DE
:1057F000FFF7E5FE21461846FFF7FAFE1846FFF7C9
:10580000E7FE012030BDC0462554000015540000BD
:10581000849F0020839700202DE9F04F0746B86849
:1058200020B1001D97F843502D1802E0F868456834
:105830002D1D7C7897F83E6022460C2A00DB01BEC5
:105840002146C801DFF8D0A000EB410000EB860044
:1058500051460D31085A00F0070080463146104687
:10586000FFF752FD8146204605F091F88346204619
:1058700003F0B0FF22460C2A00DB01BED30103EB8C
:1058800042035146CA181378002B00F0818092F829
:105890006520022A7CD1BBF1000F79D1B9F1010F4B
:1058A00076D10068002873D0287820F003000828FB
:1058B00018BF88286CD13A4AB8F1000F3A4855D140
:1058C00052F82630374D4FEA431202EBC302AA5A70
:1058D0003AB1364AD25C825C97F82430C05C82428E
:1058E00056DC334D2D482A788AB122460C2A00DB3B
:1058F00001BED30103EB420303EB8603CA18B2F8DF
:105900000F300268A2EB03522A4B934226D3224661
:105910000F310C2A03DB01E0603B002001BED30104
:1059200003EB4203006803EB8603CA5AA0EB025064
:10593000214A82420CD322460C2A00DB01BE2046BB
:10594000C20102EB400202EB8602885A00051FD119
:1059500031462046FFF7B6FEBDE8F08F20463146BF
:10596000FFF7B0FE00202870BDE8F08FB8F1020FFD
:105970000ED152F82610114A515C97F82420415C50
:10598000805C814204DD314620460022FEF7DFFFC5
:10599000BDE8F08F949900209C78002060553080FD
:1059A0007C9E0020C66A00207C99002098A00020E0
:1059B000EB9400203F420F007F9698009CA00020AF
:1059C00070B5ADF1200D9E4A92E83C008DE83C0098
:1059D00091F83E209B4B896A53F822405DF82420C1
:1059E000C9081268A14B09D24FEA441101EBC40166
:1059F000194401F1A4014FF0070508E04FEA4411F2
:105A000001EBC401194401F1A0014FF0040580B17C
:105A1000086885420DD3400813D35200521C600120
:105A200000EBC4001B18B3F89800904298BF021C0A
:105A300007E000200860600100EBC4001B1893F829
:105A400097209A4904A891E86A0080E86A00E0B2C9
:105A50000DEB8000006908B0026070BD10B5944B7A
:105A600004794178C278DC70197044799A70817831
:105A700000781C71597018F087FE012010BD10B518
:105A80000446607802DF61788A48017064204843E8
:105A900009F087FE012010BD4078A649087001205A
:105AA000704738B542054FF6B17102EBC042114361
:105AB00004256B466D4AA04C44F8041C6E3212F863
:105AC000281F0229A8BF491E19706D1E03F101038A
:105AD000F5D19DF8001000FB01F2D10001EB42016D
