:1000000000000006000000000002BBDCDC05002050
:100010006D980200DD980200F9980200FB240200AE
:100020005B250200C5240200FFFFFFFFFFFFFFFF6B
:10003000FFFFFFFFFFFFFFFF85AA020011990200EB
:10004000FFFFFFFFFFFFFFFFFFFFFFFF0127020092
:1000500035A90200A9260200A9260200A92602004D
:10006000A9260200A9260200A9260200A92602004C
:10007000A9260200000000000000000000000000AF
:100080000000000000000000000000002DE9F04F1B
:10009000ADF1240D28F0E8FD7E4A7F4EFF217F4B15
:1000A00092F800B0376803911970117028F000FEC3
:1000B0007B480490D0F83806400902D3002027F08E
:1000C00093FC7849BBF1FF0F086800F1010008605C
:1000D00075494FF48000086003D0012039460CF0C8
:1000E0000FFB724D4FF00004B046287800B3D8F8EB
:1000F0000010487891F83E1004F0CBFBC0B1D8F85E
:100100000010C8684268107900F00C0004280FD075
:100110000094487891F83E10528B1311012209F097
:1001200029F9D8F80010487891F83E1002F031FA19
:1001300020460590287001200DF067F8061C02D0BB
:10014000F0684068001D5A495A4ADFF874A10691C8
:1001500009680792DFF86491002937D026B100784A
:1001600020F00300E42803D00798007801282DD15F
:1001700051480068B0F5B07F28D904200CF01AFC73
:100180000546C9F8005011F07FFC012185F82400D4
:1001900008918140C1F31011090102D100B1089CFE
:1001A00000E00424504604700598E882E86844683A
:1001B00001A82AF04DFC0E34214601A828F08FFD3D
:1001C000089C4846016820460CF0EAFCBBF1940FFD
:1001D0000FD197F83E10F8684268107920F00300BC
:1001E000842804BF908A011378784FF0FF3208F01A
:1001F0008EFF28F039FD83464846324D026850464E
:10020000002C017804BF2968059C0AD001202860D1
:1002100092F824200398059C234602F0E3F9214636
:100220002C600798D8F80070027862B919B397F873
:100230003E00264951F820002349085C21460CF075
:10024000AFFB2C6017E0059901702C6006200CF0C4
:10025000B1FBB8420DD1D8F80000214624F037FD9B
:10026000049804990068C00803D3086820F00100CE
:100270000860286838B926B1B078072804BF06207E
:10028000B07006980460584628F012FD09B0BDE829
:10029000F08FC0468B91002064910020899100204E
:1002A000984E3080E8AC02006C043080C895002085
:1002B00078910020889100206C9100205C910020B2
:1002C0008E9100207C910020E4190020989A002053
:1002D0002DE9F047ADF1200D22F0EDF9804676488A
:1002E000764C007894F81890002840F0908028F020
:1002F00094FCE16A8246E06B266B656BA76B01405C
:1003000000EA060600EA050500EA070758D129F0C9
:10031000C5FE002851D1354348D1694D00262E60D5
:10032000694601200AF0B0FB0098192808D0012086
:100330002860049807900398069006A827F065F9AE
:10034000286850B127F0BEF838B912F0A3FE011C9E
:1003500041D0C91E012940D82CE025F0E1FD5348C9
:10036000D0F8981009B147F08067016809B9406872
:1003700008B147F00077B8F1050F18BF47F0804784
:10038000002F4FF001070BD1286828B1286838B139
:10039000304627F0CFF818B117B10AF0D5FD1EE0AE
:1003A00001200AF01BFC0AF05BFF16E0002E14BFD0
:1003B000032004200AF0FAFC0FE04FF000060EE0E4
:1003C0000120B9F1030F1CBFB9F1040F0020354320
:1003D00018BF002801D10AF006FD4FF00106207E6B
:1003E00020B9B8F1050F01D10AF061FF304800785B
:1003F00010F0240F08D13EB1B8F1050F04D12D48FB
:10040000007808B928F068FC504628F016FC08B0BF
:10041000BDE8F08770B566201FF06EFB29494308E0
:100420002A4C0A6828490ED2800825D300220846A3
:10043000027028F0F2FB05461B200AF053FF1C2037
:100440000AF050FF15E00126084606702048C4381F
:1004500000689062202120468430016028F0DDFB96
:10046000054631461B200AF047FF00211C200AF0F8
:1004700043FF284628F0E1FB4FF08040206070BD2C
:1004800030B528F0CAFB05460AF068FC114C207E06
:10049000012806D1607E0AF0C5FB0AF067FC607E89
:1004A0002076284628F0C9FB30BDC0465404308071
:1004B000848B0020EC9E0020498E0020DC790020F7
:1004C000988F0020089C0020F8790020700430806C
:1004D00024563080DC79002079487A4A70B501686A
:1004E00010687A4C00F101001060A06828B14FF04C
:1004F0000070626C10600020A0600029724D6BD10A
:1005000094F8220038B9218FE06940684018001D36
:1005100004F1400110E0E0694168208F4018001D9F
:1005200004F14001042229F0C8FBE069218F4068F2
:100530004018083004F13C01042229F0BEFBE169B7
:100540000868E0B1E08C401CE08404F12C00228FAC
:100550000989891AA28C891A091F89B216F014F820
:10056000E0690068E061006818B94FF0000084F8A5
:1005700028000020014602461EF068F870BDD5F83C
:100580001001401CC5F81001A069C1684FF0007649
:1005900010E04A685B681068C3F35215854207D0C3
:1005A000E16113F0A3FA02461068E1698542F8D1CF
:1005B000166009680B68002BEBD1E161A26900208D
:1005C000906092F84330918DC91A918582F843006A
:1005D000022028F040FE70BD0120A169C870D5F846
:1005E0000401401CC5F8040170BD3948364B70B594
:1005F0000168D3F80C01354C00F10100C3F80C017F
:10060000204600F11000006841B1D3F8001101F15B
:100610000101C3F800114FF004014170E1680A685C
:10062000C2B9D3F8082102F10102C3F8082194F8F5
:1006300058203AB900224A6041880069818029F037
:10064000D8FF70BD237D0A89D21A121F0A8116F0C5
:10065000EFFA70BD94F858004FF0000520BB4D60D4
:1006600004F14800B4F850200989891A89B215F0BC
:100670008BFFE0680668A06CE66003E0084613F0B4
:1006800035FAE66801682269B4F85030B1F1007FAC
:10069000F4D17168C1F3521101605188308940185A
:1006A000C01A5080284606E0237D0889C01A001F22
:1006B0000881E260002001461EF080F870BDC0464F
:1006C0000418308018AD020004AC0200B08A00208B
:1006D000041930802DE9FE4F674E664C306825685E
:1006E00015F048FC00285DD1B04655B96348006854
:1006F000C0B2634A1168411AC9B221601060002972
:1007000047D06248DFF880A15E4F019028F085FA5B
:100710000290D8F800502D1D284615F01BFB064608
:100720002068401EB18D206096F84300884200DBAF
:1007300001BE95F802B0584613F099FA10F100097D
:100740002CD0C6F8089029F0E3FB386896F83F10E3
:100750006B465A46401C3860484613F0BFFCA878E8
:1007600096F83F10814200DD01BE009AA0EB010027
:10077000C0B2C8F80020019928B10A6896F83E1066
:100780005AF821109047029828F057FA206800285C
:10079000BCD10A2028F0D6FBBDE8FE8F01BE02982E
:1007A00028F04BFABDE8FE8F3948026839480168E5
:1007B00029B1510803D20021016015F0EDBB70474B
:1007C0003649354B2DE9F04F0A6853F8B40C7AB12D
:1007D000801A1C68324A84422EBF14601060186070
:1007E000304A13688342B8BF10604FF000000860C1
:1007F0002D4C206858B92D480168C9B22C4B186897
:10080000081AC2B2101C196008BF22602DD04FF028
:1008100000092A4E284F4FF0007ADFF89880396897
:10082000401E491C2060396015F0E1FB051C06D113
:10083000D8F80000401CC8F8000001BE12E028F003
:10084000ECF983463068401C306068694068C0F845
:1008500000A06869C0F80490284629F0CDFF5846EA
:1008600028F0EBF920680028D9D1072028F06AFB8E
:10087000BDE8F08F888C0020848C0020A808308090
:10088000808C00208CAC0200989A0020F89B0020FD
:1008900074443080948C002014563080B08C00203A
:1008A000AC8C0020688C00208C8C0020A408308048
:1008B0006C8C00207C8C002018AC0200788C00200E
:1008C000F0B5ADF1280D28F0A8F94C4C4C4907467D
:1008D0004FF480700860E06B002684F88560002883
:1008E00000F0878094F88400401C84F8840001A9FB
:1008F000684609F041FAE06B03AA31460C3009F072
:100900006BFA0028039801D132282AD8E06B04A999
:100910008569B0E80C50A1E80C5090E8050081E82A
:100920000500384628F089F9099B04980599039A2F
:10093000984728F072F9074631E00C3003AA3221BB
:1009400009F04AFA002810D4E06B0C30314603AAB3
:1009500009F042FA28B101A9684609F00DFA3220DF
:100960000390039809F096FA3EE001A9684609F061
:1009700003FAE06B04A98569B0E80C50A1E80C50BB
:1009800090E8050081E80500384628F056F9099BF3
:100990000599039A0498984728F03FF90746284696
:1009A0000AF002F9012806981BD120B928463146E1
:1009B00009F0EFFB15E02846314609F0EAFB04A8F0
:1009C00009F099FC94F884002A4602A9401E84F894
:1009D000840004A809F098FA94F88400401C84F874
:1009E0008400E06B0028A8D194F88400401E84F8AD
:1009F0008400384628F021F90AB0F0BD9C7C002024
:100A0000700430803F482DE9FC41001D006810F063
:100A1000060F00D001BE3C4C394FA18AB1B1A0698C
:100A200000903888ADF80400E268908D814200DBC8
:100A300001BE92F84320801A401A81B2684615F030
:100A4000A3FD684615F0FCFDBDE8FC81E16891F866
:100A50004320888D801A8885002581F84350C96815
:100A60004FF0007811E04A685B681068C3F35216D3
:100A7000864207D0216113F039F8024610682169D7
:100A80008642F8D1C2F8008009680B68002BEAD1D1
:100A9000E06885602561E5603D60A08A00B101BE27
:100AA000022028F0D8FBBDE8FC8117480CB501688E
:100AB00001B901BE154A13685B0800D301BE126874
:100AC00012F0060F00D001BE42688AB1086900909A
:100AD0000420ADF804004888103081B2684615F053
:100AE00053FD009800B901BE684615F0CAFD0CBD63
:100AF0004A8809698A800021016029F07AFD0CBDCD
:100B0000B89C0020044430809C9C00202C44308001
:100B10000FB52B48016829480078084311D02948AF
:100B200000680002C00840F0004027490968ADF89D
:100B30000010001D1AF01EFE01466A4601201FF03B
:100B40002BFA22491020009008600FBD2A4800B5FA
:100B50004FF08061001D01602849012008601C4899
:100B60000078002828D01B48007808B126F095FFAF
:100B70001949086800F1010008601848007808B1B8
:100B800011F034FE23F09EFD1648154900680880D8
:100B900016498868144A00F007001070086800229F
:100BA0001349400F00F003000870022015211FF0C8
:100BB000F3F910490020086000BDC046498E0020AE
:100BC000207C0020A0C0002070A03C8070043080F9
:100BD00020950020EC9E0020E4AC02002499002027
:100BE0003C84002028953C8020840020BC0E31806D
:100BF00021840020DC9500206C043080E0950020EA
:100C00003348F0B500684068143029F066FB31497C
:100C10000746324C086800F10100086021684FF077
:100C2000190019B109F0F4FA002020602C4C2D486D
:100C30000025A26894300321556003680160616853
:100C4000254E4878202810D013F0030F04D13846E1
:100C500022F074FDA26808E0D6F8540100F101000A
:100C6000C6F854014FF004004870106858B9D6F81F
:100C70005C01401CC6F85C016068418800698180A5
:100C800029F0B7FCF0BD04F11000238B1189C91ABB
:100C900089B215F079FCA06806682069A66003E0B7
:100CA000084612F023FFA66801686268238BB1F141
:100CB000007FF5D17168C1F352110160518830890C
:100CC0004018C01A50802846014622F0AFFDF0BD02
:100CD0003C97002068AD020004AC02005097002051
:100CE00034970020101430803CB5294D2868400A04
:100CF0001ED2284C2068816821B1091D90F843005C
:100D0000401802E0C0684068001DA28E04F1140182
:100D100028F0D3FF286A0090218A686AE2686B464F
:100D2000019008201FF00DFD2168888D083088850E
:100D3000012028F090FA3CBD30B5174D154CD5F880
:100D40006801A28F401CC5F86801A06B04F13E0148
:100D500028F0B3FF1149124820310A6803689A420B
:100D60000BD149684068814207D1A06B29F0B5FAE0
:100D70006168A2681FF03CFC07E0D5F86C0161686F
:100D8000401CC5F86C011020487029F030FE30BDC1
:100D9000001C30809089002004AC0200281C3080A8
:100DA000A89E002022494FF0807000B508602149BC
:100DB0000868401C08600DF09BF8062028F0C2F877
:100DC00000BD38B51C4D4FF6FF74A86C009000981C
:100DD000844209D0009801F071FBA86C0090009843
:100DE0008442F7D1012000E0002029680091009999
:100DF0008C4201D1B0B938BD009840F0010000909C
:100E000000988008C0B222F0CFFF18B1816A41F487
:100E100000218162009801F051FB28680090009841
:100E20008442E9D102484FF080710830016038BD3A
:100E30007004308068AC02005C4E308030B540F603
:100E40006E401EF059FE044640F66C401EF054FE03
:100E5000104A40EA0441146801250D4A0C404FF441
:100E60008061116010E0B4FA84F1C1F11F0105FA4C
:100E700001F18AB2803924EA020418BFB1F180017D
:100E800002D1002027F07EFA002CECD130BDC04604
:100E90006C043080309C002030B527F0BEFE00216D
:100EA000084A094B094D11701A782D689401C2F156
:100EB000010229511A7027F0C0FE0C2028F042F8D8
:100EC00030BDC0466C9F00206E9F0020649F0020B4
:100ED0000549022000B50860042028F033F80020FE
:100EE00028F030F800BDC04670043080024901206F
:100EF0000860152028F026B87004308002494FF4AD
:100F0000001008601EF0AEB8700430800B2028F08E
:100F100019B800002DE9F043ADF1200D07467868BF
:100F2000604A0D46011D14301060027895F8678004
:100F3000D02A08D1027E032A05D1427E022A00F07F
:100F40008E80012A22D0B54A127812091CD20A6872
:100F5000520F19D30979490816D3048B04F00F04F2
:100F6000082C11D22146404604F094FB60B926209B
:100F7000ADF802002003ADF80000414600236846AA
:100F800005F1600207F0C1FF012088E01A3010F877
:100F9000011B30F8029B30F8025B00888DF81C10B2
:100FA000A91001F00F010E46082EADF81E004FEA01
:100FB000650000F001046EDA404603F05FFC012892
:100FC00069D13146404608F0D3F8B9F1000F08BFA7
:100FD000012C1BD0404603F09EFC252100F160024D
:100FE000ADF8021001233103684641F40061ADF809
:100FF0000010414607F089FF00223146404603F0C9
:10100000B6FE3146404607F0F0FF44E03146404628
:1010100004F008FB1F283ED031466A46404608F0DF
:1010200031FBBDF81A40A811C5B2A54207DA314616
:101030002A46404608F035F82C46ADF81A403146AD
:10104000404603F0E1FC0246E3B23146404608F078
:1010500095FA03223146404603F089FE1BE0408B9F
:101060000113000B0C460BD2082C14DA404603F097
:1010700005FC80B121460122404607F0CAFF0AE084
:10108000082C08DA404604F005FB022803D121466B
:10109000404608F0CCFB384612F001FF002008B0B3
:1010A000BDE8F083D49E00202DE9FC4F054668681A
:1010B000071D90F806800069000E14F0C5F88346FD
:1010C00014F0B1F800906C68396800261434207868
:1010D000C90C20F0030907D200F00C00082803D146
:1010E000B7F9000012F042FFBBF1000F009906D0E3
:1010F00001208840400902D358460EF02BFF388863
:10110000B9F1400FC5F80C802881DFF810810BD1B0
:1011100040464DB1007810F0260F05D0284622F049
:1011200055FA002840F0E080204603F033FF824665
:10113000BAF1FC0F00F0C580BAF1FB0F00F0C180DE
:10114000F868BBF1000F6AF31F60F86005D15046E4
:1011500014F07AF814F067F80090012001900099DB
:10116000884010F0240F03D05FFA8AF024F014FBBB
:101170005FFA8AFB584603F0CEFB0090617848087E
:1011800028BF201D05D288082CBF04F10A0004F1F5
:101190001000AE4927F0ABFD002840F08F80B9F178
:1011A000500F0CD0B9F1800F09D0009928461AF0E1
:1011B00046F9F968000200F480700843F860404680
:1011C00000782E6010F0240F03D0504621460BF01B
:1011D00098F8207800F00C00082839D16078E18A6E
:1011E00000F0040001F00F01014331D021462846F0
:1011F0001AF048FA05466078C00811D2207820F02D
:101200007300882807D1208B400904D3E08A4FEA75
:1012100020105FFA80F8DDB9BDE8FC8F848B0020D8
:10122000BAF1000F63D1F868019D3946020A2B46D6
:1012300002F00102204615F061FFF8682B4639469E
:10124000020A02F00102204618F0EAF8BDE8FC8F1D
:1012500000992846FFF75EFE002848D02846394608
:1012600027F088FC002842D0607800F003000328B3
:1012700008D0F868400A05D213F055F8061C33D0A0
:1012800086F800B0002E2FD075616968488DB8EBE4
:10129000201F08D1087D20F07300882803D1888D95
:1012A00040F01000888530461AF090FA30461AF067
:1012B0007DF9304629F0A4FABDE8FC8F6448067039
:1012C00012E04046007810F0240F0DD0BAF1FB0F69
:1012D0000AD104F10A0004F097FB28B9072204F1AF
:1012E0000A01092003F078FD284612F0D8FDBDE878
:1012F000FC8F2DE9F04F574DD5F8DC00401CC5F8A8
:10130000DC0055480078ADF1240D26F0A0FB6846BE
:1013100026F03CFC009C002C00F094800595504881
:1013200006904E4807907E200890DFF838814E4D99
:10133000DFF838912069800B00F00100834604A893
:1013400021F0B2FA261D0DF10F0021F095FA069852
:1013500001AF01780798006808430AD038461EF0AC
:1013600044FF30461AF006FA01463A4600201EF0C5
:1013700013FE30461AF0FEF901A91EF024FEF179A1
:101380004FEAE00040B211B100F1060040B2B07186
:1013900010F1220FDABF1F3840000898F071204684
:1013A00012F06CFF8246204612F056FE306800278D
:1013B000400C12D3BBF1000F0CD11434204631463F
:1013C00026F0A2FBBAF1000F04D018B95046FFF77F
:1013D0006BFE01273068400C0DD2D8F80000401C8D
:1013E000C8F8000028686FF30F0028602968D8F853
:1013F000000008432860BBF1010F0FD1D9F80000AD
:1014000000F10100C9F8000028686FF31F40286050
:10141000D9F80010286840EA014028605FB9BAF1A5
:10142000000F02D0504612F03AFD0599D1F8A800FD
:10143000401CC1F8A800684626F0A8FB009C002CC0
:101440007FF478AF09B0BDE8F08FC046EC1E0020F5
:10145000CE9D002004AC0200EF860020207C0020FE
:10146000498E0020CC9E0020884E3080D09E0020E7
:101470002DE9F04FDFF89CA1ADF1440DDAF8000042
:10148000002840F0C180DFF890B16FF00040CBF849
:101490000000624D01200D90286027F0BEFB4FF048
:1014A00000090E905E4CC846CDF83C904746264653
:1014B00010955D46D346DDF834A0B16830468847C4
:1014C0003068022800F09D80012807D1308A28B9B1
:1014D0000AFA07F040EA08001FFA80F87F1C183665
:1014E0000D2FEADB0E9827F0A8FBCDF838A04D4F62
:1014F0004E461CE00499059A0BA827F06EFA08A93D
:1015000007A829F059F807AA0BA909A827F09DFAFE
:101510002968080100EBC1002018416909A827F0DB
:10152000CAFA002842DD286800F101090F963868E0
:1015300020B10F98014624F036FC3E60684626F044
:10154000C6F848460C2848DC0E99814018EA010F7D
:1015500009D0010101EBC0010B1961180A799DF84E
:101560000010914203DB401C0D28EDDB35E02860C4
:10157000187901A909F088FA0198192816D0296864
:101580004FEA011000EBC10004EB00012044408A47
:1015900010B147F230500F9003980028AAD0496943
:1015A0000F9A51188842A5D810980660684626F010
:1015B0008EF828689DF80020010101EBC001611838
:1015C0000B799A4220DA498A59B902DF2968080161
:1015D00000EBC1002418E06880470B2009F0A8FF49
:1015E00012E00D98CBF800000B200AF067F829688C
:1015F000080100EBC10024180548618A24F0D3FBE0
:1016000002E00E9827F019FB11B0BDE8F08FC0463C
:10161000DD760200609D0020689D00206C9D00200A
:101620009C690020649D00202DE9F0434D4D286801
:10163000002128F04DF81AF008F90A2604460EE0B9
:10164000286828F088F82860204626F0F7FFA67062
:101650002868002128F03CF81AF0F7F8044614B185
:10166000A0780928ECD06868002128F031F881467C
:101670001AF0EBF83C4E074661E0484622F0A8FB22
:101680008046B86820B1001D97F84310091802E0A1
:10169000F8684168091D7878022203F013FCB8F15C
:1016A000000F014609D0384627F0D7FE18B927F0B9
:1016B0001DF8BDE8F08327F032F86868002128F0B3
:1016C0003BF8686828F047F86860484622F094FBC9
:1016D000002408B14FF00104DCB9484622F080FB39
:1016E00088B9D6F88000401CC6F88000384624F03F
:1016F00036FA384603F0C4FE384622F089FB022051
:1017000009F016FF0EE0D6F88400401CC6F88400ED
:10171000EFE7F06F401CF067384603F0B1FE384643
:1017200022F076FBB8F1000F01D027F085FE686843
:10173000002127F0CDFF81461AF087F8074617B140
:10174000B8780A2899D00948017841B14FF00001D2
:1017500001700748006810B1082027F0F3FBBDE8CE
:10176000F083C046FC82002004AC0200709E002082
:10177000749E00202DE9FF4FDFF82481494DD8F8F1
:10178000BC00401CC8F8BC002868002840F08580D8
:10179000454804680090474801904FF0000BDFF87F
:1017A0000C9143480290584603901AE0296807E0DC
:1017B000486942680A61C0F804B0486900894880F5
:1017C000084629F029F899F8000040B1484680F809
:1017D00000B00298006810B1082027F0B3FB03980E
:1017E0002860002C59D094F82200042855D1606953
:1017F000466814362078039A314603F063FB0746A7
:101800007078C0090DD3307810F00C0F09D047B9AB
:10181000607840F008006070D8F8FC00401CC8F800
:10182000FC002146296000988C68046048780028F4
:10183000BED10198002F2BD00068000A28D2D1F821
:1018400014A0304629F099F8BAF8081010398842E7
:101850001DD23A782968521E012A11D9921E08D049
:10186000521EADD10846394615F08EFF01289DD095
:1018700013E00846394621F0D9FF012896D00CE044
:10188000084639461CF09AFF01288FD005E02968E8
:10189000084615F0CDF9012888D00090BDE8FF8FEB
:1018A00004AC02009C9F0020A09F0020478E0020D7
:1018B000749E0020D09F00202DE9FF4F01201CF0D6
:1018C00017FE00201CF014FE27F0A7F9044609F0CB
:1018D00095FF38B94348002109F006FE204627F05D
:1018E000ACF97CE0204627F0A8F94048404C009035
:1018F000DFF804B10820A2460190072002903D487D
:10190000DFF8E4800427039018F8010D0BF0EDFADE
:10191000002860D1384623F01BFA8146B9F1FF0F49
:101920003ED1384623F09CFA8146B9F1FF0F52D0E0
:1019300023F0CAFA484619F088FF0646308E851013
:101940001CF01BFB05F00705A842029824D1717812
:10195000C801A0EB41000099085C012818BF0328CA
:101960000BD1F07838B9484622F046FAC0B9304673
:101970000BF013FC14E0206811E0F0684068001DD3
:101980000178C0290CD0A0290AD007F0FFFB38B994
:1019900020680199F17002E0F070DAF80000F0615F
:1019A000484619F052FF8178062902D0072900D055
:1019B00001BEC06800B901BE0398042F07D10078AA
:1019C000012804D19BF80000012800D101BE39464E
:1019D00048461CF070FB7F1EB7F1FF3F94D100908A
:1019E000BDE8FF8F95E00100E9190020403000209C
:1019F00060553080768F0020A06800202DE9FF4FD1
:101A0000464D2868002877D13D4804683D49D1F803
:101A1000008000918346DFF8F0903C4F3C480190F5
:101A20003C4802900CE03C60A4683046CBF8004093
:101A300028F00EFF304628F0DFFE072027F082FA5C
:101A40003748002CDFF8D0A003903CD094F8220057
:101A50002646072837D12E6003983269D038D0F84F
:101A6000CC101432491CC0F8CC101178402902D196
:101A7000816A491C81623868864208BF99F8000073
:101A800006D0204626F02FFF2E6889F800003E6021
:101A90000028C8D0019800780028C4D102980068B6
:101AA0000128C0D0304626F033FD50460168286832
:101AB000884700284FF0000004D13C60A068CBF8B4
:101AC000000000E02860B8F1000F15D098F822005F
:101AD000072811D1C5F800800398001F0168491C30
:101AE00001605046016840468847002806BFD8F884
:101AF0000800009D002028600090BDE8FF8FC046D0
:101B0000889E00208C9E0020949E0020909E0020A5
:101B1000498E0020207C0020049C0020849E002010
:101B2000D4AC02002DE9FE4F344C4FF00008A06801
:101B3000002861D13348009001200190DFF8C8905F
:101B4000DFF8BCA0CDF8088018F1000105D0491ECF
:101B500004BF04F1100502270EE004F10C05032771
:101B60000AE02868394627F0E7FD286827F0F3FDEA
:101B700028602168304688472868394627F0A8FD44
:101B8000FF2825D022F010F9064696F83E005AF8B4
:101B900020B0F0780028E4D1A06800B101BEA660B2
:101BA00096F83F00594627F095FB009801683046AB
:101BB0008847A0B90198032F01D001BE01E089F840
:101BC000000096F83F10584627F06FFB0298A0607F
:101BD00008F10108B8F1020FB6DBBDE8FE8F032F54
:101BE000029801D1494608702868394627F0A4FDBB
:101BF000286827F0B0FD2860BDE8FE8FA082002095
:101C0000989A0020E89B0020719800202DE9F0416F
:101C10002E4C002504F11C07386800284CD1206A9E
:101C2000012127F055FD19F010FEDFF8A4800646CB
:101C30003BE03E60206A27F08EFD2062F0780028AD
:101C400028D1B06820B1001D96F843502D1802E04D
:101C5000F06845682D1D6878C0091BD3D8F80000CE
:101C6000400817D2284628F088FE96F84320B18D08
:101C7000891A88420EDA70780222294603F022F986
:101C8000011C07D00878022804D130461EF08EFDD2
:101C9000012818D1616938688847206A012127F036
:101CA00017FD19F0D2FD0125064616B1B0780328BC
:101CB000BFD04FF0000038602DB10648006810B169
:101CC000082027F03FF9BDE8F081C046A08200203F
:101CD000D09F0020749E002078B52A4C207810F008
:101CE000110F08BF002503D0002013F0ADFA054600
:101CF000032028F056FC26F090FF0646684609F0BF
:101D0000F5FD9DF8000000282BD02078800828D20F
:101D10009DF80000012816D015B195F8C80190B9BA
:101D20001948018951B9417C02290AD10121017464
:101D3000304626F082FF1CF060FF78BD417C01290F
:101D400007D01CF0C6FE1CF093FE304626F075FF4F
:101D500013E002210174304626F06FFF1CF071FF82
:101D600078BD304626F069FF00201CF0D7FE002029
:101D700001461CF048FE1CF07BFE0D2027F0E2F827
:101D800078BDC046848B0020C08B00202DE9F84F21
:101D900026F043FF0090274825490068086001208D
:101DA00024F0A1F84FF0E80B4FF0070A4FF000784D
:101DB000214E4FF0000927E012F0CFFA071C00D1A6
:101DC00001BE12F0E1FA051C00D101BEF4682068E2
:101DD000B0F1007F08BF404601D011F087FEF060EF
:101DE000C4F800802C616F617C6085F822A085F8C2
:101DF0002490A5F802B0206920F07F4040F079409F
:101E00002061032009F05AFCF068B0F1007F02D095
:101E100071698142D0D1009826F00FFF032027F08E
:101E200091F886F82190012024F056F8BDE8F88F4B
:101E3000A08B002060553080A09B002030B509F0B9
:101E4000DDFC002835D01E4C207850B11D4D28787F
:101E500002DF1D4928780978002206F0EBFD0020FA
:101E6000207025F0BAFC1C490446086820F00100E7
:101E700008601248006802280CD0184800781849F9
:101E8000097804F05FFA114A0023117813700843AF
:101E90000CD008E00E484FF00101007818B9204638
:101EA0001AF035FD02E020461AF020FD1AF065FD1B
:101EB00030BD0848002109F017FB30BDE894002030
:101EC000BE940020BF940020C0940020C194002044
:101ED000C898002099C80100008E3C80BC98002062
:101EE000BF8B00202DE9F043244C04F13007386803
:101EF000002841D1224D287800283DD1606B012176
:101F000027F0E6FB19F0A1FCA9464FF000080646B1
:101F10001C4D2BE03E60606B27F01DFC6063F07889
:101F200080B9304614F000FC022803D001280CD000
:101F3000BDE8F083012089F80000606B27F0D3FB37
:101F4000606317E0304614F0D9FBA16A386888470F
:101F5000606B012127F0BCFB19F077FC064628785E
:101F600020B185F80080012026F0ECFF16B1B07892
:101F70000428CFD040463860BDE8F083A08200201E
:101F8000709E0020488E002070B51F4EA6F2295189
:101F9000486809680A2204DF1C4B188859889A8906
:101FA000DB8905DF0C2028F0FCFA1C4C1D2084F88E
:101FB00050000A2084F85200154816490088002570
:101FC00006F6FF728002A4F85C00212084F851001C
:101FD0000868A56584F8535040F04000106020F078
:101FE000400008600C49106004F150000AF0F6FD52
:101FF000012805D0A56716F007FF0D2026F0A2FFE7
:1020000008F0FDFB70BDC04645513080C4960020ED
:10201000DE9F0020888B0020178F01002482002083
:102020001E492DE9F0431A4E091F0868401C08603C
:10203000306800282AD117481749046888460D6877
:102040007CB18146002794F82200682809D13460C9
:10205000204626F0F9FFA4683760002CC9F800403C
:10206000F1D14FF000040E4F0BE03878012800D179
:1020700001BE3560284627F002F8AD683460C8F824
:1020800000501DB195F822006828EED0BDE8F0831D
:10209000349F0020389F00203C9F0020BCAC0200F1
:1020A000A09B00201B492DE9F0411B4C0868401CF7
:1020B0000860206800282AD1184805688046184E14
:1020C0004FF0000703E0206828F0A0FB2760F5B17F
:1020D00095F822002946062819D121608D68C8F894
:1020E0000050087809690122143102F0EBFE011C4E
:1020F000E9D032682068120AE6D24278002AE3D199
:102100000A78022AE0D11EF0E9FB0128DBD0BDE805
:10211000F081C046C8AC0200A49F0020A89F002008
:10212000D09F002000B526F078FD0C490A78012ADE
:1021300010D00B4A0B4B12781B684FEA82129A5848
:1021400042B101220A7026F078FD25F0FDFB25F052
:10215000B7FF00BD26F071FD00BDC0466C9F00209A
:102160006D9F0020649F00200E4800B5017989B959
:102170008168022915D101218171022028F011FA0C
:1021800022F08EFF22F0E0FE00214FF4807025F057
:1021900045FB00BD417921B901214171024822F07E
:1021A00030FF00BDBC9C0020B74F02000D4908B5B0
:1021B00091F8CA0460B991F8CB0488B968460DF06B
:1021C0006FF8009802280BD100200CF077FF08BDB3
:1021D00091F8CB0420B9012081F8CB040DF0C2F8AE
:1021E00008BDC0464446002008B501DF0C48016820
:1021F00079B90089C00803D2684624F00DF902E0DD
:10220000684624F01DF90098022808D121F0EFFC5F
:1022100008BD416819B90121416021F04CFD08BD9C
:10222000D058002000B500F07BFF00F08DFF0A4879
:10223000006830B10948A4380068400801D205F0B0
:10224000C7F80448007825F002FC042026F07AFE46
:1022500000BDC046EF860020347C00203C4F30801B
:1022600010B509F0CBFA20B90A48002109F03CF971
:1022700010BD00221446E0B20FF085FF18B1E0B2A5
:1022800010F062FA0122641C082CF4DB002AF0D161
:1022900010BDC0469B260100002018B5009028F014
:1022A00067FA041C0CD00C2009F008FA6946204695
:1022B00028F006F9009928F065FA0C2009F038F9A1
:1022C00018BD0000F0B5ADF1180D8C46C168836AE9
:1022D0000C895B0A04F1040432BF00214C6904211B
:1022E000BCF1060F4FF000079D4B22D0BCF1070F49
:1022F0001FD03CF001001AD1DFF868E220011C6019
:102300003EF81260B0FBF6F1B0FBF6F54E437608EE
:10231000B6EBC40F38BF4D1C032A714605D1C988DE
:102320006943091A0F2988BF8027DD600EE01C6011
:102330000CE0C08D142A186043F8104C14BF40F212
:10234000031040F20B10084343F8140C9D489F60A3
:10235000006800F00F000D2803D00C2818BF0E28CD
:1023600019D199486946F0C8F0C150F8044B41F8BA
:10237000044B10F8014B01F8014B43F804CC93498E
:1023800012F80D005860086820F001000860086825
:1023900040F00100086006B0F0BD2DE9F0478C4A1E
:1023A0000746136803B9BB8E8A4A146801228A4023
:1023B000D20805D2884A515C04EB4111FA681161D8
:1023C000F968864A4FF00009496801F10408A2F54E
:1023D000EC710B6082490F60F9680969C1F81C90C3
:1023E000B96A490A09D2116821F400511160C2F892
:1023F0007090F968FF23CB7215E0116841F4005129
:102400001160F9688969491E1167B98DFB681B69FC
:102410001961B8F80210FB681B6999618221FB6899
:102420001B69D961F9680969C1F3521141F0004192
:1024300042F8181CBA6A22F44031520A39D3FA68B9
:10244000B96241F480019569B96204F500746D1EAA
:1024500028D0C26848F2823AD67A304621F0A4FCED
:10246000C1684968C1F35211E160C16809892161FD
:10247000C168C969102994BF090649460E436661BF
:10248000B8F80210C4F81CA0A161C2681461816A86
:1024900021F440318162816A20346D1E41F4800153
:1024A0008162D9D1C468384622F09CFFE072BDE851
:1024B000F08721F48001B962BDE8F08710B50346CA
:1024C0009548964A017852F82140240800D301BE6D
:1024D00043F000433F2942F8213014BF491C00213A
:1024E000017010BD8E4B30B58C4A19788C00105994
:1024F000050808D320F0004010513F2914BF491CA3
:102500000021197030BD4FF6FF7030BD854A410B78
:1025100003D311460C31096800E00021030B24BFEE
:10252000111C0968804AC30A02D311460C3109689C
:10253000800A24BF101C01684FF0010009B10AF0A5
:10254000DFB87047FFF7E2BF38B121490968C08A98
:102550000A30814228BF012000D200207047C046C7
:1025600024403C80B81D002010B526F07DFB9F491B
:102570000A6801EB8203DC688B680F2AA3F1010370
:102580008B6014BF521C00220A6026F091FB20468B
:1025900010BD10B525F0CFFE044626F065FB934A2A
:1025A0009168491C9160516802EB8101CC605168CF
:1025B0000F291ABF5168491C0021516026F078FB91
:1025C00010BDC04668C03C809C1D0020C8553080AE
:1025D0006C910020849C0020789C00205850308012
:1025E00060910020F0B59C4D9C4F00262D6804287A
:1025F00024F001044FEA155505F0070C4FF00305D0
:102600007D603E610ED030F0010506D0072818BF6E
:1026100006280DD14FF4167506E04FF4C87542F246
:10262000783003E04FF420754FF4EB603D60F860C4
:102630008B480078FF2804D0002B08BF44F0020428
:1026400001D024F00204D42808BF0126854D152AA4
:102650002E700AD00C2A06DB152A04DA142A1ABFB7
:102660000C3AD2B20722C7F8A8207F4A1268002A83
:1026700004BF24F4E00444EA0C540CD024F4E00435
:102680004FEA015101F4E00141EA0404774D296861
:1026900001F10101296076494FEA801000F47C5075
:1026A00009786FF3132440EA04004FEA813404F4FC
:1026B0007C2444EA000444F0EC0424F01004BC60E0
:1026C0001AB1B86840F00100B8601BB14FF00100CA
:1026D000C7F86808F0BD30B522F084FE054621F049
:1026E0008BFB624C90B9284621F0CFFB58B92846A5
:1026F00021F076FB28B9284621F06AFB58B118343E
:1027000002E0143400E01034204601E020460C3092
:102710000168491C016030BD94910020506F002079
:1027200095910020B46800209C6800202DE9F041BC
:10273000ADF11C0D0746F8680C464568384622F096
:1027400051FE2D1D287804F0030420F0030620F02C
:102750007300882823D1288B00F06008787897F8D8
:102760003E1002F096F8B0B1787897F83E102A46FD
:1027700006F050FF054697F83E1078786A4606F056
:1027800081FF022C07D1B86A400A04D2BDF80200CA
:102790000DB900B10024B8F1600F08BF032426F082
:1027A0007300882805D1B86A400A02D3012C18BFEB
:1027B0000324942E0BD0D42E09D0B42E07D0C42ECF
:1027C00002D1B86A800A02D3012C01D109E00424A5
:1027D000B8780B2805D0A049086820F002000860EE
:1027E00001BE204607B0BDE8F081C046988E0020AB
:1027F0002DE9F041427890F83E002C25AB4900EBE2
:10280000C20045434C5B6D182D1D287821F0CCFA91
:10281000C0684068408B4FEA2016BCB12F4640F29A
:10282000FF78387821F0C0FAC1684A68518BA6EB6E
:1028300021116FF31F3188459CBF518B0E11641E0F
:10284000394601F10507A1F80360EAD1287821F0A3
:10285000ABFABDE8F081C046B41D0020904E308038
:1028600089910020C89500207C91002048AC02008E
:102870008A9100202DE9F04FADF1480D04460B90F0
:10288000417894F83E5005EBC10526F0C6F987491A
:102890000C902C2000FB05166078358802F018FF9C
:1028A00040796E496E4A31F81010B078341D32F814
:1028B000100048434FEAA01828220D96214601A88F
:1028C00027F0FBF90D99082D05D00888401C0880D9
:1028D0006D1CFF2001E094F823000E90207821F079
:1028E00063FA80780026B24607280D9809D100883F
:1028F000012806D00B9822F075FD8DF80400207891
:1029000009E00B9F384622F06DFD2070F9680989B7
:102910000831A4F8011021F063FA00280B9802D1C5
:10292000806A800D01D34FF0800A022DADF10100C5
:1029300056D30F90671D109480200124A5F1010942
:1029400011900F9911F8050F0F91387021F02CFAA2
:1029500083461098007821F027FA0546DBF80C0032
:102960000389E8680833008900F1080242450ED265
:10297000A8EB02018E08B1EB860F06D9761CA8EBF6
:102980000001083921F00301091D891800E01146F2
:10299000109800F1050CCDF840C0B0F80100C91C3A
:1029A00021F00301801A09185B185846A7F8013076
:1029B00022F018FDE968C872E868C66117F8050BCF
:1029C00021F00EFA18B9DBF82810890D03D31199FC
:1029D000214141EA0A0AB9F1010904F10104B0D127
:1029E0000D9880F803A00B98FFF702FF0C9826F0D3
:1029F00024F90E9812B0BDE8F08F70B5044622F0AD
:102A0000F1FC054621F0F8F920BB284621F03DFAFB
:102A100000BB2046FFF72EFF0546FF2D1AD0E8B277
:102A200018F013FF044626F0F8F806460520A070BB
:102A3000E8B218F067FFE8B218F035FF304626F02C
:102A4000FCF8A06AC00C02D3284609F01FFD012043
:102A500008F06EFD70BDC046505430808C1D0020C3
:102A6000B81D00202DE9FE4F0090427890F83E10EE
:102A70000E4D2C2401EBC2014C4335F8048022F0AA
:102A8000B1FC064626F0C9F8A3460BEB0504241D4D
:102A900001902078864200D001BE0098C068866907
:102AA000029536B1B8F1000F03D101E0C01F00203C
:102AB00001BE4645A8EB060506D106EB860704EBEA
:102AC00007094FF0000A05E006EB860704EB07094B
:102AD000B9F801A099F8000021F066F9C16899F8E9
:102AE00000200989227001F1080189B2A4F80110BF
:102AF0000DB1AAEB010A022D15D3E119491D621D82
:102B0000A5F1010C0B7813700B46B3F80170591D39
:102B10001346A7EB0A07BCF1010CA3F8017003F1FF
:102B20000502EFD100E00125A84505EB85010CD990
:102B300064180021FF22A8EB05035B1E2546A5F8BB
:102B40000110227005F10504F7D1029C5C44208835
:102B5000801B20800098FFF74BFEE078B040E070CB
:102B6000019826F06AF8BDE8FE8F2DE9F04FADF12F
:102B70001C0D8846814602F055FD044641464846F4
:102B800001F087FE002800F084804846414606F0A8
:102B90000AFB00287DD141466A46484606F072FD90
:102BA000BDF80010BDF80200884210D1019800085D
:102BB0006FD30198BDF8181040F2FF73C0F30B42B9
:102BC000501A6FF31F30834201D9914261D12046E0
:102BD000314D410101EBC0016D1868780A2850DCC5
:102BE000484601F098FE8246012021F083F8061C39
:102BF0004FD0B07880284CD1072086F83E000027BF
:102C0000F761962086F83C0086F801904FF48060CA
:102C10003086B7624146C80000EB81001F4C241883
:102C2000D4F89C00A0F1040B25F0F7FFC6F808B01B
:102C3000B4F8A01086F84370B18525F0FEFFD4F8F3
:102C40009C401420B085BDF8180000016082208AE5
:102C500006220AF1600168F31F302082201D27F050
:102C60002CF8208A0122414640F004002082484688
:102C700006F04DFA6878401C6870304621F077F80D
:102C800007E048464146002206F0C3F90449012006
:102C9000087007B0BDE8F08FFC7200209C60002037
:102CA000979100202DE9F04FADF1200D17460190CE
:102CB000B86C0290F868466897F83E000C4603909E
:102CC00079780491A749DFF898B2361D51F82000B1
:102CD00058440590307820F003008146204621F0CA
:102CE0008BF8F18AB9F1840F82464FEA21110691DF
:102CF00012BF0399318A091307910199DFF88C8279
:102D00000025002900F0D280491E65D0491E36D02A
:102D1000491E05D0491E4FF0050000F04A8149E1E7
:102D2000F8684FF001094FF0080A86699EB1E0B2D9
:102D300018F08DFDF86887F802A0C0F81890F868C0
:102D40000199C47A384627F089FA204618F07DFDAB
:102D5000761E0746EBD10498039901F09AFD0028EE
:102D6000049806D10399FFF714FCA1494FF0807035
:102D700008604046001D0168491C01601AE1B98ADB
:102D8000F88A4018B98E0918F868B98200680028D6
:102D900004BFFD7001257FD0F86001890122134630
:102DA000384622F0D7FAF882384622F09EFAB886E2
:102DB00025F033FF0646E0B218F06AFF3846FFF709
:102DC0001CFEF96801208861304625F036FF29464F
:102DD000384621F07CFFEDE0404608300168491C90
:102DE0000160B86A800A32BF05985846001D90F805
:102DF000008025F012FF834609F00C0004284FF0F4
:102E0000010516D003990498324606F0E1F90498BA
:102E1000039901F03EFD60B100200090069B0399EC
:102E20000498032206F0A6FA04980399069A06F07D
:102E3000FDF9B87807280CD1E0B218F071FFE0B2C4
:102E400018F071FDBAF1000F03D105213846FFF7E4
:102E500009FE404609F083FD874206D1404609F04D
:102E600088FD0021404609F09BFDB9F1840F0798C9
:102E700005D14FF0FF32C1B2049806F048F90021A5
:102E8000384621F024FF0420F870584625F0D5FE7E
:102E9000B86A20F44030B862019E3846314627F0C7
:102EA000DDF93146384609F049F983E025F0B5FEF1
:102EB000834697F83E10787801F0EBFC0646B88E12
:102EC000B98A4018F98A0918B86AB982400C0DD23B
:102ED000B9F1840F04D00321384620F06DFA08B907
:102EE0000320F8700199384627F0B8F9BAF1000FBD
:102EF00015D1384621F0F2FF88B186B1F878032861
:102F000011D0E0B218F0A3FC04980399FFF741FB3D
:102F10000820B870584625F090FE012065E0F8784A
:102F20000199032820D1BAF1000F4FF0010533D1E8
:102F3000204620F0AAFF00282ED109F00C09B9F193
:102F4000040F039928D0049801F0A3FC20B30020BB
:102F500000900399069B0498032206F00BFA1BE0ED
:102F6000E4190020989A0020384609F0E7F838461E
:102F700022F027F9E0B218F08BFEBAF1000F07D16A
:102F80003846FFF73AFD404603E0C04670AC020009
:102F90009E480168491C0160584625F04EFEBAF172
:102FA000000F039903D1049801F073FC10B90021BC
:102FB0000EE7B8700798C1B20498FFF7D6FD9DB12F
:102FC00038697B6CF860029840B101980022E1B248
:102FD000022808BF0122029C0320A047384625F0A2
:102FE00011FB012008F0A4FA002008B0BDE8F08F22
:102FF000780430802DE9F0410546A808C7B238466C
:1030000018F023FC04466078FF2800D101BEFF2F92
:1030100037D0204612F0ECF805F00308B8F1010FA4
:10302000064607D0E068C07AFF2803D0074618F0AC
:103030000CFC0446B8F1010F02D1A078072820D17A
:10304000384620F022FF80B9A348007868B9A44828
:103050000168A2480068084307D12046A9B2FFF7DB
:1030600065FB2246F9B2FFF71DFE0120B040800843
:1030700007D3072009F09EFCA04202D1204621F090
:10308000C6FBBDE8F0812DE9F047824618F0DAFB77
:1030900000284FF0000741D00646DFF8488250462E
:1030A00018F0ACFB814618F0D0FB051C00D101BE26
:1030B0006878FF2800D101BEA978082903D0C8F894
:1030C000007001BE6878E9684C6895F83E10C0B29F
:1030D00001F0DFFB241D30B9207800F00C0004283B
:1030E00018BF012013D1207800F00C0004280DD067
:1030F000687895F83E10224606F08CFA022803D034
:10310000012803D1022002E0032000E038462A46CD
:103110004946FFF7C7FD08B9761EC0D1BDE8F08764
:1031200010B54FF6FF7401E0FFF764FFFFF7DAF91F
:103130008442F9D16C4804682CB1FFF715FAFFF707
:10314000A2FF641EF9D110BD2DE9F04725F065FD01
:10315000824625F089FD65490C6851F8A46C0D681C
:1031600025F0A6FD05F0040506F0010604F00804AC
:103170003443254345D15E4D95F8549195F85581DA
:10318000002485F8544185F85541504625F055FDF9
:10319000B9F1000F4FF0010711D0264607FA06F0EB
:1031A00019EA000F05EB860006D000F10400026862
:1031B00012B1C16838469047761C032EEED3B8F1A1
:1031C000000F4FF002061CD0012707FA04F018EA9E
:1031D000000F4FEA441011D000EBC400291891F8F9
:1031E000941003290AD100EB0501284400F1AC003A
:1031F00081F89460016809B140688847641C042C18
:10320000E3D3504625F019FDBDE8F0876CAC020011
:10321000F0B5364F01246C3F3D6805F00F0504FA08
:1032200005F0C0081DD3AE4900200870AD480078F5
:1032300000F0040100F02000084303D0AA48006811
:1032400008F03EFD2046A840C0080AD3B04E3088A2
:10325000FF2806D0AF481CF0B4FE0DF091FCFF2013
:103260003080AD49002008600AF0FEFAD7F8480225
:1032700010F4C05F19D0AF49AC400868401C08602A
:10328000AD48E108006805D2AC48006822F0AAF811
:10329000800004E022F0A6F8800040F00200FFF772
:1032A0000DF9A8494FF080700860A5494FF40070EF
:1032B000086026F099FC20B1B649086840F001008A
:1032C0000860F0BD417890F83E0000EBC1002C2171
:1032D00041439D48405A7047498E0020347C00206D
:1032E000387C002050543080A08E00203C4F30802D
:1032F000406800202DE9F04F804698F83E9098F8FD
:1033000001600D464946304602F08CF9410101EB5F
:10331000C0008E4909188A8CC88C8018401E84B25F
:10332000304602F0D5F9884B074609EBC60218462D
:103330002C21801C01FB02F6002D805D08BF42F2AB
:10334000107503D0B8F83660AD1B143D002D4FF05A
:10335000000658BF012675437D4E4FF0010A36F82E
:103360001000454328113D790D350AFA05F56D1E0B
:10337000A84288BF281C0F465743DA191588D2780F
:10338000D919C9781206B2FA82F295424FEA016160
:10339000B1FA81F698BF2E1C002ECCBF721E0022FF
:1033A000FD18002A05F104054FF0050172D07F18C1
:1033B000D95B81426ED8002A40F2FF7E4FF00003B5
:1033C00050DDF146F446ACF1010CD11801EBD1719E
:1033D000491001EB810705EB070BBBF80170874231
:1033E00006D2BBF80370E71B6FF31F37BE451BD82F
:1033F0000029CCBF4A1E002202EB82016918B1F8F5
:10340000017087422CD8B1F80310611A6FF31F3195
:10341000894525D9561CD8F80C004761D8F80C000E
:1034200086615046BDE8F08F0729B4BF4B1C0723C7
:1034300003EB8307EF19B7F80170874209D801EB56
:103440008107EF19B7F80370E71B6FF31F37BC450F
:1034500006D201EB81002D184E1CB5F80170DAE799
:103460009A42B2DC9A4215D1981BB0F1FF3F03EBB0
:1034700083030FD1E818B0F80300241A6FF31F3448
:1034800040F2FF70A04205D906EB86002D1835F8F2
:10349000047CC0E74FF0FF30BDE8F08FC168427890
:1034A000896990F83E0001EB810100EBC200491FE1
:1034B0002C2202FB00102749085A7047C168427845
:1034C000896990F83E0001EB810100EBC200491FC1
:1034D0002C2202FB00111F48C01E405C7047C046F2
:1034E000319F0020848B0020D8950020C26892690B
:1034F000511A427890F83E0001EB810100EBC200C6
:103500002C2202FB00111348C01E405C7047C046CD
:10351000D4950020EA95002074910020417890F81D
:103520003E0000EBC1002C2141430A48C01E405C14
:103530007047C0469C9100205C910020649100205F
:103540006C04308078043080C01F0020FC720020A2
:10355000B81D0020C71F00200E492DE9F04F086854
:1035600020F0010008607348ADF1C00D0990006DB6
:103570000890089800F00F000A900B9009F045FEA3
:10358000041C4FF000000C900D906B4F0A9915D061
:1035900002E0C046008E3C8001208840C0080DD368
:1035A0003D6805F0070594F824600B992046FEF766
:1035B000F4FE324629462046FEF784FE4FF0010015
:1035C0000E900A995F4E00FA01F00F9030685B4947
:1035D000109110B10D9810990870DFF86481414680
:1035E00048310868401C0860FF2009999B4D1190E4
:1035F000C1F82C020A9828602046129011F01BFE98
:10360000814611F010FE1390D9F8C001002808BFC0
:103610000D9803D0099951F81C1C401A002C1490E5
:103620000998AB464546D0F8801121F00101C0F859
:1036300080119648159616909548179090481890C6
:103640009048199038D10F98C0083DD33E680320A8
:1036500009F0B0F9044689480068072E4FEA104087
:1036600000F00F0014BF062E0C3084F824000998D7
:10367000D0F8801141F00101C0F88011286E401C83
:1036800028660E98169994F824200860F1B2204616
:10369000FEF718FE0B992046FEF77FFE159800688E
:1036A00090B1179800680D9E314621F010FB1899D3
:1036B00030460860159906E00F98C00804D30D98AD
:1036C0001599086019990860204621F08BFE1A9020
:1036D000704A94F83E1052F821201B9262781C9296
:1036E0001D91E268536803F1040999F8001021F074
:1036F00003011E91998B01F060011F9194F8241031
:10370000209104B901BE02B901BE5F49624E097839
:10371000002908BF0D9907D01B9A4FEA421101EB0F
:10372000C2013144B1F892102191149961B92199E3
:1037300099B914E0804E308020403C808891002070
:1037400004AC02007C910020219941B12199149A86
:10375000914202D9149989B22191219914910F991A
:10376000C9080ED21BF038FB02280AD199F80010C4
:1037700021F0030140291CBF99F8011041F010010C
:1037800003D199F8011001F0EF0189F80110A16A45
:10379000090B0DD30999D1F8802142F00102C1F83B
:1037A0008021A16A21F40061A162E96A491CE962F1
:1037B00098491B9A0A60B9F816100A9A09112291C1
:1037C000D10001EB82018A1976180D992392249178
:1037D00031629E490A78259226910F99C90815D21F
:1037E0009B490A682599942910D192F83E10D06817
:1037F00040680379842B04BF808A011350784FF00E
:10380000FF3205F084FC2698007825900B21A170EA
:103810003968904FDFF8308201F0070127910F9946
:10382000DFF834A211F4FC7F75D00F99DDF864C085
:1038300011F4F07F19D02046FFF744FD01281E99AE
:103840000ED001F00C0104290AD099F8041049089F
:1038500006D20E990C91219905E0C0467091002086
:10386000E28AA18E8918524611601E99802915D0CE
:10387000A56AA90A13D20E9B119A17E0ECC000208A
:103880008491002078910020989C00207491002061
:1038900064910020989A002040680020A56A119A3F
:1038A00026990A70249B11463B7025911946289150
:1038B0000E99139E01FA06F616F0240F04D01E9EF0
:1038C000802E04BF0B1C2893289ECCF80060159E08
:1038D0003360209B0C2B04DB209B152B01DAAB0BF8
:1038E0000BD22B090B4605D3209EB340C3F3101314
:1038F0001B0102D1EB0838BF2499434619600A9D89
:103900009F4BA9000C395B581968D2B262F30F21A2
:103910001960CBF800509C4A4346289341460968F9
:1039200029929A4A0029DFF85C822A92984ABB467B
:103930002B92984A2C92984A2D9244D00E9B94F840
:10394000241003FA01F212F00F0F1CBF42460A4482
:103950000BD1249D042908BF1D1C249A052908BFEA
:103960001A1C2A4314BF299A2A9AA66A1F4612785B
:10397000F50807FA01F302F1CA0215D313F00F0F8D
:103980001CBF2B9B0B440BD1249D042908BF3D1C5D
:10399000249B052908BF3B1C2B4314BF2C9B2D9B4C
:1039A0001978891801F1CA02B10B02D3310938BF65
:1039B00036220C9BDAF800102BB18A42ACBF249956
:1039C000891ACAF800101599854A09682E920029AB
:1039D00040F0088125999BF80070249DCEB2119982
:1039E00014911E99E42939D01E99F42936D01E99D4
:1039F000802933D0A16A890A1CD20F99C9080BD239
:103A0000E068018920460E9A134621F0A3FC024685
:103A1000E28202E090910020E28ADAF80010891A2E
:103A2000249858BF0E9809B200FB01F081B2A9F8A2
:103A3000021016E0099850F81C0C216AE28A09F17C
:103A4000020327F08FF80BE080910020899100207D
:103A5000609100208A9100206C910020A9F802500A
:103A60002499CAF8001014992698A5868BF800505E
:103A700001701698006858B90F982799209AC008C5
:103A800006D22046FEF71EFC0B992046FEF785FC69
:103A9000A06A0A99C00C02D3204608F012FA0F98C7
:103AA000C00802D20898FEF74DFD2046FEF713FE2F
:103AB0008A480068A0B92798A16A15228B0A119933
:103AC00003F00103FEF78EFDA06A800A28D2D42EEF
:103AD00018BF942E269823D106708BF800701FE033
:103AE00003F056FC159EA8B90E9D3560279908462F
:103AF000A26A930A209A03F00103FEF773FD2146A0
:103B0000284609F04DF82846014608F049FF249858
:103B1000306002E0249825F097F9484603F09BF9BD
:103B20001A9820F069F900281A9806D120F0ADF90A
:103B300018B903212046FEF795FF2398239D90F89E
:103B4000250040080BD395F828004844E98C20F064
:103B500054FE95F8250000F0FE0085F82500A06AC7
:103B6000800A1BD21E98802824D10E981399884071
:103B700080081FD30B98249908F012FF1AE0C04662
:103B8000CC190020581900205A1900205B19002078
:103B90005419002056190020571900207448007845
:103BA000249908F0FDFE1A9D284618F0B9F8284619
:103BB00017F0B9FE2E984FF48071016026980078B6
:103BC000FF2807D11A9820F060F918B924992046E7
:103BD00021F07DF80998D0F8980200F053BCC04657
:103BE0006C04308024992F91189916911099259181
:103BF00099F8001001F00C01042909D01C981D99B6
:103C00004A4605F0E5FA18B1A16A41F48001A162C3
:103C1000E2685169002938D14FF0FF351A9820F039
:103C2000EBF8209998B90C2911DB209915290EDAA7
:103C30001E9921F07301882909D11C981D9900F063
:103C400028FE20B120461499FFF754FB0546B5F134
:103C5000FF3F0DD0E268916901290AD01C9807F056
:103C60009CFE28B9A16A41F48071A162E2680AE071
:103C7000E268118951610E999161A16A21F4807104
:103C8000A1621199D172918A11812899DAF80030D4
:103C9000096814911E99E4296CD01E99F42969D001
:103CA0001E99802904D10E99139DA940890861D2DB
:103CB000A16A634F1589490A0F9994F824C00FD25D
:103CC00011F4F07F0C9907D031B1219921B9E18A23
:103CD000A28E56189B1916E0E18A13E0387C00206A
:103CE000209957F821305169C90016314B43D90B3F
:103CF000C91C21F003011A3189B2E182E38EA38647
:103D00005B18958AA28EBCF10C0F16DBBCF1150F67
:103D100013DA57F82C70EE00363607FB06F5ED0B7C
:103D2000ED1C25F003051035ADB2AD1FAD102EB260
:103D3000032506FB05F5ED1E00E09925E5851E9D92
:103D4000A42D03D15B1A9A4218D00DE05B1A249877
:103D500058BF0E9819B200FB01F080B28242A9F858
:103D600002000BDAB9F802309B1ACAF8003008E0FA
:103D7000E81900202498A9F80200A0862F98CAF814
:103D800000001498002800F0B7800F98A26A10F481
:103D9000FC7F27D042F2080010420E9805D02099EF
:103DA0008840C0F31010000101D1D0081AD30E9939
:103DB00094F82400249D01FA00F313F00F0F0AD1A8
:103DC000042808BF0D1C249B052808BF0B1C2B438F
:103DD00014BF022003202090900B03D310093CBF96
:103DE000042020901A98254614901E98A42808BFF5
:103DF000EE8A03D0B9F80200EE8A3618D0080E9881
:103E000020D208F0D7FD044694F824000E99249F90
:103E100001FA00F212F00F0F1CBF424602440BD110
:103E2000249B042808BF0B1C249A052808BF0A1CE1
:103E30001A4314BF299A2A9A1078C030E0823CE0D5
:103E400070190020062008F0B5FD0446E1684968B5
:103E500009F10400083124F058FF0E9994F8240069
:103E600001FA00F212F00F0F1CBF2B9A02440BD183
:103E7000249B042808BF0B1C249A052808BF0A1C91
:103E80001A4314BF2C9A2D9A1278C032E28201FA9A
:103E900000F212F00F0F1CBF424602440BD1249BCC
:103EA000042808BF0B1C249A052808BF0A1C1A43C3
:103EB00014BF299A2A9A1778C037A7861C98607071
:103EC0001D9884F83E00204621F08CFA1A90E06894
:103ED000416801F1040999F8000020F003001E90E8
:103EE000A08E3618CE80A08EB9F802108842ACBFE2
:103EF0002F99091ACAF800100F982799209AC0081C
:103F000006D22046FEF7DEF90B992046FEF745FA69
:103F1000A06A0A99C00C02D3204607F0D2FF0F987E
:103F2000C00802D20898FEF70DFB28980068002808
:103F300040F089800F9810F4F97F0AD01A981FF08A
:103F4000A4FF00281A9804D117F0EAFE1A9817F077
:103F5000EAFC28980068002875D1A06A2746400A24
:103F600041D3F868806901282AD92046FFF796FADC
:103F700022902046FFF7A2FA064617F082FC304650
:103F80001FF012FF0746304617F0CAFEE1688E693F
:103F9000761E15DDF1B22046FFF7A8FA1FF004FFE8
:103FA000C168B9F802304A68D380111D99F8012020
:103FB000520903D34A7842F010024A70761EE9DCB7
:103FC000204621F00FFAF968C8721C981D9900F07C
:103FD00060FC0028229806D01D99401EC0F30B02F9
:103FE0001C9805F049F999F8000000F00C0004282D
:103FF00009D01C981D9900F04CFC1D9918B1229A0B
:104000001C9805F013F92198D0B11B9820F028FFD7
:10401000149017F01AFC054614981FF0E1FE0028D2
:104020001A980DD11FF0DCFE50B9E068006838B96D
:104030002846FEF789FA159908600E980D9002E05F
:104040002F99159801602046FEF745FB239890F8BC
:10405000250040080ED3239890F82800239948445F
:10406000C98C20F0CAFB239890F8251001F0FE01BE
:1040700080F825101A981FF0BFFE00281A988F4F5D
:10408000DFF83C8217D11FF000FFA0B904212046C1
:10409000FEF7E8FC1598026820468AB1FFF73EFA61
:1040A0001499814209D015982F990160249D2A46C0
:1040B0001198149004E015980268002A40F0BB8023
:1040C000DAF80000B0F5B07F1FD9A06A80081CD3D1
:1040D000042008F06FFC054621F084F91490E8688C
:1040E000466801A826F0B4FC0E3601A8314624F03B
:1040F000F6FD0E98294608F053FD0720A8700DF034
:10410000C3FC85F8240015980268002A40F09380CB
:1041100099F8000020F07300882805D11F98202806
:1041200068D01F98602865D0A06A249E410A4FD2AB
:104130001E99842924D0269980081AD3D420087087
:104140008BF800601D991C9800F0A3FB002854D048
:104150001D991C9801AA05F095FABDF80600229950
:10416000401C884249D11D991C98229A05F084F878
:1041700043E0119819992F9A0A60B2465F4622E0EF
:10418000B9F81000001382461C98514600F081FBDC
:1041900098B11C98514601AA05F074FABDF81C00AC
:1041A0000001A9F8120024980090B9F81200042226
:1041B00003111C98514605F0DDF88BF800601C9A3D
:1041C000942041460A7026995646087039460FE0F9
:1041D0009420269908708BF800601C9E3046DDF80C
:1041E000749049460E9A04F092FF87F80090414679
:1041F0008B4600E03F268BF800600F98C0080BD27A
:104200000F9810F0180F03D179481B99405C0B9060
:104210000B98249908F0C4FB042008F0CBFB064659
:104220000E9808F09CFB86420E9801D008F0A1FB86
:10423000DDF844807BE0A06A249E410A68D21E9982
:1042400084293FD0800813D2062008F0B3FBA04297
:104250004FF0C40004D0269911988BF8006065E0F7
:10426000269908708BF800600E982599087061E017
:10427000D420269908708BF800601C981D9900F0D6
:1042800008FB48B968781C99884250D195F83E00DF
:104290001D9988424BD1E7E71C981D9901AA05F0AA
:1042A000F1F9BDF806002299401C88423FD11D99C2
:1042B0001C98229A04F0E0FF39E0C0468C9100205F
:1042C0008D910020B9F8100000130B901C980B99E9
:1042D00000F0DFFA98B10B991C9801AA05F0D2F909
:1042E000BDF81C000001A9F8120024980090B9F84C
:1042F00012000B9903111C98042205F03BF8269933
:104300004FF094008BF8006008700B9838700BE049
:104310009420269908708BF800601C981D9E3146E9
:104320000E9A04F0F4FE3E701C98414608702598E1
:10433000007810B1A86AC00814D32698017815989F
:10434000006830B9FF291D9903D01C9800F0A1FA2C
:1043500040B12898006818B91298249920F0B7FC49
:104360002F9805E00E9E1298314620F0B0FC3046A2
:1043700016990860042008F01DFBA842159804D087
:10438000006828B9209E0E9F3BE00E9815990860A2
:104390004FF0070805B901BE0E9F2946384608F0C0
:1043A000FFFB95F8246085F80280324607FA02F098
:1043B000C0F31010000103D00C2A1BDB142A19DCF7
:1043C0000C2E0CDB152E0ADAA06AC00904D3142EB9
:1043D00018BFCDF8908007D14FF006080CE0A06A16
:1043E000400901D306B12497DDF8908004E0C0466F
:1043F000E41900204FF004080D9820B1149820F023
:1044000063FD95F82420A16A27988B0A03F0010325
:104410004146FEF7E7F8B740099A17F00F0F11D0A1
:10442000D16912682820B1FBF0F10A318A4224BF19
:104430000998006804D20999C969B1FBF0F00A3003
:1044400009990860042008F0B5FA05460E9808F0AE
:1044500086FA8542159801D12F9901602F992898E5
:1044600001601798046026985B49007808700998E5
:10447000D0F898025948007823F0F4FA2E984FF4B7
:104480008071016030B0BDE8F08F2DE9FF4F0E461E
:10449000044624F0C2FB0090607801F019F96178BD
:1044A00094F83E202C2302EBC102B2490192029300
:1044B000039103FB02118A780D1D964278D00F8874
:1044C0004079B54931F81010B44830F81600484327
:1044D0004FEAA01828781FF067FCC16809890122FB
:1044E0000831A5F8011080F82460E068134684F8CC
:1044F00024600189204620F02DFFE082204620F034
:10450000F4FE012FA086AA464BD905F1050B002524
:10451000A7F101099BF800001FF046FC074687F849
:104520002460E068012213460189204620F012FF32
:10453000E082204620F0D9FEA0869AF800001FF005
:1045400033FCF968098908318BB2C1680A898C4645
:10455000083297B247450DD2A8EB07018D08B1EBA1
:10456000850F05D96D1CA8EB070121F00301091D7A
:10457000C91900E039465246C91C02F1050A21F06A
:104580000301B2F80120B9F10109CCF81C50A2EBEB
:10459000070211440B44594601F1050BA1F8013003
:1045A000B8D10398019A029901FB020086700DE0D0
:1045B00084F82460E068018920460122134620F037
:1045C000C9FEE082204620F090FEA086009824F0EC
:1045D00034FB0090BDE8FF8F8B910020EF86002018
:1045E0002DE9FE4F064620F0FDFE0090F068406881
:1045F000408B747896F83E504FEA2019204601F01F
:1046000067F85C4B05EBC4052C21824601FB0530A5
:104610000288002A04BF96F824100F1C04D001FB66
:104620000530877896F824108046012286F82510F8
:10463000F06886F8247013460189304620F08AFE1F
:10464000F082304620F051FEB08624F00DFB019040
:1046500051499AF8050031F810105048B8F8004058
:1046600008F1040530F8170048434FEAA01A204625
:1046700000EB8000401F285C17F0E7F8002C029048
:1046800088F8027052D0082C08BF002404EB840084
:104690006AD005EB000B00988BF8000004EB840057
:1046A000401F2D18B5F8031040F2FF72A9EB01006E
:1046B0006FF31F30824298BF8946F068ABF80390D1
:1046C000008908301FFA80F928781FF06DFBC06858
:1046D0000089083082B2524512D2D01C4FF6FC71CC
:1046E0000140AAEB0100431000EB93739B101F469F
:1046F000B0EB870F02DD7F1C5B1C9800091801E0FE
:1047000011460027B5F80100C91C21F00301801AE9
:10471000091809EB0100ABF80100304620F062FEF9
:10472000029AD168C872D068C7610BE004EB8400BC
:104730002D1800982870F06800890830A5F801004D
:10474000A5F8039000981FF04BFB10B9B06A800DDC
:1047500006D398F8031080202041084388F803000E
:10476000641CA8F800400124019824F0A1FA204616
:10477000BDE8FE8FC01F002001464A7891F83E1028
:1047800001EBC2012C224A4305490020895A08291D
:1047900008BF01207047C0468C1D0020B81D0020B6
:1047A000C01F0020C101A1EB400092490818017808
:1047B000002914BF61300020704738B1401E012825
:1047C00002D901BE00207047092000E00020FFF759
:1047D000E9BF704710B5024694480C460078E0B92E
:1047E0009348007810F0240F04D110F0190F16D060
:1047F000002010BD99480078FF2810D00220FFF754
:10480000DCFF011C0BD0104624F071FA28B924F00B
:104810000304802C18BF502C01D1092010BD0B209F
:1048200010BD10B504460020FFF7C7FF011C03D0E0
:10483000204624F05CFA50B90120FFF7BEFF011CAE
:1048400008D0204624F053FA20B1784800E096487A
:104850000121017010BD00B50920ADF1180D93497B
:104860000090002001900391029091489149032209
:104870000590684605F0EAFF06B000BDC201A2EB54
:10488000400202EB81005B490D31085A00F007003D
:10489000704700B5FFF7F2FF0023022808BF01238D
:1048A000184600BD00B5ADF1180D09220092039025
:1048B0000020019102909448944903220590684693
:1048C00005F0C4FF06B000BDF0B5914E07460025C7
:1048D000A6F1080414F8080F30B106EBC501491C15
:1048E000384624F004FA18B96D1C082DF2D3F0BD37
:1048F00088494FF0000525700878A0F10100C0B28A
:10490000087038B96B4C4FF01900216811B105F0EF
:104910007FFC2560F0BD4FEAC011A1EB40010246CB
:10492000084634490B5C23B10D2ABCBF0844401C27
:1049300000DB0020704770B50446E0B2FFF7EBFFE4
:1049400000B901BE90F8660010F0F2F9002221468D
:1049500010F0E9FB0121A1406F4811F4FF7F11D154
:1049600081788C4209D041788C4203D0002C27D02A
:1049700001BE70BDFF21417070BDFF21817007F045
:1049800081F970BD0378C3B11D460021821C12F865
:10499000016FB44204D06D1E01F10101F7D10CE0AA
:1049A0005D1E8D4200EB030101D989781170FF2152
:1049B000C21891700178491E0170204607F00BF96A
:1049C00070BD01799B4A515CFF2900D101BECA012B
:1049D000A2EB4102074989180268C1F831204279E7
:1049E00081F83520807981F83600D1F831008009CE
:1049F00008D201E040300020D1F8010020F48010FE
:104A0000C1F8010001207047C201A2EB400202EB95
:104A10004100AB49085A704700B51346FFF7F4FF51
:104A2000000180B2D882001100BDC046CF9D002099
:104A3000848B002030B50546A24CC801A0EB410094
:104A40002418E879611C81F86A006031284624F056
:104A50005CF9A87C84F86D0030BDC046F585002067
:104A60000C2800DB01BEFF281ABF7249085CFF203A
:104A70007047026883884079934900F01F00085C02
:104A8000FF280FD0C101A1EB40018D483C384018F0
:104A9000016E8A4203D1B0F864108B4203D0C06A21
:104AA0000028F5D100207047D09D002020A10700EC
:104AB000D75200001C86002090F86510824A01F051
:104AC0001F0152181178FF2919D0CA01A2EB410227
:104AD0007B493D39891891F86C20FF2A03D0114693
:104AE000FF29F2D1704790F8672081F86C20C1F857
:104AF0002D00FF2180F86B100021C162704790F8F3
:104B0000670010707047C046DB520000248600200A
:104B10002093002020860020F48500202DE9F04F0E
:104B20000D460646DFF89C81A949E80144469346B4
:104B3000A0EB45000978641C8146B0799A464C4444
:104B400081421CBF3B490D54294603DF24F065F820
:104B5000A04A1168012707FA05F39943116024F070
:104B60006CF884F86750B07984F86900F07904F142
:104B7000600184F86A00304624F0C7F8B07C84F8FD
:104B800066B084F86C00F06823F0A9FABAF1010F5E
:104B9000206002D12046FFF78FFF0A2D464601DC38
:104BA0000A2D10DA284610F031FB03280BD096F8B6
:104BB0005A15032907D14FF0030184F86D10D6F878
:104BC0005E15C4F8711045B1092D06DAA64A002118
:104BD00022F81510A54A42F8251004F13C014FF6C1
:104BE000FF734FF0000C0922521E0B8221F802CBFA
:104BF000FAD128460EF0F3FE9D48007810F0240FFD
:104C000002D0284620F0FBFD09F806702046BDE8DA
:104C1000F08F70B515460E4604460422002104F1BB
:104C2000080025F0AFFA01232A4631462046FFF757
:104C300075FF70BDC8850020F0B5ADF1140D0746B5
:104C40009E480023DFF87CC01646FF24058801201B
:104C50001CF87E2F5AB1DCF80920AA1A92B29342AE
:104C6000BCBFC4B2131C401C0928F1DB00E0C4B275
:104C7000FF2C22D00846694624F047F88DF80670CC
:104C8000012010F05FFBC0693246E1B20390684634
:104C9000FFF7BFFFE0B2FFF73EFE70B180F866603D
:104CA000304610F045F80122214610F03CFA8248C7
:104CB000E101A1EB4401401800E0002005B0F0BD87
:104CC0007D30002040300020D4850020F0B50D4616
:104CD000064623F0A2FF074670780024FF282BD158
:104CE0003078FFF7BDFEFF2802D10820F070204683
:104CF0007070307872492D1D085CFD281CD1284643
:104D0000FFF7B7FE041C0DD1012010F01BFB10F0C3
:104D1000E2FA02462E4800782946FFF78DFF041C70
:104D200000D101BE94F8670064497070088800F1F2
:104D3000010080B2A06008802CB97178C801A0EB96
:104D400041005D4C24186068401C606094F8660067
:104D50000FF0EEFF017801208840400903D361681D
:104D600030460BF055F9384623F067FFF0BDC3011C
:104D7000A3EB400303EB81007F490B18B3F80D3020
:104D8000091862F30203A1F80D307047C201A2EBCB
:104D900040007A4A11527047C201A2EB40027748A4
:104DA000774B02EB81015F384218B2F80F201B6885
:104DB00040186FF30B0242EA1352A0F80F2070471D
:104DC000C201A2EB40006D4A0A3211547047C0463E
:104DD00002860020188600202DE9F043694E914696
:104DE000884634680746002C2ED0FFF794FD002833
:104DF0002AD001201EF07EFF051C25D06248241F0A
:104E0000AC60E86161486F70614C00789C49B8F112
:104E1000000F85F83E004FF478702886B088A964AA
:104E2000A4F80090A8854FF0000085F8430008BF63
:104E3000A07005D00120A070E11C404623F065FF62
:104E40006C6428461EF093FFBDE8F08330B50D4634
:104E5000044625F092FD042D08BF005D044401D0F6
:104E6000E078801130BDC0469A8A0020FC9800206E
:104E7000848B002010B5044622B1521E10D0521E61
:104E800014D015E0FFF7E2FF54F8041C00F0030013
:104E900021F4400141EA805144F8041C034605E036
:104EA00054F8040C800D00F00300F7E7184610BD1D
:104EB00001BE002010BDC046413000200086002009
:104EC000C8850020F0B517460E460546FFF723FDBE
:104ED000041C44D0002E42D0022F02D07178C909A0
:104EE0003DD3954A25B93179490828BF141C00D211
:104EF0006D342178491E34D0491E0CD0491E2ED164
:104F00006068037C012130463A46FFF7B3FF6168D1
:104F100051F82000F0BD0A2D01DB0A2D03DD1046FB
:104F2000A04200D001BE6068827A50F82250B5B12C
:104F300029788018037A3A463046FFF79BFF646869
:104F4000A17A6118097A884208BF281C12D0A17A78
:104F5000621A527A904208BFA4EB810409D0002063
:104F6000F0BD0B2D02DA0A2D00DB01BEA24200D1FA
:104F700001BE6068F0BDC046403000209F30002078
:104F8000605530801062002000204E00DF9C002021
:104F90000E8600202DE9F0470646FC2506F10A00A2
:104FA0007178341D81464A082EBF201C5FEA9101AA
:104FB00006F1100080464846FFF75BFD82469E489A
:104FC000002707709E4807709E4807704046FFF70D
:104FD00028FCBAF1000F3AD1317811F00C0F44D00F
:104FE00099480078082840D0717849081DD2800877
:104FF00042D39248007800283ED1944C2078FF2874
:105000003AD0012010F09EF910F065F902462078A0
:105010004946FFF711FE00B901BEAB4A118882462E
:10502000491C89B28160118024E0A8480078FF28DB
:1050300022D005460220FFF7C0FB011C05D04046E8
:1050400023F055FE00B1FB2516E001BE14E02078E8
:1050500040080FD3317811F00C0F06D0707880081B
:1050600038BF0A2508D3384602E04046FFF7B2FBB6
:10507000054601E09AF86750E8B2BDE8F087C046FF
:105080000D53000000B5C0B2FFF745FC4FF0000122
:1050900020B1406800B10121084600BD002000BDDC
:1050A00010B504460B2C00D101BE06F036FD974A20
:1050B0001368012000FA04F11943116010BD10B506
:1050C000044694F86500924B00F01F001B181978F5
:1050D0009048CA01A2EB41028218FF2992F86C2085
:1050E00029D094F86740A1421AD00B461146CA0154
:1050F000A2EB4102821892F86C208C4202D0FF2A67
:10510000F3D110BDDC01A4EB4304041984F86C2036
:10511000D301A3EB4203C218521CC4F82D2000E0B7
:105120001A70CA01A2EB4102FF21801880F86C10AE
:105130000021C0F82D1010BDC08500202DE9F04FD2
:105140000546DFF8D0B1EC01A4EB45040BEB0406F7
:1051500096F86A00294603DF06F16E0923F05DFD2B
:105160006A4A11684FF0010808FA05F39943116083
:1051700023F063FDAF4996F86A00A2460BEB0A04E0
:10518000FF270F5494F86E00032804D125B1092D90
:105190004FF000060FDB35B994F86E00022814BFFB
:1051A0000328DFF8D8922B463A460021484617F0EC
:1051B000D0FD002601E089F80060601CFFF77FFF4A
:1051C0007E2120460EF08EFC267084F8687084F8EC
:1051D0006A7084F86C7084F86B6005202650002D8E
:1051E00084F8677018BF0B2D404603D12070A24889
:1051F000C4F801005946514408254FF6F8064046C8
:1052000001F13D0301F10D040F310A886D1E24F8F0
:10521000046B02F4704221F8042B23F8020BF4D142
:10522000BDE8F08F0EB58DF8000002DF69464FF043
:10523000006022F0F3FA0EBDCE9D0020219F0020D9
:10524000CF9D0020D09D0020848B0020028600206E
:1052500070B505462878FFF703FC044602DF2046B8
:1052600004F034FB20462B4AC101A1EB400102208F
:105270005054204620F0A6FA2046FFF703FFC6B29E
:1052800016B12046FFF70CFFA87850B9CEB92046DA
:10529000FFF751FB2046FFF751FF2878FFF7C2FFC9
:1052A0000FE06A7820460021FFF796FDB349488D4C
:1052B00091F836104143C80200EB81202146FFF7E8
:1052C000F1FA012070BDC04600860020F58500205F
:1052D000AB4900200860AB490870AB4840210EF094
:1052E00001BCFFF7F5BFC8B206F017BC00B5C0B2ED
:1052F000FFF711FB002814BF4068002000BDC1016A
:10530000A1EB4000B649085C7047C04618860020F3
:10531000D485002040300020F0B507461D460846E1
:1053200016F093FA044666783046FFF7F4FA012F38
:10533000024617D0032F38D1092E36D03046FFF75A
:10534000D5FF022831D262781046FFF7D8FF054614
:105350001046FFF7F0FA6078FFF7F0FE2846FFF7F7
:1053600061FF22E0A06820B1001D94F8434024189A
:1053700002E0E0684468241D0220FFF71EFA06469A
:10538000A87800280CBF02F16000E81C211D23F062
:10539000BCFC04F10A01304623F0B7FC04F1100113
:1053A000304623F0B2FC28882083B44C4FF019001B
:1053B000216819B104F02CFF00202060F0BD2DE918
:1053C000F04117460D46064623F027FC804630463E
:1053D000FFF758FEC8B930460FF018FF012101FA57
:1053E00000F010F0240F02D03046FFF7A4FA15B1F8
:1053F00030463946A84730460FF008FF012802D052
:105400003046FFF79BFE00240EE0F001A0EB4600C3
:10541000B34C2418022020703046FFF741FEC4F838
:105420007650C4F87A700124404623F006FC2046EA
:10543000BDE8F081C88500201FB50446AF4822F0C2
:1054400032F9142006F03AF9684606F04FFA9DF852
:10545000000028B920786178A27824F0E3FC07E006
:1054600020788DF804004FF0004001A922F0D6F911
:10547000012000901FBDC046FFFF1F00C085002017
:105480002DE9F047814699F801804046FFF743FA3D
:10549000012404FA08F6054640460FF0B7FE002D39
:1054A000074655D023F0B9FB8246686810B1A0F1D9
:1054B0000100686004FA07F0400903D369684846B0
:1054C0000AF0A6FD504623F0B8FB934F3868064219
:1054D0003ED04046FFF7D6FD002839D199F80100AB
:1054E0000FF094FE3968B14304FA00F616F0240F69
:1054F000396002D04046FFF71EFA40460FF086FEA4
:10550000012807D195F866000FF012FC00224146F1
:105510000FF009FED5F87520404612B1D5F8791084
:10552000904740460FF072FE012811D04046FFF729
:10553000E6FE05464046FFF701FE16F0240F07D0B1
:1055400004FA08F414F4FF7F02D02846FFF76AFE3D
:10555000BDE8F08730B505466878FFF7DCF9041C34
:105560000AD023F05AFB6168491C616023F065FB97
:10557000616828460AF04CFD30BDC04624820020F8
:105580001C8600202086002020930020F0B585484E
:105590002022FF2124F0F6FD514C4FF4BD6120463E
:1055A0000EF0A0FA804FFF250026F0B2FFF7C6FDEF
:1055B000761C0C2E07F8015BF7DB00267B48067093
:1055C0002046012101707A49C0F80110A74C0B2137
:1055D00020460EF087FAA648A57065700680F0BDDB
:1055E000AA30002000B50020ADF1140D8DF80600A2
:1055F0006F48FF220B2103906846FFF70AFB05B0B6
:1056000000BD10B503460C46FFF7FEF91946CA0166
:10561000401CA2EB410297496FF31F3002EB44029A
:10562000885210BDC201A2EB400202EB81002C495E
:105630000D31085AC01000F01F00704710B501214D
:10564000814011F4FF7F00D158B9C101A1EB4000A6
:1056500089490C580FF0B6FE0FF006FC04402046B6
:1056600010BD092808D18548007810F0240F03D018
:1056700013F0FBFB0446F2E74D4810BD24860020E2
:10568000C201A2EB400202EB810015490F31085A1A
:1056900000057047C201A2EB400202EB81001049F5
:1056A0000D31085A001200F007007047C201A2EB4A
:1056B000400202EB81009D49085AC01270476B48B6
:1056C00000787047C101A1EB40009949085C704720
:1056D000C101A1EB400196483C3840187047C046D4
:1056E00040300020FF284FEAC01105D0A1EB400058
:1056F0008F49891F085C7047FF207047DDF7FFFF67
:10570000C101A1EB40008B490918087800280CBFA3
:10571000002091F86900704718860020F0B5164601
:1057200004460D461F461F2E00D101BE23F075FA18
:105730008149824B012F0A780E7081499A557D4B21
:105740000A7810D07F490A7812B1A2F101020A70DA
:10575000E101A1EB440101EB85015B18B3F80D10E9
:1057600041F478410DE012B1A2F101020A70E101A9
:10577000A1EB440101EB85015B18B3F80D1041F07A
:10578000F801A3F80D1023F058FAF0BD00B59D48BC
:1057900021F075FF142005F0CBFE0D2023F0D2FB85
:1057A000012000BDD4850020C8850020C0850020D0
:1057B000FFFF1F002DE9F047614F624D9146B9F19F
:1057C000010F8A468046594811D04346D901A1EBC2
:1057D000430101EB8A014618405AC0121F282A785B
:1057E00013D1022A1BDD4946184604DF14E0434664
:1057F000D901A1EB430101EB8A014618405AC010C0
:1058000000F01F001F283A7801D004462BE0022A3E
:1058100005DB0121184604DF1F20BDE8F08723F0D7
:10582000FCF945490C781F2C02D0444A125D0A70DD
:1058300023F003FAB9F1010F387805D02F463878F4
:10584000328864F3DF2206E03188E20002F0F802D9
:1058500021F0F8010A43401C38702346414632804B
:105860005246484605DF2046BDE8F087F485002013
:10587000008600207D30002041300020848B0020F5
:1058800070B5054628680E4623F0EAF90446A88854
:1058900023F0E8F90146AA79204604DFA8797B497C
:1058A000085CFF280BD0044623F0B7F906462146D2
:1058B0002846FFF7BFF8304623F0BFF92CE01D4B18
:1058C0004FF001014FF0080213F87E4F14B1491C4C
:1058D000521EF9D1E879CCB208B1082800DD01BE2A
:1058E00001233246E1B22846FFF718F968490878E3
:1058F0000818C4700878401C0870E0B224F00AFC54
:10590000E0B2FFF708F880F8666030460FF010FA52
:10591000012221460FF007FC2946204606F055FEDD
:105920002846FEF7D1FF012070BDC0464D30002053
:10593000AD30002040300020038600200486002087
:105940000C8600200D8600202DE9FC4F81460BAF10
:10595000019297F800A01D460C4650460FF0E8F95A
:105960000FF061FC07460422002105F1080024F035
:1059700009FC012FAC7104BF474804700124BC40EE
:1059800014F0240FDFF80CB106D1012F02D001BEB4
:10599000092606E0092603E009265846401E06703F
:1059A000B0460023524631462846FFF7B7F814F0B8
:1059B000240F59468DF8006006D1012F01D001BE99
:1059C00005E04FF00A0802E00A20087080460198BE
:1059D000002352464146A8712846FFF79FF814F06D
:1059E000240F8DF8018003D00A21304606F062FEB4
:1059F000B9F1000F694603D04846022224F05DF950
:105A0000BDE8FC8FDDF7FFFFF0B5074623480078BF
:105A1000A0B1234E4FF00004A6F1080515F8080FB9
:105A200048B106EBC401491C384623F060F9002850
:105A300018BF012003D1641C082CEFD30020F0BD57
:105A400070B50546FEF707FF2846FFF7DDFFD8B91A
:105A5000134B4FF000014FF00802A3F1080414F8B3
:105A6000086F26B1521E01F10101F8D10CE003EBE1
:105A7000C100401C2946062224F01FF907490120D5
:105A800020700878401C0870012070BDC885002077
:105A9000F4850020F6850020028600202086002064
:105AA000209300209C4810B5A44A0168406811600A
:105AB000A3490860A349A44A0868A84C106040F0B4
:105AC0001000086020460021203824F0ABFA0021A5
:105AD000204624F0A7FAA64C01212046203824F0C5
