:1000000000000006000000000002AC6CDC050020CF
:10001000FD86020079870200958702000D670200C5
:100020007167020005670200FFFFFFFFFFFFFFFF90
:10003000FFFFFFFFFFFFFFFFA59A0200AD87020051
:10004000FFFFFFFFFFFFFFFFFFFFFFFFFB67020058
:100050002D9902002D3300004FF70000CD02000063
:1000600071360000C50C0000FF4F02008D0F00002C
:10007000BD0C0000000000000000000000000000B7
:100080000000000000000000000000002DE9FF4F0C
:100090007B487C4C0578206818F01DFB00286DD14A
:1000A0007948A046794C022D026807DD216861B9C4
:1000B00077490968C9B28A1AD2B202E0754909685B
:1000C0008A1A2260002A016050D0FC2001907448F6
:1000D000DFF8C8A1704F029027F025FF0390D8F8F1
:1000E00000502D1D284618F0E1F906462068401EF4
:1000F00096F843102060B08D814200DB01BE01996B
:10010000401EB0FBF1F0A9784018401C5FFA80FB5C
:10011000584615F01EFE10F100092BD0C6F80890C5
:1001200028F097FF386896F83F106B465A46401CF7
:100130003860484616F044F8E87896F83F10814257
:1001400000DD01BE009AA0EB0100C0B2C8F800209B
:10015000029928B10A6896F83E105AF82110904783
:10016000039827F0F0FE20680028B5D10A2028F077
:1001700067F803E001BE039827F0E5FE0090BDE8B4
:10018000FF8F48483E4B00B5016847481B7802681E
:10019000022B07DC7AB149080DD20021016018F06A
:1001A000A9FA00BD2AB1490803D20021016018F064
:1001B000A1FAFFF76BFF00BD3D493C4B2DE9F04F25
:1001C0000A6853F8B40C72B1801A1C68394A844228
:1001D0002EBF146010601860374A13688342B8BF9E
:1001E0001060002008602649344C354B097820689F
:1001F0001A68032907DB78B932480168C9B2881A3E
:10020000C2B2104603E030480168881A024600284E
:10021000196008BF22602DD04FF000092D4E2C4FE1
:100220004FF0007ADFF8A4803968401E491C206036
:10023000396018F082FA051C06D1D8F80000401C7D
:10024000C8F8000001BE12E027F06DFE834630685A
:10025000401C306068694068C0F800A06869C0F858
:100260000490284629F085FB584627F06CFE20684C
:100270000028D9D1072027F0E3FFBDE8F08FC04662
:10028000D6A100208C940020889400209094002017
:10029000A8083080F8093080E89C0200549F0020B4
:1002A00090A10020744430809C940020145630802B
:1002B000AC940020A8940020709400209494002016
:1002C00074940020A4083080380530808494002085
:1002D000749C0200809400202DE9F04FADF11C0DBC
:1002E00027F048FE7C497D4C0D787D4AFF2301951F
:1002F000D4F80090029313700B7027F05FFE7949D9
:10030000FF2D086800F10100086077494FF4800074
:10031000086003D00120494607F00CFB734E03949C
:100320004FF00005307808B303980168487891F8D9
:100330003E100AF06DFB0028039817D00168C868CA
:100340004268107900F00C0004280FD0009548781E
:1003500091F83E10528B1311012206F095FC039880
:100360000168487891F83E1002F0F0F92C4601201F
:10037000347008F0F0F9061C02D0F0684068001DE7
:100380005B495C4ADFF87CA1049109680592DFF8BB
:100390007081002943D026B1007820F00300E428C2
:1003A00003D005980078012839D153480068B0F58A
:1003B000B07F34D97078FF2808D0C10101EB40012B
:1003C0004E48405C0428069002DC02E00298069049
:1003D00001BE032007F010FC0746C8F8007006981D
:1003E00018F084FC4FF0010B0BFA00F1C1F310116F
:1003F000090187F8240002D100B15D4600E0042520
:1004000050460570F868FC82416806980E3129F064
:100410000AFB40460168584607F0E6FC5D46019835
:10042000942811D199F83E10D9F80C00426810793F
:1004300020F00300842804BF908A011399F801007A
:100440004FF0FF3206F0DEFA27F094FD8146404679
:100450000268504601782C48002D04BF051C29680D
:100460000AD005460120286092F8242002982346ED
:1004700002F08CF921462C600398076805980278F1
:1004800062B9C9B197F83E00214951F820001F49CF
:10049000085C214607F0A6FB2C600DE004702C6080
:1004A000052007F0A9FBB842039803D10068214654
:1004B00022F0A3F9286838B926B1B078072804BF1C
:1004C0000620B07004980460484627F077FD114874
:1004D00007B00470BDE8F08F939600206C96002062
:1004E00091960020449D02006C043080009500200D
:1004F000809600209096002074960020FB3000200B
:10050000649600209696002084960020C8A30200DE
:10051000549F0020979600202DE9F04FADF1280D53
:1005200026F04CF9844C834694F818A027F0FBFC85
:1005300009900020A1464FF001080646D4F890200B
:10054000D4F88CC005463746314608FA01F31CEA58
:10055000030F09EB810307D0DC6A20435C6C264360
:10056000DC6D25435B6F1F43491C0629EDDB104002
:1005700002EA060602EA050502EA07076B4C63D1A8
:1005800028F09AFF00285CD1354353D16B4D0026EB
:100590002E60694640460AF05DF9009818280CD094
:1005A00040462860694603A809F0B6FA0498089006
:1005B0000398079007A826F0B1FB286870B126F0D1
:1005C0000DFB58B909F055F9FF2848D00DF0E5FCAE
:1005D000011C44D0C91E012943D82FE024F04CFE51
:1005E000A4F26C40006808B147F08077A4F2045090
:1005F000006818B9A4F5A060006808B147F40007C6
:10060000BBF1050F18BF47F080576FB9286828B1B4
:10061000286848B1304626F01AFB28B1B8F1000F1F
:1006200002D011F043FF1DE0404611F0ABFD12F087
:1006300035F816E0002E14BF0320042011F088FEC8
:100640000FE04FF000060DE04046BAF1030F1CBF6B
:10065000BAF1040F0020354318BF002801D111F072
:1006600094FE464699F8180020B9BBF1050F01D158
:1006700012F031F82E48007810F0240F07D136B16F
:10068000BBF1050F03D12B48206027F0ABFC099884
:1006900027F059FC4FF428300AB02060BDE8F08FF5
:1006A00070B566201FF074F925494308264C0A6886
:1006B00024490CD2800820D300220846027027F07B
:1006C00032FC05460521192012F024F812E001261B
:1006D000084606701D48C4380068906220212046F4
:1006E0008430016027F01FFC0546052231461920A1
:1006F00012F02EF8284627F026FC4FF080402060AC
:1007000070BD30B527F00FFC054611F0F9FD104C17
:10071000207E012806D1607E11F058FD11F0F8FD11
:10072000607E2076284627F00EFC30BD58093080C8
:1007300064930020FEFFFF00A4740020ECA30020BF
:10074000A0A10020C07400207004308024563080A6
:10075000A474002079487A4A70B5016810687A4C10
:1007600000F101001060A06828B14FF00070626CC9
:1007700010600020A0600029724D6BD194F8220017
:1007800038B9218FE06940684018001D04F140012C
:1007900010E0E0694168208F4018001D04F140011D
:1007A000042228F06EFBE069218F40684018083071
:1007B00004F13C01042228F064FBE1690868E0B11F
:1007C000E08C401CE08404F12C00228F0989891AF6
:1007D000A28C891A091F89B217F0BEFAE069006875
:1007E000E061006818B94FF0000084F8280000208C
:1007F000014602461DF0E0FE70BDD5F81001401C18
:10080000C5F81001A069C1684FF0007610E04A6891
:100810005B681068C3F35215854207D0E16115F09B
:10082000D7F902461068E1698542F8D11660096877
:100830000B68002BEBD1E161A2690020906092F877
:100840004330918DC91A918582F84300022027F028
:1008500095F870BD0120A169C870D5F80401401C4D
:10086000C5F8040170BD3948364B70B50168D3F83E
:100870000C01354C00F10100C3F80C01204600F1D9
:100880001000006841B1D3F8001101F10101C3F873
:1008900000114FF004014170E1680A68C2B9D3F851
:1008A000082102F10102C3F8082194F858203AB94E
:1008B00000224A6041880069818028F002FF70BDF3
:1008C000237D0A89D21A121F0A8117F094FD70BD88
:1008D00094F858004FF0000520BB4D6004F148002B
:1008E000B4F850200989891A89B217F035FAE068FE
:1008F0000668A06CE66003E0084615F069F9E66852
:1009000001682269B4F85030B1F1007FF4D1716808
:10091000C1F352110160518830894018C01A5080CB
:10092000284606E0237D0889C01A001F0881E2607E
:10093000002001461DF0F4FE70BDC0460418308052
:10094000749D0200609C0200C09000200419308059
:10095000F0B50025ADF1300D029527F0E4FA06461A
:100960005A4C5B494FF4807084F80151086002A82A
:1009700009F0E8F80298002800F0A28094F800013D
:10098000401C84F800010298007E09F052F8091C0E
:1009900003AA82E80300029801AA294609F057F841
:1009A0000028019801D132283CD8029805A9C769CE
:1009B000B0E80C50A1E80C5090E80D0081E80D0063
:1009C000304627F0C0FA0A9B05980699019A984785
:1009D00027F0A9FA064646E0029801AA322109F05A
:1009E00036F80028029821D402A809F0ABF8029941
:1009F00005A8B1E88C10A0E88C1091E80E0080E802
:100A00000E0001AA294605A809F021F800289DF842
:100A10002C0007D009F00DF8091C03AA82E8030096
:100A200032200190019809F0B2F844E0007E09F00C
:100A300000F8091C03AA82E803000298C76905A907
:100A4000B0E80C50A1E80C5090E80D0081E80D00D2
:100A5000304627F078FA0A9B0699019A059898473C
:100A600027F061FA0646384609F0B5FF01280798D5
:100A70001BD120B93846294609F01CFA15E0384642
:100A8000294609F017FA05A809F0D4FA94F80001EC
:100A90003A466946401E84F8000105A809F0DCF8D2
:100AA00094F80001401C84F8000102A809F04AF8FB
:100AB0000298002890D194F80001401E84F80001AB
:100AC000304627F040FA0CB0F0BDC046A0720020BE
:100AD000700430803F482DE9FC41001D006810F093
:100AE000060F00D001BE3C4C394FA18AB1B1A069BC
:100AF00000903888ADF80400E268908D814200DBF8
:100B000001BE92F84320801A401A81B2684617F05D
:100B100023F9684617F07CF9BDE8FC81E16891F89B
:100B20004320888D801A8885002581F84350C96844
:100B30004FF0007811E04A685B681068C3F3521602
:100B4000864207D0216115F043F8024610682169FA
:100B50008642F8D1C2F8008009680B68002BEAD100
:100B6000E06885602561E5603D60A08A00B101BE56
:100B7000022026F003FFBDE8FC8117480CB5016890
:100B800001B901BE154A13685B0800D301BE1268A3
:100B900012F0060F00D001BE42688AB108690090C9
:100BA0000420ADF804004888103081B2684617F080
:100BB000D3F8009800B901BE684617F04AF90CBD99
:100BC0004A8809698A800021016028F07AFD0CBDFD
:100BD00050A200200444308034A200202C443080F5
:100BE0003348F0B500684068143028F03FFD3149C3
:100BF0000746324C086800F10100086021684FF098
:100C0000180019B109F09BF9002020602C4C2D48E8
:100C10000025A26894300321556003680160616873
:100C2000254E4878202810D013F0030F04D1384601
:100C300020F0E2FFA26808E0D6F8540100F10100BC
:100C4000C6F854014FF004004870106858B9D6F83F
:100C50005C01401CC6F85C016068418800698180C5
:100C600028F02FFDF0BD04F11000238B1189C91A63
:100C700089B217F071F8A06806682069A66003E0E1
:100C8000084614F0A5FFA66801686268238BB1F1DD
:100C9000007FF5D17168C1F352110160518830892C
:100CA0004018C01A50802846014621F029F8F0BDAE
:100CB000649D0020C49D0200609C0200789D00207D
:100CC0005C9D00201014308022491020086070477D
:100CD0002A4810B54FF080610C300160284801218E
:100CE00001601D480078002832D026480268012A99
:100CF00009D10022026024480068244A1268904208
:100D000004BF2348016015494FF00004086800F152
:100D1000010008601248007808B113F0F5FD22F0D8
:100D2000C8FB11480F4900680880114988680F4ABC
:100D300000F007001070086822460E49400F00F0CE
:100D4000030008700220152124F092FF0A48046075
:100D500010BDC04670043080C9990020409D02003B
:100D600020990020F880002028953C80DC8000201D
:100D7000BC0E3180DD80002014950020640430809A
:100D80001895002020950020184930802C950020CF
:100D9000249500203CB5294D2868400A1ED2284CD5
:100DA0002068816821B1091D90F84300401802E0D5
:100DB000C0684068001DA28E04F1140128F061F89B
:100DC000286A0090218A686AE2686B4601900820D0
:100DD00021F0C0FB2168888D08308885012026F02D
:100DE000CDFD3CBD30B5174D154CD5F86801A28F2F
:100DF000401CC5F86801A06B04F13E0128F041F8E1
:100E00001149124820310A6803689A420BD1496897
:100E10004068814207D1A06B28F028FC6168A26875
:100E20001FF02EF907E0D5F86C016168401CC5F889
:100E30006C011020487028F0D4FD30BD001C3080BB
:100E4000448F0020609C0200281C30806CA400208D
:100E500022494FF4002000B5086021490868401C71
:100E600008600DF075FE062027F0EAF900BD38B5E0
:100E70001C4D4FF6FF74A86C00900098844209D076
:100E8000009801F07DFBA86C009000988442F7D197
:100E9000012000E000202968009100998C4201D1D6
:100EA000B0B938BD009840F001000090009880086B
:100EB000C0B222F023F918B1816A41F400218162A5
:100EC000009801F05DFB2868009000988442E9D109
:100ED00002484FF400210830016038BD70043080B2
:100EE000C49C02005C4E308030B540F642401EF09B
:100EF0004FFD0F490D4A0C8801254FF480610440D5
:100F0000116010E0B4FA84F1C1F11F0105FA01F19A
:100F10008AB2803924EA020418BFB1F1800102D1FB
:100F2000002022F0CAFC002CECD130BD6C043080D3
:100F3000C8A1002030B526F0F6FF0021084A094B71
:100F4000094D11701A782D689401C2F101022951DE
:100F50001A7026F0F8FF0D2027F072F930BDC04658
:100F600034A5002036A500202CA50020054902202C
:100F700000B50860042027F063F9002027F060F92D
:100F800000BDC0467004308002490120086018206E
:100F900027F056B97004308002494FF40010086001
:100FA0001BF046BB700430800C2027F049B90000CC
:100FB0002DE9F04FADF1240D8346DBF8040091F8E4
:100FC00063806C49143008600178D0290BD1017E10
:100FD000032908D1417E684A022900F0988001293E
:100FE00000F11A0001D00120C1E010F8011B30F817
:100FF00002AB30F8027B0088BC108DF80010ADF811
:101000000200781004F00F0400F00100082C814663
:1010100080F2A98040460C2800DB01BEC10101EB33
:10102000400101EB84011046405A00F007001646CB
:10103000012806F12C06A6F12C0540F094802146EB
:10104000404605F013FDBAF1000F3BD1B9F1010F95
:1010500038D1214640460AF034FB1F2800F0838037
:10106000214601AA404605F0ABFFBDF81E00B911AC
:10107000CFB2874207DA3A464046214605F084FC63
:101080003846ADF81E0041460C2900DB01BECA01FE
:10109000C3B202EB4102084602EB44022146B25AB7
:1010A00005F0FBFE41460C2900DB01BEC80100EB48
:1010B000410000EB8400295A21F0070141F00301AF
:1010C000295250E0404609F072FD252100F15C02F2
:1010D000ADF822100123210308A841F40061ADF806
:1010E0002010414605F071FB41460C2900DB01BE92
:1010F000C80100EB410000EB84004FF6F8712A5A5A
:10110000114029522146404605F0CFFB2BE0408B91
:101110000113000B13D2082925DA40460C2800DB06
:1011200001BEC30103EB400303EB8103D05A10F06F
:10113000070018D00122404605F0CBFB13E0082938
:1011400011DA40460C2800DB01BEC30103EB40036B
:1011500003EB8103D05A001200F00700022802D1ED
:10116000404606F013F8584614F00BFF002009B073
:10117000BDE8F08FA8A40020A53000202DE9FC4F89
:1011800005466C682069261D94F806B01434070ED5
:1011900020780B2F20F00300814607D9204609F064
:1011A00015FE0746F06867F31F60F060384608F0E8
:1011B000EFF90090384608F0E5FA82463AF004006C
:1011C000019004D1306840F40000306000E03068E5
:1011D0004FF00008C00C07D209F00C00082803D11A
:1011E000B6F9000014F036FFBAF1040F009801D1EF
:1011F0000FF0F4FC3088C5F80CB0288128461AF0AE
:101200003EFAB9F1400F11D185B1BAF1020F07D002
:10121000BAF1050F04D0BAF1010F18BF002F05D1A4
:10122000284620F0FEFE002840F0B480F068BAF1B5
:10123000020F67F31F60F06018BFBAF1050F02D10B
:10124000F8B21DF0FBFE5FFA87FB584609F0AFFCD1
:1012500000906178480828BF201D05D288082CBF5F
:1012600004F10A0004F11000974926F0C6FE002898
:1012700040F09080B9F1500F0CD0B9F1800F09D037
:10128000009928461AF0EFFBF168000200F4807024
:101290000843F060BAF1020F4046286018BFBAF167
:1012A000050F03D1384621460BF068FF207800F087
:1012B0000C00082835D16078E18A00F0040001F0C4
:1012C0000F0101432DD0214628461AF0EDFC0546BA
:1012D0006078C0080ED2207820F07300882806D1EC
:1012E000208B400903D3E08A4FEA2010C7B2C5B96A
:1012F000BDE8FC8F019800284FD1F06801233146EA
:10130000020A02F00102204616F08AFBF06801236F
:101310003146020A02F00102204619F009F9BDE83F
:10132000FC8F00992846FFF743FE002835D0284659
:10133000314627F00FF900282FD0607800F0030025
:10134000032809D0F068400A06D215F060F810F1C1
:1013500000081FD088F800B0B8F1000F1AD0C8F804
:1013600014506968488DB7EB201F08D1087D20F024
:101370007300882803D1888D40F01000888540468E
:101380001AF036FD40461AF023FC404628F0F5FAE4
:10139000BDE8FC8F284614F0F4FDBDE8FC8F2DE974
:1013A000F04F4A4DD5F8DC00401CC5F8DC00484839
:1013B0000078ADF11C0D26F074FD684626F026F885
:1013C000009C002C7DD005957E200690DFF80481DE
:1013D000414DDFF808912069800B00F00100824642
:1013E00004A821F0F7FB261D0DF10F0021F0DAFB18
:1013F00030461AF0D1FC01A924F051FCE17AC0106A
:1014000040B2002908BFA07202D0801D40B2B07166
:1014100010F1220FDABF1F3840000698F071204605
:1014200014F0A0FF8346204614F08AFE306800279F
:10143000400C12D3BAF1000F0CD1143420463146BF
:1014400025F09EFFBBF1000F04D018B95846FFF7F6
:1014500095FE01273068400C0DD2D8F80000401CE2
:10146000C8F8000028686FF30F0028602968D8F8D2
:10147000000008432860BAF1010F0FD1D9F800002D
:1014800000F10100C9F8000028686FF31F402860D0
:10149000D9F80010286840EA014028605FB9BBF124
:1014A000000F02D0584614F06CFD0599D1F8A80041
:1014B000401CC1F8A800684625F0A8FF009C002C3D
:1014C00089D107B0BDE8F08FD4A70200609C02006C
:1014D000B3920020A0A40020884E3080A4A4002055
:1014E0002DE9F04FDFF8A0A1ADF1480DDAF80000CA
:1014F000002840F0C480DFF894B16FF00040CBF8D2
:101500000000634D01200E90286026F00CFD4FF086
:1015100000090F905F4CC846CDF8409047462646DC
:1015200011955D46D346DDF838A0B168304688474E
:101530003068022800F0A080012807D1308A28B93D
:101540000AFA07F040EA08001FFA80F87F1C1836F4
:101550000C2FEADB0F9826F0F6FCCDF83CA04E4F9E
:101560004E461FE00499059A0CA826F02AFB9DF828
:101570001C0008F05EFA089008AA081C09900CA943
:101580000AA826F056FB2968080100EBC1002018C4
:1015900041690AA826F083FB002842DD286800F193
:1015A00001091096386820B11098014623F03EF9E1
:1015B0003E60684625F06FFA48460C2848DA0F99D5
:1015C000814018EA010F09D0010101EBC0010B199C
:1015D00061180A799DF80010914203DB401C0C2829
:1015E000EDDB35E02860187901A909F033F901989D
:1015F000182816D029684FEA011000EBC10004EB4F
:1016000000012044408A10B147F2305010900398F6
:101610000028A7D04969109A51188842A2D8119879
:101620000660684625F037FA28689DF80020010119
:1016300001EBC00161180B799A4220DA498A59B945
:1016400002DF2968080100EBC1002418E068804728
:101650000E2011F07DF912E00E98CBF800000E205C
:1016600011F07CF92968080100EBC1002418054835
:10167000618A23F0DBF802E00F9826F064FC12B0D8
:10168000BDE8F08FAB6A02003CA3002044A3002019
:1016900048A300206870002040A300202DE9FF4FE0
:1016A00001201AF05AFE00201AF057FE26F03BFCEB
:1016B000044611F0AAF938B95048002111F054F944
:1016C000204626F040FC96E0204626F03CFC4D48A3
:1016D000DFF838A100904C4F0820D3460190072036
:1016E00002904B48DFF818810426039018F8010D8A
:1016F00006F0A4FE002879D1304621F0BFF88146DB
:10170000B9F1FF0F56D1304621F04AF98146B9F1BF
:10171000FF0F6BD021F09AF9484618F0CEFF05462E
:10172000288E841095F83D0023F0E6FA04F00704B3
:10173000A0423AD16878009938B9097829B9484661
:1017400021F0E8FC00282BD168780C28014600DB4A
:1017500001BECA0102EB4102B95C012908D00C2884
:1017600000DB01BEC10101EB4001785C03280CD114
:10177000E87838B9484621F0E1FCD8B9284606F0A7
:10178000B2FF17E0DAF8000013E0E8684068001DD7
:101790000178C0290ED0A0290CD005F07BF948B9FA
:1017A0000199DAF80000E97003E00298E870DBF8CC
:1017B0000000E861484618F080FF8178062902D0D1
:1017C000072900D001BEC06800B901BE042E09D1AE
:1017D000002011F001F90128039803D100780128B5
:1017E00000D101BE314648461AF025FB761EB6F1FF
:1017F000FF3F7FF47BAF0090BDE8FF8F15BE010077
:10180000CDA3020064930020983000206055308002
:101810008C6A00202DE9F047504D2868002126F001
:10182000DFFF18F04AFF0A2604460EE0286827F07A
:101830001AF82860204626F02DF9A67028680021A5
:1018400026F0CEFF18F039FF044614B1A07809281D
:10185000ECD06868002126F0C3FF824618F02DFF07
:101860003F4F064668E0504621F054FC8046B06881
:1018700020B1001D96F84310091802E0F068416895
:10188000091D7078022209F0F7F9B8F1000F01463E
:1018900009D0304626F0E9FE18B926F053F9BDE824
:1018A000F08726F06BF96868002126F0CDFF6868A4
:1018B00026F0D9FF6860504621F040FC002408B1B2
:1018C0004FF0010414BB96F83D907478504621F017
:1018D00029FC40B9D7F88000401CC7F8800030468A
:1018E00023F0EAFB04E0D7F88400401CC7F884002A
:1018F000304609F031FD304621F02CFC23F0D2FEB9
:1019000022464946012011F051F808E0F86F401CCA
:10191000F867304609F020FD304621F01BFCB8F195
:10192000000F01D026F090FE6868002126F058FFD5
:10193000824618F0C2FE064616B1B0780A2892D048
:101940000848017841B14FF0000101700648006875
:1019500010B1082026F074FCBDE8F08778870020DD
:10196000609C020034A4002038A400202DE9FE4F22
:10197000DFF828814A4DD8F8BC00401CC8F8BC00EC
:101980002868002840F087804648046800904FF09F
:10199000000BDFF8149145480190584602901AE078
:1019A000296807E0486942680A61C0F804B04869DC
:1019B00000894880084627F0ECFF99F8000040B104
:1019C000484680F800B00198006810B1082026F061
:1019D00037FC02982860002C5DD094F8220004287F
:1019E00059D16069466814362078029A314609F068
:1019F00043F907467078C0090DD3307810F00C0F0A
:101A000009D047B9607840F008006070D8F8FC0051
:101A1000401CC8F8FC00384612F08CFA0028214619
:101A200039D0296000988C68046048780028B9D1C2
:101A3000002F2BD0D1F814A0304627F0D0FDBAF8F3
:101A400008101039884220D23A782968521E012A9B
:101A500013D9921E09D0521EACD10846394612F055
:101A600079F801289CD0BDE8FE8F0846394620F061
:101A700047F9012894D0BDE8FE8F084639461CF08E
:101A80004FFE01288CD0BDE8FE8F2968084616F06D
:101A9000B2FC012884D0BDE8FE8FC046609C0200E5
:101AA00048A500204CA50020FB88002038A4002079
:101AB0002DE9FC4F3D4D286800286BD1364804685D
:101AC0003649D1F8008000918346DFF8D490354F35
:101AD0000CE03C60A468CBF80040304627F0B6FE2E
:101AE000304627F046FF072026F0AAFB3048002C9E
:101AF000DFF8B4A0019034D094F8220026460728DD
:101B00002FD12E6001983269D038D0F8CC10143221
:101B1000491CC0F8CC101178402902D1816A491CB7
:101B200081623868864208BF99F8000006D02046D6
:101B300027F067F82E6889F800003E600028C8D0BA
:101B4000304626F0EBF850460168286888470028A0
:101B50004FF0000004D13C60A068CBF8000000E02A
:101B60002860B8F1000F15D098F82200072811D18D
:101B7000C5F800800198001F0168491C01605046AB
:101B8000016840468847002806BFD8F80800009D35
:101B900000202860BDE8FC8F4CA4002050A4002049
:101BA00058A4002054A400209CA1002048A4002098
:101BB000309D02002DE9FE4F344C4FF00008A06824
:101BC000002861D13348009001200190DFF8C890CF
:101BD000DFF8BCA0CDF8088018F1000105D0491E3F
:101BE00004BF04F1100502270EE004F10C050327E1
:101BF0000AE02868394626F027FE286826F033FEDA
:101C000028602168304688472868394626F0E8FD74
:101C1000FF2825D021F072FA064696F83E005AF8C1
:101C200020B0F0780028E4D1A06800B101BEA66021
:101C300096F83F00594625F0E0FE009801683046CE
:101C40008847A0B90198032F01D001BE01E089F8AF
:101C5000000096F83F10584625F0BAFE0298A060A2
:101C600008F10108B8F1020FB6DBBDE8FE8F032FC3
:101C7000029801D1494608702868394626F0E4FDEB
:101C8000286826F0F0FD2860BDE8FE8F1C87002044
:101C9000549F002080A10020DB9D00202DE9F0430F
:101CA0002D4C04F130073868002853D12B4D28788B
:101CB00000284FD1606B012126F092FD18F0FDFC49
:101CC000A9464FF000080646254D3DE0B06820B11A
:101CD000001D96F84310091802E0F0684168091DDC
:101CE0007078022208F0C8FF12F004F9002831D001
:101CF0003E60606B26F0B7FD6063F07880B93046D7
:101D000016F0FAF8022803D001280CD0BDE8F083C1
:101D1000012089F80000606B26F06DFD606317E01C
:101D2000304616F0D3F8A16A38688847606B012105
:101D300026F056FD18F0C1FC0646287820B185F83B
:101D40000080012026F07CFA16B1B0780428BDD0BE
:101D500040463860BDE8F0831C87002034A4002092
:101D6000FC8800207EB52F4C103C94F83D0007F015
:101D700060FE94F83D0006F058FE264A06462368A9
:101D8000516830789B7D126805DF0B2027F0EFFE4D
:101D900024202075206831780025807D052965770D
:101DA00020771D48256200884FEA8020A0842046C5
:101DB00004D0717C002908BF112100D01221A1613B
:101DC00094F83D102A4614308DF80010134913463C
:101DD00006F04CF9012805D025611EF0ADFC0F205E
:101DE00026F02EFA26F09FF806460D48007860B1DE
:101DF0002068007894F83D1003DF94F83D002946F0
:101E00008DF8040001A806F02FFF304626F09BF85D
:101E10007EBDC0461C4C3080C0A50020BB07020020
:101E20007CA50020B8960020F0B52B4C002504F1CD
:101E30001C073868002846D1206A012126F0D0FC12
:101E400018F03BFC064637E03E60206A26F00BFDAA
:101E50002062F078002824D1B06820B1001D96F8E7
:101E600043502D1802E0F06845682D1D6878C009C0
:101E700017D3284627F0B3FB96F84320B18D891A73
:101E800088420EDA70780222294608F0F5FE011C1D
:101E900007D00878022804D1304620F074FB0128CE
:101EA00018D1616938688847206A012126F098FCBA
:101EB00018F003FC0125064616B1B0780328C3D0FC
:101EC0004FF0000038602DB10448006810B10820C0
:101ED00026F0B6F9F0BDC0461C87002038A40020CB
:101EE0002DE9F84F26F01FF8009027482549006893
:101EF0000860012023F0A3F94FF0E80B4FF0070A28
:101F00004FF00078214E4FF0000927E014F099FAC5
:101F1000071C00D101BE14F0ABFA051C00D101BEB4
:101F2000F4682068B0F1007F08BF404601D013F08C
:101F30004FFEF060C4F800802C616F617C6085F812
:101F400022A085F82490A5F802B0206920F07F40F7
:101F500040F0794020610B2010F000FDF068B0F1F6
:101F6000007F02D071698142D0D1009825F0EBFF4B
:101F7000032026F065F986F82190012023F058F916
:101F8000BDE8F88F809300206055308038A1002094
:101F900030B510F03AFD002831D01C4C207850B1FB
:101FA0001B4D287802DF1B492878097800220AF0A7
:101FB000A1FA0020207024F0FAFD044612480168BE
:101FC000174802290BD00078164909780FF0FAFC5F
:101FD000114A00231178137008430DD009E000F175
:101FE0000C0000784FF0010118B920461CF028FDC4
:101FF00002E020461CF014FD1CF058FD30BD0748DF
:10200000002110F0B1FC30BDE09A0020B69A00200B
:10201000B79A0020B89A0020B99A0020CBE90100B5
:10202000AC9C00209793002018B5032027F09FFD5B
:1020300025F079FF0446684610F064FD9DF8000025
:10204000002828D01C480078800824D29DF8000081
:10205000012812D01948018951B9417C02290AD1BD
:1020600001210174204625F06EFF1BF02CFA18BDEB
:10207000417C012907D01BF08AF91BF059F9204651
:1020800025F061FF13E002210174204625F05BFF7B
:102090001BF043FA18BD204625F055FF00201BF029
:1020A00099F9002001461BF00EF91BF041F90F20B1
:1020B00026F0C6F818BDC046649300206490002046
:1020C0001E492DE9F0431A4E091F0868401C08609C
:1020D000306800282AD117481749046888460D68D7
:1020E0007CB18146002794F82200682809D1346029
:1020F000204626F027F9A4683760002CC9F8004074
:10210000F1D14FF000040E4F0BE03878012800D1D8
:1021100001BE3560284626F030F9AD683460C8F855
:1021200000501DB195F822006828EED0BDE8F0837C
:10213000F0A40020F4A40020F8A40020189D0200C0
:1021400038A100201749F0B5174C0868401C0860FA
:102150002068002824D1154E35684FF0000703E0B1
:10216000206827F010FC2760D5B195F82200294699
:10217000062815D121608D6835600878096901222B
:10218000143108F079FD011CEAD020684278002A59
:10219000E7D10A78022AE4D120F08DFA0128DFD0B5
:1021A000F0BDC046249D020050A5002054A500208B
:1021B00030B5114C00250B3C657324F00AF8E07231
:1021C000217BE07A03DF607B70B901DF084801689A
:1021D0000848022906D0057021F05FFF0F2026F085
:1021E0002FF801E001210170E07A207330BDC04674
:1021F00070A5002075A50020C7A4002000B525F01B
:1022000092FE0C490A78012A10D00B4A0B4B127827
:102210001B684FEA82129A5842B101220A7025F0D7
:1022200092FE24F04DF925F069F900BD25F08BFEF2
:1022300000BDC04634A5002035A500202CA50020F7
:102240000E4800B5017989B98168022915D10121AB
:102250008171022027F08BFC22F0D6F922F034F9AC
:1022600000214FF4807024F071F800BD417921B94C
:1022700001214171024822F08CF900BDD4A2002056
:10228000494502000D4908B591F8CA0460B991F8B2
:10229000CB0488B968460DF05DFE009802280BD18A
:1022A00000200DF060FD08BD91F8CB0420B901209D
:1022B00081F8CB040DF096FE08BDC046904000208A
:1022C00008B501DF0C48016879B90089C00803D25C
:1022D000684624F05CFB02E0684624F06DFB009841
:1022E000022808D11FF094F808BD416819B90121EE
:1022F00041601FF028F908BDF45D002010B510F012
:1023000084FB20B90A48002110F02EFB10BD0022EA
:102310001446E0B211F0A4FF18B1E0B212F0A0FA36
:102320000122641C082CF4DB002AF0D110BDC04649
:1023300083470100002018B5009027F05BFA041CC9
:102340000CD00F2010F00AFB6946204627F01EF93A
:10235000009927F059FA0F2010F0FAFA18BD000082
:1023600000B500F072FF00F084FF0448007825F00B
:1023700098FD042025F064FF00BDC046B392002004
:10238000F0B5ADF1180D8C46C168836A0C895B0A03
:1023900004F1040432BF00214C690421BCF1060F92
:1023A0004FF00007984B22D0BCF1070F1FD03CF034
:1023B00001001AD1DFF854E220011C603EF81260DF
:1023C000B0FBF6F1B0FBF6F54E437608B6EBC40F62
:1023D00038BF4D1C032A714605D1C9886943091AC3
:1023E0000F2988BF8027DD600EE01C600CE0C08DE7
:1023F000142A186043F8104C14BF40F2031040F246
:102400000B10084343F8140C81489F60006800F0EB
:102410000F000D2803D00C2818BF0E2819D17D48B5
:102420006946F0C8F0C150F8044B41F8044B10F86D
:10243000014B01F8014B43F804CC774912F80D0029
:102440005860086820F001000860086840F001004A
:10245000086006B0F0BD2DE9F047704A07461368E2
:1024600003B9BB8E6E4A146801228A40D20805D295
:102470006C4A515C04EB4111FA681161F968A14A98
:102480004FF00009496801F10408A2F5EC710B60F6
:102490009D490F60F9680969C1F81C90B96A490A39
:1024A00009D2116821F400511160C2F87090F968E6
:1024B000FF23CB7215E0116841F400511160F968F7
:1024C0008969491E1167B98DFB681B691961B8F8E4
:1024D0000210FB681B6999618221FB681B69D96145
:1024E000F9680969C1F3521141F0004142F8181C22
:1024F0004FF4F07142F8081CBA6A22F44031520AD3
:1025000039D3FA68B96241F480019569B96204F57A
:1025100000746D1E28D0C26848F2823AD67A3046DE
:1025200020F0ECFDC1684968C1F35211E160C16857
:1025300009892161C168C969102994BF0906494602
:102540000E436661B8F80210C4F81CA0A161C2680D
:102550001461816A21F440318162816A20346D1EE8
:1025600041F480018162D9D1C468384622F01DFB54
:10257000E072BDE8F08721F48001B962BDE8F08720
:1025800010B503467D487E4A017852F82140240860
:1025900000D301BE43F000433F2942F8213014BF6D
:1025A000491C0021017010BD764B30B5744A197872
:1025B0008C001059050808D320F0004010513F2925
:1025C00014BF491C0021197030BD4FF6FF7030BD9B
:1025D0006D4A410B03D311460C31096800E000211C
:1025E000030B24BF111C0968A54AC30A02D3114674
:1025F0000C310968800A24BF101C01684FF00100EB
:1026000009B105F097B9704724403C8030A702001B
:1026100068C03C8070A60200C855308074960020C7
:102620001CA2002010A2002030B5964C0546D4F81C
:10263000800709B12B0B02D3A3680340A3640129CF
:1026400001D06B0B04D3E36800F627400340E3643A
:10265000022901D0EB0A04D3636800F62740034047
:102660006364032901D0A90A04D3216800F6274036
:102670000140216495490978914201D0690A04D347
:10268000616E00F6274001406167032A01D0290AE4
:1026900004D3216E00F62740084020672846FFF744
:1026A00097FF680B05D3D4F8DC0040F00100C4F8B4
:1026B000DC00280B05D3D4F8D80040F00100C4F8A2
:1026C000D800E80A05D3D4F8D40040F00100C4F8DB
:1026D000D400A80A05D3D4F8D00040F00100C4F813
:1026E000D000280A05D3D4F8180140F00100C4F83E
:1026F0001801680A05D3D4F81C0140F00100C4F8A1
:102700001C0130BD585030806896002038B19E4979
:102710000968C08A0A30814228BF012000D2002007
:10272000704710B525F026FC98490A6801EB820332
:10273000DC688B680F2AA3F101038B6014BF521C65
:1027400000220A6025F03AFC204610BD10B524F0A6
:10275000B1FB044625F00EFC8C4A9168491C91603F
:10276000516802EB8101CC6051680F291ABF516892
:10277000491C0021516025F021FC10BD9C960020D1
:10278000A47300209D960020A06A0020F0B59A4D09
:102790009A4F00262D68042824F001044FEA1555AD
:1027A00005F0070C4FF003057D603E610ED030F060
:1027B000010506D0072818BF06280DD14FF4EB609D
:1027C00001E042F278304FF4167503E04FF4527591
:1027D0004FF4EB603D60F86089480078FF2804D032
:1027E000002B08BF44F0020401D024F00204D428D6
:1027F00008BF0126834D152A2E700AD00C2A06DB4D
:10280000152A04DA142A1ABF0C3AD2B20722C7F8E2
:10281000A8207D4A1268002A04BF24F4E00444EA98
:102820000C540CD024F4E0044FEA015101F4E0010F
:1028300041EA0404754D296801F1010129607449D8
:102840004FEA801000F47C5009786FF3132440EABB
:1028500004004FEA813404F47C2444EA000444F088
:10286000EC0424F01004BC601AB1B86840F0010018
:10287000B8601BB14FF00100C7F86808F0BDC04652
:10288000886A0020E04D308030B522F08EF9054690
:1028900020F054FC5D4C90B9284620F098FC58B9C3
:1028A000284620F03FFC28B9284620F033FC58B1D8
:1028B000183402E0143400E01034204601E02046D1
:1028C0000C300168491C016030BDC046CCA3020039
:1028D0002DE9F041ADF11C0D0646F06801F0030151
:1028E0000F464468241D207820F0030520F0730073
:1028F000882823D1208B00F06008707896F83E106D
:1029000008F086F8B0B1707896F83E10224604F0D0
:102910001FFB044696F83E1070786A4604F050FBA0
:10292000022F07D1B06A400A04D2BDF802000CB9E8
:1029300000B10027B8F1600F08BF032725F073002E
:10294000882805D1B06A400A02D3012F18BF032797
:10295000942D0BD0D42D09D0B42D07D0C42D02D185
:10296000B06A800A02D3012F01D109E00427B078B0
:102970000B2805D0A149086820F00200086001BEBC
:10298000384607B0BDE8F08174960020009300201F
:102990002DE9F041427890F83E002C25AC4900EB3F
:1029A000C20045434C5B6D182D1D287820F0A6FB16
:1029B000C0684068408B4FEA2016BCB12F4640F2F9
:1029C000FF78387820F09AFBC1684A68518BA6EBF3
:1029D00021116FF31F3188459CBF518B0E11641E6E
:1029E000394601F10507A1F80360EAD1287820F003
:1029F00085FBBDE8F081C04688A60200904E30807D
:102A0000919600200095002084960020A49C02004E
:102A1000929600202DE9F04FADF1480D04460B9041
:102A2000417894F83E5005EBC10525F07CFA8849C1
:102A30000C902C2000FB05166078358808F076FE97
:102A400040796F496F4A31F81010B078341D32F870
:102A5000100048434FEAA01828220D96214601A8ED
:102A600026F00FFA0D99082D05D00888401C088023
:102A70006D1CFF2001E094F823000E90207820F0D8
:102A80003DFB80780026B24607280D9809D10088C2
:102A9000012806D00B9822F088F88DF804002078E1
:102AA00009E00B9F384622F080F82070F968098908
:102AB0000831A4F8011020F035FB00280B9802D152
:102AC000806A800D01D34FF0800A022DADF1010024
:102AD00056D30F90671D109480200124A5F10109A1
:102AE00011900F9911F8050F0F91387020F006FB27
:102AF00083461098007820F001FB0546DBF80C00B7
:102B00000389E8680833008900F1080242450ED2C3
:102B1000A8EB02018E08B1EB860F06D9761CA8EB54
:102B20000001083921F00301091D891800E0114650
:102B3000109800F1050CCDF840C0B0F80100C91C98
:102B400021F00301801A09185B185846A7F80130D4
:102B500022F02BF8E968C872E868C66117F8050B1F
:102B600020F0E0FA18B9DBF82810890D03D3119989
:102B7000214141EA0A0AB9F1010904F10104B0D185
:102B80000D9880F803A00B98FFF702FF0C9825F032
:102B9000DAF90E9812B0BDE8F08F70B5044622F055
:102BA00004F8054620F0CAFA38BB284620F00FFB8F
:102BB00018BB2046FFF72EFF0546FF2D1DD0E8B2BB
:102BC00017F07BFD044625F0AEF906460520A070FF
:102BD000E8B217F0CFFDE8B217F09DFD304625F0C2
:102BE000B2F9A06AC00C02D328460AF0ADFB94F8F3
:102BF0003D10627800200FF0D9FE70BD5054308037
:102C000060A6020030A702002DE9FE4F0090427836
:102C100090F83E100E4D2C2401EBC2014C4335F8C8
:102C2000048021F0C2FF064625F07DF9A3460BEB98
:102C30000504241D01902078864200D001BE009832
:102C4000C0688669029536B1B8F1000F03D101E082
:102C5000E816002001BE4645A8EB060506D106EBA6
:102C6000860704EB07094FF0000A05E006EB86072C
:102C700004EB0709B9F801A099F8000020F03EFA2A
:102C8000C16899F800200989227001F1080189B210
:102C9000A4F801100DB1AAEB010A022D15D3E11918
:102CA000491D621DA5F1010C0B7813700B46B3F89A
:102CB0000170591D1346A7EB0A07BCF1010CA3F8DC
:102CC000017003F10502EFD100E00125A84505EBF5
:102CD00085010CD964180021FF22A8EB05035B1EB7
:102CE0002546A5F80110227005F10504F7D1029CD4
:102CF0005C442088801B20800098FFF749FEE07824
:102D0000B040E070019825F01EF9BDE8FE8F70B567
:102D1000ADF1280D0D46064608F0D3FC04462946C1
:102D2000304607F075FE002847D03046294603F0AC
:102D3000BEFE002841D1294603AA304604F040F9DE
:102D4000BDF80C10BDF80E00884210D104980008A0
:102D500033D30498BDF8241040F2FF73C0F30B4244
:102D6000501A6FF31F30834201D9914225D120467A
:102D7000264C410101EBC001641820780A2814DCBC
:102D8000002000902248019002953146152007222C
:102D9000204B22F03FFC00280FDD0122294630465F
:102DA00003F030FE2078401C06E030462946002221
:102DB00003F08FFD184C012020700AB070BD9621E1
:102DC00080F83C10704730B5ADF11C0D01281D4650
:102DD00019D1084617F071FC816821B1091D90F8DE
:102DE0004340641802E0C1684C68241D40786A467C
:102DF000E9B204F0E5F8BDF8180000016082208A0D
:102E000065F31F30208207B030BDC046B079002086
:102E1000BB2D0000B32D00009F9600202DE9F04F40
:102E2000ADF1200D17460190B86C0290F868466825
:102E300097F83E000C4603907978049197F83D107E
:102E40000591A84951F82010A548361D00EB010B4B
:102E5000307820F003008146204620F06FF9F18A97
:102E6000B9F1840F82464FEA2111069112BF0399EE
:102E7000318A091307910199DFF890820025002912
:102E800000F0C380491E57D0491E28D0491E05D0E6
:102E9000491E4FF0050000F03B813AE1F8684FF021
:102EA00001094FF0080A86699EB1E0B217F007FCED
:102EB000F86887F802A0C0F81890F8680199C47AF9
:102EC000384626F08FFA204617F0F7FB761E0746A5
:102ED000EBD14046001D0168491C016019E1B98A27
:102EE000F88A4018B98E0918F868B9820068002875
:102EF00004BFFD7001257ED0F860018901221346D0
:102F0000384621F00AFEF882384621F0D1FDB88615
:102F100025F009F80646E0B217F025FE3846FFF71F
:102F20003CFEF96801208861304625F00CF82946FE
:102F300038461FF062FCECE0404608300168491C4E
:102F40000160B86A800A34BF5846984890F80080FB
:102F500024F0E9FF834609F00C0004284FF0010536
:102F600016D003990498324603F0B8FD04980399EB
:102F700007F04EFD60B100200090069B0399049875
:102F8000032203F081FE04980399069A03F0DCFD06
:102F9000B87807280CD1E0B217F02EFEE0B217F097
:102FA00030FCBAF1000F03D105213846FFF72CFEA3
:102FB000404604F0F5FD874206D1404604F0FEFD90
:102FC0000021404604F00EFEB9F1840F079805D1A8
:102FD0004FF0FF32C1B2049803F014FD00213846CF
:102FE0001FF00BFC0420F870584624F0ACFFB86AC0
:102FF00020F44030B862019E3846314626F0F2F99E
:103000003146384609F0A6FF83E024F08CFF834662
:1030100097F83E10787807F0FBFC0646B88EB98A20
:103020004018F98A0918B86AB982400C0DD2B9F172
:10303000840F04D0032138461DF02CFF08B903206B
:10304000F8700199384626F0CDF9BAF1000F15D184
:1030500038461FF007FD88B186B1F878032811D0F3
:10306000E0B217F02CFB04980399FFF76FFB0820E0
:10307000B870584624F067FF012067E0F87801999E
:1030800003281CD1BAF1000F4FF0010530D12046C2
:1030900020F09DF800282BD109F00C09B9F1040F9C
:1030A000039925D0049807F0B3FC08B300200090E2
:1030B0000399069B0498032203F0E6FD18E03846C6
:1030C00009F048FF384621F05FFCE0B217F04BFDF5
:1030D000BAF1000F08D13846FFF75FFD404604E023
:1030E000C8A30200549F002092480168491C016057
:1030F000584624F028FFBAF1000F039903D1049831
:1031000007F086FC28B9002112E7C046CC9C0200DB
:10311000B8700798C1B20498FFF7F9FDADB13869EE
:103120007B6CF860029840B101980022E1B202285D
:1031300008BF0122029C0320A047384624F08EFCE1
:10314000049A059900200FF031FC002008B0BDE87A
:10315000F08FF0B50546A808C6B2304617F0ADFAB4
:1031600004466078FF2800D101BEFF2E1CD005F078
:103170000307012F07D0E068C07AFF2803D0064676
:1031800017F09BFA0446012F02D1A07807280BD133
:10319000304620F01CF838B92046A9B2FFF798FB5A
:1031A0002246F1B2FFF73AFEF0BDC046CCA30200C2
:1031B0002DE9F047824617F07DFA00284FF000070E
:1031C00041D00646DFF84482504617F04FFA814658
:1031D00017F073FA051C00D101BE6878FF2800D1F2
:1031E00001BEA978082903D0C8F8007001BE68782C
:1031F000E9684C6895F83E10C0B207F009FC241D40
:1032000030B9207800F00C00042818BF012013D139
:10321000207800F00C0004280DD0687895F83E1056
:10322000224603F095FE022803D0012803D1022094
:1032300002E0032000E038462A464946FFF7EEFD4B
:1032400008B9761EC0D1BDE8F08710B54FF6FF74FF
:1032500001E0FFF77EFFFFF7A7F98442F9D16C4840
:1032600004682CB1FFF75DFAFFF7A2FF641EF9D1E5
:1032700010BD2DE9F04724F056FE824624F07AFE78
:1032800064490D68D1F8A46063490C7824F096FE77
:1032900005F0010506F008062E43344345D15F4D85
:1032A00095F85C9195F85D81002485F85C4185F87E
:1032B0005D41504624F047FEB9F1000F4FF0010781
:1032C00011D0264607FA06F019EA000F05EB860032
:1032D00006D000F10400026812B101693846904737
:1032E000761C042EEED3B8F1000F4FF002061CD06E
:1032F000012707FA04F018EA000F4FEA441011D032
:1033000000EBC400291891F89C1003290AD100EBA6
:103310000501284400F1B40081F89C60016809B1FE
:1033200040688847641C042CE3D3504624F00BFE0D
:10333000BDE8F087C89C0200F0B5364FA249383787
:103340000A7838683449FF2A00F00F001CBF0122B8
:103350000A70042804BF00220A7001258540E8088D
:1033600021D3AB4EAB49002034680870103420687C
:10337000000E0C280CDA06F005FA022805D02068A9
:10338000000E06F0FFF9052802D1306809F030FB85
:10339000AF4C2088FF2806D0AE4822F07EFC0BF010
:1033A000D9FCFF202080AC49002008600BF06CF8AD
:1033B000D7F84802AC4C10F4C05F19D0A749086890
:1033C000401C0860A648E908006805D2A5480068C6
:1033D00021F0EBFB800004E021F0E7FB800040F0EF
:1033E0000200FFF7CDF820464FF400210C300160B9
:1033F0004FF400702060F0BD417890F83E0000EB83
:10340000C1002C2141439948405A704750543080A4
:1034100008930020984E308097960020246A002060
:103420002DE9F04F804698F83E9098F801600D46DF
:103430004946304608F045F9410101EBC0008C498E
:1034400009188A8CC88C8018401E84B2304608F057
:103450006DF9864B074609EBC60218462C21801CE5
:1034600001FB02F6002D805D08BF42F2107503D00B
:10347000B8F83660AD1B143D002D4FF0000658BF64
:10348000012675437B4E4FF0010A36F81000454384
:1034900028113D790D350AFA05F56D1EA84288BF41
:1034A000281C0F465743DA191588D278D919C978DC
:1034B0001206B2FA82F295424FEA0161B1FA81F640
:1034C00098BF2E1C002ECCBF721E0022FD18002AB1
:1034D00005F104054FF0050172D07F18D95B8142D8
:1034E0006ED8002A40F2FF7E4FF0000350DDF14617
:1034F000F446ACF1010CD11801EBD171491001EB8C
:10350000810705EB070BBBF80170874206D2BBF8B9
:103510000370E71B6FF31F37BE451BD80029CCBFD4
:103520004A1E002202EB82016918B1F8017087423D
:103530002CD8B1F80310611A6FF31F31894525D9D2
:10354000561CD8F80C004761D8F80C00866150462C
:10355000BDE8F08F0729B4BF4B1C072303EB83079B
:10356000EF19B7F80170874209D801EB8107EF190D
:10357000B7F80370E71B6FF31F37BC4506D201EBAA
:1035800081002D184E1CB5F80170DAE79A42B2DCC2
:103590009A4215D1981BB0F1FF3F03EB83030FD183
:1035A000E818B0F80300241A6FF31F3440F2FF70DC
:1035B000A04205D906EB86002D1835F8047CC0E73B
:1035C0004FF0FF30BDE8F08F91960020C16842783F
:1035D000896990F83E0001EB810100EBC200491FB0
:1035E0002C2202FB00102449085A7047C168427817
:1035F000896990F83E0001EB810100EBC200491F90
:103600002C2202FB00111C48C01E405C7047C046C3
:1036100010950020EDA40020C2689269511A4278EA
:1036200090F83E0001EB810100EBC2002C2202FB6E
:1036300000111148C01E405C7047417890F83E0070
:1036400000EBC1002C2141430B48C01E405C704779
:103650000C950020329500207C960020A496002036
:10366000649600206C9600206C043080E8160020E0
:10367000B079002030A70200EF16002088482DE91D
:10368000F04FADF1C80D0990D0F8D0060890089819
:1036900000F00F000A900B9005F05DF8FF210C91EF
:1036A000044600200D900E900F91A04210907D498D
:1036B0007D4A7E4F21D00A9B012098401190C0087E
:1036C0001BD30998C06D10F4E02F04BF1098086058
:1036D000106801280ED03D6805F0070594F82460B5
:1036E0000B992046FEF7B7FE324629462046FEF7E4
:1036F00047FE14E0109800F0A1BF099B186840F045
:1037000001001860109810600860186820F001002F
:1037100018600A994FF0010000FA01F01190684812
:10372000634A0168129211B11099129A1170614D99
:10373000DFF88481A96C491CA9640F991391C8F81A
:1037400048120A9A5D490A60149415911690204611
:103750004078FE280DD005F01BFF06461096149801
:10376000407806F00FF8002E0F9018BFD6F8C80169
:1037700000D10E98109911B11099097C0C91002874
:1037800008BF0E98099902D0D1F86416401A179014
:103790000998002CD0F8001821F00101C0F8001899
:1037A000954818909548199090481A9090481B9009
:1037B00037D11198C0083CD33E68022004F01CFAAF
:1037C000044689480068072E4FEA104000F00F00B9
:1037D00014BF062E0C3084F82400D8F89C0140F069
:1037E0000100C8F89C01286E401C28661898012129
:1037F00094F824200160F1B22046FEF7C1FD0B9938
:103800002046FEF728FE1698006890B119980068C7
:103810000E9E31461EF0F1FF1A9930460860169947
:1038200006E01198C00804D30E98169908601B99F9
:103830000860204621F0B9F91C90714A94F83E10B6
:1038400052F821201D9262781E921F91E2685368FF
:1038500003F10406317821F003012091998B01F0E6
:103860006001219194F82410229104B901BE02B99B
:1038700001BE60490A7863491AB923910E992491CF
:1038800009E01D9B4FEA431202EBC3020A44B2F85F
:103890009A20249223911799A1B92499D9B91CE0AF
:1038A00000483080209500202495002020403C8056
:1038B00090960020609C0200644E30807896002034
:1038C00084960020249941B12499179A914202D9F3
:1038D000179989B22491249917911199C9080CD28A
:1038E00019F0E7FE022808D1317821F003014029C0
:1038F0001CBF717841F0100102D1717801F0EF0125
:103900007170A16A090B0CD3D8F89C1141F0010128
:10391000C8F89C11A16A21F40061A162E96A491CFE
:10392000E9629D491D9A0A60F18A0A9A0911259156
:10393000D10001EB82012691239A89180E9A283131
:10394000279128920A60A14991F800C02991119904
:10395000C90815D29E49BCF1940F0A6810D192F89B
:103960003E10D06840680379842B04BF808A01131D
:1039700050784FF0FF3203F045F8299890F800C0D6
:103980000B21A1703968DFF84CB2DFF84CA201F0CE
:1039900007012A911199DFF8309211F4FC7F79D058
:1039A00011991B9F11F4F07F15D02046FFF724FDDD
:1039B000012820990AD001F00C01042906D03179A0
:1039C000490803D201210D91249902E0E28AA18ED7
:1039D00089185A4611602099802915D0A56AA90A2C
:1039E00013D20121139A18E0ECC000208C9600201D
:1039F0008096002030A200207C9600206C9600204B
:103A0000549F0020246A0020A56ADDF84CC0299943
:103A100062460A70289953461970DDF83CE00B465F
:103A2000BEF1020F04D0DDF83CE0BEF1050F06D177
:103A3000DDF880E0BEF1800F04BF01210B1C3B606C
:103A4000169B1960229B01210C2B04DB229B152B5A
:103A500001DAAB0B0DD22B09DDF888E006D30B465B
:103A600003FA0EF3C3F310131B0102D1EB0838BFA6
:103A700028994B461960DDF828E0994B4FEA8E01F2
:103A80000C395B581968D2B262F30F21196015998D
:103A9000C1F800E0934A4B462B93CDF854A0196827
:103AA0002C92914A0029DFF888929246A14A2D92E1
:103AB000A14A2E92A14A2F9245D094F824100127B2
:103AC00007FA01F212F00F0F1CBF4A460A440BD14D
:103AD000289B042908BF3B1C289A052908BF3A1CCB
:103AE0001A4314BF2C9A5246A36A1278DD0802F1D9
:103AF000CA0219D307FA01F515F00F0F1CBF2D9D4F
:103B00000D440DD1DDF8A0E0042908BFBE46289D74
:103B1000052908BF3D1C55EA0E0514BF2E9D2F9D9B
:103B20002978891801F1CA02990B02D3190938BF03
:103B300036220D9B594609682BB18A42ACBF2899A1
:103B4000891A5A46116016997D4A096830920029EF
:103B500040F0F8801599DDF84C90289D91F800A070
:103B600020995FFA8CF7E42938D02099F42935D0D0
:103B70002099802932D0A16A890A1CD21199C908DA
:103B80000CD2E068018920460122134620F0C5FFCF
:103B90000246E28203E0C04698960020E28A594637
:103BA0000968891A289858BF012009B200FB01F062
:103BB00081B2718014E0D8F80000216AE28AB31C57
:103BC00025F0EDFF0BE0C04688960020919600207E
:103BD000689600207496002092960020758028999F
:103BE000CBF80010299880F800901598A5860570EC
:103BF0001898006858B911982A99229AC00806D2D4
:103C00002046FEF7BDFB0B992046FEF724FCA06A78
:103C10000A99C00C02D3204609F026F81198C00872
:103C200005D21D98C1B208980B9AFEF7FDFC2046FC
:103C3000FEF72AFEA16A2A9815228B0A139903F02F
:103C40000103FEF7A3FDA06A800A08D2D42F18BF93
:103C5000942F299803D10770159880F800A01C981C
:103C60001FF06CFA00281C9806D11FF0B0FA18B9A2
:103C700003212046FEF7C8FF26982399401890F8A4
:103C80002D1049081ED390F83050AD19C68D8D48BF
:103C900001684068019102900C98FF2805D00C98AB
:103CA00005F088FD0190081C0290314601A823F020
:103CB000FEFF01A928461FF0A0FC2799487900F0D3
:103CC000FE004871A06A800A10D22098802819D17D
:103CD0000F98012816D10B98289903F083FF11E063
:103CE000B0A302003EA302003FA302007648007882
:103CF000289903F077FF1C9D284616F07DFF284683
:103D000016F07FFD30984FF480710160299800789B
:103D1000FF2807D11C981FF05AFA18B92899204695
:103D20001EF06BFD0998D0F8180900F089BCC04658
:103D30003CA3020038A302003AA302003BA3020006
:103D40006C0430802899319112991891317801F0E2
:103D50000C01042909D01E981F99324602F0BEFEBC
:103D600018B1A16A41F48001A162E2684FF0FF3806
:103D70005169002936D11C981FF0E0F9229998B9B1
:103D80000C2911DB229915290EDA209921F07301F3
:103D9000882909D11E981F9906F03AFE20B12046C5
:103DA0001799FFF73DFB8046B8F1FF3F0DD0E26861
:103DB000916901290AD01E9808F083FD28B9A16AEB
:103DC00041F48071A162E2680AE0E2681189516100
:103DD00001219161A16A21F48071A1621399D172CC
:103DE000918A118159460B682B99D1F8008020994E
:103DF000E4296BD02099F42968D02099802902D138
:103E00000F99012962D0A16ADFF89CC11589490A7E
:103E1000119994F824E00DD211F4F07F0D9907D098
:103E200031B1249921B9E18AA28E5718DB1914E027
:103E3000E18A11E022995CF821305169C9001631FC
:103E40004B43D90BC91C21F003011A3189B2E1821D
:103E5000E38EA3865B18958AA28EBEF10C0F16DB4B
:103E6000BEF1150F13DA5CF82E70ED0036356F4396
:103E7000FD0BED1C25F003051035ADB2AD1FAD10E7
:103E80000FFA85FC03250CFB05F5ED1E00E09925D6
:103E9000E585DDF880C0BCF1A40F03D15B1A9A421E
:103EA00017D00BE028985B1A58BF012019B200FB0D
:103EB00001F080B2824270800BDA73889B1A5846F8
:103EC000036009E08CA60200CCA302002898708051
:103ED000A086319859460860B8F1000F00F0C48000
:103EE0001198A26A10F4FC7F27D042F20800104219
:103EF000229905D001208840C0F31010000101D1A3
:103F0000D0081AD394F824000125289B05FA00F163
:103F100011F00F0F0AD1042808BF2B1C289905287F
:103F200008BF291C194314BF022003202290900BC4
:103F300003D310093CBF042022901C98A0460D908A
:103F40002098A42808BFB8F8165003D07088B8F895
:103F500016502D18D00829D2289E304603F04CFE6A
:103F60000446E16810984968001D083124F053F8B0
:103F700094F82400012202FA00F111F00F0F1CBF87
:103F80004A4602440BD1289B042808BF131C2899D9
:103F9000052808BF111C194314BF2C9A52461078EB
:103FA000C030E08244E0C04654A30200052003F084
:103FB00023FE0446E0684168361D0831304624F08F
:103FC0002AF8E16810984968001D0E3124F023F8A2
:103FD00094F82400012101FA00F212F00F0F1CBF27
:103FE0002D9A02440BD1289B042808BF0B1C289A49
:103FF000052808BF0A1C1A4314BF2E9A2F9A12785C
:10400000C032E28201FA00F212F00F0F1CBF4A46E2
:1040100002440BD1289B042808BF0B1C289A0528B2
:1040200008BF0A1C1A4314BF2C9A52461678C03691
:10403000A6861E9860701F9884F83E00204620F0E7
:10404000B4FD1C90E06841680E1D307820F003003C
:104050002090A08E2D18CD80A08E71888842ACBF94
:104060003199091ACBF8001011982A99229AC008A0
:1040700006D22046FEF784F90B992046FEF7EBF9AD
:10408000A06A0A99C00C02D3204608F0EDFD1198F1
:10409000C00805D21D98C1B208980B9AFEF7C4FA61
:1040A0002B980068002840F08680119810F4F97F62
:1040B0000BD01C981FF08BF8DDF8709028B948469B
:1040C00016F09AFD484616F09CFB2B9800680028D5
:1040D00071D1A06A400A3DD32746F868806901285B
:1040E00025D92046FFF772FA25902046FFF77EFA81
:1040F000814616F0FEFA48461FF000F8074648468B
:1041000016F07AFD7078400911D3E1688D696D1E53
:104110000DDDE9B22046FFF77FFA1EF0EFFFC16820
:104120004A6851796D1E41F010015171F1DC204651
:1041300020F03BFDF968C8721E981F9906F068FCD4
:104140000028259806D01F99401EC0F30B021E9828
:1041500002F022FD307800F00C00042809D01E98EF
:104160001F9906F055FC1F9918B1259A1E9802F068
:10417000EBFC2498E0B11D981EF012FC8146CDF8AE
:10418000349016F09AFA804648461EF0CBFF00287D
:104190001C980DD11EF0C6FF50B9E068006838B910
:1041A0004046FEF7B3FA1699086001200E9002E02F
:1041B0003198169908602046FEF766FB26982399E9
:1041C000401890F82D1049081ED390F83070C58D16
:1041D0009248BF1901684068019102900C98FF282D
:1041E00005D00C9805F0E6FA0190081C02902946CB
:1041F00001A823F05CFD01A938461FF0FEF92799BC
:10420000487900F0FE0048711C981EF097FF0028C6
:104210001C98DFF85892DFF858A218D11EF0D7FF8B
:10422000A8B904212046FEF7EFFC16980268204644
:1042300092B1FFF702FA0D9981420AD0319816998E
:104240000860DDF8A080424613980D9004E01698AF
:104250000268002A40F0C58058460068B0F5B07F7B
:104260002ED9A06A80082BD3032003F0C5FC80461A
:1042700020F09BFC0D90D8F80C00416801F10E0570
:104280008D48083123F0C7FE98F80100FF2808BFC9
:10429000139804D0C10101EB40018848405C2946D5
:1042A00025F0C1FB4146012003F09EFD072088F860
:1042B00002000C9814F01AFD88F824001698026881
:1042C000002A40F08E80307820F07300882805D1D5
:1042D0002198202865D02198602862D0A06A289D66
:1042E000410A4DD22099842925D0299980081AD3D2
:1042F000D4200870159805701F991E9806F088FB49
:10430000002851D01F991E9801AA02F059FEBDF84D
:1043100006002599401C884246D11F991E98259A6F
:1043200002F03AFC40E013981B99319A0A60AB46C0
:10433000DDF854901FE0308A001383461E985946DA
:1043400006F066FB88B11E98594601AA02F038FEB5
:10435000BDF81C000001708228980090708A042229
:1043600003111E98594602F08FFC15990D701E9A84
:10437000942051460A7029990870584649460EE023
:10438000942029990870159805701E981F9901228C
:1043900002F038FB1F99484601701E98514615914E
:1043A00000E03F20159908701198C0080BD21198B1
:1043B00010F0180F03D17A481D99405C0B900B98B0
:1043C000289903F00FFC032003F016FC0646012099
:1043D00003F0E6FB864202D0012003F0EFFB139FBF
:1043E0007EE0A06A289D410A6AD22099842941D0A2
:1043F000800815D2052003F0FFFBA042299904D0C4
:1044000013980870159805706AE0C42029990870FF
:104410001598057018990120087064E094A60200B0
:10442000D42029990870159805701E981F9906F0D8
:10443000EFFA50B998F801001E99884250D198F8C7
:104440003E001F9988424BD1E4E71E981F9901AAAC
:1044500002F0B6FDBDF806002599401C88423FD108
:104460001F991E98259A02F097FB39E09496002038
:1044700095960020308A07131E98394606F0C8FA30
:1044800088B11E98394601AA02F09AFDBDF81C00B9
:104490000001708228980090708A042203111E98EF
:1044A000394602F0F1FB29994FF0940008701598F5
:1044B00005704846077010E0A8A30200FB300020FA
:1044C000942029990870159805701E981F9901224B
:1044D00002F098FA1F99484601701E9851460870DC
:1044E0001898007818B1D8F82800C00814D3299873
:1044F00001781698006830B9FF291F9903D01E98DB
:1045000006F086FA40B12B98006818B914982899DB
:104510001EF073F9319804E0149801211EF06DF932
:1045200001201A990860032003F066FB40451698A5
:1045300004D0006828B9229D01263AE0012016998E
:104540000860B8F1000F4FF0070700D101BE4146E7
:10455000012003F049FC98F82450012688F80270E5
:104560002A4606FA02F0C0F31010000103D00C2A0C
:1045700018DB142A16DC0C2D0BDB152D09DAA06ACA
:10458000C00903D3142D18BF289707D14FF0060791
:104590000AE0A06A400901D305B12896289F03E0EC
:1045A000C8A302004FF004070E9820B10D981EF02A
:1045B0004DFA98F82420A16A2A988B0A03F0010387
:1045C0003946FEF7E3F8AE40099A16F00F0F16D001
:1045D000D2F89C16D2F880262820B1FBF0F10A31DF
:1045E0008A4224BF0998D0F8800605D20999D1F8EB
:1045F0009C16B1FBF0F00A300999C1F8800603203F
:1046000003F0FAFA0546012003F0CAFA854216982B
:1046100001D13199016031992B980160199804609A
:1046200029985C49007808700998D0F818095A4808
:10463000007823F041FC309A4FF4807011460860F6
:1046400032B0BDE8F08F2DE9FF4F0E46044623F04F
:104650006AFC0090607807F069F8617894F83E2071
:104660002C2302EBC102B24901920293039103FB96
:1046700002118A780D1D964278D00F884079B5498D
:1046800031F81010B44830F8160048434FEAA0182B
:1046900028781EF033FDC168098901220831A5F888
:1046A000011080F82460E068134684F824600189D2
:1046B000204620F032FAE082204620F0F9F9012F5E
:1046C000A086AA464BD905F1050B0025A7F10109E3
:1046D0009BF800001EF012FD074687F82460E06892
:1046E000012213460189204620F017FAE082204675
:1046F00020F0DEF9A0869AF800001EF0FFFCF968B1
:10470000098908318BB2C1680A898C46083297B290
:1047100047450DD2A8EB07018D08B1EB850F05D9F0
:104720006D1CA8EB070121F00301091DC91900E068
:1047300039465246C91C02F1050A21F00301B2F8BC
:104740000120B9F10109CCF81C50A2EB0702114479
:104750000B44594601F1050BA1F80130B8D103987B
:10476000019A029901FB020086700DE084F8246032
:10477000E068018920460122134620F0CEF9E0824C
:10478000204620F095F9A086009823F0DCFB0090ED
:10479000BDE8FF8F93960020B39200202DE9FE4FD5
:1047A000064620F002FA0090F0684068408B74786A
:1047B00096F83E504FEA2019204606F0B7FF5C4BB2
:1047C00005EBC4052C21824601FB05300288002A36
:1047D00004BF96F824100F1C04D001FB0530877825
:1047E00096F824108046012286F82510F06886F895
:1047F000247013460189304620F08FF9F08230464C
:1048000020F056F9B08623F0B5FB019051499AF893
:10481000050031F810105048B8F8004008F10405C0
:1048200030F8170048434FEAA01A204600EB8000FA
:10483000401F285C15F041FF002C029088F80270A0
:1048400052D0082C08BF002404EB84006AD005EB8A
:10485000000B00988BF8000004EB8400401F2D181B
:10486000B5F8031040F2FF72A9EB01006FF31F309F
:10487000824298BF8946F068ABF8039000890830FF
:104880001FFA80F928781EF039FCC06800890830CA
:1048900082B2524512D2D01C4FF6FC710140AAEBF5
:1048A0000100431000EB93739B101F46B0EB870F82
:1048B00002DD7F1C5B1C9800091801E011460027EF
:1048C000B5F80100C91C21F00301801A091809EB91
:1048D0000100ABF80100304620F067F9029AD16878
:1048E000C872D068C7610BE004EB84002D180098F3
:1048F0002870F06800890830A5F80100A5F8039039
:1049000000981EF00FFC10B9B06A800D06D398F81D
:10491000031080202041084388F80300641CA8F895
:1049200000400124019823F049FB2046BDE8FE8F9A
:10493000E816002001464A7891F83E1001EBC201CA
:104940002C224A4305490020895A082908BF012022
:104950007047C04660A6020030A70200E81600209B
:104960008B488A490068C06809588A4831B1491E95
:10497000012908D80068800E03D204E00068000F07
:1049800001D3012070470020704781487F490068AB
:10499000C06809587F4831B1491E012908D800680C
:1049A000400E03D204E00068C00E01D3012070471E
:1049B0000020704770B54FF47A71B0FBF1F18CB202
:1049C00041F2B541A142D9BF122122220021112278
:1049D0008A424FF064050ED36F4B521A521C03EB00
:1049E000410333F8026FA64204D0521E01F10101C7
:1049F000F7D100E00D46642D08BF1125284670BD93
:104A000070B56349614C05460968103CC968641873
:104A10006249A94288BF002204D86149A94234BF33
:104A2000022201220D21A16361681923E363C039C9
:104A3000226118D0443905D07C3914D088394FF020
:104A400020062CD15AB1E363FFF7B4FF55490E5C41
:104A500055491320A9423CBF0F21A16320E0E36325
:104A600014201E261CE042B91820E0631A204F498A
:104A7000A9420CBF1726202612E0FFF79BFF4C49E6
:104A80000E5C1820E0632846FFF794FF4949085C54
:104A9000A0632846FFF78EFF4749085C6065162033
:104AA000A665E06570BD30B522F00304944205466A
:104AB0004FEA920338BF5B1C1A462BB155F8043BF2
:104AC000521E41F8043BF9D130BD10B5A949082464
:104AD00041F288320C60C1F8E80F0B681B0924BF53
:104AE0000C60002003D2521EF7D144F2FF0010BD2B
:104AF00010B504462068FFF783FF9F48016818221D
:104B0000091D2046FFF7CFFF0420FFF7DEFF10BD91
:104B10009848994914300068086008681C49406842
:104B20000860704700B5FFF7F3FF002000BD10B527
:104B3000924B1A6E22F4707242F4C0721A669A692D
:104B400022F001029A61D3F89420AD4C60F38612F2
:104B5000C3F89420626B60F342026263186961F3E8
:104B60009340186110BDADF1040D6FF000410818BD
:104B700041000320B1FBF0F0009002E00098401EDD
:104B8000009000980028F9D101B070471000316002
:104B9000E0780020C40E31809693002021E72500A4
:104BA0004FE34E0060A000205FEC5300A87D25007D
:104BB0003CA0002018A00020F49F002010B5034660
:104BC000A848012BA84AA94968D1036823F080634B
:104BD0000360036843F080630360136823F4006399
:104BE0001360136843F400631360136823F4805365
:104BF0001360136843F4805313600A6822F00202C2
:104C00000A600A6842F002020A600A6822F004029E
:104C10000A600A6842F004020A600A6822F0200270
:104C20000A600A6842F020020A600246006840F00A
:104C3000804010608F480068800910F007014F48DD
:104C400008D0012906D0D0F8981021F0800141F059
:104C5000400103E0D0F8981021F0C001C0F898108E
:104C60000520FFF780FF106840F400601060906A34
:104C700020F400209062906A40F400209062106856
:104C800040F080501060D2F8980020F00400C2F884
:104C90009800D2F8980040F004004EE0036823F03A
:104CA00000630360036843F000630360704B1C689B
:104CB00024F400441C601C6844F400441C601C681C
:104CC00024F480341C601C6844F480341C600B683D
:104CD00023F002030B600B6843F002030B600B68C8
:104CE00023F004030B600B6843F004030B600B68B4
:104CF00023F020030B600B6843F020030B60016876
:104D000041F080410160016841F480510160136805
:104D100023F40023136011460A6842F400220A605B
:104D20000246116841F000510160A148016821F07C
:104D300008010160006840F00800C2F89800D06ADD
:104D400040F40060D0620A20FFF70DFFD2F89C000B
:104D500020F40030C2F89C00D2F89C0040F40030EF
:104D6000C2F89C0010BD00BF00BF00BF00BF00BF65
:104D700000BF704718003180DC780020000F3180C0
:104D800000B53B4A4832516C41F01F015164116833
:104D900021F001011160116841F0010111601168F9
:104DA00021F004011160136820F003011943116020
:104DB000FFF7D9FF116821F002011160116841F07D
:104DC00002011160116821F008011160136820F0E0
:104DD000070119431160FFF7C6FF116821F01001A8
:104DE0001160116841F010011160116821F020017B
:104DF0001160116820F01F000843106000BDC0461C
:104E0000000E318097490A6822F480720A60964940
:104E10000A6822F480120A600A6842F480120A606A
:104E20000A6822F002020A600A6842F002020A607E
:104E30008E4A1268926C012A0AD14A6822F0010255
:104E40004A604A6810434860486840F04000486043
:104E5000486A20F480504862486A20F40050486252
:104E60007047C046000F3180280F3180900F31808D
:104E70002C0F3180C40E318010B5B84C0128B849D0
:104E800031D0206820F480602060206840F4806089
:104E90002060086820F400700860086840F4007022
:104EA0000860AB48026822F001020260026842F02A
:104EB000010202600A6822F480620A600A6842F411
:104EC00080620A60016821F002010160016841F01E
:104ED00002010160206840F4C02020600520FFF737
:104EE00042FE9C4830E0206820F40070206020687A
:104EF00040F400702060086820F0800008600868B6
:104F000040F0800008609448026822F001020260CC
:104F1000026842F0010202600A6822F480720A60AC
:104F20000A6842F480720A60016821F0020101609F
:104F3000016841F002010160206840F440402060B7
:104F40000520FFF710FEC3482168084320603F207A
:104F5000FFF716FFFFF707FFD4F8B80020F00100B5
:104F6000C4F8B800D4F8B80020F00200C4F8B800C3
:104F7000FFF7F9FED4F8B80020F00400C4F8B80038
:104F8000D4F8B80020F00800C4F8B800FFF7EBFE32
:104F9000D4F8B80020F01000C4F8B8000020FFF7E3
:104FA00031FF10BD00B5C0B20DF0D7F8002000BD34
:104FB000980F318000F1680143F6FC72AC4BA1F50B
:104FC00000510A40596868306FF31B4141EA823151
:104FD000596041F68461401A810458686FF30B00F0
:104FE00040EA115058609868A24920F07F0040F0D4
:104FF000010098600A6840F201106FF30B02104341
:105000000860C86820F0FF0040F0B000C860BD49EB
:10501000086B40F010000863086B20F00F0040F0B0
:1050200001000863086840F001000860704710B58F
:1050300032B1012A4FF0000405D121F063FF02E0F4
:1050400021F093FF84B2204610BDAF49086840F4B8
:10505000006008607047AC49086820F40060086090
:105060007047C046340E318000043180E078002063
:105070002DE9F04FA44B8346703B186F40F410505D
:105080001867186820F00200186018680A4640F097
:1050900001001860FFF7D9FF2820FFF764FDFFF734
:1050A000DAFF186F4FF0000C20F41050E646186736
:1050B00018687746664620F00100186018684FF0BF
:1050C000080902F1680140F0020018600C20002479
:1050D000804625460B6803F4006AC3F30B02BAF559
:1050E000006FA8BFA2F58052C3F30B331419B3F5B8
:1050F000006FA8BFA3F580532031B8F101081F4409
:1051000016441D44E6D195FBF0F594FBF0F4B9F19B
:105110000109A1F5BE7105FB05EE04FB04CCD6D157
:10512000602096FBF0F697FBF0F77046811000EBDD
:10513000517061468A1001EB5271C91001EBE00118
:1051400006FB161007FB1700CBF80000BDE8F08F38
:10515000600F3180000109004C0F3180000F318059
:10516000280F318000B56A4A0346106820F040508D
:1051700010600520FFF7F7FC11686448012B00EA76
:105180000100106016D0106820F0006010601068F8
:105190001060D06A20F40040D062D06AD062D06A39
:1051A00020F48030D062D06AD062D2F8980020F02B
:1051B000080015E0106820F0806010601068106032
:1051C000906A20F400609062906A9062906A20F485
:1051D00080509062906A9062D2F8980020F00400AB
:1051E000C2F89800D2F89800C2F89800D2F890005F
:1051F00020F00200C2F89000D2F89000C2F89000AF
:10520000D2F8900020F00400C2F89000D2F890008C
:10521000C2F89000906A20F400209062906A906238
:10522000D2F8900020F02000C2F89000D2F8900050
:10523000C2F89000D2F89C0020F40030C2F89C0024
:10524000D2F89C00C2F89C00D06A20F40060D062C2
:1052500000BDC046002108002E49D1F8300A40F4B4
:105260008070C1F8300A086820F0010008607047BB
:1052700000523180005031802549274A01280B68AF
:1052800002EA03020A600A4601F17401096802F1A8
:10529000280221F03F01D16417D052F8280C20F4E5
:1052A000806042F8280C106820F400701060906B49
:1052B00020F001009063106820F480601060906B13
:1052C00020F002009063FFF7C7BF52F8280C20F4CB
:1052D000007042F8280C106820F080001060506ABE
:1052E00020F001005062106820F480701060506A55
:1052F00020F002005062FFF7AFBF00B50CF02BFFAB
:10530000002000BD000431800C103180FFE7FFB3A6
:10531000000F318004043180FF1EF8FF2DE9F04FAB
:10532000A34C2068008FA34EADF1880D0290D6F8F3
:10533000800B0390D6F8B40B0490D6F8840B05903C
:10534000D6F8880B069030680790D6F8D00A0890F7
:10535000D6F8D40A0990D6F8D80A0A90D6F8DC0A0A
:105360000B90D6F8E80A0C90D6F8EC0A0D90D6F817
:1053700000020E90306B0F90D6F8A40B10908A4864
:10538000119000681290D6F8600B1390D6F8340A8A
:105390001490D6F8100B1590D6F8180B1690D6F876
:1053A000940B1790206881697E4800EB0108D8F8BB
:1053B0005410401818907D48D8F854200146091F11
:1053C00051F802A0D8F854104558D8F85410001DD0
:1053D0004058199000200146FFF7A9FB0298FFF7FB
:1053E000EDFB0298FFF748FD18980068082819BFE0
:1053F0002068D0F8BC002068D0F8B800DFF8B8B159
:10540000DBF8A41060F34811CBF8A410DBF800001F
:1054100020F40050CBF80000DBF8000020F48030CE
:10542000CBF80000029801280CD0DBF8800040F493
:105430000070CBF88000DBF8B40020F0010040F0F1
:1054400002000BE0DBF8800040F48060CBF88000C5
:10545000DBF8B40020F0040040F00800CBF8B40002
:10546000DBF8840020F07800CBF88400DBF88800BB
:1054700020F47070CBF8880018989F49406AC1F8F2
:10548000D000C1F8D400C1F8D800C1F8DC001898E9
:10549000C069984CC1F8E800C1F8EC00206840F4FD
:1054A000407020601898006AFFF77CFD1898FFF79D
:1054B00081FD00226FF027011020FFF7B8FD18983A
:1054C0004FF000094F4680691A90189800691B90A8
:1054D0001C9418980068082818BF172004D1029857
:1054E00001280CBF15200C201D9019981D9C85408B
:1054F00028461E95C0431F90189904EB080507EB3A
:105500000800096805F5867500F58670082918BF3A
:1055100090F82300029903D101290CBF0078807D07
:10552000DAF800201F991140199A90401E9A1040F5
:105530000843CAF80000189901A8FFF799FD1898C8
:105540000068082818BF95F8230004D102980128A4
:105550000CBF2878A87DDAF800201F991140199A0D
:1055600090401E9A10400843CAF8000018996846F7
:10557000FFF77EFD00988111801100900198821143
:10558000801101901B985043B0EBC13F16DB1B9874
:105590004143B1EBC23FAEBF4FF001093C44640848
:1055A0000EE0C046000031600050318008003160DC
:1055B000E078002000043180000F3180E0194708B6
:1055C0001A99E01B814202D8B9F1000F94D01898C3
:1055D0004069E41964082090002081461B906FF018
:1055E000004021902198671E651CB84238BF0027F3
:1055F0001D98A84238BF1D9D1898006808281CBF38
:1056000008EB070090F82F010AD10298012807BF84
:1056100008EB070090F80C0108EB070090F8220156
:10562000DAF800201F991140199A90401E9A1040F4
:105630000843CAF80000189901A8FFF719FD189847
:10564000006808281CBF08EB050090F82F010AD15C
:105650000298012807BF08EB050090F80C0108EB41
:10566000050090F82201DAF800201F991140199ADC
:1056700090401E9A10400843CAF8000018996846E6
:10568000FFF7F6FC009882118011009001988111BB
:105690008011019020984843B0EBC23F08DB20986E
:1056A0004243B2EBC13FA4BF01201B9001DA3D464B
:1056B0002C461D9854B1A0421A9809F1010905D051
:1056C000B9EB500F1B9801D000288BD018980068B8
:1056D000082813D008EB040090F82F410F2C92BF3C
:1056E00060086008001FDBF8A01060F30711CBF81A
:1056F000A0100EE000063180000E318002980128D3
:1057000007BF08EB040090F80C4108EB040090F888
:105710002241DAF800001F99084019998C401E991F
:1057200021400143CAF80010029C2046FFF71AFDF1
:105730002046FFF7A1FD01226FF027011020FFF79F
:1057400076FCFFF7DAFD1C99086820F4007040F43D
:10575000807008600398C6F8800B0498C6F8B40BF4
:105760000598C6F8840B0698C6F8880B0798306031
:105770000898C6F8D00A0998C6F8D40A0A98C6F854
:10578000D80A0B98C6F8DC0A0C98C6F8E80A0D98F7
:10579000C6F8EC0A0E98C6F800020F98306310980D
:1057A000C6F8A40B1198129901601398C6F8600B03
:1057B0001498C6F8340A1598C6F8100B1698C6F84F
:1057C000180B179822B0C6F8940BBDE8F08F00B5FF
:1057D000A04908686E4A806912586E4880180A22EB
:1057E00002606D4A096842601F2282600822C2601E
:1057F00048F29572026148F2CD1242610422826140
:105800004FF03F32C261098F012919BFAD4A002113
:10581000AD4A0C2142620162FFF780FDAB4800787F
:10582000AD4B8100D3F8A000A94A000900F00F0099
:105830005050D3F89800A74A000A00F01F005050BB
:10584000002000BDFFF7C3BF8248A449A24A0068F8
:10585000C06809580029A2483ED150F8281C21F4FC
:10586000806140F8281C50F8281C41F4806140F801
:10587000281C016821F400710160016841F4007185
:105880000160816B21F001018163816B41F00101B5
:105890008163016821F480610160016841F48061E5
:1058A0000160816B21F002018163816B41F0020193
:1058B000816350F8281C41F4C02140F8281C906DE9
:1058C00040F480509065506E40F001005066506E7C
:1058D00040F0020050663DE050F8281C21F40071B1
:1058E00040F8281C50F8281C41F4007140F8281C8E
:1058F000016821F080010160016841F080010160D0
:10590000416A21F001014162416A41F001014162B5
:10591000016821F480710160016841F480710160C7
:10592000416A21F002014162416A41F00201416293
:1059300050F8281C41F4404140F8281C506C40F4B9
:1059400080505064106D40F001001065106D40F003
:10595000020010650A20FFF706B93E4A5F4B126845
:10596000D2689B585C4A43B9536E60F3CB135366BD
:10597000506E61F31030506607E0136D60F3CB1387
:105980001365106D61F3103010650A20FFF7EBB856
:105990005400316000003160980F31802DE9F04FE4
:1059A000ADF1280D2B4801688A694C494A4C4031B9
:1059B00001EB020821680091616C0191A16D0291D7
:1059C000A16A0391E16C0491216E0591216D06910C
:1059D000616E0791D4F8A41008910068D0F8B8104F
:1059E000D4F8A40061F34810C4F8A400FFF72CFF1A
:1059F00000261F2509962F46A819099940105FFA1D
:105A000080FB781840105FFA80FC3046FFF7A5FF56
:105A1000FEF7BBFF5FFA80FAFEF7A2FF5FFA80F99C
:105A200039462846FFF799FF61465846FFF795FF2C
:105A3000FEF7ABFFC2B2FEF793FF002AC1B20CBF64
:105A40005E465D4641B9A81B0228CDF824C0D3DAD2
:105A500006E0C046E07800206746A81B0228CBDAA3
:105A6000BAF1000F16BFB346002A5D46B9F1000F28
:105A700016BFDDF824C00029674600982060019811
:105A800060640298A0650398A0620498E064059899
:105A90002066069820650798606608983946C4F81D
:105AA000A4002846FFF759FFC8F8A850C8F8AC7002
:105AB0000A20FFF758F80AB00020BDE8F08FFFF782
:105AC0006DBFC04645511405EBBAAE6B97930020ED
:105AD0001C7800203C780020000F318010003160DD
