:100000000000000F000000000000AE0CDC054020E6
:10001000519F0000C19F0000DD9F0000178C000071
:10002000718C00000F8C0000FFFFFFFFFFFFFFFF40
:10003000FFFFFFFFFFFFFFFF5DAC0000F59F00002B
:10004000FFFFFFFF999C0000FFFFFFFFC18C000036
:10005000DDAC0000738C0000738C0000738C00001A
:10006000738C0000738C0000738C0000738C000094
:10007000738C000000000000000000000000000081
:100080000000000000000000000000000000000070
:100090000000000000000000000000000000000060
:1000A000000000000000000000000000A94920B985
:1000B0000846017841F0800103E00846017801F02C
:1000C0007F01017070472DE9F043AE4C94F8460073
:1000D00094F84710884200F09C80072009F0D1FA7C
:1000E000AA49A94A0B781568002B40F08A80A84BD2
:1000F000D3F89861AE4238BFC3F898510027176013
:1001000001220A7009F0C5FA94F84610B9460801B0
:10011000A0EB410020188078FF2802D003F040F8BF
:100120008146D9F80860B846361D308800F0FC00DA
:10013000882803D0C82818BF182500D11A2599F897
:1001400001000222314607F105F8C9F8680018B12C
:100150000078904911F820807078AD1900F0030004
:100160004544012805F1080514BF361D103694F8E2
:1001700046100801A0EB41002018C01C314609F0D0
:10018000F2FA94F846201101A81DA1EB4201611872
:1001900002220AF046F894F846102A790801A0EBEA
:1001A000410069792018C01C8918C9B26918083142
:1001B00009F0D9FA287905EB4001687994F84620CE
:1001C000401811010830A1EB4201611809310422E5
:1001D0000AF027F8072009F054FA94F8461003298A
:1001E0001CBF491C0F1C84F8467094F84510491E2A
:1001F00084F8451009F04DFA484602F0A0FFBDE82A
:10020000F0836D1C1560644A1168491C116009F087
:1002100040FABDE8F0832DE9F0475A4C074698466E
:1002200094F8450091460D46042804DA012002F0B6
:1002300047FF061C02D10020BDE8F087072009F027
:1002400020FA824694F847000101A1EB40012806FC
:10025000000C40EA25206052304605F047FA94F839
:1002600047201101A1EB42016118887094F84710F2
:100270000801A0EB41002118C91C484609F073FA97
:1002800094F8471004220801A0EB410020184146D1
:10029000093009F0C6FF94F84700032804D0401C39
:1002A00084F84700002502E0002584F8475094F8C0
:1002B0004500401C84F84500504609F0EAF94FF427
:1002C000FA208D4C7770306204F5A27738680AF016
:1002D00054FA86F843004FF48060B086A02086F878
:1002E00040008648F562B0670720D4F8444109F021
:1002F000C8F9241FB460B98886F84A50318609F0DD
:10030000C8F9FFF7E0FE0120BDE8F0877C4A92F8CB
:10031000441060F3010182F84410704738B5044678
:10032000251DE0796279A379297800904FF00710B4
:1003300003F04DFCA178734803F067FC7048042279
:10034000294682633C3009F06CFFA078FFF7DEFF9E
:10035000012038BDBC89402010B513460A4604462A
:1003600001466848113003F03EFC012C09D10720FA
:1003700009F087F9644A0021117009F08AF9FFF742
:10038000A2FE10BD78894020349A4020309A402047
:1003900094171000841A4020281910002DE9FC47FA
:1003A00006465A480078800847D23169012714313F
:1003B000088800F0FC00882803D0C82818BF18203F
:1003C00000D11A204E4C401894F8442012F0030F2C
:1003D00000F08E800178AA2940F08A804178AA290D
:1003E00040F086808178032940F08280C28811061F
:1003F000121242EA114240F60601914278D100F110
:10040000080542891306121242EA13421FFA82F9C2
:10041000C0890206001240EA12401FFA80F84346E3
:100420004A46DFF8E0A05046113003F0DCFBB9F596
:10043000006F05D0B9F5805F02D00120BDE8FC87D0
:100440004046401E012822D9801E51D168460AF03C
:1004500037FC297968794018C0B2291808316846F4
:1004600009F073F900283ED194F8440081083FD385
:1004700030F07F003CD1307805F1080229796B1803
:1004800008330421FFF7C7FE002830D130E06A7935
:10049000A06B90422CD104F13C09287902EB40007A
:1004A0002918083148460AF031FCE0B9B8F1010FCB
:1004B0001ED194F8440081081AD330F07F0017D180
:1004C0002879291808316A7948460AF01FFC78B162
:1004D000307805F1080229796B1808330221FFF7FB
:1004E0009AFE28B103E05046001D03F095FB00275B
:1004F0003846BDE8FC87C0464C6340204D030000F1
:100500007889402009000700309A4020D886402092
:1005100030B50D46686C05F14404C10808D30020CD
:1005200003F032FE002806BF686C20F0040020684B
:1005300020F08000206030BD70B5ADF1140D06468E
:100540000C1C154604D101A802A90AF0DEF901AC81
:10055000606821686B462A4609F000F894E80300B9
:1005600003AA82E803000098291A03A809F069F891
:100570000098B0EB550F03D903A8294609F061F89C
:1005800003A890E803000EB186E8030005B070BD33
:100590001FB5044601A968460AF0B7F904F1140131
:1005A000684609F030F80028D4BF684604F114000A
:1005B00002AA90E8030082E8030002A9226D04F178
:1005C0001400FFF7B9FF04F1140090E80600201DA5
:1005D00080E8060004F1140090E8060004F10C0025
:1005E00080E80600216D201D01EBD17149104942C0
:1005F00009F030F8216D04F10C0001EBD1714910C4
:1006000009F028F800901FBD8548704700B5ADF18E
:10061000180DFFF7F9FF0B210091416903918169E2
:10062000002204917F4902920190059100F1480156
:1006300068460CF16DFA06B000BD70B5ADF1200D45
:100640000C46207828B1032860D001285ED002280B
:100650004BD0606C00096DD3684601A90AF055F9CA
:1006600004F12406251D3146284608F0CCFF002859
:1006700006D404F10C00314608F0C5FF00283FDD28
:10068000694604F10C0008F0BEFF002838D5684622
:10069000294608F0B8FF002832D5606C40082FD3F7
:1006A0000D200290E06805902069069000220492D7
:1006B00003949A48079002A804F14C010CF128FA1F
:1006C000606C40F00400606404F1140090E80600DF
:1006D00004F11C0080E8060004F10C0194F8542099
:1006E00004F1140003F0B1FC0AE0606C010A04D3C9
:1006F000E16C0D200CF1D5F9606C20F08000606495
:100700002046FFF745FFFFF781FF13E0012020702F
:10071000606CC10904D3A16C0B200CF1C2F9606CB0
:10072000010A04D3E16C0D200CF1BBF9606C20F0E0
:10073000C000606408B070BDF0B5ADF1180D0E4694
:100740000146FFF761FF0546686C4C6840F0080001
:100750006864C00904F1140422D228784FF000071D
:10076000F0B9AF616F612846FFF712FF6FF03B01F0
:1007700005F1140008F06EFF0B20009068690390EB
:10078000A86902970195049026483A4605F1480168
:10079000059068460CF1BCF9686C40F04100686453
:1007A0002078802815D1A0690090E069019005F1BA
:1007B00024009DE8060080E8060096E8060005F1A2
:1007C0002C0080E806003246694605F1340008F046
:1007D000FAFE06B0F0BD10B50C46606C20F00400C7
:1007E0006064000A07D3E16C0D200CF15AF9606CCB
:1007F00020F08000606410BD00B5FFF705FF0178B0
:1008000001291CBF0221017000BD00B5FFF7FCFEED
:100810000178012903D002291CBF0121017000BD0C
:10082000B08140202F0600007CB50646FFF7ECFEA5
:1008300000240546AC656C62AC62307A012814BFB6
:10084000201C042085F8540070682146820205F1BE
:1008500014002A65FFF770FE686C20F0300040F04D
:10086000020068642E48294603F04BFC30680028DB
:1008700033D105F1140090E803008DE80300686CA3
:1008800040F0090068649DE80600281D80E8060025
:1008900005F10C0080E80600281D296D01EBD171DF
:1008A0004910494208F0D6FE296D05F10C0001EB14
:1008B000D171491008F0CEFE68466FF03B0108F098
:1008C000C9FE05F13C009DE8060080E80600FFF740
:1008D0009DFE686C40F0400002E0686C20F009006A
:1008E000686410482C7004607CBD00B5FFF78CFE76
:1008F0000178022904BF0021017000BD10B50A4C27
:100900006021204615F12EFE012020700AF0C4F966
:1009100010BD00B5FFF778FE007800BD05050000AA
:10092000CB07000038548180B08140202DE9F04190
:10093000054695F8430095F8288085F82810072883
:1009400008BF002407D09B4951F82010480100EB54
:10095000C10097490C5A08F1BFFC0646B6F1FF3FAB
:1009600008BF00262869002301220189284604F0D7
:1009700063FE0746E86A42F2080101420CD095F88E
:10098000281001208840C0F31910000104D0284627
:1009900004F0AAFDC01987B295F83D0018B914B14A
:1009A00016B1A64200D2B4B2BC424FF0010085F8A5
:1009B000288001DA04B10020BDE8F08130B5984B01
:1009C0007D4D0524DA78997889185A78641E0A448E
:1009D000197803F10403A2EB010205F8012BF1D110
:1009E00030BD816E002914BF0978002190F84A209B
:1009F000008E801A704A515C091888B27047816E67
:100A0000002914BF097800216B4A008E515C081838
:100A100080B2704710B5826822B1121D90F84A303A
:100A20009B1802E0026953681B1D002914BF0C7853
:100A30000024197821F07301882914BF18211A2184
:100A4000C28E774800EB84004378C078C9184018FC
:100A500080B28242B2BF0020121A90B210BD70B5AF
:100A6000054695F84300072808BF002407D05149E0
:100A700051F82010480100EBC1004D490C5A08F113
:100A80002BFCB0F1FF3F08BF00204FF0000614B16F
:100A900010B1844200D384B2E86A42F208010142F4
:100AA0000BD095F8281001208840C0F319100001E0
:100AB00003D0284604F018FD0646688B301884429F
:100AC000A8BF4FF4106034DA284604F081FD811984
:100AD000A142A4EB06042ADA95F82820241A012062
:100AE0009040C0F319100001A4B24FF0000108D1EA
:100AF000E86A400903D3002A18BF602003D1C02050
:100B000001E016211A20A042A4EB00040FDAA4B2DF
:100B100095F84130900000EB43007D4A105A444361
:100B20006008401AC00820F0010080B270BD4FF488
:100B3000807070BD70B506460D46A88EC00B28BFEC
:100B400000241DD295F84300072808BF002407D0D1
:100B5000184951F82010480100EBC10014490C5A03
:100B600008F1BAFBB0F1FF3F08BF002024B108B183
:100B7000844201D2204600E00446E96A890903D391
:100B80004FF4106003460FE0002808BFE88EF9D04C
:100B90002846FFF764FFE98E8142A8BF011C0B467F
:100BA000080A08BF4FF480730EB186E8180070BDC4
:100BB000DE574020EC954020409A40202DE9F0433C
:100BC00005468946A96829B929694968091D95F822
:100BD0004AC003E095F84AC0091D6144B9F1000F0D
:100BE00014BF99F800300023097821F07301882997
:100BF00014BF18221A220A4C04EB83042B8E267889
:100C0000A3EB0C01891A891BA678761831B200294A
:100C1000D8BF012051DD4FF000064BB102E0C046C5
:100C2000841A4020B3F5867306F10106B6B2F9DCEA
:100C3000E3786478B046EE8E12199A1892B2B71A19
:100C40008F424FF0000411DAF71A234605DDB7F59D
:100C5000867703F101039BB2F9DCB71A04E01C1993
:100C6000A4B2891B511809B28F42F8DB5218002137
:100C70001CEB020205DDB2F5867201F1010189B2B9
:100C8000F9DC09198CB204F031FD02F09DFA28B1AB
:100C900028694068007910F00C0F0DD099F8000019
:100CA00008F10206042802D1A64205DD03E0A045B2
:100CB00008F1010600DBB4B2E0B2BDE8F08310B584
:100CC0008168C48E234621B1091D90F84A2052182C
:100CD00002E001694A68121DB3F5867F0DD3B3F5B2
:100CE000106F0CD040F20D11994204D8A3F5867311
:100CF000B3F5867FFAD8E31A01E04FF486731178D2
:100D000021F07301882908BF9B1EC38610BDC04611
:100D1000B016402010B5ADF1200D04461C228048CD
:100D2000694608F02DFA6946204608F0B2FA002814
:100D300006BF02220092009A7A4B21462A3909D036
:100D4000C91E04D0103908D11846001D03E018460A
:100D5000083000E01846921E026008B010BD00B5D1
:100D60003D20FFF7D7FF6F4800F10400016851B143
:100D7000888800F00302032A05D001228E4B1A70E6
:100D800040F00100888000BD10B52A20FFF7C2FFA7
:100D9000644C206860B1012001461BF181F986484E
:100DA0000121401C01702168887840F002008870A1
:100DB00010BD10B53D20FFF7ADFF5A487E4C00F145
:100DC00004000268A4F11004217C92B1908840F0E4
:100DD000100090804FF00100A0749D48026862608E
:100DE0000068A06009B9FFF7BAFF607C08B9FFF797
:100DF000CBFF10BD7048002110388174417401741C
:100E0000704741786C48103801700120704700B578
:100E10003D20FFF77FFF434800F10400016849B11E
:100E2000654800221038426002748A884FF6FE70CE
:100E30001040888000BD604800B5A0F11000017C22
:100E4000D1B1834940680968091AB1F5801F13D9E7
:100E50000020014601221BF107F91BF1F0FA18B13D
:100E60001BF1EDFA022807D12E48001D006880888A
:100E7000400901D2FFF7CBFF00BD00B52A20FFF7E4
:100E800049FF28494C484FF000020968A0F11000C2
:100E9000826021B14274887800F0FD00887000BD46
:100EA0008F4800B5417CA1B1694980680968091A79
:100EB000B1F5801F0DD9012100201BF1F1F81BF1C4
:100EC000C1FA30B9844800688088400901D2FFF730
:100ED000D4FF00BD00B53D20FFF71CFF8149002075
:100EE00008707D4801688A884FF6EF70104088804E
:100EF000FFF78DFF00BD7A48817C41B15449C0683D
:100F00000968091AB1F5801F01D9FFF7E3BF7047DF
:100F100000B5FFF790FFFFF7C3FFFFF7ECFF00BD41
:100F20009C644020F09740202DE9F041ADF1200D68
:100F30000E4617460069984601216A46143008F0AB
:100F40003DF9012400251EE02A3911D0C91E0CD01C
:100F50000098103917D12146408800F0030001287D
:100F60001CBF0328002131700DE088F800400AE022
:100F700000980078002100F0020200F00100104308
:100F800018BF211C3970684608F034F99DF80D101F
:100F900001280DD100299DF80C1001D111B107E0F5
:100FA0009DF80C102A463E2A02F10103DDB2CBDB8C
:100FB00008B0BDE8F081C046EC9740202DE9FC4127
:100FC0004949074638690978002600F1100511F0F3
:100FD000240F8DF804608DF805608DF8066008D048
:100FE000007D20F00300802803D13D4C20780128AB
:100FF00002D00120BDE8FC81684614F17BFB00991A
:101000003046022908BF0120804638480178286808
:10101000C0B281425DD136480068002859D03846B8
:101020000DF106030DF1050201A9FFF77DFF2D204B
:10103000FFF770FE2948064D9DF80610006800B1C4
:1010400041B99DF80520617C012A3DD002E0C046EF
:101050004454818000289DF806003AD078B99DF864
:10106000050060B92868E0600120024631461AF1A7
:10107000FBFFA07C00282CD1FFF79BFE29E09DF808
:101080000400012803D19DF80600012808D09DF82E
:101090000510607C01291CD12968A160B8B118E055
:1010A000286860600120024631461AF1DDFF207C8D
:1010B00008B9FFF754FE9DF80510607C012908D19E
:1010C0002968A16018B104E02868A06009B9FFF799
:1010D0005BFE4046BDE8FC81F4974020F897402035
:1010E000DC974020EE974020D88640206F7A402041
:1010F0009C6440202DE9F0470646984996F8430045
:1011000051F820209649342000FB021530694168CF
:101110000089498B0B304FEA211920F00308304633
:1011200004F0E4FA8246E87C0027012846D1306EBC
:10113000A968884242D1E868006900283ED0008949
:101140002C8A0B3020F0030084428CBF241A3C1CF4
:10115000286840F2FF71A0EB09006FF31F30814255
:1011600026D9A87C05EB4000808A201808EB0001F6
:10117000686888421CD9504602F01EF8C0B1306938
:101180000068A8B9A87C96F85410814210DDE9687F
:10119000096981F80BA0EE6005EB4001888A2418EC
:1011A00008EB0400C882A87C401CA874012705E055
:1011B00046490868401C08600220E8743846BDE8CB
:1011C000F0872DE9F0471E4691460D46044604F08F
:1011D0008DFA80462069406800F10401408B4FEA97
:1011E0002010306055B340F2FF77B9F1000FC246CE
:1011F00007BF487800F0EF00487840F010004870D2
:10120000E06A20F44030E062E06A40F48070E0621E
:10121000C88A01113068081A6FF31F30874288BFEF
:101220003160206990F80B80404601F0B9FF044618
:10123000216949686D1E01F10401D6D15046BDE80F
:10124000F087F0B590F84320444B53F822409B4B75
:10125000342202FB043606F5B7756A7806F5AE73DC
:10126000002A08BF4FF0FF302FD090F8284090F8A8
:101270004170A20002EB4702914FBA5A51430A094A
:10128000297806EB4106B6F87051A40003E0491E28
:1012900003EB4105AD8AAA4201D20229F7D231F00F
:1012A00001020ED0026991610069456104EB81146D
:1012B00084480019D0F86412491CC0F86412012057
:1012C00001E04FF0FF300021D974F0BDB8171000D5
:1012D0002DE9F04FADF1340D064696F8439096F89F
:1012E00001804946404606F131FB8246304604F013
:1012F000FDF9009096F828504046019506F185FBCF
:10130000044696F8281096F841306D486E4A8900D8
:1013100001EB4301475A617932F81110AA0002EB40
:101320004302805A484380110C49029096F84300CA
:1013300051F820200A49342000FB02154046494656
:1013400005F166FB0028019804D00C2802DB019807
:101350001E2807DB00208046A874A8E0EC954020FA
:10136000A85840205046410101EBC00157484018A1
:10137000818CC08C4018401E80B2039042F21070E5
:10138000784302090492217901200D3105908840AB
:10139000401E824288BF04904FF0000885F81380F9
:1013A00096F85400CDF81880CDF81C800599444675
:1013B000A246089140F2FF71099145490A915CE00B
:1013C000FF2958D0009801F0EBFE074638694168C4
:1013D0000A1D0B920089498B0B3020F00309B87865
:1013E00009118B460B2803D0122818BF0D283ED1B7
:1013F000009801F0E1FE0028039838D00999A0EB8D
:101400000B006FF31F30814231D938690068002822
:101410002DD10B980499007820F07300882826D1EC
:1014200009EB0A008142069821D9641C5044E4B2B9
:1014300009EB000A05EB4400A0F814A0019887F816
:10144000280000980C900298484504D90298A0EB17
:101450000900069001E0CDF818800A98009900680C
:10146000095C00913869C17296F8540005E00221C8
:1014700096F854000891059907910799A04202DD5A
:10148000002900999CD084B1306EA8600C9801F0BE
:1014900087FEE860039828600498AC74686002983E
:1014A0002882DDF82080059803E085F812804FF04F
:1014B000FF3085F813800DB0BDE8F08F4C57402009
:1014C000B016402094171000A81A40200471402044
:1014D000007A4020FCB5044604F108000D4690E86F
:1014E00003008DE80300E8781F461646800829D3DC
:1014F000207820BB6068417801F00301012914BF06
:10150000001D1030114608F02EF96068417801F096
:101510000301032904D002290CBF10300A3000E077
:101520001830B11D08F01FF96278616806F10C00EF
:101530008918891D022208F074FE01202070288875
:101540003018FCBD617828884018083081B26846A0
:1015500015F196FAA9783A46684615F144FB3846E3
:10156000FCBDF0B5ADF1640D0D466B46FFF7B2FF63
:10157000EA782B1D291D52084FF0010405D2AA78E4
:10158000194609F0C3FB90B912E0AD7885B16A182D
:10159000521E491E431E12F8016F13F8017F3E4090
:1015A00011F8017FB74202D16D1EF4D100E0002492
:1015B000204619B0F0BD2DE9F0430E468046914615
:1015C00000240127F51D09E0A9784819001DEA78D3
:1015D000520828BF0844641CE4B20546B079294685
:1015E0004A46A04205DD4046FFF7BBFF0128EBD08D
:1015F00000273846BDE8F08310B5ADF1200D8468B2
:101600002CB903695B681B1D90F84A0003E090F851
:101610004A00231DC318001D0593ADF81C0018785F
:10162000069420F07300882814BF18201A2012187E
:101630008DF8112000206A468DF8100004A8FFF7ED
:10164000BAFF08B010BD00B5ADF1200D006900F182
:10165000140206901420ADF81C001078059220F0BA
:101660007300882814BF18201A206A468DF81100CC
:1016700000208DF8100004A8FFF79DFF08B000BD02
:10168000824909684FF0000001B901207047F0B5A8
:1016900003467E480A46011DF0C9001DF0C391E8CB
:1016A000120083E812001821116014F15BFF012081
:1016B000F0BD42787549007881F84A020A77012026
:1016C00070472DE9F04184468E4603224FF0010811
:1016D0000CF104069CF80310002005E01C1D3619CF
:1016E0009CF80310A218401C814209D9F478A10883
:1016F00013D3B37835885D190E2D0FDD4FF0000838
:10170000622A88BF4FF000080EF104000CF10101BD
:1017100008F087FD4046BDE8F081B3786108DDD36D
:101720005C00241D0025371DAB42D8D9795D5B19BB
:10173000FB5C0B407B55B3786D1CF5E7F0B50746B5
:101740007878042833DC514C6C2101FB004000F117
:10175000200590F82400FF2802D1387800BB26E04D
:10176000072007F08EFF84467878002204EB800083
:1017700082602168A94209D028790B799842DCBFA0
:101780002868306005DD0E463168F6E7286820607D
:101790001646FF202A602871604607F07AFF3878E5
:1017A000012820D138462946FFF78BFF08B90E20C3
:1017B000F0BD072007F065FF216879B12A790B7920
:1017C000934207DC0B799A4203DD0E46316800290B
:1017D000F8D1344629602946254601E025600021DC
:1017E000296007F056FF0120F0BD2DE9FF43016994
:1017F000264C01F1140202914FF01401ADF80C10C7
:1018000094F84A120192266831B1117801F00C0265
:10181000082A01D1407808B1012034E0277F002553
:101820008DF8005021F07301882914BF18201A2068
:101830008DF80100072007F024FF804604F50F799A
:10184000CEB14A4631466846FFF7B5FE01280AD0B8
:10185000404607F01EFF072007F013FF366880465A
:10186000002EEED107E07779307904EB80018868AB
:10187000401C88600125404607F00BFF15B96068E1
:10188000401C606038460090BDE8FF830055402052
:101890002DE9FE4F9B4614466D46052334F8026B36
:1018A0005B1E25F8026BF9D112890BEB0205AAB277
:1018B000ADF80A20DFF814C24B7882EA03231B122A
:1018C0003CF813400E787540EDB23CF815502606F2
:1018D000241244EA16446C40BDF80030E418ADF818
:1018E0000040A6B2CB7886EA03231B123CF81340D3
:1018F0008D787540EDB23CF815502706241244EA65
:1019000017446C40BDF802506419ADF802401FFA4C
:1019100084F94C7989EA042424123CF814400D79A6
:1019200089EA0505EDB23CF815502706241244EA71
:1019300017446C40BDF804506419ADF804401FFA18
:1019400084FACC798AEA042424123CF814408D7974
:101950008AEA0505EDB23CF815502706241244EA40
:1019600017446C40BDF806506419ADF806401FFAE4
:1019700084F84C7A88EA042424123CF814502C127F
:101980000F7A88EA0707FFB23CF817702D0644EA81
:1019900015457D40BDF80830ED181FFA85FECD7A5B
:1019A0008EEA05252D123CF815507C40BDF80870D4
:1019B000E4198F7A7C40E4B23CF814402F062D12D3
:1019C00045EA17456540521992B20C7B82EA04033E
:1019D0004D7B84EA05245440641084EAC3343419EE
:1019E000A4B2ADF800408F7BCD7B87EA052565402A
:1019F0006D1087EA63035E4085EAC6364E44ADF853
:101A000002607C4085EAC43509EB0504A5B26C1080
:101A100084EAC5340AEB04039DB2ADF804506C109F
:101A200084EAC53408EB04039CB2ADF806406310A9
:101A300083EAC43373449CB2ADF80840631083EA70
:101A4000C433D21893B2ADF80A304FEA2B22027099
:101A500042F0200202F07F02427080F802B04A7821
:101A6000097881EA02214B405910C170811C06237C
:101A70006A46147801F8024F32F8024B24125B1EBA
:101A80004C70F6D1BDE8FE8F2DE9F04F9EB21B0CD5
:101A90008B46438006805478117881EA04218DB208
:101AA00085809178D47881EA042189B2C180884602
:101AB00054791279AE46DFF814C082EA042294B257
:101AC000A24632460481002602E0C046B4114020FE
:101AD00074082CBF4FF002094FF0000909EB0B0509
:101AE0006C781BF809708AEA07078AEA0424241232
:101AF0003CF8144021062412FFB244EA11443CF899
:101B000017707C40A418A2B202806C792F7982EA07
:101B1000042424123CF81440574021062412FFB23A
:101B200044EA11443CF817707C40E418A3B24380A7
:101B30006C7A2F7A83EA042424123CF814405F4024
:101B400021062412FFB244EA11443CF817707C408D
:101B500074441FFA84FEA0F804E06C7B2F7B8EEAAD
:101B6000042424123CF814408EEA070721062412AC
:101B7000FFB244EA11443CF817707C4044441FFA19
:101B800084F8A0F806806C781BF8095088EA0505EF
:101B900088EA042424123CF8144027062412EDB2EB
:101BA00044EA17443CF815506C4034195444761CF0
:101BB0001FFA84FA082EA0F808A089DBBDE8F08F90
:101BC00010B50B8C02EB4004A384896942F8201005
:101BD00010BDF8B5164604460A7888781F46091DD8
:101BE00040EA022085B20422684608F01AFB07EB9F
:101BF0004600818C4FF6FF7200208A4204D157F8CC
:101C00002620B2F1FF3F15D0009B57F826209A42BC
:101C10000ED8009B9A4201D1A94209DAA169009A23
:101C2000914202D1228CAA4204DB009A914201D354
:101C30000120F8BD00992584A161F8BD10B501010E
:101C400001EB8001A24840188368C16800229942D4
:101C500088BF0122416821F0004141EAC271416020
:101C600084680269121BC4680023944288BF012360
:101C700021F4004141EAC331416010BD10B59449DF
:101C8000020102EB80025318521851681469CAB25B
:101C9000121BB2F1FF3F19BF4A1C62F3070121F08A
:101CA000FF0181F4807159609968491E9960FFF7BE
:101CB000C5FF10BD30B5864D020102EB8002AD18A4
:101CC0006A686C68130CDBB2E4B2A34207D1140A51
:101CD000130E04F0010403F00103A34208D12B68A2
:101CE000D2B2920002EB83029D4B9950FFF7C6FFE0
:101CF00030BD10B57649020102EB8002531852182C
:101D0000516814690A0CD2B2121BB2F1FF3F07D01E
:101D100021F47F0201F5803101F47F01114303E0DA
:101D200021F47F0181F0807159609968491C9960A4
:101D3000FFF784FF10BD30B5654C020102EB800255
:101D4000A41862686568120CD2B2EBB2934207D154
:101D50002B0A2A0E03F0010302F001029A420AD074
:101D60002368AA0B02F47F7202EB83027C4B9A5821
:101D70000A60FFF7BEFF30BD10B5554B020102EB04
:101D800080001B1858685C68000CC0B2E2B2824246
:101D900007D1220A200E02F0010200F00100904259
:101DA00008D01A68A00B00F47F7000EB82006C4A28
:101DB0001058086010BD7E487C4908607D48086264
:101DC0007D4808647D480246143A0A660246143289
:101DD000C1F880002830C1F8A020C1F8C0007848C0
:101DE0000246643AC1F8E020C1F800017548024695
:101DF000143AC1F82021C1F840014FF40050486066
:101E0000486248644866C1F88400C1F8A400C1F87B
:101E1000C400C1F8E400C1F80401C1F82401C1F80C
:101E200044017047F0B50F4606462949300100EBE2
:101E30008600091848680D46C00F10700BD10024A9
:101E400006E057F824103046FFF734FF641CE4B274
:101E5000E868A042F5D8F0BDF0B514460F46064636
:101E600007F030FC1A498446300100EB860009185F
:101E700048680D46C00F20700BD1002406E057F8CB
:101E800024103046FFF716FF641CE4B2E868A04255
:101E9000F5D8604607F03AFCF0BDF0B50F460646AF
:101EA00007F010FC0A498446300100EB860009184F
:101EB00048680D460024000C0CD2E86807EB84014A
:101EC000A0420AD93046FFF736FF641CE4B2F4E7BB
:101ED000548E40204FF0FF303860604607F016FC0B
:101EE000F0BD020102EB8000374A1058C00F0870A5
:101EF0007047020102EB8000334A1058C00B00F01B
:101F000001000870704770B5304C3C22002120461B
:101F100008F01AFB12484FF40062112108F014FB7C
:101F2000012600200A21E66020602161A160FFF700
:101F300085FE40252168206926626562E5614018BA
:101F400060613046FFF77AFE6169606A6663A56387
:101F500025634018A0620220FFF770FE70BDC046E6
:101F60000C0CB080F0B50F46064607F0ABFB84467C
:101F70001548310101EB8601001F401805464068F5
:101F80000024000C0AD2E86807EB8401A04208D9BB
:101F90003046FFF7F1FE641CE4B2F4E74FF0FF3087
:101FA0003860604607F0B2FBF0BDC046009080800C
:101FB000000001292A00024772000123AA00011330
:101FC0004A010563C2010113588E4020548E4020FF
:101FD00030B59F4A342101FB00259E4895F8291011
:101FE000C0EB41000488287808F18DF904F00F0453
:101FF000A04208BF012007D034F0040403D195F8B3
:10200000290008F1BCF9002030BD30B5904A3421D8
:1020100001FB00256869401C08F188FAC4B26869B0
:1020200008F184FAC2B284F0800100208A4208BF1D
:10203000012030BD30B50C46054608F177FA00F0B6
:102040007F00641E844205DC284608F16FFA802177
:10205000814303E0284608F169FA411C284608F14B
:102060004CFA30BD30B505462868401C08F15EFAD0
:10207000C4B2286808F15AFAC0B2844210D004F001
:102080007F0400F07F00844208BF002009D0844212
:1020900003DAA988091A641800E0241AE0B230BDF6
:1020A000287930BD70B515460E460446FFF790FFFF
:1020B00030B12046FFF7A9FF00284FF0340001D0CF
:1020C000002070BD624900FB0414206A09F1FCF98C
:1020D000606908F12BFA6169C0B200F07F00401816
:1020E000801C314608F109FA217E6069FFF7A2FFE2
:1020F000207808F109F930B92DB904F11400FFF77F
:10210000B1FF152802DA606A09F1C4F9206A09F101
:10211000D7F9012070BD2DE9F0434FF034090025B7
:102120004B4E4FF0010816E0F86808F1FFF9014640
:10213000F868401C08F1E1F9A41994F82800032874
:1021400006D1A26822B184F8288000212846904751
:102150006D1C84F82880706B09FB05F4A719A84250
:10216000E2DCBDE8F08330B5784A342101FB00247D
:10217000E068401C08F1DAF9C5B2E06808F1D6F968
:10218000C1B20020A94208BF012030BD30B50446CD
:10219000FFF7E9FF002818BF002016D134206B4953
:1021A00000FB0414E068401C08F1C0F9E168C0B20B
:1021B00000F07F004018801C08F1B8F9C5B2E06853
:1021C000217C401CFFF736FF284630BD0278491EAF
:1021D00002F07F039942DABFD24322F07F02521C01
:1021E0000270704778B51646584A0D46342101FBF7
:1021F000002404F10C00FFF735FF218A081AA842D9
:10220000B8BF00201EDBE068401C08F18FF98DF894
:10221000000085B19DF80000E16800F07F004018E3
:10222000801C08F183F906F8010B217C6846FFF752
:10223000CDFF6D1EEED1E0689DF80010401C08F146
:102240005CF9012078BD4249085C401EC0B270476D
:102250002C90402002205F7F2DE9F04700254FF0B1
:1022600034084FF00309394EAA4652E094F828107A
:102270002846491E012922D9891E3CD194F82A00FA
:1022800018B194F82B00002835D02846FFF77EFFC0
:1022900004F12C0784F82C003878FFF7D4FF04F100
:1022A0002D0201462846FFF79DFF206A09F1FBF841
:1022B00008BB6268FAB184F82BA0394619E0FFF731
:1022C00065FF06EB070181F82C00A0B9206A09F12F
:1022D000EAF880B994F82800012804D128460122A0
:1022E0005146FFF7DFFEA26884F828904FF0010105
:1022F0000AB1284690472846FFF735FF08FB05F747
:1023000007EB060420B9206A09F1CDF80028ADD00A
:102310006D1C706BA842EEDCBDE8F0870D49002013
:102320000880088208840886A1F84000A1F85000BF
:10233000A1F86000A1F87000A1F88000A1F8900059
:10234000A1F8A000A1F8B0007047C0462C90402032
:10235000B89A402000F0A080FEB50546072007F09F
:1023600090F90746002004F1D3FF20B9072004F0BC
:102370003CFAFF280DD0002004F1CAFF04460720D4
:1023800004F033FA03464AF630219348224601F01E
:102390002AFC9248002404709148046084609148AB
:1023A0000480914821460A46046028461DF11EFC1F
:1023B0000AF179FF1DF105FC1CF192FCFEF725FAEC
:1023C00004F027F801201BF16DFF12F181F805F1EF
:1023D000EC0006F05EFA1CF1D4F805F07DFD26460F
:1023E0002146F0B206F0A1FB761C052EF8D320465C
:1023F00013F128FF20461AF1D4FA03F0D1FA07F0BE
:10240000E7FF287840B9012010F19EFA287818B922
:102410002046014604F1FBFD062008F065FA9E48BF
:102420000460384607F035F9287C2A788DF80000DA
:102430009A4801789AB1921E0ED0521E09D0521EAF
:1024400004D0521E0ED121F020010AE021F010012B
:1024500007E021F0080104E021F0040101E021F08F
:102460000101017069464FF4004006F046F906216B
:102470008B480A4601F0C1FB0C2008F007FBFEBDAB
:1024800030B505468748007814F1B4FD04460022B3
:10249000294615F109F8217801208840400902D326
:1024A000204611F118FB2046FFF756FF4FF4C0718C
:1024B00004F14C0014F156F8072007F0E2F8044646
:1024C00014F15EFD204607F0E4F830BD70B5764C9F
:1024D0000D46064621680120B04081430A2E216046
:1024E000084608D028463146002214F1DDFFF0B23C
:1024F00004F172FF2068F8B900202060C5F8B80127
:10250000C5F8BC0185F8C801072007F0BAF80446F1
:1025100014F136FD204607F0BCF8092004F15CFFF9
:102520000A2004F159FF2846FFF716FF05F14C0079
:102530004FF4C07114F116F870BD5C490968016070
:10254000704710B55A4A0521116058490A68002A97
:1025500018BF132007D1534A107001240C600020CB
:102560001DF1B2FC204610BD4E48007814F142BD6A
:102570002DE9F047814601264E484B4D4FF0000AA9
:1025800088464D4F344606704FF4806028603846C8
:1025900000F1840790F8800001280CD1E0B2424697
:1025A000494605F17FF8002806FA04F003D02968AF
:1025B00008432860B246641C092CE8DB0920424627
:1025C000494605F16FF8424649460A2005F16AF886
:1025D0005046BDE8F087C046E80405004879402031
:1025E000085481800C9940200899402030B5FFF7AD
:1025F000BBFF0546062008F07AF92878011C08D0B0
:10260000491E2ED0491E14D0891E02D0491E10D05A
:1026100026E0002005F10EFA022803D042F2020063
:1026200006F08EFA002006F15DFA244900200870B9
:102630002878214A30F004004FF00201A2F1040290
:10264000117003D12846012214F1D9FD1C492A46F4
:10265000002005F127F8042008F018FA287800E097
:1026600001BE012829464FF0000409D11548FFF7A3
:102670007FFF0A49087800F0FD0008700D480470DB
:102680001148047007F0EAFE08F198FF30BD0749D1
:1026900002200860FFF7AABF0C9A4020D88640208D
:1026A0004A000300109A4020149A40200C9A4020BF
:1026B00004874020119A4020BC334020036F402003
:1026C00075240000C1240000A09A4020F0B5A0F1BC
:1026D0000806072E4FF00004974D964B06D90C3E86
:1026E0000ED0233E21D0373E0BD007E001A7BF5DBF
:1026F0007F44BF46343026221E1A1612234615E0A8
:102700002B465B1C11E0DB1C0FE05B1D0DE0DB1DAD
:102710000BE0093309E09B1C07E040290CBF1B1D9F
:102720002B1C02E09B1D00E008331B78002A4FF0B1
:10273000B40205D002FB03F24FF01803B2FBF3F32F
:1027400061B1491E07D03F390BD0403906D0491E30
:1027500001D001BE07E003F1600404E003F1C0040E
:1027600001E003F114042046F0BD10B51446002228
:10277000FFF7ACFF206010BD2DE9FE43984681466F
:102780000B46114618466A46FFF7EFFF0AF1F0FDC7
:10279000A04D0646687F012814D024350027314615
:1027A000284606F04EFF2A46494601A806F00BFFD0
:1027B000019C3846471CA64201D20528EFD3A64209
:1027C00011D200E02435D9F80400D9F8001001AB8B
:1027D000324606F0C3FE0020029001AA4946284670
:1027E00006F0F1FE019CB4EB560F04D931462846A1
:1027F00006F027FFA41B0098241AC8F80040BDE883
:10280000FE8310B514460122FFF760FF206010BD63
:10281000FCB5804D0E460024697F01940094002988
:1028200017467DD001AB3146FFF7A6FF2868401C54
:102830002860687F012811D0E96801988842A4BF08
:102840000199E96028698842B8BF081CE96A401804
:1028500000F5FA60286211F150F922E001986861F0
:10286000E8606860304639466A46FFF77EFF0098A8
:10287000019940428142D8BF0198A8600AF1C7FC83
:102880006869B0F5FA5FD8BF4FF4FA502861E96A79
:10289000AC61091801F5FA61296211F12EF90220E3
:1028A0006877297FD1B1491E2FD101996A688A4280
:1028B0002BDD0199891AB8BF494242F210728A424F
:1028C000554805DC01780229DCBF491C01701CDD7C
:1028D0000470019868600AF19AFC16E06868019932
:1028E0008842C4BF0198686006F192FC00280CBFC2
:1028F0000A2003202968884207D268680AF187FC09
:102900000120287702201CF1DFFE28680A2108F048
:1029100047F9A96981420BD1E8682861EC60FCBDE8
:1029200005F12C0230463946FFF76BFF012068772E
:10293000FCBDC0461A1A4020181A402070B50C463B
:10294000054608F03AF8001900F1100634480178FD
:1029500032480078084308BF4FF0FF3010D0287885
:1029600020F00300802818BF6FF0010008D1204636
:102970001AF171FF024621793046FFF749FF002026
:1029800070BD10B5234C6069B0F5FA5FD8BF4FF445
:10299000FA502061E16A091801F5FA61216211F12A
:1029A000ACF820680A2108F0FBF8A0610020E06084
:1029B00010BD10B5174C0020E0602061A0612077A9
:1029C00020600AF1D5FC6060607F022804D1A06815
:1029D0000AF11DFCFFF7D5FF02201CF170FE10BDAF
:1029E000104901200870FFF7E4BF0F490948104A59
:1029F00041610E49C2624FF470528160026200214F
:102A0000417705480170FFF7D4BF0648C01C006835
:102A10007047C0467C924020036F40200F994020B1
:102A20001099402099924020BEBAADDE80FEFFFF93
:102A3000BEBAADDE10B59C494FF000020B4603F163
:102A400001031A7008B94FF002024FF0040311F8A5
:102A5000104F04B10A705B1EF9D110BD924908787D
:102A6000012814BF02200120487070478E48427828
:102A700001210170022A08BF417070478A48002175
:102A800001704178012904BF02214170704700B5EF
:102A90004178012902D1FFF7E9FF06E040780028DC
:102AA00018BF0E2002D1FFF7E9FF012000BD30B5AD
:102AB000417803291FD8C278022A1CDA8378022BB6
:102AC00019DA4468B4F57A7F15D3894AA24212D341
:102AD000884A002B4FEA011305D102EB01120020B6
:102AE0001074D0741BE0991808310D7A9B184FF4BC
:102AF0007A72012D01D10E2030BD02FB04F25A6022
:102B0000C2785A744FF00002DA7403F110031C7893
:102B10001CB94A60924A12680A60807818700120D5
:102B200030BD2DE9FF430546A868894620B1001D48
:102B300095F84A703F1802E0286947683F1D3878C9
:102B40000026DFF8B08140F080008028844C0FD14F
:102B5000388B00F06000202844D021684046443083
:102B60000160284602F0C2FD00F026FB002839D1A2
:102B7000684608F0ABF802A9684606F0DEFD02A937
:102B8000381D06F0E2FD00282CD0E86A800929D221
:102B9000B9F1020F414604D0E878032818BF042891
:102BA00000D10126487801281CD101F1080000213C
:102BB0000F46C4461CF8102F012A01F1F0020DD176
:102BC00095F840309A4204D0427A0AB922680260ED
:102BD00004E022680260012E08BFC772491C103051
:102BE0000429E7DB0090BDE8FF832DE9F0430546AB
:102BF0008846012000F064FA071C4FEA051134D022
:102C0000584A0120042D505401DB01BE0DE0A5F10E
:102C100010005FFA80F905F10900C1B2C80000EBAD
:102C20008100514C24181B35EEB2206807F0A5FD39
:102C300087F843004FF4FA200025386287F8409067
:102C400087F87C807D70FD627001B8860720266859
:102C500006F017FD361FBE60A18887F84A503986F6
:102C600006F017FD384600F06AFABDE8F08310B5AB
:102C7000ADF11C0D04463B48A0F11300817889B9E1
:102C8000012181700E2013F167FA0920019004944C
:102C9000002002900390354803226946069001A85F
:102CA00009F136FF07B010BD088A4020304830B522
:102CB000FFF7DDFF2B4D0024133D15F8100F012801
:102CC0000AD1E87820B9E0B20121FFF78EFF03E0D6
:102CD0002146284800F099FF641C042CEDDB30BD30
:102CE00020480021113801700E2013F1DDB9C046D3
:102CF00080EE3600088A40202DE9F043194C00256B
:102D0000133C6078241D012827D11B4FDFF8508029
:102D1000A946207B01281CD1E67B6168D8F8000019
:102D2000A0EB01007EB9216881420CD2A1688F42DC
:102D300003D34018A060494602E0C4F8089001217E
:102D4000E8B2FFF752FF012E294602D1094800F0F0
:102D50005CFF6D1C1034042DDBDBBDE8F083C04646
:102D6000445481801B8A40204C634020D52C0000B5
:102D7000B0AD01006A0007003F81BA0100B59C496F
:102D8000C21F0BD0521E08460ED100F1240000686D
:102D900010B1072007F07AFE042003E0084600681F
:102DA00010B1062007F072FE00BDA1492DE9F84FD1
:102DB0000868A34DA14EDFF880A24FF001084FF044
:102DC00003099C4F994C401C086000218B4605E08C
:102DD000E06800F10100E060C4F800B02068DC4663
:102DE00020BBDAF800203B68B2F1FF3F03F101039A
:102DF0003B601BD0104604F001FBA168491CA16098
:102E000081782060022900D001BE316880F80290EC
:102E100080F88480491C316069460EF1EDFC014662
:102E20002A680098801828602068C446B8B1BCF1B0
:102E3000000F12D18178042907D069460EF1DCFC1D
:102E40002A6800998918296006E080F8029080F8C5
:102E5000848069460EF1D0FC01460129B8D00720D4
:102E6000FFF78CFFBDE8F88F714978B5A1F1080133
:102E700008685F4C00F101000860206890B1864846
:102E80000168890B4CD32169C0F8FC13E068401C31
:102E9000E06082490868401C086002212068817057
:102EA0000020206069460020FFF75CF8009DB5F126
:102EB000FF3F15D095F84400032113F168FF061C6D
:102EC0000ED069460020FEF7E8FFA0687449401C58
:102ED000A0600868401C0860EE60C5F8806025604E
:102EE000216871B95448A0380068B0F1FF3F0090E4
:102EF00006D0A168491CA16014F197FE20602168EA
:102F000071B101208870084601F02AFB02F078FDBB
:102F1000206804F1100104F0AEFA20680028AED158
:102F200078BD70B5044602F0E1FB0546072006F0C7
:102F3000A8FB06460B20A070284619F108FF28B907
:102F4000284619F1A4FE284619F185FE304606F000
:102F5000A0FB70BD2DE9F84F52494FF000094FF02A
:102F60000A0A514D08684FF00108DFF840B1401CD3
:102F70000860DBF80070B7F1FF3F34D038460DF140
:102F800037FF0646B07886F884802E60092827D15E
:102F9000A868B46F86F802A000F10100A8603CB1F7
:102FA000304602F0A3FB01464046736F0246A0473D
:102FB000072006F066FB0090E868401CE860304699
:102FC00002F094FB04461AF197F8204617F110F826
:102FD0003046FFF7A6FFC5F80090009806F059FBB1
:102FE000B7F1FF3FC5D10820FFF7C8FEBDE8F88F55
:102FF000887E40202E494FF4806040F2FA620860DB
:103000002C48D0F8AC16491CC0F8AC162A490968FF
:10301000890B06D2815A01F10101815203480068EF
:1030200010B9072007F032BD7047C046AC7E402083
:103030005C1E100008984020A094808000984020DA
:10304000049840201A484FF0006140F2F262001FDD
:1030500001601848D0F8A416491CC0F8A4160E49FF
:103060000968890B06D2815A01F101018152134886
:10307000006810B9062007F009BD70470C484FF4EE
:103080000001001F0160074910390868401C0860F2
:10309000082007F0FBBCC04664908080FC9740206D
:1030A0000C984020581E1000D07E40202095808033
:1030B0007050808094171000E4908080887E4020BB
:1030C00010B50446072006F0DCFA8A4AE10001EB5D
:1030D0008401521811684B68002B08BF002405D0EA
:1030E0008C78802C00D001BE0C46136006F0D1FA1B
:1030F000204610BD30B504460D46072006F0C1FA43
:103100007C49E20002EB840289184C68A27895425F
:1031100012BF002462684A6006F0BBFA204630BD48
:1031200010B50446012000212070FFF7E3FF28B905
:1031300000200146FFF7DEFF0021217010BD1CB505
:10314000044601941CF1CFFE02460198818E21F0C5
:103150001C0141EA8201818619F17CF9002801985D
:1031600005D1818E21F4787141F480618186208EB1
:103170004FF48671401EB0FBF1F0401C84F844000F
:10318000204607F02BFE6A4601A90020FEF764FEE8
:10319000062007F07BFC9DF8000000B101BE1CBDBD
:1031A000FF284FEAC01105D001EBC0018848006834
:1031B0004018704700207047864A12680146002078
:1031C0008A4288BF01207047834A01460020126866
:1031D0008A4204D97F4A12688A4298BF0120704708
:1031E0007E4A0146002012688A4204D97A4A12684F
:1031F0008A4298BF01207047F0B5041C00D101BE7F
:10320000072006F03EFA064694F8437025782046DB
:1032100002F06CFA002384466360FFF7CDFFF0B93B
:103220006046FFF7D1FF6E4D88B96046FFF7D8FFC3
:10323000002834D0204613F131FA2946091D886848
:10324000002804BF0C608C6029D08C6005E020460B
:1032500013F124FA294608680C6044601FE004B9A1
:1032600001BEFF20607018461E21E070E06284F805
:103270003D00206784F87C0084F8490084F82A1017
:103280008020A0701B482361A36781688460554833
:103290002A464C6050F82710012014F17BFE30467E
:1032A00006F0F7F9F0BD4D4A1268014600208A4247
:1032B00098BF0120704710B5072006F0E2F9484991
:1032C00001F104010C683CB163680B604FF000022F
:1032D000626003B98A6000E0002406F0DAF9204653
:1032E00010BD4149096801B901BEC20102EBC0002D
:1032F000081870473C9640202DE9F04780463C482E
:1033000000683A49DFF8ECA040440860DAF80000B1
:10331000394C0F2208EB000101F110002060C801B8
:1033200000EBC10000F50860042180B217F176FBC4
:103330002168274A4FF00005106091B191462F4651
:103340008826D9F8001048198919416013F1A6F9A7
:1033500021687F1C88368F4205F18805F1D3D9F8A2
:1033600000004346DA01254C02EBC3020025821817
:10337000A2F18803A36053461E682060606008EBDA
:10338000060342F8845CDF0107EBC307E2602261B9
:10339000C319883BF701636107EBC607D21942F8EE
:1033A000845C03F18802A26103F18802E26103F503
:1033B00008722262C3F824520B4B88321A60CA0189
:1033C00002EBC102883A80184560BDE8F087C0462C
:1033D000D0984020D8984020DC984020E0984020A9
:1033E00050964020EC954020D4984020E49840200E
:1033F0009086402094864020E89840203C964020CB
:10340000AB4A002191860146491E10800BD031390C
:1034100009D0CF394FF0010102D00220D17204E06F
:1034200002200146FAE70120D072907270473CB545
:10343000007B0C461546DD2802D085421CD11DE0DC
:10344000AC48B5F5807F04F10201006804F1020484
:103450000090A9480068019004D16846042207F052
:1034600055FC58B140F20110A84205D10422214672
:1034700001A807F04BFC08B100203CBD01203CBD79
:103480002DE9F8470D460021ADF80210BDF80220E5
:10349000874C8846ADF80020626894F80B9094F849
:1034A0000AA0002A07460AEB090647D0521E16D08A
:1034B000521E454674D139460DF102004A4606F0C7
:1034C000B0FE524607EB0901684606F0AAFEA18E3F
:1034D000BDF800506D1A63DD0846394625E0A08E20
:1034E000A6EB000820180C303946424606F099FE3B
:1034F000E27A39460DF1020006F093FEE17A684661
:10350000A27A791806F08DFEBDF802102181BDF86F
:1035100000106D1AB5EB08055ABF0320BDF8005026
:1035200002206060A08E08EB070120182A460C30AC
:1035300006F077FEA08E2818A08631E0AE420BDDA3
:1035400001206060A5862A46394604F10C0006F089
:1035500068FE2846BDE8F8870DF102004A46394664
:1035600006F05FFE524607EB0901684606F059FE79
:10357000BDF802002081BDF80000A686281AB042DE
:1035800059BF0320BDF800500220AD1B6060A08E23
:1035900039462818A086A28E04F10C0006F041FEE0
:1035A00008EB0500C0B2BDE8F8872DE9F0430E1C1A
:1035B0009146804617D03E4D00242746311B04EB30
:1035C0000800C9B2FFF75CFF6968032906D13846D5
:1035D0002989894508BF0120BDE8F08318B1041985
:1035E0006F60A642EADC0020BDE8F08370B5304C85
:1035F00005460E462088824202D01046FFF700FFA3
:10360000002060601A4631462846FFF7CEFF70BDA5
:103610002DE9F04FADF5D87D9A460346154689460B
:1036200047F6FF70769CDDF8D4B1FFF7E9FE184647
:103630006A46012105F0C2FD4FF6FF770026684675
:1036400005F0D8FD20B9002E14BF032002204DE064
:10365000684608A905F006FE4A4608A96846FFF72D
:10366000E6FE0028EBD0002D04BF002020703DD0E6
:10367000DFF83C80AF429DF80D1024D04846A0F5FD
:10368000807001284FF00106D9D8091FC9B22B4616
:103690004A460DF12600FFF7A9FF0028CFD040468B
:1036A000827AC17A8918828E524514DC02E0C046C3
:1036B000BC8F4020521AD2B2227009180C315846E1
:1036C00006F0AFFD11E04046C27A807A89184018B2
:1036D000C5B2554501DD042008E02A46584608A930
:1036E00006F09FFD20782D18257000206CB0BDE8F5
:1036F000F08FC046E41A4020E81A4020B0F1FF3FA6
:1037000014BF1D20012008700878C10001EB800162
:1037100055484018704770B506461C460846FFF7E6
:103720003FFD012E056912D1A07911F16FFB686888
:10373000011D407900F00300012814BF091D10315C
:10374000204606F010F8A348214606F05BFD70BD48
:1037500010B5ADF1700D002403AA64238DF8084064
:10376000009202AA01922246FFF752FF011C204656
:1037700008BF01201CB010BD30B5ADF1700D05467D
:10378000002403A864234FF6FF7201218DF808403E
:10379000009002A801902846FFF73AFF98B903A8C5
:1037A00019F1B2FF88B103A8009002A80190642328
:1037B0004FF6FF7232212846FFF72AFF18B903A8F7
:1037C00019F1A2FF08B1204600E001201CB030BD75
:1037D0002DE9F84188466946FFF790FF7D4E074680
:1037E000304606F0CDFC041C3CD00120FFF768FCFD
:1037F000051C7948017831D0072685F843600920F7
:1038000068704FF4FA20286211F0240F0CBF4FF4B7
:1038100000704FF48860A8868020E8624046214608
:1038200005F0A1FF9DF80000E0806C486C67A86778
:1038300030463C6805F025FF241FAC60B988298616
:10384000002185F84A1005F024FF9DF8000011F1D1
:10385000BCFA2846FFF773FCBDE8F88130462146E4
:1038600006F0D0FCBDE8F8814C6340202DE9F04122
:10387000ADF1280D446800268DF8046004F11407AA
:1038800004F11E081034206810F4702F0AD019F1CA
:10389000E3FE2168090C01F00F01884202D119F101
:1038A000D1FE93E04B4C204606F0A5FC28B92046FB
:1038B0004B490823502206F072FC02AA31463846D2
:1038C00005F07CFC02A9304605F0E3FC00280EBFA1
:1038D000341C029CA41E02AA3846314605F06EFC38
:1038E00002A9032005F0D5FC00280EBF351C029D5F
:1038F000AD1E3948007810F0110F24D110F0240FBC
:1039000027D080090BD34FF480713846FFF720FF92
:1039100001280BD03846FFF72FFF002855D040F282
:1039200001113846FFF714FF012801D130464DE060
:103930007DB117F171FE012847D117F166FEA97814
:10394000884206D041E025B11CF1A0F9A97888424F
:103950003BD1FCF7DEFFB0B901A869461CF155F96F
:1039600064B160789DF8041040B188420BD1009892
:103970009DF80420A11C07F0C9F920B941464FF079
:10398000FF30FFF725FF17F147FE01281DD101A8E1
:10399000694617F133FE35461CB160789DF8041076
:1039A00018B917F123FE58B90BE0884208D10098E6
:1039B0009DF80420A11C07F0A9F908B94FF00105F2
:1039C0001DB141463046FFF703FF01200AB0BDE8B4
:1039D000F081C046BC994020D88640200B370000BB
:1039E00018874020A7498A6810708868401C886042
:1039F0008A6801F5037090429CBF01F10C00886059
:103A000070470EB403B0704700B50420FFF7EAFF1B
:103A10000920FFF7E7FF0120FFF7E4FF0820FFF789
:103A2000E1FFA54B1878FFF7DDFF0020186000BD0F
:103A3000944881684068814208BF40F2FF1003D07B
:103A4000401A6FF35F20401E70470EB42DE9F04F0F
:103A500009AFADF1080D4FEA104BC0F30F05072079
:103A600005F00FFE01903A68002107F10409002AD1
:103A70000A46484610D0001F4FF6FF7450F8043F26
:103A800000930368994238BF191C3B688C4202F1CD
:103A900001020AD39A42F1D3FF299CBF386801245E
:103AA00006D938684000032402E038688000052405
:103AB000824E814A00F10308F0781368012817D07C
:103AC000022822D15FFA88F003F011FF96F8211046
:103AD0008246012908D1307841F0020120B986F8E8
:103AE0002110142006F0D2FFBAF1020F0DD166E0CA
:103AF000002B14BF08F1060C08F1010CFFF798FF2A
:103B000084455AD80BB1FFF77FFF40F2FF70A842FF
:103B10005FFA88F824BF386845EAC02506D2641CDD
:103B2000E4B2A5F50065386845EA40354046FFF740
:103B300059FFABB24BEAC40B5FFA8BF0FFF752FFB1
:103B4000D8B2FFF74FFF180AFFF74CFF38684FF065
:103B5000000340B3012C59F8040B00901BD0022C39
:103B600019D0032C10D0042C9DF800000CD0FFF7C6
:103B700039FF9DF80100FFF735FF9DF80200FFF7C0
:103B800031FF9DF8030008E09DF80000FFF72AFFD1
:103B90009DF8010001E09DF80000FFF723FF386861
:103BA0005B1C8342D6D3019805F073FDF0780228A0
:103BB00008D1404603F0D9FE04E05B1C1360019875
:103BC00005F067FD02B0BDE8F04F03B070473CB5AB
:103BD0001D4613460A463A4900950C68059901911D
:103BE0000421A0473CBD38B51D4613460A4634495A
:103BF0000C6800950321A04738BD10B513460A464E
:103C00002F490C680221A04710BD00B50A462C4977
:103C10000B680121984700BD00B529490A680021B9
:103C2000904700BD70B5174CA0686168884238D0D5
:103C300006F06BFA142834DD60680578142D23DC57
:103C4000032D00F101001FDB6060206820180C309C
:103C5000616888429CBF04F10C00606004F10C06AE
:103C60006068007806F038FA6068401C6060206880
:103C7000616820180C30884298BF66606D1EEFD1D5
:103C800070BDC046B45D402001BE6068401C6060ED
:103C90002068616820180C3088429CBF04F10C0039
:103CA000606070BD07484FF40071016000F10C01C5
:103CB000816041607047C046589A402084964020F9
:103CC0005C9A4020B45D402018B5C278032A01D028
:103CD00000292BD07E4CA168012927D161680029D9
:103CE00024D1E1684A791F2A06D090F84300974B07
:103CF00053F82000824219D14879694619F18AF8AF
:103D0000009848B19848016881B198480068984A7D
:103D10001268801A814209D8072005F0B2FC0121FF
:103D2000616005F0B6FC0C2006F0B0FE18BD6849D5
:103D300001F1080109684FF0000201B1012202609F
:103D4000704710B56249044600204A682060012A85
:103D500005D102224A6006F0CAFD0120206010BD94
:103D60005B49091D09680160704710B50446814828
:103D70002168FFF74AFF20687B490860012010BDD9
:103D8000534910B591F821200969100100EB820018
:103D90000918486800F5167440F2FF110A202246FF
:103DA00004F0C6FE224640F2FF11032004F0C0FEDC
:103DB00010BD47480C3001684879401E01280ED9D3
:103DC000C01E012809D9801E012804D9F93814BF62
:103DD00000201F2004E0032002E0022000E0012078
:103DE0004871704778B5644CA36862681A4318BF7D
:103DF000132041D10246E161118802F130032361B1
:103E00008908E2601BD2C1784FF00002C2712060C5
:103E10000D4631B100F1340353F8146B6D1E32447A
:103E2000FAD10088322303FB0122C00834BF0A20E4
:103E3000032040F2FF1104F07BFE01251AE0002070
:103E400084F82100D07884F820000125D570FFF790
:103E500097FFFFF7AEFF4948A560006858B1434897
:103E6000006847490860E0684079694618F1D2FF68
:103E7000009800B96560284678BD3F4B00B558688A
:103E800002281DD1022098603E48586140F29620D9
:103E90009861D868018889083CBF186800F1300132
:103EA00006D393F821100A0102EB810219698918DF
:103EB000143300220EF1D6F9334900200EF195FAA1
:103EC00000BD00B5002006F00FFD00F003F800BDB6
:103ED0006096402078B5284C4FF0000594F82100FA
:103EE000A168656000F1010084F82100C9B194F86F
:103EF0002010C0B2814214DDFFF742FF1F484FF08F
:103F00000105A5600068B0B1184800681C49086048
:103F1000E0684079694618F17DFF009800B9656056
:103F200009E0E069A5608047184E4FF48060314693
:103F300004F0E3FB3570606820B9154803210A4698
:103F4000FFF75BFE0C2006F0A1FD78BDEC9540204C
:103F500009488168022903D000218160FFF7BABFB8
:103F6000002181600EF10CB9789A40204454818080
:103F70007C9A40200901030060964020789A4020F6
:103F80007C9A402003200100B73E0000979A402011
:103F90004A00030070B5036990F828505C6801235B
:103FA000AB40C3F319131E01934B04F104040AD16F
:103FB000C06A400903D3002D18BF984E00D1984E17
:103FC0001868000B03E018686FF31F30954E3C2310
:103FD000B0FBF3F336F91500C0186378C01C33F05A
:103FE0007F030CBF18231C230B60106070BD8E4A2A
:103FF0001368C91852688B4288BF521C0160426026
:10400000704710B50446082009F13EFB4FF00B0045
:10401000A07086480168026921F00101016012B1B7
:1040200041690120904710BD804800B501684A08E9
:104030000AD3026921F0070101604FF00001C1605D
:1040400012B141690220904700BD2DE9F047ADF162
:104050002C0D764C90E8000691E88001206815460A
:10406000410828BF002049D240F00400206007200A
:1040700007F1D0FB6E490646088832690301526891
:10408000401CC0F30B0008802068E660538340F0BA
:1040900001002060684608F12FF90EF15DFD18B1AE
:1040A00005F1C1F800B1032586F82850304618F113
:1040B0009EF90120A840C0F3191000010CBF322066
:1040C0002220019009AA0AA908968DF81C5086F8AA
:1040D00028501E2002903046FFF75CFF03A880E8BE
:1040E000000605A880E8800103208DF800006846DE
:1040F00007F122FF216821F0040121600BB0BDE827
:10410000F0874A4A1061516170470168494A490E77
:1041100001F007031946012912D9091F32D100798C
:1041200008282FDB10282DDA4349085C042814BF27
:10413000042107213B4B33F91000401A14381DE0CD
:1041400001790A390ED00A3909D0233904D0373918
:1041500018D14FF0030007E04FF0020004E04FF0E9
:10416000010001E04FF0000023B12C4931F91000AB
:10417000623803E02A4931F91000C23801B211F562
:10418000004F00DC1046704770B52C4C06460025E9
:10419000206841080CD3C1080AD2032008F10CF9A9
:1041A000002808BF206803D0206840F0020020608B
:1041B000810808D320F003002060E5604FF001057E
:1041C0000EB1226912B925B9012070BD61690320C1
:1041D0009047002070BD00B5184801688A080AD3CE
:1041E000026921F0030101604FF00001C16012B1CA
:1041F00041690220904700BD5C50818010B50F4C92
:104200002068410809D3C00807D2032008F1D4F878
:1042100018B1206840F00200206010BDE81840206E
:10422000D018402000194020704E8180F098402026
:10423000EC9840200080FFFF08864020F098402046
:104240002DE9F847DFF87C8200264FF00909D8F8FD
:10425000CC069D4C3546401CC8F8CC06206807E0CB
:10426000D8F8D80600F10100C8F8D8062560206803
:104270002F46BA46F0B901206946FDF70EFE0098B8
:10428000B0F1FF3F0ED0009801F0F3FA20602068F3
:1042900060B180F8229080F8295015F1D1FB824658
:1042A000012701E04FF00106206818B9002EDFD089
:1042B000BDE8F88717B915F1C3FB8246BAF1010FC3
:1042C000CED0D8F8DC06401CC8F8DC06BDE8F8877C
:1042D0007D49421E11D0521E084608D0521E084683
:1042E00011D100F13800006868B1022009E000F146
:1042F0001C00006838B1012003E00846006810B1D6
:10430000002006F0C3BB70472DE9F84F6D4F6E4C8F
:104310004FF0110B0025704E4FF01009DFF8B4A1DB
:10432000D7F8D006A046E169401CC7F8D006404641
:1043300000900AE0606AC6F8FC0381F822B0E561EB
:104340000098C16901E0E561E169F9B9DAF80000B6
:10435000B0F1FF3F15D015F116F890F822100E2994
:10436000F1D1D7F8E016491CC7F8E016E06180F8F3
:10437000229004F1240103F0FBF8D8F81C1001206E
:1043800000E0284611B90028DFD10CE0D7F8E40698
:10439000401CC7F8E4063068800BCBD2B7F8F406AF
:1043A000401CA7F8F4060120FFF792FFBDE8F88F44
:1043B0002DE9F041DFF80C810027484DD8F8D406EC
:1043C0001226424C401CC8F8D40600E02760206842
:1043D00088B9404980390968B1F1FF3F0AD0D8F85F
:1043E000E806401CC8F8E806084603F01AF8206002
:1043F00080F8226030B106F024FA29780129E5D04E
:104400000128E3D00220FFF763FFBDE8F0812D48CB
:1044100040F2FC62D0F8BC16491CC0F8BC162E490C
:1044200080310968890B06D2815A01F1010181525C
:104430002548006810B9002006F028BB70472849BD
:104440004FF08060086027490868401C086003201E
:1044500006F01CBB22494FF4800040F2F462086071
:104460001848D0F8B816491CC0F8B8161A49096897
:10447000890B06D2815A01F101018152144800686A
:1044800010B9012006F002BB704715484FF40071C7
:1044900040F2EE62001D01600A48D0F8B016491CD7
:1044A000C0F8B0160C4960390968890B06D2815AE8
:1044B00001F1010181520548006810B9022006F09F
:1044C000E5BA704794171000AC7D4020E47D402091
:1044D000C87D402040958080849080808E864020DA
:1044E0006C5080803C1E100010B5C36A1360838E30
:1044F0005B1103F03F0382F8273090F828301371E6
:10450000438BD382C38E938290F84A40038E1B1B49
:104510001383038F5383438F938390F8543082F82F
:10452000263090F85C309371036E9360436ED360D5
:10453000836E136190F8410082F829000878507169
:104540004888D08388881084C8885084887A82F804
:1045500028000889804990840868401C086010BDC4
:104560002DE9FE47064696F84300082800DB01BE09
:104570007A4A4FF000071078F8B179484168E1B104
:104580000178012919D177495378CC89A34212DDEA
:1045900092784B889A420EDA0A8849888A420AD170
:1045A0004178491CC9B214291CBF4178491C03D168
:1045B0004FF00301017039464170B06820B1001D11
:1045C00096F84A40241802E030694468241D2146C8
:1045D000304602F19FFC207810F00C0F09D13046D4
:1045E00001F084F8FEF7F0FD18B14FF0070086F8EF
:1045F00043005D48007810F0110F05D0207C400882
:1046000002D330460EF1A4FB757896F843006D1C7A
:1046100045EA0025072005F034F8544982460D602C
:104620004868820AFCD3DFF84881410A4FF02C0128
:1046300010D3C0B201FB0089B08E99F82710012772
:10464000401100F03F00814204D14946304617F145
:1046500041FD11E06946304617F1C2FD3FB9002027
:104660000022294604F03AFF2C2101FB00894A462A
:1046700069463046FFF738FF99F8280010B13046F8
:1046800004F162FC504605F004F8304604F172FE75
:1046900038483B4D007820B1374800680068C00DAD
:1046A0000FD3207820F00300B02807D030F010009E
:1046B00004D00121304603F069FD10B128682F496C
:1046C0000860F06A20F480102E49F06296F84300EA
:1046D00051F82070304601F009F8FEF76DFD012811
:1046E00017D1207820F00300882812D1032F10D191
:1046F0000121304603F04AFD58B9207810F00C0F24
:1047000007D0F06A40F48010F0621F481F49FFF79D
:104710007CFA2078502803D1F06A40F08000F062E3
:104720002868F0611320B070022011F115FDBDE87A
:10473000FE8710B5072004F0A4FF044600224FF0C6
:10474000FF31002004F0ACFE03490868401C0860FB
:10475000204604F09EFF10BD849A40209094402093
:1047600084944020DC924020D886402014007020A1
:10477000F86C4020487940208C79402060794020B6
:1047800044548180EC9540204C00030013881600AF
:1047900010B5044600B901BE04B901BE072004F0FB
:1047A00070FF9D49CA6822600A69521C0A618A69C1
:1047B000CC60002A00DC01BE8A69521E8A6104F0C6
:1047C00068FF10BD10B503281C460DD15CB12368ED
:1047D0000BB901BE02E061681046984724B120463B
:1047E000FFF7D6FF10BD01BE10BD091A891A06DDFC
:1047F000B1F5004FB4BF88B247F6FF7000E000206B
:104800001880704710B5072004F03BFF8249CC6840
:10481000002C08BF002404D02268CA604A69521CD8
:104820004A618A69521C8A6104F033FF204610BD38
:104830002DE9F04180460D4604F044FF7749D1F858
:1048400098760E684C680A68964284BF4C68161CBD
:1048500004F05CFFED1B70198642034688BF641CA0
:10486000B8F1000F18BF88E81800BDE8F081F0B576
:10487000ADF12C0D0446684817460E460830007806
:10488000012803D1FFF7BEFF051C01D1002028E05D
:104890002E606F6009A82146FFF7CAFF09A890E8BB
:1048A0000300049000208DF800008DF80300142010
:1048B0008DF801005A4801218DF80410006859490B
:1048C0000595241A0B20ADF80C408DF802006846BF
:1048D00007F15EF90446012C02D02846FFF758FF85
:1048E00020460BB0F0BD00B5042006F14FFF50B1DB
:1048F000C16AC90B07D28178122904D0474A603AAD
:104900001168490801D2002000BD01215161C26A2D
:1049100042F48042C262084600BDF0B5072004F0B0
:10492000B0FE064604F0CEFE0746042006F12EFF38
:1049300028B1C16AC90B02D28078122804D1384646
:1049400004F0E4FE00242AE0374D2C68384604F0D9
:10495000DDFE042006F11AFF48B161084FF00104A2
:1049600005D36C61C16A41F48041C16200E000245A
:10497000082001F03AFFFF2802D0FEF711FC01E009
:104980004FF000005CB950B181780B2907D1D5F800
:10499000F8160162C16A41F48041C16201243046C7
:1049A00004F077FE2046F0BD2DE9F041072004F029
:1049B00068FE80460221042007F1D8F81C4C032031
:1049C0002072FFF7AAFF082001F00FFF0546FF2D18
:1049D00015D0FEF7E5FB124E144F02E02846FEF715
:1049E000DFFB60B181783A680B2905D1316801623B
:1049F000C16A41F48041C162555DFF2DEED10125B0
:104A000004202572294607F1B1F8404604F041FE22
:104A10002846BDE8F081C046D88A4020AC4D818050
:104A200044548180B94700004C4D8180007A402079
:104A3000D88A402097490860704770B50E460546F1
:104A400000F054FEFEF7CCFBA0B968780124844046
:104A500095F8435004F036FE8F492EB901EB8501DD
:104A60008A6C22EA040403E001EB85018A6C14439A
:104A70008C640EE095F83C000124844004F022FE92
:104A80008649002E07BF0A6822EA04040A68144314
:104A90000C6004F03BFE70BD7F4920310870704708
:104AA000804A012181401288114205D07B4A126858
:104AB000114201D101F099BEFF20704710B50446A4
:104AC0007949600100EBC400085C01280AD17448F0
:104AD000042C02D00178012904D0042C04D10078E0
:104AE000022801D1FF2010BD7048005DFFF7D8FFFC
:104AF000FF2803D16E48005DFFF7D2FF10BDF0B56F
:104B0000074665484218167E0D18012E0CBF022478
:104B100001244FF42061384618F1CAF8002818BF64
:104B20002C7A0BD1012C19BF2C7840F2FF112C7C70
:104B30004FF48061384618F1BBF820B1214618F1D6
:104B4000B5F9C0B2F0BD012E19BF2C7840F2FF11AB
:104B50002C7C4FF48061384618F1AAF80028EDD17A
:104B6000FF20F0BDF0B505465248AC00005909F1F0
:104B700007FC49496218496A0140906A0840916CF3
:104B800088434D490959084029D02946FFF7B7FF06
:104B900007460C2F04DD024648480521FFF72DF893
:104BA0002946384601F0B8FE454900EB40000E5C4E
:104BB000FF2E04D03046FEF7F3FA08B101E00020E2
:104BC00001BE006929464468384601F121FF241DD1
:104BD00030B138462246294603F104FD00B9FF26CC
:104BE0003046F0BD10B504462D48007840B92E4936
:104BF000600100EBC400085C012801D1042C01D144
:104C0000FF2010BD2F48005DFFF7ACFFFF2803D148
:104C10002D48005DFFF7A6FF10BD30B5012202FA56
:104C200000F4A30A0FD21C4BE50A08D240F2FF128F
:104C300022420AD01A4654180223237604E05B1855
:104C400018741A7630BD214A505430BD00B5FEF7B5
:104C5000A7FA0146487891F84310FFF7DEFF00BD40
:104C600010B5044600F042FDFEF7BAFA38B994F8E0
:104C700043101648403050F82100617803E094F862
:104C80003C1006480068C84000F0010010BD044810
:104C900000787047407E40201C7E4020847E40206B
:104CA0003C7E4020D8794020E0574020CC974020DF
:104CB000D4974020EC954020B87940202A03070083
:104CC00091684020BC974020C4974020247E40201B
:104CD000F0B5ADF1680D16A805F0F2FF18A916A8F9
:104CE00004F02BFD8F4C04F114070DF1160138462A
:104CF00004F039FD002503208DF814508DF81500BF
:104D0000294605A812F181FD874E94F824008DF8FC
:104D10001D508DF81C508DF81F0094F8300008A924
:104D20000B968DF81E006420ADF85600384604F04E
:104D30001AFD8DF826508DF8275007A80C960A9674
:104D4000294612F112FBA089784E40F00040C6F8C7
:104D50004409A068C6F84809208BC6F808086069AD
:104D6000C6F8100816A805F0ABFF16A818A904F09D
:104D7000E4FC16A96846062205F053FA684629465F
:104D80008DF806508DF810500A4602F14AF894F852
:104D9000300094F8242094F84110012301F0CFF959
:104DA00003F0F1FD40F4007003F063FD03F0EEFD4D
:104DB00020F4027003F063FD5D490127C6F880709E
:104DC0002846A1F89200A1F8BA00E231C6F8C070F6
:104DD000088042F2107037640885BE203760706624
:104DE0007062C6F8E400C6F8A40094F82100022816
:104DF00007D1206828B92846394612F17CFF4D4872
:104E000007701AB0F0BD47480021012280F8211038
:104E1000026048480170494947480968C0F87C1B4E
:104E200047490968C0F8801B46490968464AC0F8E6
:104E3000841B072111604549096801607047444996
:104E400000200870704730B50546364C012205F148
:104E50002A0104F10E0005F0E4F9012205F1240114
:104E600004F1080005F0DDF9287A84F82000E868EC
:104E70006060286920606868E06395F8300084F815
:104E80002200287E84F8400094F82000152809DBD1
:104E90001E2807DA94F82000401C84F82000002027
:104EA000012101E00020014612F1FEFC2149002011
:104EB000087028490120087027490870FFF739FC5D
:104EC00026491E4A086810601D4A486810601D4A3D
:104ED000886810600A686FF07840104308602048C6
:104EE0004A681043486088686FF3090088600220B0
:104EF00084F8210030BD1B490020C1F8C400C1F86E
:104F0000D800C1F8E400C1F8E00017480068114A71
:104F1000044901201070104A81F8210008601070C7
:104F20007047C046948A4020F0FFFF3F004C8180CC
:104F30004C5740207C86402008249380F0994020E4
:104F4000F4994020F899402070C59380EC99402056
:104F5000B58A40208D8640208E864020842F938005
:104F6000FF01F01F941710002C488180944A1368A9
:104F70005168908EC91AD38DC31A8B4209D3914BB5
:104F80001B7833B9138EC01A884294BF01200220C7
:104F900000E0002082F839007047894810B590F889
:104FA0003910828E4262B9B1491E27D0491E2BD1D9
:104FB00090F83A10022909DB491E80F83A1041683E
:104FC0000268891A826A8A421ED21CE00262826AE0
:104FD000818D8918818611E090F83D1080F83A1093
:104FE000016A914208D8C368418ED418A14203D9FE
:104FF00099B28A18828605E00A46FBE790F83D10D0
:1050000080F83A100021816210BD6D48826852B16B
:10501000784943690968C91A8A4204D2C18E8186D7
:10502000002180F83E107047654800B590F83B10AD
:1050300081B14FF0000180F83F1090F83C1019B199
:10504000C16D092007F12DFDFFF790FFFFF7A5FFC8
:10505000FFF7DBFF00BD10B5594A4179C37982F8EB
:105060003B104FF4FA714B435386037A4B439385BD
:10507000437A4B43D385837A4B4313860368047981
:105080004B43936083794C4382F83C30037BA4B25A
:10509000D4864B43D360437B9486C07A82F83A30FF
:1050A00082F83D3041430120116510BD524908701E
:1050B000704752490968002011F00F0F18BF0120F6
:1050C000704730B53E4901282AD091F83B0038B3EB
:1050D000484800680C4620606060012584F83F5015
:1050E0000220FFF7E3FF94F83C0078B1002084F839
:1050F000430084F84200FFF7DCFF84F840000322FD
:1051000004F15C0104F1440007F102FDA06850B114
:1051100094F83E0038B984F83E502068606130BD94
:105120000846C169816130BD254890F838100229D0
:1051300002D18169491C81617047214991F83D0084
:10514000CA8E81F83A0000200A628A8681F83F0000
:1051500081F83E00C861886170472748001F0088B9
:1051600070472548C01D007870472348C01C007850
:10517000704700B5224A92F83F0000B3FFF799FF4D
:1051800011460A7ECB6981F84100934209D191F81A
:10519000403033B928B9012081F8430017F187FB6B
:1051A00000BD81F8400091F84200CA610322401C12
:1051B00081F8420001F144005C3107F1A9FC00BD17
:1051C00090804020219A402010B50D4C94F8380072
:1051D00002280ED10868400C0BD394F83B0040B174
:1051E00013F147FC28B916F12BFD10B901480068EE
:1051F000606010BD44548180C8804020444E81804E
:105200009080402010B5984C03F0BDFB206303F064
:10521000BDFB606395480078207095480078607009
:1052200094480078A070944CE06820F0200003F0CF
:1052300020FB206903F027FB0223207E617E0122F0
:1052400000F07DFF10BD10B5874C20786178A27802
:10525000022300F074FF206B03F00BFB606B03F084
:1052600012FB10BD844900B5ADF1180D48694FF02F
:10527000090250B1009203900020019002907F48F3
:1052800005906846032207F143FC06B000BD10B547
:10529000794C4FF01700216819B107F102FC00208A
:1052A000206010BD74490020086088714871087141
:1052B000704730B5FFF7C7FF6F4C204600F106007E
:1052C000007810B1022005F00FFBFFF7EBFF04F1AF
:1052D0001C014FF4007003F010FA00250821A560AE
:1052E000257767480A46FEF788FC0220012117F15E
:1052F000E5FB0C2005F0CAFB284630BD10B504467E
:105300005D48006808B1FFF7C2FFA04710BD00B5B7
:105310005948816821B1012101710F2005F0B6FBC8
:10532000012000BD10B50446072004F0AAF9554934
:105330000B794A791A430CBF89680221216004F075
:10534000A8F910BD18B5406944686846FFF7EAFF40
:105350001034009802280CD14A4A206820F47020AA
:10536000517F090401F4702101432160107F401C2A
:10537000107718BD10B5434CA07E60770020A07751
:105380002069B0F1FF3F02D103F000FB2061E0682B
:10539000B0F1FF3F02D103F0F6FAE0603348217E1E
:1053A000007888420CBF4FF4A07140F2FF1162698F
:1053B000082003F0BDFB0120A0600C2005F066FB77
:1053C00010BD0EB510B9FFF7D5FF0EBD02208DF848
:1053D00002004FF40070694603F08FF90EBD30B53E
:1053E000284CA168002918BF132020D104F10C011A
:1053F00090E82D0081E82D00607EFF2802D11C4836
:105400000078607603F118FF012806D1607E10B1A4
:105410000DF1A9FB08B10B2030BDE07E10B9FFF7FC
:10542000A9FF03E00220012117F160FA012030BD3D
:1054300030B5154CA068022814D0072004F021F9DB
:1054400021794FF0000539B9617929B9A16801299D
:1054500002D10221A160012504F01BF915B10F2032
:1054600005F014FB30BDC046188E4020A19A4020A4
:10547000A29A4020A39A40209C974020A752000067
:105480004A0003009C9740209C9740209B4800784E
:10549000704710B501694C68231D1A7802F00C02A0
:1054A000042A04D0617941F0080161710169C26A7E
:1054B000540A04D322F48072C262028E0A815A789E
:1054C00002F0DF025A701A7822F07302882A04D19F
:1054D0001C8B4FF6EF7222401A8300224A61012290
:1054E0008A6116F1D7FF10BD10B590F8281001227F
:1054F00002FA01F313F00F0F0DD104294FF000044D
:1055000008BF141C05294FF0000308BF131C2343D8
:1055100014BF02210321C06A830B01D300090BD3FE
:105520008A40C2F31910000107D1FFF7AFFF00282E
:105530000CBFCA206A2001E004212420704A515C7B
:10554000081880B210BD10B50446A16821B1091D2C
:1055500094F84A00401802E020694068001DE16AA2
:10556000890909D2017821F07301882906D1008BBD
:1055700000F06000202801D1002010BD002120464D
:1055800002F0C9FC01218140C1F31911090108D1C0
:10559000E16A490903D3002818BF6A2102D1CA2150
:1055A00000E02421574A32F81000411888B210BD9B
:1055B00000B502F09AFC01218140C1F319110901E3
:1055C00014BF24216A214E4A105C411888B200BDE4
:1055D00010B50446A16821B1091D94F84A0040188D
:1055E00002E020694068001DE16A890909D201785A
:1055F00021F07301882906D1008B00F0600020287B
:1056000001D1002010BD0021204602F084FC0121C0
:105610008140C1F31911090108D1E16A490903D395
:10562000002818BF6A2102D1CA2100E02421344A8F
:10563000105C411888B210BD2DE9F0410646904635
:10564000B26822B1121D96F84A00801802E0306953
:105650004068001D96F8287001252B4C05FA07F2CA
:10566000C2F3191212010DD196F841504FEAC70248
:1056700002EB8502A25801FB02F14FEA11314FF013
:1056800000050EE096F841C04FEAC70202EB8C021B
:10569000A2584FEAC10101F1160102FB01F24FEAE3
:1056A000D23101F1030121F003018CB263B9008B07
:1056B00000F06000202807D0F06A800904D230464C
:1056C000FFF786FF001984B2B8F1000F0BD045B97F
:1056D000F06A400903D3002F18BF603402D1C034F0
:1056E00000E01A34A4B22046BDE8F08107490968F9
:1056F000401A882190FBF1F0C0B270471A994020FF
:105700006817402028174020C0154020D09840201E
:10571000F0B50746C868050E284611F15FFF06463A
:10572000387800F00C01042905D18F4C20F00300DB
:105730008428217801D10020F0BD11F0190F12D07A
:10574000B42810D103F1ECFC012804D04FF48040C0
:1057500007F19AFF06E00C2010F1FEFC4FF48040A8
:1057600008F17AF8217811F0240F08D0FF2D02D02B
:10577000284600F073FB3946284609F1FAFA3EB193
:10578000317801208840400902D330460EF112F9E9
:105790000120F0BDF0B505467448ADF1140D694621
:1057A0005CC85CC130F8022B21F8022B30F8022BC8
:1057B00021F8022B6E4C204600F10200007818B34D
:1057C0006178080100EB81002018001D6946CCC8F3
:1057D000CCC130F8022B21F8022B30F8022B21F833
:1057E000022B03F06FFFA178624A491EA170117865
:1057F000491E117003F08AFF6078401C6070607869
:10580000202804BF0020607068464DB11EC81EC528
:1058100030F8021B25F8021B30F8021B25F8021B8A
:1058200005B0F0BD10B5524CA278202AA8BF0020C8
:105830001EDAA278521CA2704E4B1A78521C1A70B3
:1058400023781A0102EB8302A2185060227810011B
:1058500000EB8200201808300E2204F0E2FC2078D1
:10586000401C20702078202804BF002020700120D8
:1058700010BD2DE9FE4F404D0646D5F8E000401C16
:10588000C5F8E0003D48007804F04BFE06F1140432
:10589000A3463069371D810B01F001018846396844
:1058A000000D4FEA517101F00101894696F90A1085
:1058B000A1F11F014FEA4101F1722ED304F10A0058
:1058C00001F1CCF9041C30694FEA104101F00701E5
:1058D0008A461DD094F8670003F1F6F8012817D125
:1058E00094F8660011F186FB007C8DF80000694693
:1058F00000208DF801004FF0804002F0FEFE2048AD
:10590000FEF78AF9022294F86700514603F19EF8E7
:10591000D5F8F000401CC5F8F000304611F18EF9C2
:10592000304611F18BFAB9F1010F4FF00004064631
:105930000ED1B8F1000F0BD139465846FFF7E8FEFB
:10594000B44209D020B93046FBF0BAF8044608E06A
:1059500016B1304611F15AF8D5F8C400401CC5F80C
:10596000C4002046BDE8FE8FD8864020381A40206B
:10597000045040209499402094171000A29A40208F
:10598000F50303008B480078704710B5834C4FF047
:105990000900216819B107F184F80020206010BDCA
:1059A00010B5844C607800F0FE006070012004F0B7
:1059B000E9FC0220A0700020E07020712061FFF758
:1059C000E4FF10BD30B57B4C4FF00005607808B99E
:1059D0004FF0010528B1400803D2022018F1BDFCA8
:1059E00002E0022018F150FCA078A84207D0A57070
:1059F000607800280CBF0120022004F0C3FC30BDF9
:105A000010B56C4C207888B1A07801280ED0714870
:105A1000007810F0110F09D00020E070FFF7B5FFFB
:105A2000607800F0FE006070FFF7CCFF10BD6A48A0
:105A3000604900688860087940F00100087170478B
:105A40005C48017891B1554A4FF000010161116045
:105A5000C17062490A784AB9497839B9017929B9D6
:105A6000417841F001014170FFF7ACBF70475148E8
:105A7000C17801290CD158490A680169891A42691B
:105A80005218322A026103DB0221C170FFF77DBF89
:105A90007047484800B5ADF1180D0169322908DAA0
:105AA000C178C1B9417841F001014170FFF78AFF27
:105AB00011E00391092100910021019102914849CF
:105AC00005910121C1704449096841616846334923
:105AD000032207F118FB06B000BD70B5354C002558
