:10000000D39202000E00000001131920A259000033
:100010004603010000000000000000000000000096
:10002000028D390000000000000000000000000008
:100030000000000296E80000000000000000000040
:1000400000000000000000000000000000000000B0
:1000500000000000000000000000000000000000A0
:10006000000000028C2600000000000295E900005C
:1000700000000002962900000000000296690000BE
:100080000504030200030605040300040605040238
:1000900000040807060400060A09080600080A0901
:1000A000080400080A09080200080A0908000008F4
:1000B0001211100800101A19181000182221201807
:1000C00000202221201000202221200800202221AF
:1000D0001C080020222114080020222018080020DB
:1000E000313020100030313018000030312F101026
:1000F0000030312C10100030312810000030312039
:100100001000003031101000003004040405040415
:1001100005070707080A04040404060A0C0D050570
:100120000707080B0E0F04040405070709090C0E46
:10013000101204040505060A1113090909090C0E19
:10014000111300000000000000000024262A181AE5
:100150001D1F2127292A0000001F23282A2C000404
:10016000000400080010001800240030004800605F
:10017000009000C000D80050007800A000C80140E6
:10018000019001E00230012C014001E002D003E8BF
:1001900004B0064007D00002000200040008000C72
:1001A000001200180024003000480060006C002895
:1001B000003C0050006400A000C800F0011800647A
:1001C00000A000F0016801F40258032003E80202D5
:1001D000020202020303040405070404070A0A0CCE
:1001E0000C12050707080B12243C01010101010252
:1001F00003040506070801020304050607080506AF
:100200000708090A0B0C221F1E181020000000000E
:1002100000000000000000000000000000000000DE
:1002200000000000000000000000000000000000CE
:1002300000000000000000000000000000000000BE
:1002400000000000000000000000000000000000AE
:10025000000000000000000000000000000000009E
:10026000000000000000000000000000000000008E
:10027000000000000000000000000000000000007E
:10028000000000000000000000000000000000006E
:10029000000000000000000000000000000000005E
:1002A000AD07EDC4135407FF908EDDF0ED541FFE33
:1002B000A3F0EF25E02422F8E6FA08E6FBEE2BFF98
:1002C000E43AFE74842FF58274043EF583E0547F93
:1002D000908ED5F0E0F9541FA3F075F009EDA42439
:1002E0006BF582E5F03488F583E0FF908ED8F0ED71
:1002F00025E024E2F582E43486F583E0FBA3E09078
:100300008ED9CBF0A3EBF0ED25E024E9F582E434BF
:100310008CF583E0FBA3E0908EDBCBF0A3EBF090B9
:100320008ED6E0FE25E0243EF582E43441F583E4F8
:1003300093FA740193FBED25E024E4F582E434871D
:10034000F583EAF0A3EBF0EEC39F40030243DB909A
:100350008ED6E0FF746B2DF582E4348EF583EFF0DA
:10036000EF04908ED7F0908ED8E0FF908ED7E0FE0D
:10037000D39F4003024417EEC394104021EE24F0B3
:10038000FF74017E00A807088005C333CE33CED8A2
:10039000F9FF908ED9E05EFEA3E05F4E7027908E4D
:1003A000D7E0FFC39410504A74017E00A80708806C
:1003B00005C333CE33CED8F9FF908EDBE05EFEA3CB
:1003C000E05F4E602D908ED7E0FF64136009EF640C
:1003D000126004EFB4110D908ED9E030E006908EDB
:1003E000D77418F0908ED7E0908ED6F0908ED5F01E
:1003F0008045908ED7E004F0024346908ED8E0FC12
:10040000908ED6E0FF6C7073746B2DF582E4348EA1
:10041000F583EFF075F009EDA4246DF582E5F03475
:1004200088F583E0B40110E930E602FF22908ED611
:10043000E04440908ED5F0908ED6E0FF25E0247603
:10044000F582E43441F583E493FA740193FBEF25DC
:10045000E0243EF582E43441F5837401932BFFE4FC
:10046000933AC313FEEF13FFED25E024E4F582E495
:100470003487F583EEF0A3EFF08066908ED6E0D35C
:100480009C405E908ED8E0FF746B2DF582E4348E34
:10049000F583EFF0908ED6EFF0908ED5F0FCA3E0D0
:1004A000FF25E02476F582E43441F583E493FA7481
:1004B0000193FBEF25E0243EF582E43441F583749B
:1004C00001932BFFE4933AC313FEEF13FFED25E0F6
:1004D00024E4F582E43487F583EEF0A3EFF0AF0473
:1004E0002274402DF582E43486F583E4F0908ED5B5
:1004F000E04480908EDD128682908ED5E04480FFAD
:1005000022900018E054FEF07F107E00D310AF015F
:10051000C3C0D0EF1F70011E144E70F7D0D092AF41
:10052000220000029968029974E4908EB4F0A3F05E
:10053000908EC3F0129488900002E054E0908F37C0
:1005400060057401F080037402F09000F8E0540339
:10055000908EBAF0E014600E24FE60162403701E24
:10056000E4908F0E8005908F0E7401F0908F36F01E
:10057000800C908F0E7403F0908F367401F090FE13
:100580005FE02413F582E434FDAF82908EFEF0A389
:10059000EFF0908EFFE02420FE908EFEE03400907D
:1005A0008F00F0A3CEF0E4F522F523752440F52565
:1005B000F518F519908F04F0A3F0908F2704F0A39D
:1005C000F0E4908F33F0A3F0908F3CF0908EBFF06A
:1005D000A3F0A3F0A3F0A2AF33908EBAF0C2AF9015
:1005E0000080E044801244E7908EBAE024FF92AF8E
:1005F000127762908EB4E06401F0E0FD7C092C90EB
:1006000001C4F07A45EAA3F0ED2CFF74C42525F56A
:100610008274013524F583EFF0EAFF74C52525F5D2
:100620008274013524F583EFF09000F8E054031450
:10063000600E24FE60162403701EE4908F0E800569
:10064000908F0E7401F0908F36F0800C908F0E74A6
:1006500003F0908F367401F0900081E0C3135401D1
:10066000908F02F0900053E0C3135401908F03F079
:10067000900081E0F540900053E0F541E54020E72F
:1006800028908F27E07014A2AF33908EBCF0C2AFD9
:100690001244E1908EBCE024FF92AFE4908F04F00E
:1006A000F518908F2704F08037908F27E064017051
:1006B0002F852382852283A3A3A3E030E722A2AF64
:1006C000E433908EBCF0C2AFE4FF126600908EBCA3
:1006D000E024FF92AFE4908F27F0908EBFE004F00B
:1006E000E54120E02B908F28E07017A2AF33908E69
:1006F000BCF0C2AF90001A1244E4908EBCE024FF1C
:1007000092AFE4908F05F0F519908F2804F0802ABD
:10071000908F36E06024908F28E0B4011D852582FB
:10072000852483A3A3A3E030E7107F01126600E4D1
:10073000908F28F0908EC0E004F0E4908EB6F09098
:100740008F36E0FE908EB6E0FFD39E5079908F04F6
:10075000E07003EF6067908F05E07005EF64016063
:100760005C74182FF8E630E60FC2AF74182FF8E665
:1007700054BFF6D2AF1258E0908EB6E0FF2418F8BE
:10078000E630E70CC2AF74182FF8E6547FF6D2AF0C
:10079000908EB6E0FF2418F8E630E421C2AF74185A
:1007A0002FF8E654EFF6D2AF74C12FF582E4348E01
:1007B000F583E004F0908EB6E0FF126976908EB675
:1007C000E004F002471F908F35E0B40105C2AF028C
:1007D000951E74C02523F58274013522F583E090BF
:1007E0008EBAF0E054E064A06003024A1DE05418A1
:1007F000131313541FA3F0E4908EB7F0908EB7E05C
:10080000FFD394014003024A1D908EBBE0600302B7
:100810004911908EB7E0FE2481F582E4348FF58390
:10082000E0FDEE25E02422F8E6FA08E62430F58221
:1008300074063AF583EDF0908EB7E0FE2469F8E691
:10084000FDEE25E02422F8E6FA08E62431F582746C
:10085000063AF583EDF0908EB7E0FE2478F582E459
:10086000348FF583E0FDEE25E02422F8E6FA08E671
:100870002432F58274063AF583EDF0908EB7E0FEEF
:10088000247EF582E4348FF583E0FDEE25E024221A
:10089000F8E6FA08E62433F58274063AF583EDF0BB
:1008A000908EB7E0FE2485F582E4348FF583E0FD79
:1008B000EE25E02422F8E6FA08E62434F5827406F0
:1008C0003AF583EDF0908EB7E0FE2467F8E6FDEE92
:1008D00025E02422F8E6FA08E62435F58274063A83
:1008E000F583EDF0908EB7E0FE2476F582E4348F48
:1008F000F583E0FDEE25E02422F8E6FA08E624364A
:10090000F58274063AF583EDF0908EB7E0FE24741C
:10091000F582E4348FF583E0FDEE25E02422F8E64D
:10092000FA08E62437F58274063AF583EDF0024AB8
:1009300014908EBBE064016003024A14908EB7E00D
:10094000FE247CF582E4348FF583E0FDEE25E0247F
:1009500022F8E6FA08E62430F58274063AF583EDCB
:10096000F0908EB7E0FE2466F582E4348FF583E0E4
:10097000FDEE25E02422F8E6FA08E62431F582743B
:10098000063AF583EDF0908EB7E0FE2483F582E41D
:10099000348FF583E0FDEE25E02422F8E6FA08E640
:1009A0002432F58274063AF583EDF0908EB7E0FEBE
:1009B000247AF582E4348FF583E0FDEE25E02422ED
:1009C000F8E6FA08E62433F58274063AF583EDF08A
:1009D000908EB7E0FE246AF582E4348FF583E0FD63
:1009E000EE25E02422F8E6FA08E62434F5827406BF
:1009F0003AF583EDF0908EB7E0FE2468F582E4349A
:100A00008FF583E0FDEE25E02422F8E6FA08E624DF
:100A100035F58274063AF583EDF0908F0EE0FEEF27
:100A200025E02422F8E6FC08E62436F58274063C2C
:100A3000F583EEF0908EB7E004F00247DC908EBABA
:100A4000E054E064206003024E79E054181313135D
:100A5000541FA3F0E4908EB7F0908EB7E0FDD394CE
:100A6000014003024E79908EBAE05407908EB8F0A0
:100A7000EDC43354E0FFE0F92FA3F0908EBBE060AB
:100A800003024B2C908EB9E0FD75F009A42469F5A2
:100A900082E5F03488F583E0FAA3E0FB908EB7E0BE
:100AA000FC25E02422F8E6FE08E6FFEEC313FEEF85
:100AB0001325E0FFEE33FE74302FF58274063EF509
:100AC00083EAF0A3EBF075F009EDA42467F582E565
:100AD000F03488F583E0FAA3E0FBEC25E02422F86B
:100AE000E6FE08E6FFEEC313FEEF1325E0FFEE334C
:100AF000FE74322FF58274063EF583EAF0A3EBF024
:100B0000908EB9E0FD25E024E9F582E4348CF5838C
:100B1000E0FAA3E0FB908EB7E0FC25E02422F8E6A3
:100B2000FE08E6FFEEC313FEEF1325E0FFEE33FEF3
:100B300074342FF58274063EF583EAF0A3EBF0EDF2
:100B400025E024E2F582E43486024E43908EBBE039
:100B500064016003024C83908EB9E0FF75F009A434
:100B6000246BF582E5F03488F583E0FE908EB7E0E3
:100B7000FD25E02422F8E6FA08E62430F582740622
:100B80003AF583EEF075F009EFA4246CF582E5F0F8
:100B90003488F583E0FFED25E02422F8E6FC08E642
:100BA0002431F58274063CF583EFF0908EB9E0FFB6
:100BB00075F009A4246DF582E5F03488F583E0C46E
:100BC0003354E049FE908EB7E0FD25E02422F8E69C
:100BD000FA08E62432F58274063AF583EEF074647E
:100BE0002FF582E43487F583E0FFED25E02422F839
:100BF000E6FA08E62433F58274063AF583EFF0ED61
:100C000025E02422F8E6FE08E6FFE92FFDE43EFC9D
:100C100074842DF58274043CF583E0FD74342FF563
:100C20008274063EF583EDF0908EB9E02440F582A3
:100C3000E43486F583E0FF908EB7E0FE25E02422C1
:100C4000F8E6FC08E62435F58274063CF583EFF0FF
:100C5000EEC43354E024A4F582E43487F583E582BE
:100C600029F582E43583F583E0FFEE25E02422F8C0
:100C7000E6FC08E62436F58274063CF583EFF07452
:100C8000292EF582E4348FF583E0FFEE25E024225F
:100C9000F8E6FC08E62437F58274063CF583EFF0AD
:100CA000024E70908EBBE064026003024D79908E1C
:100CB000B9E0FD75F005A42400F582E5F03484F573
:100CC00083E0FB908EB7E0FC25E02422F8E6FE08E6
:100CD000E6FFEEC313FEEF1325E0FFEE33FE7430A4
:100CE0002FF58274063EF583E4F0A3EBF075F00572
:100CF000EDA42401F582E5F03484F583E0FBEC25D6
:100D0000E02422F8E6FE08E6FFEEC313FEEF13250B
:100D1000E0FFEE33FE74322FF58274063EF583E475
:100D2000F0A3EBF0908EB9E0FD75F005A42402F578
:100D300082E5F03484F583E0FB908EB7E0FC25E09B
:100D40002422F8E6FE08E6FFEEC313FEEF1325E0CB
:100D5000FFEE33FE74342FF58274063EF583E4F023
:100D6000A3EBF075F005EDA42403F582E5F03484DF
:100D7000F583E0FBEC25E02422F8E6FE08E6FFEE32
:100D8000C313FEEF1325E0FFEE33FE74362FF5821A
:100D900074063EF583E4024E6C908EBBE064036003
:100DA00003024E70908EB9E0FD75F005A42404F5A1
:100DB00082E5F03484F583E0FB908EB7E0FC25E01B
:100DC0002422F8E6FE08E6FFEEC313FEEF1325E04B
:100DD000FFEE33FE74302FF58274063EF583E4F0A7
:100DE000A3EBF0ED25E024A7F582E4348AF583E057
:100DF000FAA3E0FBEC25E02422F8E6FE08E6FFEE8D
:100E0000C313FEEF1325E0FFEE33FE74322FF5829D
:100E100074063EF583EAF0A3EBF0908EB9E0FD2571
:100E2000E02427F582E4348BF583E0FAA3E0FB901D
:100E30008EB7E0FC25E02422F8E6FE08E6FFEEC3CC
:100E400013FEEF1325E0FFEE33FE74342FF58274AA
:100E5000063EF583EAF0A3EBF0ED25E024C0F58231
:100E6000E43485F583E0FAA3E0FBEC25E02422F8E6
:100E7000E6FE08E6FFEEC313FEEF1325E0FFEE33B8
:100E8000FE74362FF58274063EF583EAF0A3EBF08C
:100E9000908EB7E004F0024A39900018E0908EBDC1
:100EA000F090001AE0908EBEF0908EBAE054E064AC
:100EB0004060030245D3E05418131313541FA3F0EA
:100EC000E4908EB7F0908EB7E0FFD3940140030218
:100ED00045D3908EBBE06003024FD9908EB7E0FE01
:100EE0002440F8E6FDEE25E02422F8E6FA08E624A0
:100EF00030F58274063AF583EDF0908EB7E0FE246B
:100F000004F582E4348FF583E0FDEE25E02422F839
:100F1000E6FA08E62431F58274063AF583EDF0909E
:100F20008EB7E0FE2427F582E4348FF583E0FDEEF2
:100F300025E02422F8E6FA08E62432F58274063A1F
:100F4000F583EDF0908EB7E0FE24BDF582E4348E9B
:100F5000F583E0FDEE25E02422F8E6FA08E62433E6
:100F6000F58274063AF583EDF0908EB7E0FE24BF6B
:100F7000F582E4348EF583E0FDEE25E02422F8E6E8
:100F8000FA08E62434F58274063AF583EDF0908E83
:100F9000B7E0FE24C1F582E4348EF583E0FDEE2552
:100FA000E02422F8E6FA08E62435F58274063AF5DC
:100FB00083EDF0908EB7E0FE2433F582E4348FF5B4
:100FC00083E0FDEE25E02422F8E6FA08E62436F573
:100FD0008274063AF583EDF0908EB7E0FE2418F89F
:100FE000E6FDEE25E02422F8E6FA08E62437F5824D
:100FF00074063AF583EDF08047908EBBE064017093
:101000003F908EB7E0FE2402F582E4348FF583E052
:10101000FDEE25E02422F8E6FA08E62430F5827495
:10102000063AF583EDF0908F0EE0FEEF25E02422E6
:10103000F8E6FC08E62431F58274063CF583EEF010
:10104000908EB7E004F0024EA58F2E9001C4742953
:10105000F07450FFA3F074C42525F5827401352483
:10106000F5837429F074C52525F58274013524F5BE
:1010700083EFF0852E38E53825E02422F8E6FE08D7
:10108000E62434F58274013EF583E0FFE53825E07F
:1010900025E02408F8E6FEEF5EFFE53825E025E0D0
:1010A0002410F8A607E53825E02422F8E6FE08E635
:1010B0002436F58274013EF583E0FFE53825E0250E
:1010C000E0240AF8E6FEEF5EFFE53825E025E0249F
:1010D00012F8A607E53825E02422F8E6FE08E62403
:1010E00037F58274013EF583E0FFE53825E025E021
:1010F000240BF8E6FEEF5EFFE53825E025E024133B
:10110000F8A607E53825E025E02410F8E620E003FE
:10111000025322E53825E02422F8E6FE08E62434CE
:10112000F58274013EF5837401F0E538701AE538F4
:1011300025E02422F8E6FE08E62450F58274023EFB
:10114000F583E04404F08018E53825E02422F8E631
:10115000FE08E62450F58274023EF583E054FBF06D
:1011600085D13085D23185D33285D43385D5348548
:10117000D63585D73685D937E5375440C313FFE5D3
:101180003654206F7003025245E53730E5030252B2
:1011900045E535541FFFE538C43354E02FF52FE5FE
:1011A00030543F908EABF0E534541FFFE52F25E01F
:1011B00024E7F582E4348BF583E48FF0128609E5A9
:1011C00036541FFFE52F25E024C0F582E43485F571
:1011D00083E48FF0128609908EABE0D39404400331
:1011E0007404F0E536541FFF908EABE0FE75F005F9
:1011F000E52FA42400F582E5F03484F583E5822E02
:10120000F582E43583F583E02FF0E53720E624E529
:1012100036541FFFE52F25E024A7F582E4348AF534
:1012200083E48FF0128609E53230E739AF2F128A56
:10123000E58032E536541FFFE52F25E02427F582AF
:10124000E4348BF583E48FF0128609E53230E7153C
:10125000E532547FFD908EABE0FBE536541FF53C44
:10126000AF2F128CB574692538F8E670030253224B
:1012700074812538F582E4348FF583E070030252DF
:10128000F3E53825E02422F8E6FE08E6245BF58243
:1012900074013EF583E4F0E53825E02422F8E6FE0B
:1012A00008E6243CF58274013EF5837404F0E538C9
:1012B00025E02422F8E6FE08E6241BF58274043EAD
:1012C000F583E0547F647F7079F53D753E14F53FFA
:1012D0007D58128DBCE53825E02422F8E6FE08E6AC
:1012E000245BF58274013EF5837405F0E53825E052
:1012F0002422F8E6FE08E62492F58274063EF58381
:101300007401F074762538F582E4348FF583740126
:10131000F0802FE53825E02422F8E6FE08E6241BBD
:10132000F58274043EF583E0547FFFBF7F14747E22
:101330002538F582E4348FF583E0FD7B01AF381268
:101340007E8DE53825E025E02410F8E630E134E52F
:101350003825E02422F8E6FE08E62434F5827401FC
:101360003EF5837402F085D11A85D21B85D31C8586
:10137000D41D85D51E85D61F85D72085D921AF38A8
:101380001298E8E53825E025E02410F8E630E31768
:10139000E53825E02422F8E6FE08E62434F58274D8
:1013A000013EF5837408F0E53825E025E02410F8C7
:1013B000E630E42EE53825E02422F8E6FE08E624AF
:1013C00034F58274013EF5837410F074182538F8F2
:1013D000E64410F674332538F582E4348FF583E063
:1013E00004F0E53825E025E02410F8E630E617E5BE
:1013F0003825E02422F8E6FE08E62434F58274015C
:101400003EF5837440F0E53825E025E02410F8E649
:1014100020E5030254ECE53825E02422F8E6FE0836
:10142000E6FF24CFF58274013EF583E030E7477490
:10143000CF2FF58274013EF583E0547FF0E5382527
:10144000E02422F8E6FE08E62434F58274013EF535
:10145000837420F0900082E044801244E790008082
:10146000E0547F1244E71244E190001A1244E490E1
:10147000FD00E04401F0E53825E02422F8E6FE080E
:10148000E6FF24CFF58274013EF583E030E62B744D
:10149000CF2FF58274013EF583E054BFF0E5382587
:1014A000E02422F8E6FE08E62434F58274013EF5D5
:1014B000837420F0908F357401F0E53825E0242204
:1014C000F8E6FE08E6FF24CFF58274013EF583E0DE
:1014D00030E53974CF2FF58274013EF583E054DF97
:1014E000F0E53825E02422F8E6FE08E62434F5820B
:1014F00074013EF5837420F01244E190001A124406
:10150000E4900003E054FB1244E780FEE53825E058
:1015100025E02412F8E630E017E53825E02422F82B
:10152000E6FE08E62435F58274013EF5837401F089
:10153000E53825E025E02412F8E630E120E53825FD
:10154000E02422F8E6FE08E62436F58274013EF532
:10155000837402F074182538F8E64440F6E538251F
:10156000E025E02412F8E630E01CE53825E02422EE
:10157000F8E6FE08E62436F58274013EF583740130
:10158000F0AF38128202E53825E025E02412F8E6B3
:1015900020E2030256A1E53825E02422F8E6FE0801
:1015A000E62436F58274013EF5837404F0746725F1
:1015B00038F8E6640160030256A174692538F8E63C
:1015C00070030256A174692538F8E664027079E563
:1015D0002E25E02422F8E6FE08E624ABF582740608
:1015E0003EF583E0FF74662538F582E4348FF58399
:1015F000EFF0E52E25E02422F8E6FE08E624AAF521
:101600008274063EF583E0FF747C2538F582E4346D
:101610008FF583EFF074662538F582E4348FF58317
:10162000E0700B747C2538F582E4348F8009746691
:101630002538F582E4348FF583E0FF74662538F5AC
:1016400082E4348FF583EFF0746A2538F582E43450
:101650008FF583E0600E746A2538F582E4348FF5E7
:1016600083E014F074682538F582E4348FF583E460
:10167000F0E53825E02422F8E6FE08E62457F58256
:1016800074013EF583E4F0E53825E02422F8E6FE17
:1016900008E6243CF58274013EF5837402F07485FB
:1016A0002538F582E4348FF583E054FDF074852508
:1016B00038F582E4348FF583E054EFF0AF381284CC
:1016C000CDE53825E025E02412F8E630E37AE53868
:1016D00025E02422F8E6FE08E62436F58274013E71
:1016E000F5837408F074672538F8E664017059745E
:1016F000692538F8E66051E53825E02422F8E6FE51
:1017000008E62457F58274013EF583E4F0E53825B8
:10171000E02422F8E6FE08E6243CF58274013EF55A
:10172000837402F0E4F53D753E03F53F7D54128D60
:10173000BCE53825E02422F8E6FE08E62457F582C9
:1017400074013EF5837405F0E53825E025E02412A8
:10175000F8E620E4030257DEE53825E02422F8E627
:10176000FE08E62436F58274013EF5837410F074A9
:10177000672538F8E6640160030257DE746925388E
:10178000F8E6607AE53825E02422F8E6FE08E6244B
:1017900057F58274013EF583E4F0E53825E0242214
:1017A000F8E6FE08E6243CF58274013EF5837402F7
:1017B000F074832538F582E4348FF583E4F0748582
:1017C0002538F582E4348FF583E054FDF0748525E7
:1017D00038F582E4348FF583E054037021747A2560
:1017E00038F582E4348FF583E4F0747E2538F58291
:1017F000E4348FF583E0FD7B01AF38127E8DE53850
:1018000025E025E02412F8E630E52DE53825E02432
:1018100022F8E6FE08E62436F58274013EF583746C
:1018200020F074672538F8E6B4010D74692538F89E
:10183000E66005AF3812985CE53825E025E0241213
:10184000F8E630E669E53825E02422F8E6FE08E609
:101850002436F58274013EF5837440F074672538B0
:10186000F8E66401704874692538F8E660407485CC
:101870002538F582E4348FF583E054FEF074852535
:1018800038F582E4348FF583E054037021747A25AF
:1018900038F582E4348FF583E4F0747E2538F582E0
:1018A000E4348FF583E0FD7B01AF38127E8DE5389F
:1018B00025E025E02413F8E630E11CE53825E02496
:1018C00022F8E6FE08E62437F58274013EF58374BB
:1018D00002F0AF381295A79001C47429F07450FF3C
:1018E000A3F074C42525F58274013524F583742989
:1018F000F074C52525F58274013524F583EFF022B7
:101900008F42E542C43354E0908ED4F0908EC4F000
:1019100074292542F582E4348FF583E0FF908ED45C
:10192000E02FFFE433FE908EC4E0FBC39FEE6480A3
:10193000F874809840030260FFE0FE541F908ED23E
:10194000F075F009EEA4246EF582E5F03488F58395
:10195000E0640160030260F6EB25E024C0F582E458
:101960003485F583E0FEA3E0D39400EE94005003A9
:101970000260F6908EC4E075F005A42400F974842A
:1019800035F0754601F5478948E0FF25E024C0F5AC
:1019900082E43485F583A3E0908ECBF0EF25E0243C
:1019A000A7F582E4348AF583E0FFA3E0908ECCCFE4
:1019B000F0A3EFF0E54225E02422F8E6FE08E6FF7A
:1019C000908ED2E02FFFE43EFE74842FF5827404E3
:1019D0003EF583E0543F908EC7F0E0FE541FA3F025
:1019E000908EC4E0FF75F009A4246BF582E5F03415
:1019F00088F583E0908ECFF074EB2FF582E4348D80
:101A0000F583E0C394054003025BD9908ECFE0FFDD
:101A1000908EC8E09F4013908ECFE0908EC8F0EE7D
:101A20005440FE908EC7F0EF4EF0908EC8E0FF90CD
:101A3000412293FE908EC4E02467F582E4348CF555
:101A400083E0C39E4006EF9040EA8007908EC8E096
:101A500090410693908ECEF0908ECEE075F006A465
:101A60002460F9744035F07543FFF5448945908E44
:101A7000C7E09041CA93FFD3908ECDE09F908ECC6B
:101A8000E09400400D908EC4E0FFE4FD12759002DA
:101A90006097908EC4E025E024E4F582E43487F575
:101AA00083E0F549A3E0F54AAB43AA44A9451234C3
:101AB00005FFAB46AA47A9481234058FF0A4AEF043
:101AC000254AF54AEE3549F549AB43AA44A9459064
:101AD00000011285A8FFAB46AA47A9489000011251
:101AE00085A88FF0A4AEF0254AF54AEE3549F549B0
:101AF000AB43AA44A9459000021285A8FFAB46AAB1
:101B000047A9489000021285A88FF0A4AEF0254A9C
:101B1000F54AEE3549F549AB43AA44A9459000037F
:101B20001285A8FFAB46AA47A9489000031285A8D2
:101B30008FF0A4AEF0254AF54AEE3549F549AB439E
:101B4000AA44A9459000041285A8FFAB46AA47A95C
:101B5000489000041285A88FF0A4AEF0254AF54AFB
:101B6000EE3549F549AB43AA44A9459000051285D5
:101B7000A8FF908ECBE08FF0A4FFAEF0D3E54A9F94
:101B8000E5499E400CE54A9FF54AE5499EF54980A6
:101B900005E4F549F54A908EC4E0FF25E024E4F51C
:101BA00082E43487F583E549F0A3E54AF0908EC7D7
:101BB000E025E0243EF582E43441F583C3740193CB
:101BC000954AE49395495006124280025FD1908E67
:101BD000C7E025E02476F582E43441F583D374012F
:101BE00093954AE49395495003025FD1908EC4E0E7
:101BF000FF7D01127590025FD1908EC4E0FF24EB4F
:101C0000F582E4348DF583E064056003025E21759E
:101C1000F009EFA4246FF582E5F03488F583E064E1
:101C2000017003025E2174652542F582E43488F573
:101C300083E0FFB4030B908EC8E0C3941940558035
:101C400036EFB4020B908EC8E0C394114046802753
:101C500074652542F582E43488F583E0FFB4010B16
:101C6000908EC8E0C3940A402B800CEF7019908EC0
:101C7000C8E0C39403401D74A72542F582E4348C68
:101C8000F5837401F0800D74A72542F582E4348C4D
:101C9000F583E4F0908EC4E0FF24A7F582E4348B52
:101CA000F583E0908ED1F074672FF582E4348CF5E3
:101CB00083E0FFC394305003025D8B74A72542F587
:101CC00082E4348CF583E064016003025D8B908EC6
:101CD000C4E024A9F582E4348CF583E0640A6056FC
:101CE000908EC4E0FEEF2405FDE433FC74822EF5F3
:101CF00082E43486F583E0FFD39DEC6480F8748041
:101D0000985033EF2405FDE433FC74672EF582E42C
:101D1000348CF583E0D39DEC6480F8748098501681
:101D2000908EC4E0242BF582E4348EF583E0FF909E
:101D30008EC8E06F6056908EC4E02467F582E4346C
:101D40008CF583E0FFD394444008908ED17405F065
:101D50008011EFD3943A908ED140057403F0800344
:101D60007401F0908EC4E0FF2467F582E4348CF5B2
:101D700083E0FE74822FF582E43486F583EEF090E2
:101D80008EC4E024A9F582E4348C802F908EC4E0C8
:101D9000FF24EBF582E4348DF583E4F074A92FF58C
:101DA00082E4348CF583E004F08014E4908ED1F06A
:101DB000908EC4E024EBF582E4348DF583E4F0905A
:101DC0008EC8E0FF908EC4E0FE242BF582E4348EB2
:101DD000F583EFF0908ED1E0FF74A72EF582E43406
:101DE0008BF583EFF0EE30E02FEFC454F0908ED1FE
:101DF000F0A3E0C313FF7E00E54225E02422F8E6CD
:101E0000FC08E62FFDEE3CFC74A42DF58274043C26
:101E1000F583E0540F025FA4908ED2E0C313FF7EDF
:101E200000E54225E02422F8E6FC08E62FFDEE3C22
:101E3000FC74A42DF58274043CF583E054F0025F39
:101E4000A4908EC4E0FF24EBF582E4348DF583E0AA
:101E500064066003025FD175F009EFA4246FF58278
:101E6000E5F03488F583E064017003025FD1908E61
:101E7000C4E024A7F582E4348BF583E0908ED1F0A2
:101E8000E4F549F54A9041EB93FF908ECBE08FF05B
:101E9000A4FF908EC9E5F0F0A3EFF0E4908EC5F0BA
:101EA000AB46AA47A948908EC5E0FFF5827583002E
:101EB0001285A8FEEF9041E693FFEE8FF0A4AEF0FE
:101EC000254AF54AEE3549F549C3908ECAE0954A50
:101ED000908EC9E09549400A908EC5E004F0E0B4C8
:101EE00005BE908EC5E0C313F0908ED1E0FFB40123
:101EF0000D908EC5E07020908ED104F08045EFB437
:101F0000031C908EC5E0FF7005908ED1802DEFB43C
:101F10000105908ED18029E4908ED1F08025908E9D
:101F2000D1E0B4051E908EC5E0FF7008908ED1748C
:101F300005F0800FEF908ED1B401057403F080039B
:101F40007401F0D3908ECDE09405908ECCE0940097
:101F50004005E4908ED1F0908ED1E0FF908EC4E0E9
:101F6000FE24A7F582E4348BF583EFF0EE30E02E0B
:101F7000EFC454F0908ED1F0A3E0C313FF7E00E5D0
:101F80004225E02422F8E6FC08E62FFDEE3CFC7436
:101F9000A42DF58274043CF583E0540F8026908EC6
:101FA000D2E0C313FF7E00E54225E02422F8E6FCE0
:101FB00008E62FFDEE3CFC74A42DF58274043CF57C
:101FC00083E054F0F0E54225E02422F8E6FC08E640
:101FD0002FFFEE3CFE74A42FF58274043EF583C0FF
:101FE00083C082E0FF908ED1E0FEEF4ED082D0839E
:101FF000F0908EC4E0FF24EBF582E4348DF583E0AD
:10200000D39405500F74EB2FF582E4348DF583E003
:1020100004F0800F908EC4E024EBF582E4348DF55B
:1020200083E4F0908EC4E075F009A4246CF582E599
:10203000F03488F583E0908ED0F0E54225E024224C
:10204000F8E6FE08E6FF908ED2E0F92FFFE43EFEB0
:1020500074842FF58274043EF583E0541FC3940901
:102060005005908ED3801174842FF58274043EF550
:1020700083E0908ED320E2057408F080037404F0AE
:10208000E960116420600D908ED0E0FF908ED3E067
:10209000C39F5008908ED3E0908ED0F0908ED0E009
:1020A000FFE54225E02422F8E6FC08E62480F582DC
:1020B00074043CF583EFF0AB46AA47A948E41285C7
:1020C000D5AB46AA47A9489000011285E7900002C7
:1020D000E41285E7900003E41285E7900004E4121F
:1020E00085E7908EC4E0FF25E024C0F582E43485C6
:1020F000F583E4F0A3F0EF25E024A7F582E4348A29
:10210000F583E4F0A3F0EF25E02427F582E4348B97
:10211000F583E4F0A3F0908EC4E004F00258F022BE
:102120008F438D44E543C43354E02544908EE2F060
:10213000E0FD2464F582E43487F583E01460401404
:10214000605514606A1470030261BB14700302616D
:10215000D31470030261EB24FA24FC4003026213DF
:1021600024106003026289908EE2E0FF25E024E9FA
:10217000F582E4348CF58374F0F0A37415804590F7
:102180008EE2E0FF25E024E9F582E4348CF58374E7
:10219000F0F0A37410802D908EE2E0FF25E024E99A
:1021A000F582E4348CF58374F0F0A3740580159007
:1021B0008EE2E0FF25E024E9F582E4348CF58374B7
:1021C000F0F0A3E4F0EF25E024E2F582E43486F5B4
:1021D00083740FF0A3748FF0026289908EE2E0FFA7
:1021E00025E024E9F582E4348CF583740FF0A374C0
:1021F000F5802D908EE2E0FF25E024E9F582E434BD
:102200008CF583740FF0A374F08015908EE2E0FFDC
:1022100025E024E9F582E4348CF583E4F0A3740D21
:10222000F0EF25E024E2F582E43486F583E4F0A3C0
:10223000F08076E54325E02422F8E6FA08E6FB2460
:1022400053F58274043AF583E0FE74522BF58274E0
:10225000043AF583E07A002400FFEA3EFEED25E033
:1022600024E2F582E43486F583EEF0A3EFF0E54353
:1022700025E02422F8E6FA08E6FB2451F5827404EE
:102280003AF583E0FE74502BF58274043AF583E04E
:102290007A002400FFEA3EFEED25E024E9F582E421
:1022A000348CF583EEF0A3EFF0908EE2E0FF25E0B2
:1022B00024E9F582E4348CF583C083C082E0FCA37A
:1022C000E0FD75F009EFA42469F582E5F03488F5A6
:1022D00083E0FEA3E0FFEC5EFEED5FFFD082D083E3
:1022E000EEF0A3EFF0908EE2E0FF25E024E2F5822D
:1022F000E43486F583C083C082E0FCA3E0FD75F082
:1023000009EFA42467F582E5F03488F583E0FEA3A5
:10231000E0FFEC5EFEED5FFFD082D083EEF0A3EF36
:10232000F0908EE2E0FD25E024E2F582E43486F5CB
:1023300083E0FEA3E04E603D75450B74017E00A86E
:1023400045088005C333CE33CED8F9FF908EE2E046
:1023500025E024E2F582E43486F583E05EFEA3E026
:102360005F4E6006E5452410805E1545E545C39443
:102370000050C88057ED25E024E9F582E4348CF55F
:1023800083E0FEA3E04E603F75450F74017E00A818
:1023900045088005C333CE33CED8F9FF908EE2E0F6
:1023A00025E024E9F582E4348CF583E05EFEA3E0C9
:1023B0005F4E6008908EE0E545F080101545E545DC
:1023C000C3940050C68005E4908EE0F0908EE2E069
:1023D000FD25E024E9F582E4348CF583E0FEA3E0FA
:1023E0004E603DE4F54574017E00A845088005C3B4
:1023F00033CE33CED8F9FF908EE2E025E024E9F524
:1024000082E4348CF583E05EFEA3E05F4E600890CA
:102410008EE1E545F0805C0545E545B410C8805384
:10242000ED25E024E2F582E43486F583E0FEA3E0C6
:102430004E603BE4F54574017E00A845088005C365
:1024400033CE33CED8F9FF908EE2E025E024E2F5DA
:1024500082E43486F583E05EFEA3E05F4E6006E52D
:10246000452410800A0545E545B40CCA8005E49072
:102470008EE1F0908EE1E0FF908EE0E0FE6F704B19
:10248000EE7048908EE2E02464F582E43487F583B0
:10249000E0B40700503590647DF828287302649DED
:1024A00002649402649D02649602649D0264A30225
:1024B000649D8009800D908EE0740C800BE4908EFA
:1024C000E08005908EE07404F0A3F0908EE0E0FFD1
:1024D000908EE2E0FE75F009A4246BF582E5F034FD
:1024E00088F583EFF0908EE1E0F975F009EEA42411
:1024F0006CF582E5F03488F583E9F0E54325E024C6
:1025000022F8E6FC08E6FDE5442DFDE43CFC74847D
:102510002DF58274043CF583E0D39F4033908EE028
:10252000E0FF908EE2E0242BF582E4348EF583EF19
:10253000F0E54325E02422F8E6FC08E6FDE5442D1D
:10254000FDE43CFC74842DF58274043CF583EFF0CB
:10255000E54325E02422F8E6FE08E6AD447C002DA4
:10256000FFEC3EFE74842FF58274043EF583E0C3D5
:1025700099502E908EE1E0FFA3E0242BF582E43405
:102580008EF583EFF0E54325E02422F8E6FA08E62D
:102590002DFDEC3AFC74842DF58274043CF583EF38
:1025A000F0AD44AF431286A5908EE0E0FFD39413C4
:1025B000401074652543F582E43488F5837403F094
:1025C000803AEFD3940B401074652543F582E434D0
:1025D00088F5837402F08024908EE0E0D394037435
:1025E00065400E2543F582E43488F5837401F0805C
:1025F0000B2543F582E43488F583E4F074652543C4
:10260000F582E43488F583E0FFE54325E02422F8F1
:10261000E6FC08E624B1F58274043CF583EFF02271
:10262000D310AF01C3C0D08F42126CBEAF4212882C
:102630001C1293E7E54225E025E02408F87633E50F
:102640004225E025E02409F8E4F6E54225E025E00E
:10265000240AF87603E54225E025E0240BF8E4F6A9
:10266000E54225E025E02408F8E6FFE54225E024E0
:1026700022F8E6FC08E62430F58274013CF583EF8D
:10268000F0E54225E025E02409F8E6FFE54225E0F3
:102690002422F8E6FC08E62431F58274013CF58337
:1026A000EFF0E54225E025E0240AF8E6FFE54225C3
:1026B000E02422F8E6FC08E62432F58274013CF5B9
:1026C00083EFF0E54225E025E0240BF8E6FFE54244
:1026D00025E02422F8E6FC08E62433F58274013C68
:1026E000F583EFF0E54225E02422F8E6FE08E6FF58
:1026F00024CFF58274013EF583C083C082E0FD746F
:10270000CF2FF58274013EF583E0F4FFED5FD082B8
:10271000D083F09000F3E030E217E54225E0242278
:10272000F8E6FE08E62441F58274053EF583741050
:10273000F0E54225E02422F8E6FE08E62464F5826E
:1027400074013EF58374A0F0E54225E025E02406FF
:10275000F582E4348FF583740FF0E54225E025E03F
:102760002407F582E4348FF5837401F0E54225E017
:1027700025E02408F582E4348FF583E4F0E5422572
:10278000E025E02406F582E4348FF583E0FFE5429E
:1027900025E02422F8E6FC08E62438F58274013CA2
:1027A000F583EFF0E54225E025E02407F582E434E7
:1027B0008FF583E0FFE54225E02422F8E6FC08E6F9
:1027C0002439F58274013CF583EFF0E54225E025DC
:1027D000E02408F582E4348FF583E0FFE54225E04C
:1027E0002422F8E6FC08E6243AF58274013CF583DD
:1027F000EFF0E542701AE54225E02422F8E6FE08F3
:10280000E62450F58274023EF583E04404F080181B
:10281000E54225E02422F8E6FE08E62450F582741D
:10282000023EF583E054FBF0908EC4E5D9F0E5421A
:1028300025E02422F8E6FE08E6243CF58274013EF9
:10284000F58374FFF0E54225E02422F8E6FE08E671
:10285000243DF58274013EF58374FFF0E54225E0E6
:102860002422F8E6FE08E6243EF58274013EF58354
:1028700074FFF0E54225E02422F8E6FE08E6243461
:10288000F58274013EF58374FFF0E54225E02422D1
:10289000F8E6FE08E62435F58274013EF58374FF00
:1028A000F0E54225E02422F8E6FE08E62436F5822B
:1028B00074013EF58374FFF0E54225E02422F8E63A
:1028C000FE08E62437F58274013EF58374FFF07448
:1028D000332542F582E4348FF583E4F0743A2542DF
:1028E000F582E4348FF583E4F074182542F8E4F6B9
:1028F00074042542F582E4348FF5837401F0E542D7
:1029000025E02422F8E6FE08E624CAF58274043E97
:10291000F583E0FF74382542F582E4348FF583EFC8
:10292000F0E54225E02422F8E6FE08E624CBF58215
:1029300074043EF583E0FF74312542F582E4348F60
:10294000F583EFF0E5427027900018E0440112444F
:10295000E7900081E0C3135401FF74022542F58221
:10296000E4348FF583EFF043E80343A80580229019
:10297000001AE044011244E7900053E0C3135401ED
:10298000FF74022542F582E4348FF583EFF043E8CB
:102990000CD0D092AF228F42EF25E02422F8E6FE41
:1029A00008E624CCF58274013EF583E0540FFF74F1
:1029B000C42542F582E4348EF583EFF074C42542D9
:1029C000F582E4348EF583E0FD7003026CBD743A49
:1029D0002542F582E4348FF583E0FF74017E00A880
:1029E00007088005C333CE33CED8F9FFEF5D7003FF
:1029F000026C24743A2542F582E4348FF583E07545
:102A0000F004A4FFE54225E02422F8E6FC08E62FC6
:102A1000FFE5F03CFE74D02FF58274013EF583E0B3
:102A2000908EC6F075630175648E7565C675660116
:102A30007B017A8E79C712912B908EC7E0F9C4136F
:102A40001313540120E003026B0A743A2542F58205
:102A5000E4348FF583E075F002A4FFE54225E0241D
:102A600022F8E6FC08E6FD2FFFE5F03CFE74882F17
:102A7000F582E43EF583E0908EC8F0743A2542F585
:102A800082E4348FF583E075F002A42DFFE5F03C7D
:102A9000FE74892FF582E43EF583E0908EC9F074D0
:102AA0003A2542F582E4348FF583E075F004A4FF03
:102AB000E54225E02422F8E6FC08E6FD2FFFE5F0DC
:102AC0003CFE74D12FF58274013EF583E0908ECAEE
:102AD000F0743A2542F582E4348FF583E075F00412
:102AE000A42DFFE5F03CFE74D22FF58274013EF573
:102AF00083E0908ECBF0743A2542F582E4348FF572
:102B000083E075F004A4FFE54225E02422F8E6FC0A
:102B100008E62FFFE5F03CFE74D32FF58274013EEA
:102B2000F583E0908ECCF0026B92743A2542F582E8
:102B3000E4348FF583E075F004A4FFE54225E0243A
:102B400022F8E6FC08E6FD2FFFE5F03CFE74D12FED
:102B5000F58274013EF583E0908EC8F0743A254208
:102B6000F582E4348FF583E075F004A42DFFE5F0E1
:102B70003CFE74D22FF58274013EF583E0908EC93D
:102B8000F0743A2542F582E4348FF583E075F00461
:102B9000A4FFE54225E02422F8E6FC08E62FFFE545
:102BA000F03CFE74D32FF58274013EF583E0908EE5
:102BB000CAF0E9547FFF7B017A8E79C8908ED1E507
:102BC00042F0127FD874C42542F582E4348EF58336
:102BD000C083C082E0FF743A2542F582E4348FF569
:102BE00083E0FE7401A806088002C333D8FCF45FBA
:102BF000D082D083F0743A2542F582E4348FF58395
:102C0000E0FF7401A807088002C333D8FCFFE54247
:102C100025E02422F8E6FC08E624CCF58274013C89
:102C2000F583EFF0743A2542F582E4348FF583E0C2
:102C300004F0743A2542F582E4348FF583E05403BE
:102C4000F002699CC2AF7D76ED24029001C4F0745D
:102C500069FFA3F0ED2402FE74C42525F5827401FA
:102C60003524F583EEF074C52525F58274013524ED
:102C7000F583EFF074C42542F582E4348EF583E0E9
:102C8000FFE54225E02422F8E6FC08E624C6F582AA
:102C900074013CF583EFF0743A2542F582E4348FF9
:102CA000F583E0FFE54225E02422F8E6FC08E6246F
:102CB000C7F58274013CF583EFF0E54225E024225C
:102CC000F8E6FE08E624C0F58274013EF583E05480
:102CD0006064606003026C26D2AF02699C22AD077B
:102CE000ED25E02422F8E6FE08E62444F58274048B
:102CF0003EF5837411F0ED25E02422F8E6FE08E6A7
:102D00002445F58274043EF58374F0F0ED25E0244B
:102D100022F8E6FE08E62446F58274043EF5837444
:102D20000FF0ED25E02422F8E6FE08E62447F582C0
:102D300074043EF583E4F0908EC5F0908EC5E0FFFC
:102D4000C394105025ED25E02422F8E6FA08E6FBAE
:102D5000EF2BFFE43AFE74A42FF58274043EF58352
:102D6000E4F0908EC5E004F080D1EDC43354E090DF
:102D70008EC6F0908EC5F0908EC6E02420FFE4331E
:102D8000FE908EC5E0C39FEE6480F8748098400387
:102D9000026F27E0FF75F005A42400F582E5F0340A
:102DA00084F583E4F075F005EFA42401F582E5F0E5
:102DB0003484F583E4F075F005EFA42402F582E590
:102DC000F03484F583E4F075F005EFA42403F58274
:102DD000E5F03484F583E4F075F005EFA42404F500
:102DE00082E5F03484F583E4F0742B2FF582E4342B
:102DF0008EF5837413F074A92FF582E4348CF58377
:102E0000E4F0EF25E024C0F582E43485F583E4F0B6
:102E1000A3F0EF25E024A7F582E4348AF583E4F0FB
:102E2000A3F0EF25E024E7F582E4348BF583E4F0AA
:102E3000A3F0EF25E02427F582E4348BF583E4F05A
:102E4000A3F074402FF582E43486F583E4F074AB8C
:102E50002FF582E4348DF583E4F074692FF582E474
:102E6000348DF583E4F074EB2FF582E4348DF58333
:102E7000E4F09041AC93FE740193FF9041747401AF
:102E8000932FFFE4933EC313FEEF13FF908EC5E034
:102E9000FC25E024E4F582E43487F583EEF0A3EF2B
:102EA000F075F009ECA4246EF582E5F03488F58322
:102EB0007401F075F009ECA4246DF582E5F0348816
:102EC000F5837401F074642CF582E43487F583741F
:102ED0000CF075F009ECA42469F582E5F03488F56E
:102EE0008374FFF0A3F075F009ECA42467F582E584
:102EF000F03488F583E4F0A3740FF075F009ECA4C6
:102F0000246BF582E5F03488F5837413F075F009CD
:102F1000ECA4246CF582E5F03488F583E4F0EC54FD
:102F20001FFFED25E02422F8E6FA08E62FFFE43A39
:102F3000FE74842FF58274043EF5837413F0908E32
:102F4000C5E004F0026D5774292DF582E4348FF545
:102F5000837420F074802DF582E43486F583E4F0E8
:102F600074A92DF582E4348DF583E4F074622DF5B7
:102F700082E43487F5837408F0228F2E9001C474A4
:102F80005AF0746FFFA3F074C42525F582740135DF
:102F900024F583745AF074C52525F582740135240F
:102FA000F583EFF0E52E25E02422F8E6FE08E6247E
:102FB0003CF58274013EF583E0FFE52E25E025E037
:102FC0002406F582E4348FF583E0FEEF5EFFE52E04
:102FD00025E025E0240FF582E4348FF583EFF0E55A
:102FE0002E25E02422F8E6FE08E6243DF582740151
:102FF0003EF583E0FFE52E25E025E02407F582E499
:10300000348FF583E0FEEF5EFFE52E25E025E0241A
:1030100010F582E4348FF583EFF0E52E25E02422CD
:10302000F8E6FE08E6243EF58274013EF583E0FFF3
:10303000E52E25E025E02408F582E4348FF583E0D1
:10304000FEEF5EFFE52E25E025E02411F582E43455
:103050008FF583EFF0E52E25E025E0240FF582E4DF
:10306000348FF583E030E037E52E25E02422F8E6C2
:10307000FE08E6243CF58274013EF5837401F0E518
:103080002E25E02422F8E6FE08E62453F58274019A
:103090003EF5837407F07418252EF8E64480F6E5B3
:1030A0002E25E025E0240FF582E4348FF583E0300F
:1030B000E11CE52E25E02422F8E6FE08E6243CF596
:1030C0008274013EF5837402F0AF2E1288E1E52E82
:1030D00025E025E0240FF582E4348FF583E020E23B
:1030E00003027156E52E25E02422F8E6FE08E624C8
:1030F0003CF58274013EF5837404F0E52E25E0244E
:1031000022F8E6FE08E62492F58274063EF583E096
:1031100030E042E4F53D753E14F53FFB7D587C01FF
:10312000AF2E128DC1E52E25E02422F8E6FE08E63A
:10313000245BF58274013EF5837405F0E52E25E0ED
:103140002422F8E6FE08E62492F58274063EF58312
:103150007401F080217476252EF582E4348FF58396
:10316000E4F0747E252EF582E4348FF583E0FD7B58
:1031700001AF2E127E8DE52E25E025E0240FF5828D
:10318000E4348FF583E030E317E52E25E02422F8C0
:10319000E6FE08E6243CF58274013EF5837408F0EF
:1031A0009001C4745AF0746FFFA3F074C42525F520
:1031B0008274013524F583745AF074C52525F5828F
:1031C00074013524F583EFF0228F5F7D787C08123F
:1031D0007D3FE55F75F014A4243DF582E4348FF55E
:1031E000831286457D047C0CAF5F127D3FE55F75E1
:1031F000F014A42441F582E4348FF5831286457DD2
:10320000007C08AF5F127D3FE55F75F014A4244594
:10321000F582E4348FF583128645E4908EFDF090BC
:103220008EFDE0FBC39404503EE55F75F014A424CA
:103230003DF582E4348FF583E0FCA3E0FDA3E0FEDE
:10324000A3E054C7FFED54C7FDEB75F008A4F9F8EF
:1032500012861F74F92BF582E4348EF583EFF0901B
:103260008EFDE004F080B8908EF9E0FBA3E0F5520B
:10327000A3E0F553A3E0F5547D787C08AF5F128E90
:103280003AE4908EFDF0908EFDE0FBC39404503A3A
:10329000E55F75F014A42441F582E4348FF583E0F2
:1032A000FCA3E0FDA3E0FEA3E0540FFFEB75F008E4
:1032B000A4F9F812861F74F92BF582E4348EF58395
:1032C000EFF0908EFDE004F080BC908EF9E0FBA35F
:1032D000E0F552A3E0F553A3E0F5547D047C0CAF78
:1032E0005F128E3AE4908EFDF0908EFDE0FBC39469
:1032F00004503AE55F75F014A42445F582E4348F58
:10330000F583E0FCA3E0FDA3E0FEA3E04402FFEBB5
:1033100075F008A4F9F812861F74F92BF582E434CD
:103320008EF583EFF0908EFDE004F080BC908EF976
:10333000E0FBA3E0F552A3E0F553A3E0F5547D00D4
:103340007C08AF5F128E3A7BA07D327C0BAF5F12A0
:10335000988B7D707C0EAF5F127D3FE55F75F0143A
:10336000A4244DF582E4348FF583128645755225E9
:1033700075531BE4F5547BA07D707C0EAF5F128EFD
:103380003AE4F558F559F55AFBFDAF5F12934090BA
:103390008F0EE020E10FE4F558F559F55AFB7D0159
:1033A000AF5F129340908F78E0D394025014A3E063
:1033B0009402500E900011E054F6F07F107E00123F
:1033C00044EC228F5F900011E04409F07F107E00F2
:1033D0001244ECE4908EFDF0908EFDE0FBC394046B
:1033E0005038E55F75F014A4243DF582E4348FF580
:1033F00083E0FCA3E0FDA3E0FEA3E0FFEB75F00893
:10340000A4F9F812861F74F92BF582E4348EF58343
:10341000EFF0908EFDE004F080BE908EF9E0FBA30B
:10342000E0F552A3E0F553A3E0F5547D787C08AFB6
:103430005F128E3AE4908EFDF0908EFDE0FBC39417
:10344000045038E55F75F014A42441F582E4348F0C
:10345000F583E0FCA3E0FDA3E0FEA3E0FFEB75F045
:1034600008A4F9F812861F74F92BF582E4348EF55E
:1034700083EFF0908EFDE004F080BE908EF9E0FBCB
:10348000A3E0F552A3E0F553A3E0F5547D047C0CD2
:10349000AF5F128E3AE4908EFDF0908EFDE0FBC39C
:1034A00094045038E55F75F014A42445F582E434A3
:1034B0008FF583E0FCA3E0FDA3E0FEA3E0FFEB7546
:1034C000F008A4F9F812861F74F92BF582E4348E03
:1034D000F583EFF0908EFDE004F080BE908EF9E071
:1034E000FBA3E0F552A3E0F553A3E0F5547D007C87
:1034F00008AF5F128E3AE55F75F014A42449F58297
:10350000E4348FF583E0FCA3E0FDA3E0FEA3E0FF3D
:10351000781012861F908EFBEFF0FB7D327C0BAF94
:103520005F12988BE4908EFDF0908EFDE0FBC394CB
:10353000045038E55F75F014A4244DF582E4348F0F
:10354000F583E0FCA3E0FDA3E0FEA3E0FFEB75F054
:1035500008A4F9F812861F74F92BF582E4348EF56D
:1035600083EFF0908EFDE004F080BE908EF9E0FBDA
:10357000A3E0F552A3E0F553A3E0F5547D707C0E73
:10358000AF5F128E3A75589575592D755A03E4FB45
:10359000FDAF5F129340908F0EE020E112755895B9
:1035A00075592D755A03E4FB7D01AF5F12934022DC
:1035B000AC07ECC4135407FF908EE0F0EC541FFEF0
:1035C000A3F0EF25E02422F8E6FA08E6FBEE2BFF55
:1035D000E43AFE74842FF58274043EF583E0547F50
:1035E000908ED5F0E0541FFF908ED8F075F009EC66
:1035F000A4246CF582E5F03488F583E0908EDAF04F
:1036000075F009ECA4246BF582E5F03488F583E0CD
:10361000FE908EDBF0EC25E024E9F582E4348CF5B5
:1036200083E0FBA3E0908EDCCBF0A3EBF0EC25E095
:1036300024E2F582E43486F583E0FBA3E0908EDE9D
:10364000CBF0A3EBF0EFD39E400C908EDBE0908E9E
:10365000D8F0908ED5F0ED7003027710908ED9EDF2
:10366000F0908ED5E030E60E908ED8E0908ED5F0BA
:10367000908ED9E014F0908ED9E07003027710900C
:103680008ED8E0FFD394005003027710E4908ED7D9
:10369000F0EF14908ED6F0908EDAE0FD908ED6E0AA
:1036A000FFD39D406FEF94104021EF24F0FF740191
:1036B0007E00A807088005C333CE33CED8F9FF902B
:1036C0008EDEE05EFEA3E05F4E7027908ED6E0FFB8
:1036D000C39410503774017E00A807088005C333D7
:1036E000CE33CED8F9FF908EDCE05EFEA3E05F4ED5
:1036F000601A908ED6E0908ED5F0908ED7E004F0D0
:10370000908ED9E0FF908ED7E06F6008908ED6E063
:1037100014F08083908ED9E0FF908ED7E0C39F5045
:103720000F908ED6E0B50508908EDAE0908ED5F039
:10373000908ED5E0FF25E02476F582E43441F583D0
:10374000E493FA740193FBEF25E0243EF582E43420
:1037500041F5837401932BFFE4933AC313FEEF13F7
:10376000FFEC25E024E4F582E43487F583EEF0A352
:10377000EFF0908ED5E0908EE0128682908ED5E0AC
:10378000FF22E4908ECBF0A3F0A3F07B017A8E7938
:10379000C47FFD7E03128F21EF640160030278B0C5
:1037A0007B017A8E79C57FFC7E03128F21EF640145
:1037B00060030278B0908EC9F0E4908EC8F0908ECD
:1037C000C8E0FFC394024003027857908ECBE070AC
:1037D00045EF25E0FFC374069FFF908EC9E024C427
:1037E000F582E4348EF583E0FEA807088002C31357
:1037F000D8FC5403908ECAF024FD600F047017901B
:103800008EC67401F0908ECBF0800B908EC6740241
:10381000F0908ECB14F0908ECCE07045908EC8E086
:1038200025E0FFC374029FFFA3E024C4F582E434C3
:103830008EF583E0FEA807088002C313D8FC54036A
:10384000908ECAF024FD600F047016E4908EC7F0CD
:10385000908ECC04F0800A908EC77401F0908ECCCC
:10386000F0908ECBE0B40106A3E064016009908E75
:10387000C8E004F002779E908ECBE0B40106A3E08E
:103880006401600E908EC9E004F0E06402600302FF
:103890007799908ECBE07007908ECD04F0803790B2
:1038A0008ECCE07006A37402F0802B908EC6E0648C
:1038B000026008908ECD7403F0801B908EC7E0707C
:1038C00051908F0EE030E04A908ECD7404F0800667
:1038D000908ECD7405F0908EC4E09001C8F0908E6B
:1038E000C5E09001C9F0908ECDE0FF9001C4F0A337
:1038F00074E0F074C42525F58274013524F583EF56
:10390000F074C52525F58274013524F58374E0F043
:1039100080C422908ED2EFF0ED7003027981E0FF37
:103920007B7D7D02129725908ED2E0FF7B027D0386
:10393000129725908ED2E0FF25E02422F8E6FC08BD
:10394000E62457F58274013CF583E4F0EF25E0248A
:1039500022F8E6FE08E6243CF58274013EF5837405
:1039600002F0908ED2E0FF7B017D0C127E8D908E56
:10397000D2E0FF25E02422F8E6FC08E62404F582E4
:1039800074063CF583E0547FF0EF25E02422F8E64E
:10399000FE08E6240AF58274063EF583E054F8F04A
:1039A00022908ED2E0FF25E02422F8E6FC08E624EF
:1039B00036F58274013CF583747DF0EF25E0242216
:1039C000F8E6FE08E62437F58274013EF5837402BA
:1039D000F0908ED2E0FF7B7D7D0212975D908ED2BB
:1039E000E0FF7B027D0312975D908ED2E0FF25E021
:1039F0002422F8E6FC08E62404F58274063CF583EC
:103A0000E04480F0EF25E02422F8E6FE08E6240AF0
:103A1000F58274063EF583E04407F0908ED2E0FF15
:103A200025E0246EF582E4348FF583E0A3E0FEEF19
:103A300025E02422F8E6FC08E62458F58274053CCB
:103A4000F583EEF0908ED2E0FF2467F8E630E03B9D
:103A5000746A2FF582E4348FF583E0703D908ED246
:103A6000E0246AF582E4348FF583E004F074782F63
:103A7000F582E4348FF583E0540FC39404501B9017
:103A80008ED2E0FF7B017D04027E8D908ED2E024F9
:103A90006AF582E4348FF583E4F022D310AF01C3DA
:103AA000C0D0908EADEBF0A3EAF0A3E9F0908EAC1D
:103AB000EFF0C43354E0908EB3F0908F37E064029F
:103AC0007003027BDC908EACE0FF25E02422F8E658
:103AD000FC08E6FD24AFF58274013CF583E0602527
:103AE00074C72DF58274013CF583E004FEF0EF25E8
:103AF000E02422F8E6FC08E624C7F58274013CF5D0
:103B000083EEF080C0908EACE0908FAE605EE0FF00
:103B100004F0908EADE0FBA3E0FAA3E0F990000181
:103B2000EF1285E7908EADE0FBA3E0FAA3E08B6394
:103B30008A64F5657566027B017A4179A012912B42
:103B4000908EB0E0FBA3E0FAA3E08B638A64F56596
:103B5000908EADE0FBA3E0FAA3E0F9123405FFC4B8
:103B6000540FF5667B017A4179A2805CE0FF04F096
:103B7000908EADE0FBA3E0FAA3E0F9900001EF1214
:103B800085E7908EADE0FBA3E0FAA3E08B638A6447
:103B9000F5657566027B017A0179A012912B908EF2
:103BA000B0E0FBA3E0FAA3E08B638A64F565908E36
:103BB000ADE0FBA3E0FAA3E0F9123405FFC4540F13
:103BC000F5667B017A0179A212912B908EACE0FF11
:103BD00025E02422F8E6FC08E624AFF58274013CD7
:103BE000F58374FFF0EF25E02422F8E6FE08E624D2
:103BF000CBF58274013EF583E06480F0D0D092AFC3
:103C000022908ED2EFF0A3EBF0A3EAF0A3E9F090BC
:103C10008ED3E0FBA3E0FAA3E0F99000041285A89C
:103C2000FF541F908ED6F0908ED2E0C43354E0FE45
:103C3000908ED6E02EA3F09000031285A854F0C415
:103C4000540F908ED8F0EF5420C4135407A3F09073
:103C500000041285A85440C413135403908EDAF064
:103C6000908ED7E0FF75F009A42469F582E5F03461
:103C700088AD82908EDBF0A3EDF0EF75F009A424FF
:103C800067F9748835F0FAA37401F0A3EAF0A3E9A8
:103C9000F0908ED3A3E0FAA3E0F99000031285A878
:103CA000540FFF908EDDE0FBA3E0FAA3E0F9EF12E2
:103CB00085D5908ED3E0FBA3E0FAA3E0F990000253
:103CC0001285A8FF908EDDE0FBA3E0FAA3E0F99057
:103CD0000001EF1285E7908ED3E0FBA3E0FAA3E0AA
:103CE000F99000011285A8FF908EDBE0FCA3E0FDB7
:103CF000F5828C83EFF01234058D828C83A3F090D3
:103D00008ED8E0FF908ED7E0FE2464F582E43487FD
:103D1000F583EFF0908ED9E0FF75F009EEA4246DE5
:103D2000F582E5F03488F583EFF075F009EEA42410
:103D30006EF582E5F03488F5837401F0908EDAE058
:103D4000FF75F009EEA4246FF582E5F03488F58361
:103D5000EFF0908ED2E0FF908ED6E0FD026100D3AE
:103D600010AF01C3C0D08F4E8C4F8D50908EEC128F
:103D70008651000000005350FC908EF0E58EF075E7
:103D80008E02908EECE0F8A3E0F9A3E0FAA3E0FB4A
:103D9000E8C0E0E54E25E02422F8E6FE08E62550DE
:103DA000FFE54F3E8F82F583E0FFD0E0F8EB4FFF59
:103DB000EAFEE9FDE8FC908EEC128645908EECE080
:103DC000F8A3E0F9A3E0FAA3E0FBE8C0E0E54E25A4
:103DD000E02422F8E6FE08E62550FFE54F3E8F82FC
:103DE000F583A3E0FFE4FCFDFE7808128632D0E004
:103DF000F8EB4FFFEA4EFEE94DFDE84CFC908EECEF
:103E0000128645908EECE0F8A3E0F9A3E0FAA3E077
:103E1000FBE8C0E0E54E25E02422F8E6FE08E625B2
:103E200050FFE54F3E8F82F583A3A3E0FFE4FCFD46
:103E3000FE7810128632D0E0F8EB4FFFEA4EFEE932
:103E40004DFDE84CFC908EEC128645908EECE0F82F
:103E5000A3E0F9A3E0FAA3E0FBE8C0E0E54E25E02B
:103E60002422F8E6FE08E62550FFE54F3E8F82F556
:103E700083A3A3A3E0FFE4FCFDFE7818128632D0F2
:103E8000E0F8EB4FFFEA4EFEE94DFDE84CFC908E6A
:103E9000EC128645908EF0E0F58E908EECE0FCA35F
:103EA000E0FDA3E0FEA3E0FFD0D092AF228F6B8DA8
:103EB0006C8B6D74782FF582E4348FF583E0540FAA
:103EC000FFE56C540F6F7003027F66E56C30E24FC4
:103ED0007478256BF582E4348FF583E020E2077D6A
:103EE00001AF6B128B867478256BF582E4348FF505
:103EF00083E030E30DE56C20E308AF6B1294D6024B
:103F00007F667478256BF582E4348FF583E020E3D7
:103F100075E56C30E370AD6DAF6B129438806774EB
:103F200078256BF582E4348FF583E0540FFFBF0CE6
:103F300012E56C20E30DAF6B1296A9EF6048AF6BF2
:103F40001294D67478256BF582E4348FF583E054AF
:103F50000FFFBF0412E56C20E20DAF6B128F8FEFE5
:103F60006024AF6B1287517478256BF582E4348F2F
:103F7000F583E0540FFFBF020DAF6B128FFAEF60B5
:103F800005AF6B1295637478256BF582E4348FF579
:103F900083E0540FFF747E256BF582E4348FF58344
:103FA000E0540F6F7051747E256BF582E4348FF509
:103FB00083E030E6427478256BF582E4348FF58334
:103FC000E0540FFF908F65E0FE4FFFE56B25E02486
:103FD00022F8E6FC08E6242FF58274013CF583EF15
:103FE000F0EE6480908F65F0747E256BF582E4348A
:103FF0008FF583E054BFF022908ECDEFF0A3EBF06D
:10400000A3EAF0A3E9F09001C474D8F0747FFFA391
:10401000F074C42525F58274013524F58374D8F035
:1040200074C52525F58274013524F583EFF0908E53
:10403000CDE024FE603014604224FE6053146065BD
:1040400024F760761470030280AF240F60030280AF
:10405000C2908ED1E0FF908ECEE0FBA3E0FAA3E009
:10406000F91298BA807C908ED1E0FF908ECEE0FB62
:10407000A3E0FAA3E0F912998C8067908ED1E0FF5B
:10408000908ECEE0FBA3E0FAA3E0F91290CA805232
:10409000908ED1E0FF908ECEE0FBA3E0FAA3E0F992
:1040A00012923E803D908ED1E0FF908ECEE0FBA339
:1040B000E0FAA3E0F9127BE18028908ED1E0FF9036
:1040C0008ECEE0FBA3E0FAA3E0F912982B801390C8
:1040D0008ED1E0FF908ECEE0FBA3E0FAA3E0F912D0
:1040E00097C77DD8ED24029001C4F0747F2402FFAD
:1040F000A3F0ED2402FE74C42525F5827401352455
:10410000F583EEF074C52525F58274013524F58319
:10411000EFF022D310AF01C3C0D0908FACEDF09080
:104120008FABEFF0D39407506DE0FF7401A8070840
:104130008002C333D8FCF4FF900047E05FF07F10AB
:104140007E001244EC908FABE0FF7401A80708805A
:1041500002C333D8FCFF900046E04FF07F107E0092
:104160001244EC908FACE06016908FABE0FF7401CE
:10417000A807088002C333D8FCFF900045807890E0
:104180008FABE0FF7401A807088002C333D8FCF4AA
:10419000FF900045807D908FABE024F8F0E0FF7445
:1041A00001A807088002C333D8FCC454F0F4FF9080
:1041B0000043E05FF07F107E001244EC908FABE094
:1041C000FF7401A807088002C333D8FCFF900043A6
:1041D000E04FF07F107E001244EC908FACE0601B4B
:1041E000908FABE0FF7401A807088002C333D8FCAE
:1041F000C454F0FF900042E04F801A908FABE0FF74
:104200007401A807088002C333D8FCC454F0F4FF3B
:10421000900042E05FF07F107E001244ECD0D0921C
:10422000AF228F4CE4908EEBF074692FF8E67003A8
:104230000282F174672FF8E6640160030282F17470
:10424000692FF8E66402600974692FF8E664037068
:10425000547466254CF582E4348FF583E014F074D1
:1042600066254CF582E4348FF583E0600E74682592
:104270004CF582E4348FF583E060307466254CF5AC
:1042800082E4348FF583E0701C747C254CF582E465
:10429000348FF583E0FF7466254CF582E4348FF5A6
:1042A00083EFF08000908EEB7401F0908EEBE06075
:1042B000607485254CF582E4348FF583E04410F07A
:1042C000E4F53D7472254CF582E4348FF583E0F516
:1042D0003EE4F53FFB7D547C01AF4C128DC1E54CB3
:1042E00025E02422F8E6FE08E62457F58274013E14
:1042F000F5837405F07478254CF582E4348FF583EA
:10430000E0540FC3940450097B017D04AF4C127E2E
:104310008D22908FA2EBF0A907908FA1EDF0E4FF22
:10432000FEED30E0027F80E925E02422F8E6FC087B
:10433000E6FD241DF58274043CF583E0604674229A
:104340002DF58274053CF583E0908FA3F0E0FD54D9
:104350009060D4E925E02422F8E6FA08E624C8F5BE
:104360008274013AF58374FCF0ED546FFDE925E0A9
:104370002422F8E6FA08E62422F58274053AF58349
:10438000EDF080A3E9C43333335480FD908FA1E076
:10439000C3134D90FD10F0908FA1E0FDE925E024BE
:1043A00022F8E6FA08E62425F58274043AF583ED4E
:1043B000F0908FA2E0601EAD07740F2DF582E434FB
:1043C000FCF583E04480F074102DF582E434FCF5B4
:1043D00083E04480F0AD0774082DF582E434FCF5E9
:1043E00083E4F074092DF582E434FCF583E054F0A5
:1043F000F074212FF582E434FCF583E054F7F022C9
:10440000D310AF01C3C0D08D55C9EFC9CB543FCB3A
:10441000E555908EF570117408F0A374B8F0A3748C
:1044200008F0A37424F0800F7408F0A374BCF0A308
:104430007408F0A3742CF0E4FACFE9CFEA2424FD49
:10444000E43408FC12979274562AF8C6EFC6E55574
:10445000700874562AF8E6FF800ECFE9CFEA242CC4
:10446000FDE43408FC129792745A2AF8C6EFC60A83
:10447000BA04C6EBC43333335480FFE55C547F4F3A
:10448000F55CEBC3134480425DCFE9CFE559547F1F
:10449000FB7D277C0812988BCFE9CF908EF7E0FC4C
:1044A000A3E0FD855B52855C53855D54AB5A128E4B
:1044B0003ACFE9CFE5594480FB7D277C0812988BE1
:1044C000CFE9CF908EF5E0FCA3E0FD127D3FED54E7
:1044D0000FFDE4FC908EF1128645908EF1E0FCA376
:1044E000E0FDA3E0FEA3E0FFD0D092AF228F4CEF1F
:1044F00025E02422F8E6FE08E624A9F58274063EAB
:10450000F583E0F54D54C0701D747A2FF582E434C4
:104510008FF583E4F0747E2FF582E4348FF583E029
:10452000FD7B01027E8DE54D30E624747A254CF545
:1045300082E4348FF5837401F07485254CF582E4B0
:10454000348FF583E04401F0AF4C12985C800F7417
:1045500085254CF582E4348FF583E054FEF0E54D7B
:1045600030E755747A254CF582E4348FF583740175
:10457000F07485254CF582E4348FF583E04402F035
:10458000E4F53D753E03F53FFB7D547C01AF4C12D5
:104590008DC1E54C25E02422F8E6FE08E62457F517
:1045A0008274013EF5837405F07483254CF582E432
:1045B000348FF5837401F0227485254CF582E43440
:1045C0008FF583E054FDF022BB010CE58229F582D2
:1045D000E5833AF583E0225006E92582F8E622BB1E
:1045E000FE06E92582F8E222E58229F582E5833A92
:1045F000F583E49322BB010689828A83F02250026C
:10460000F722BBFE01F322F8BB010DE58229F582FA
:10461000E5833AF583E8F0225006E92582C8F622C0
:10462000BBFE05E92582C8F222C5F0F8A3E028F018
:10463000C5F0F8E582158270021583E038F022E8B3
:10464000600FECC313FCED13FDEE13FEEF13FFD868
:10465000F122E8600FEFC333FFEE33FEED33FDECE4
:1046600033FCD8F122ECF0A3EDF0A3EEF0A3EFF0D1
:1046700022A8828583F0D083D08212866812866851
:10468000128668128668E473E493A3C583C5F0C5F7
:1046900083C8C582C8F0A3C583C5F0C583C8C582D9
:1046A000C822FFE0F925E02422F8E6FA08E6FBA399
:1046B000E0FD2BFBE43AFA74842BF58274043AF59E
:1046C00083EFF0AF01A907908F37E0640160030228
:1046D0008750908F0EE06003028750EF25E0242280
:1046E000F8E6FA08E6FBED2BFDE43AFC74842DF5C0
:1046F0008274043CF583E0541F908FADF0E0B41B4E
:104700002DE925E02422F8E6FE08E624CAF58274A5
:10471000043EF583740BF0E925E02422F8E6FE0858
:10472000E624CBF58274043EF583740BF0227438D2
:1047300029F582E4348FF583E0FFE925E02422F8AF
:10474000E6FC08E624CAF58274043CF583EFF074B5
:104750003129F582E4348FF583E0FFE925E0242256
:10476000F8E6FC08E624CBF58274043CF583EFF010
:10477000228F4BE4908EE9F0EF25E02422F8E6FE4C
:1047800008E62437F58274013EF5837402F0EF25C4
:10479000E02422F8E6FE08E62422F58274053EF5C0
:1047A0008374FFF0128A3EEF7017E54B25E0242258
:1047B000F8E6FE08E624C8F58274013EF58374FD30
:1047C000F07B027D03AF4B12975D908F0EE064018A
:1047D0007046908F04E06016A3E06012908F78E03E
:1047E000D394024029A3E0D394024022801A908FF0
:1047F00004E0600B908F78E0D39402401180099020
:104800008F79E0D394024006908EE97401F0908E87
:10481000E9E06009E4FF8002AF4B1271A9747825CA
:104820004BF582E4348FF583E054F0F07478254B37
:10483000F582E4348FF583E04402F02274672FF8A8
:10484000E4F674852FF582E4348FF583E4F074691F
:104850002FF8E4F6747E2FF582E4348FF583740C20
:10486000F074782FF582E4348FF583740CF0748142
:104870002FF582E4348FF583E4F074762FF582E42B
:10488000348FF583E4F074742FF582E4348FF5836C
:10489000E4F0747C2FF582E4348FF5837401F074B6
:1048A000662FF582E4348FF5837401F074832FF55D
:1048B00082E4348FF583E4F0747A2FF582E4348F48
:1048C000F583E4F0746A2FF582E4348FF583E4F025
:1048D00074722FF582E4348FF5837407F074682FB7
:1048E000F582E4348FF583E4F0EF25E0246EF58261
:1048F000E4348FF583E4F0A37402F0E4908F80F049
:10490000228F4C74832FF582E4348FF583E0603975
:1049100074832FF582E4348FF583E4F074852FF5EA
:1049200082E4348FF583E054FDF07485254CF582E4
:10493000E4348FF583E054037078747A254CF58263
:10494000E4348FF583E4F080557468254CF582E4F7
:10495000348FF583E004F07485254CF582E4348FC0
:10496000F583E054EFF07468254CF582E4348FF55C
:1049700083E0D3940140277467254CF8E664017006
:1049800031746A254CF582E4348FF583E07023742A
:104990006A254CF582E4348FF583E004F022747EBE
:1049A000254CF582E4348FF583E0FD7B01AF4C129A
:1049B0007E8D22D310AF01C3C0D08F438B448A4574
:1049C00089461297FAAB44AA45A946123405FF74EA
:1049D000692543F8A607EF14600E14600F14602CCD
:1049E000240370757D01806CE4FD8068747C254330
:1049F000F582E4348FF5837401F074662543F58203
:104A0000E4348FF5837401F0E4FD8048AB44AA459B
:104A1000A9469000021285A8FF7010747C2543F50A
:104A200082E4348FF5837405F0800D747C2543F5A2
:104A300082E4348FF583EFF0747C2543F582E4340F
:104A40008FF583E0FF74662543F582E4348FF583A8
:104A5000EFF0E4FDAF431278F3D0D092AF228F6E27
:104A6000E4908FA9F0A3F09001C4743EF0748AFF23
:104A7000A3F074C42525F58274013524F583743EB2
:104A8000F074C52525F58274013524F583EFF0E532
:104A90006E25E02422F8E6FE08E6FF24F8F582748D
:104AA000053EF583E0703574F92FF58274053EF507
:104AB00083E07028E56E25E02422F8E6FE08E6FF94
:104AC00024FAF58274053EF583E0701074FB2FF52F
:104AD0008274053EF583E070037F0122D3908FAA94
:104AE000E094E8908FA9E0940340037F00227F3296
:104AF0007E001244EC908FAAE004F07092908FA98F
:104B0000E004F0808ACDEFCDEDC4135407908EAC55
:104B1000F0ED541FA3F075F009EDA4246BF582E5C8
:104B2000F03488F583E0FF746B2DF582E4348EF564
:104B300083E0541FF539D39F40028F39E53925E0D2
:104B40002476F582E43441F583E493FE740193FF07
:104B5000E53925E0243EF582E43441F58374019380
:104B60002FFFE4933EC313FEEF13FFED25E024E493
:104B7000F582E43487F583EEF0A3EFF0908EACE09D
:104B8000FF25E02422F8E6FA08E6FBA3E0FD2BFB74
:104B9000E43AFA74842BF58274043AF583E539F02B
:104BA0001286A5AF3922908EE9EFF0A3EDF0E4FF75
:104BB000908F0EE064017047908F04E06017A3E0CF
:104BC0006013908F78E0C39404502EA3E0C3940444
:104BD00050270F8024908F04E0600D908F78E0C301
:104BE000940450157F018011908F05E0600B908F29
:104BF00079E0C3940450027F01EF600BE4800490DD
:104C00008EE9E0FF1273A3908EEAE06018908EE9BF
:104C1000E025E02422F8E6FE08E62422F582740569
:104C20003EF583E4F0908EE9E0FF2478F582E434E9
:104C30008FF583E054F0F074782FF582E4348FF52B
:104C400083E04404F022C0E0C083C082C0D075D0AD
:104C500000C005C006C0079001C47426F0748CFF24
:104C6000A3F074C42525F58274013524F5837426D8
:104C7000F074C52525F58274013524F583EFF053D2
:104C800091EF900051E0FF900055E05F908F20F091
:104C9000E030E6069000557440F07D26ED0490016A
:104CA000C4F0748CFFA3F0ED04FE74C42525F582D6
:104CB00074013524F583EEF074C52525F582740161
:104CC0003524F583EFF0D007D006D005D0D0D082C0
:104CD000D083D0E0328F398D3AE539C41354079030
:104CE0008EACF0E539541FA3F0E53A541FF53F743C
:104CF000402FF582E43486F583E0F53DEBC3940163
:104D00004003028AE5E53D253CF53EE53F9041AE96
:104D100093FFE53ED39F744040322539F582E43459
:104D200086F583E4F0908EACE0FF25E02422F8E6DF
:104D3000FA08E6FBA3E0FD2BFBE43AFA74842BF5BA
:104D40008274043AF583E53AF00286A52539F582A6
:104D5000E43486F583E53EF022028D77024509E4CE
:104D600093A3F8E493A34003F68001F208DFF480F4
:104D700029E493A3F85407240CC8C333C4540F4444
:104D800020C8834004F456800146F6DFE4800B011E
:104D900002040810204080909997E47E019360BC43
:104DA000A3FF543F30E509541FFEE493A360010EB6
:104DB000CF54C025E060A840B8E493A3FAE493A3DD
:104DC000F8E493A3C8C582C8CAC583CAF0A3C8C5FE
:104DD00082C8CAC583CADFE9DEE780BEFB7C01AFBB
:104DE00038EF25E02422F8E6F58308E62DF582E584
:104DF000833CF583E53FF0EF25E02422F8E6F583D8
:104E000008E62DF582E5833CF583A3E53EF0EF252A
:104E1000E02422F8E6F58308E62DF582E5833CF5EB
:104E200083A3A3E53DF0EFBB011825E02422F8E6BB
:104E3000FE08E62DFFEE3C8F82F583A3A3A3740347
:104E4000F02225E02422F8E6FE08E62DFFEE3C8F56
:104E500082F583A3A3A37401F022D310AF01C3C0D2
:104E6000D0CD54FCCD908EECE58EF0758E02EF2502
:104E7000E02422F8E6F58308E62DF582E5833CF58B
:104E800083EBF0EF25E02422F8E6FA08E62DFBEAB2
:104E90003C8B82F583A3E552F0EF25E02422F8E66F
:104EA000FA08E62DFBEA3C8B82F583A3A3E553F0D9
:104EB000EF25E02422F8E6FE08E62DFFEE3C8F8287
:104EC000F583A3A3A3E554F0908EECE0F58ED0D04B
:104ED00092AF22D310AF01C3C0D090002BE04401A9
:104EE000F07FE87E031244EC900008E04410F07F6D
:104EF000107E001244EC900009E054F7F07F107E21
:104F0000001244EC900028E054FEF07F107E001266
:104F100044EC900020E054FEF07F107E001244EC40
:104F2000900025E04440F07F107E001244EC900099
:104F300009E054EFF07F107E001244ECD0D092AF25
:104F4000228E428F438B448A458946E4908ECEF070
:104F5000EF900031F07F107E001244ECE5425403E4
:104F6000FF900032E054FC4FF07F107E001244ECC2
:104F7000900033E0547FF07F107E001244EC9000EC
:104F800033E020E70E908ECEE0C394645005E00439
:104F9000F080EB908ECEE0C394645010900030E02F
:104FA000AB44AA45A9461285D57F01227F0022EF96
:104FB00025E02422F8E6FC08E6241BF58274043C74
:104FC000F583E0547F647F704E747A2FF582E43469
:104FD0008FF583E06401603F747E2FF582E4348FA7
:104FE000F583E0540FD39402502D74852FF582E49D
:104FF000348FF583E020E41F74762FF582E4348F3C
:10500000F583E064016010746A2FF582E4348FF553
:1050100083E070037F01227F002274182FF8E6706E
:105020005F747E2FF582E4348FF583E0540FD394C0
:1050300001504DEF25E02422F8E6FC08E6FD248728
:10504000F58274023CF583E07036908F37E0B4024D
:1050500019EF25E024FEF582E4348EF583E0FAA30F
:10506000E0F5828A83E0600F801674AF2DF58274BC
:10507000013CF583E07009908F80E060037F01229E
:105080007F0022D310AF01C3C0D0900025E054BFF1
:10509000F07F107E001244EC900020E04401F07F8D
:1050A000107E001244EC900028E04401F07F107E56
:1050B000001244EC9000F0E030E1F9900009E04487
:1050C00008F07F107E001244EC900008E054EFF0EE
:1050D0007F107E001244EC90002BE054FEF07FE83D
:1050E0007E031244ECD0D092AF22EF25E02422F8C8
:1050F000E6FC08E62409F58274023CF583E0FE1222
:105100003405FDEE2DFDEF75F003A4242BF582E4AC
:10511000348FF583EDF09000011285A8FDEE2DFD92
:10512000EF75F003A4242CF582E4348FF583EDF0C1
:105130009000021285A8FDEE2DFEEF75F003A42469
:105140002DF582E4348FF583EEF022D310AF01C346
:10515000C0D08B608A618962908F97EBF0A3EAF0F0
:10516000A3E9F0A3E563F0A3E564F0A3E565F0AF80
:10517000661566EF602A908F9AE0FBA3E475F00154
:10518000123485A9F0FA123405FF908F97E0FBA343
:10519000E475F001123485A9F0FAEF1285D580CFBD
:1051A000AB60AA61A962D0D092AF2275F004EFA4DF
:1051B0002DF582E435F0F583E5822406F582E5835A
:1051C000348FF583E0FEEBF4FCEE5CF075F004EF59
:1051D000A42DF582E435F0F583E5822406F582E519
:1051E00083348FF583E0FEEF25E02422F8E6FA0809
:1051F000E6FBED2BFDE43AFC74382DF58274013C9E
:10520000F583EEF02275F004EFA42DF582E435F07D
:10521000F583E5822417F582E583348FF583E0FE7C
:10522000EBF4FCEE5CF075F004EFA42DF582E435B0
:10523000F0F583E5822417F582E583348FF583E06A
:10524000FEEF25E02422F8E6FA08E6FBED2BFDE46C
:105250003AFC74502DF582E43CF583EEF0221234D2
:1052600005FEEFC43354E02EFE9000011285A854D1
:105270001FFD74292FF582E4348FF583EDF0742936
:105280002FF582E4348FF583E0700D74292FF582B9
:10529000E4348FF5837420F0EEC394405018EE642C
:1052A0002060139000021285A8FF74672EF582E437
:1052B000348CF583EFF02275F004EFA42DF582E431
:1052C00035F0F583E5822406F582E583348FF58396
:1052D000E04BF075F004EFA42DF582E435F0F58392
:1052E000E5822406F582E583348FF583E0FEEF2521
:1052F000E02422F8E6FA08E6FBED2BFDE43AFC7424
:10530000382DF58274013CF583EEF02275F004EF40
:10531000A42DF582E435F0F583E5822417F582E5C6
:1053200083348FF583E04BF075F004EFA42DF58204
:10533000E435F0F583E5822417F582E583348FF5B3
:1053400083E0FEEF25E02422F8E6FA08E6FBED2BE9
:10535000FDE43AFC74502DF582E43CF583EEF02236
:10536000D310AF01C3C0D0ED908EF170097408F076
:10537000A37440F080077408F0A37444F0CB543F4A
:10538000CB85585B85595CEBC454F0FEE55A540F4D
:105390004EF55DEBC4540FF55E908EF1E0FCA3E09A
:1053A000FD855C52855D53855E54AB5B128E3AD0B1
:1053B000D092AF228F268D27EF75F003A4242DF510
:1053C00082E4348FF583E0FD7B011282F2E52760F1
:1053D0001074212FF582E434FCF583E04410F08052
:1053E0000E74212FF582E434FCF583E054EFF0E5F0
:1053F0002625E02422F8E6FE08E6241FF582740440
:105400003EF5837401F022908F877408F0A37440F6
:10541000F0908F8F7408F0A37444F0908F89740813
:10542000F0A37424F0908F917408F0A3742CF09082
:105430008F8D7408F0A374B8F0908F957408F0A362
:1054400074BCF0908F8B7408F0A374A0F0908F93CD
:105450007408F0A374A4F022908EE9EFF025E02404
:1054600022F8E6FE08E62404F58274063EF583E0A1
:1054700054BFF0ED6011908EE9E0FF2467F8E6B4C8
:105480000105E4FD129394908EE9E0FF2478F58203
:10549000E4348FF583E054F0F074782FF582E4342F
:1054A0008FF583E0440CF022E4908F35F09000807B
:1054B000E020E1417F017E001244EC908EC4E06464
:1054C00001F0E07D882D9001C4F07A94EAA3F09079
:1054D0008EC4E02DFF74C42525F58274013524F5B2
:1054E00083EFF0EAFF74C52525F58274013524F5B4
:1054F00083EFF080B8228F4BEF25E02422F8E6FE00
:1055000008E62404F58274063EF583E04440F07416
:1055100067254BF8E6B401077D01AF4B12939474F5
:1055200078254BF582E4348FF583E054F0F07478FD
:10553000254BF582E4348FF583E04404F022E490B7
:105540008F35F0900018E054FEF07F107E0012447A
:10555000EC90001AE054FEF07F107E001244EC90B4
:105560000080E054FD908EC4F0E030E205E054FB92
:105570008006908EC4E04404900080F07F107E008E
:105580000244EC8F4B74782FF582E4348FF583E07E
:1055900054F0F07478254BF582E4348FF583E044C1
:1055A00001F0128EB31290637478254BF582E434C7
:1055B0008FF583E054F0F07478254BF582E4348F56
:1055C000F583E04402F0228F4C7B027D0312972585
:1055D0007469254CF8E660307481254CF582E4341A
:1055E0008FF583E060067B017D0C80177478254C75
:1055F000F582E4348FF583E0540FC3940450097BA3
:10560000017D04AF4C127E8D22C0E0C0F0C083C08B
:1056100082C0D075D000C000C001C002C003C00469
:10562000C005C006C007E4FF126F5A5391DFD007D0
:10563000D006D005D004D003D002D001D000D0D005
:10564000D082D083D0F0D0E032C0E0C0F0C083C0C0
:1056500082C0D075D000C000C001C002C003C00429
:10566000C005C006C0077F011250295391BFD00763
:10567000D006D005D004D003D002D001D000D0D0C5
:10568000D082D083D0F0D0E032C0E0C0F0C083C080
:1056900082C0D075D000C000C001C002C003C004E9
:1056A000C005C006C0077F01126F5A53917FD00713
:1056B000D006D005D004D003D002D001D000D0D085
:1056C000D082D083D0F0D0E032EF25E02422F8E67B
:1056D000FC08E6241BF58274043CF583E0547F64E7
:1056E0007F702274762FF582E4348FF583E0701595
:1056F000747E2FF582E4348FF583E0540FD3940445
:1057000050037F01227F0022C0E0C0F0C083C0822E
:10571000C0D075D000C000C001C002C003C004C02A
:1057200005C006C007E4FF125029D007D006D005F7
:10573000D004D003D002D001D000D0D0D082D0830A
:10574000D0F0D0E032EF25E025E02D2408F8E6FE89
:10575000EBF45EF6EF25E025E02D2408F8E6FEEFF9
:1057600025E02422F8E6FA08E6FBED2BFDE43AFCFE
:1057700074302DF58274013CF583EEF022EF25E0C4
:1057800025E02D2408F8E64BF6EF25E025E02D2452
:1057900008F8E6FEEF25E02422F8E6FA08E6FBED3D
:1057A0002BFDE43AFC74302DF58274013CF583EE58
:1057B000F022D310AF01C3C0D0908EEDE58EF0750E
:1057C0008E02EF25E02422F8E6FE08E62DFFEE3CEF
:1057D0008F82F583E0908EECF0A3E0F58E908EEC56
:1057E000E0FFD0D092AF22D310AF01C3C0D0900061
:1057F000011285A8547FFE74802FF582E43486F56B
:1058000083EEF01234055401FE74A92FF582E434BE
:105810008DF583EEF0D0D092AF2274832FF582E421
:10582000348FF583E4F074682FF582E4348FF583C8
:10583000E4F0747A2FF582E4348FF583E4F0748514
:105840002FF582E4348FF583E4F022D310AF01C347
:10585000C0D0AE07123405FF747E2EF582E4348F7B
:10586000F583EFF0AF06747E2EF582E4348FF58376
:10587000E0FD7B01127E8DD0D092AF228F4BEF7571
:10588000F003A4242CF582E4348FF583E0FDE4FBDF
:105890001282F2E54B25E02422F8E6FE08E6241FFA
:1058A000F58274043EF5837401F022D310AF01C376
:1058B000C0D0908EECE58EF0758E02EF25E02422AC
:1058C000F8E6FE08E62DFFEE3C8F82F583EBF090C4
:1058D0008EECE0F58ED0D092AF22D310AF01C3C0D2
:1058E000D09000011285A8FE74812FF582E4348FD8
:1058F000F583EEF0123405FE74692FF8E66E60034E
:10590000128993D0D092AF22AD07908FA7E054F0C8
:105910004403F0540F4480F0908EB0E4F0A3740080
:10592000F0A3741AF07B017A8F79A7027A7BD310E7
:10593000AF01C3C0D0AD07AC06ED1DAE0470011CB5
:105940004E60097FE87E031244EC80EDD0D092AF28
:1059500022EF25E02422F8E6FE08E62DFFEE3C8F3C
:1059600082F583A3A3A3E4F022900928EFF0A3F02B
:10597000A3F0A3F0A3F0A3F022908F9DEFF0A3EB90
:10598000F0A3EAF0A3E9F022908EE3EFF0A3ECF0AD
:10599000A3EDF022908EE6EFF0A3ECF0A3EDF02261
:1059A000908FA4EBF0A3EAF0A3E9F022123405FEF5
:1059B00074672FF8A60622418F6580418FAE0000E4
:0259C00037C3EB
:00000001FF
